{
	"contracts/Tags.sol": {
		"Tags": {
			"abi": [
				{
					"inputs": [
						{
							"internalType": "string",
							"name": "_name",
							"type": "string"
						}
					],
					"name": "add",
					"outputs": [],
					"stateMutability": "nonpayable",
					"type": "function"
				},
				{
					"inputs": [],
					"name": "count",
					"outputs": [
						{
							"internalType": "uint256",
							"name": "",
							"type": "uint256"
						}
					],
					"stateMutability": "view",
					"type": "function"
				},
				{
					"inputs": [
						{
							"internalType": "uint256",
							"name": "_index",
							"type": "uint256"
						}
					],
					"name": "get",
					"outputs": [
						{
							"components": [
								{
									"internalType": "uint256",
									"name": "id",
									"type": "uint256"
								},
								{
									"internalType": "string",
									"name": "name",
									"type": "string"
								}
							],
							"internalType": "struct Tag",
							"name": "",
							"type": "tuple"
						}
					],
					"stateMutability": "view",
					"type": "function"
				},
				{
					"inputs": [
						{
							"internalType": "uint256",
							"name": "_index",
							"type": "uint256"
						}
					],
					"name": "remove",
					"outputs": [],
					"stateMutability": "nonpayable",
					"type": "function"
				},
				{
					"inputs": [
						{
							"internalType": "uint256",
							"name": "_limit",
							"type": "uint256"
						},
						{
							"internalType": "uint256",
							"name": "_offset",
							"type": "uint256"
						}
					],
					"name": "some",
					"outputs": [
						{
							"components": [
								{
									"internalType": "uint256",
									"name": "id",
									"type": "uint256"
								},
								{
									"internalType": "string",
									"name": "name",
									"type": "string"
								}
							],
							"internalType": "struct Tag[]",
							"name": "",
							"type": "tuple[]"
						}
					],
					"stateMutability": "view",
					"type": "function"
				},
				{
					"inputs": [
						{
							"internalType": "uint256",
							"name": "_index",
							"type": "uint256"
						},
						{
							"internalType": "string",
							"name": "_name",
							"type": "string"
						}
					],
					"name": "update",
					"outputs": [],
					"stateMutability": "nonpayable",
					"type": "function"
				}
			],
			"devdoc": {
				"kind": "dev",
				"methods": {},
				"version": 1
			},
			"evm": {
				"assembly": "    /* \"contracts/Tags.sol\":199:1285  contract Tags is Ownerable, Countable {... */\n  mstore(0x40, 0x80)\n    /* \"contracts/core/interfaces/Countable.sol\":97:98  0 */\n  0x00\n    /* \"contracts/core/interfaces/Countable.sol\":83:98  uint _count = 0 */\n  0x01\n  sstore\n    /* \"contracts/Tags.sol\":199:1285  contract Tags is Ownerable, Countable {... */\n  callvalue\n  dup1\n  iszero\n  tag_1\n  jumpi\n  0x00\n  dup1\n  revert\ntag_1:\n  pop\n    /* \"contracts/core/interfaces/Ownerable.sol\":135:145  msg.sender */\n  caller\n    /* \"contracts/core/interfaces/Ownerable.sol\":127:132  owner */\n  0x00\n  dup1\n    /* \"contracts/core/interfaces/Ownerable.sol\":127:145  owner = msg.sender */\n  0x0100\n  exp\n  dup2\n  sload\n  dup2\n  0xffffffffffffffffffffffffffffffffffffffff\n  mul\n  not\n  and\n  swap1\n  dup4\n  0xffffffffffffffffffffffffffffffffffffffff\n  and\n  mul\n  or\n  swap1\n  sstore\n  pop\n    /* \"contracts/Tags.sol\":199:1285  contract Tags is Ownerable, Countable {... */\n  dataSize(sub_0)\n  dup1\n  dataOffset(sub_0)\n  0x00\n  codecopy\n  0x00\n  return\nstop\n\nsub_0: assembly {\n        /* \"contracts/Tags.sol\":199:1285  contract Tags is Ownerable, Countable {... */\n      mstore(0x40, 0x80)\n      callvalue\n      dup1\n      iszero\n      tag_1\n      jumpi\n      0x00\n      dup1\n      revert\n    tag_1:\n      pop\n      jumpi(tag_2, lt(calldatasize, 0x04))\n      shr(0xe0, calldataload(0x00))\n      dup1\n      0x06661abd\n      eq\n      tag_3\n      jumpi\n      dup1\n      0x4cc82215\n      eq\n      tag_4\n      jumpi\n      dup1\n      0x9507d39a\n      eq\n      tag_5\n      jumpi\n      dup1\n      0xb0c8f9dc\n      eq\n      tag_6\n      jumpi\n      dup1\n      0xcdb3deb6\n      eq\n      tag_7\n      jumpi\n      dup1\n      0xf745630f\n      eq\n      tag_8\n      jumpi\n    tag_2:\n      0x00\n      dup1\n      revert\n        /* \"contracts/core/interfaces/Countable.sol\":237:314  function count() public view returns (uint256) {... */\n    tag_3:\n      tag_9\n      tag_10\n      jump\t// in\n    tag_9:\n      mload(0x40)\n      tag_11\n      swap2\n      swap1\n      tag_12\n      jump\t// in\n    tag_11:\n      mload(0x40)\n      dup1\n      swap2\n      sub\n      swap1\n      return\n        /* \"contracts/Tags.sol\":1185:1283  function remove(uint _index) public {... */\n    tag_4:\n      tag_13\n      0x04\n      dup1\n      calldatasize\n      sub\n      dup2\n      add\n      swap1\n      tag_14\n      swap2\n      swap1\n      tag_15\n      jump\t// in\n    tag_14:\n      tag_16\n      jump\t// in\n    tag_13:\n      stop\n        /* \"contracts/Tags.sol\":423:552  function get(uint256 _index) public view returns (Tag memory) {... */\n    tag_5:\n      tag_17\n      0x04\n      dup1\n      calldatasize\n      sub\n      dup2\n      add\n      swap1\n      tag_18\n      swap2\n      swap1\n      tag_15\n      jump\t// in\n    tag_18:\n      tag_19\n      jump\t// in\n    tag_17:\n      mload(0x40)\n      tag_20\n      swap2\n      swap1\n      tag_21\n      jump\t// in\n    tag_20:\n      mload(0x40)\n      dup1\n      swap2\n      sub\n      swap1\n      return\n        /* \"contracts/Tags.sol\":278:417  function add(string calldata _name) public isOwner {... */\n    tag_6:\n      tag_22\n      0x04\n      dup1\n      calldatasize\n      sub\n      dup2\n      add\n      swap1\n      tag_23\n      swap2\n      swap1\n      tag_24\n      jump\t// in\n    tag_23:\n      tag_25\n      jump\t// in\n    tag_22:\n      stop\n        /* \"contracts/Tags.sol\":558:978  function some(uint256 _limit, uint256 _offset)... */\n    tag_7:\n      tag_26\n      0x04\n      dup1\n      calldatasize\n      sub\n      dup2\n      add\n      swap1\n      tag_27\n      swap2\n      swap1\n      tag_28\n      jump\t// in\n    tag_27:\n      tag_29\n      jump\t// in\n    tag_26:\n      mload(0x40)\n      tag_30\n      swap2\n      swap1\n      tag_31\n      jump\t// in\n    tag_30:\n      mload(0x40)\n      dup1\n      swap2\n      sub\n      swap1\n      return\n        /* \"contracts/Tags.sol\":984:1179  function update(uint _index, string calldata _name) public {... */\n    tag_8:\n      tag_32\n      0x04\n      dup1\n      calldatasize\n      sub\n      dup2\n      add\n      swap1\n      tag_33\n      swap2\n      swap1\n      tag_34\n      jump\t// in\n    tag_33:\n      tag_35\n      jump\t// in\n    tag_32:\n      stop\n        /* \"contracts/core/interfaces/Countable.sol\":237:314  function count() public view returns (uint256) {... */\n    tag_10:\n        /* \"contracts/core/interfaces/Countable.sol\":275:282  uint256 */\n      0x00\n        /* \"contracts/core/interfaces/Countable.sol\":301:307  _count */\n      sload(0x01)\n        /* \"contracts/core/interfaces/Countable.sol\":294:307  return _count */\n      swap1\n      pop\n        /* \"contracts/core/interfaces/Countable.sol\":237:314  function count() public view returns (uint256) {... */\n      swap1\n      jump\t// out\n        /* \"contracts/Tags.sol\":1185:1283  function remove(uint _index) public {... */\n    tag_16:\n        /* \"contracts/Tags.sol\":1238:1242  tags */\n      0x02\n        /* \"contracts/Tags.sol\":1238:1250  tags[_index] */\n      0x00\n        /* \"contracts/Tags.sol\":1243:1249  _index */\n      dup3\n        /* \"contracts/Tags.sol\":1238:1250  tags[_index] */\n      dup2\n      mstore\n      0x20\n      add\n      swap1\n      dup2\n      mstore\n      0x20\n      add\n      0x00\n      keccak256\n      0x00\n        /* \"contracts/Tags.sol\":1231:1250  delete tags[_index] */\n      dup1\n      dup3\n      add\n      0x00\n      swap1\n      sstore\n      0x01\n      dup3\n      add\n      0x00\n      tag_38\n      swap2\n      swap1\n      tag_39\n      jump\t// in\n    tag_38:\n      pop\n      pop\n        /* \"contracts/Tags.sol\":1260:1276  decrementCount() */\n      tag_40\n        /* \"contracts/Tags.sol\":1260:1274  decrementCount */\n      tag_41\n        /* \"contracts/Tags.sol\":1260:1276  decrementCount() */\n      jump\t// in\n    tag_40:\n        /* \"contracts/Tags.sol\":1185:1283  function remove(uint _index) public {... */\n      pop\n      jump\t// out\n        /* \"contracts/Tags.sol\":423:552  function get(uint256 _index) public view returns (Tag memory) {... */\n    tag_19:\n        /* \"contracts/Tags.sol\":473:483  Tag memory */\n      tag_42\n      tag_43\n      jump\t// in\n    tag_42:\n        /* \"contracts/Tags.sol\":495:510  Tag storage tag */\n      0x00\n        /* \"contracts/Tags.sol\":513:517  tags */\n      0x02\n        /* \"contracts/Tags.sol\":513:525  tags[_index] */\n      0x00\n        /* \"contracts/Tags.sol\":518:524  _index */\n      dup5\n        /* \"contracts/Tags.sol\":513:525  tags[_index] */\n      dup2\n      mstore\n      0x20\n      add\n      swap1\n      dup2\n      mstore\n      0x20\n      add\n      0x00\n      keccak256\n        /* \"contracts/Tags.sol\":495:525  Tag storage tag = tags[_index] */\n      swap1\n      pop\n        /* \"contracts/Tags.sol\":542:545  tag */\n      dup1\n        /* \"contracts/Tags.sol\":535:545  return tag */\n      mload(0x40)\n      dup1\n      0x40\n      add\n      0x40\n      mstore\n      swap1\n      dup2\n      0x00\n      dup3\n      add\n      sload\n      dup2\n      mstore\n      0x20\n      add\n      0x01\n      dup3\n      add\n      dup1\n      sload\n      tag_45\n      swap1\n      tag_46\n      jump\t// in\n    tag_45:\n      dup1\n      0x1f\n      add\n      0x20\n      dup1\n      swap2\n      div\n      mul\n      0x20\n      add\n      mload(0x40)\n      swap1\n      dup2\n      add\n      0x40\n      mstore\n      dup1\n      swap3\n      swap2\n      swap1\n      dup2\n      dup2\n      mstore\n      0x20\n      add\n      dup3\n      dup1\n      sload\n      tag_47\n      swap1\n      tag_46\n      jump\t// in\n    tag_47:\n      dup1\n      iszero\n      tag_48\n      jumpi\n      dup1\n      0x1f\n      lt\n      tag_49\n      jumpi\n      0x0100\n      dup1\n      dup4\n      sload\n      div\n      mul\n      dup4\n      mstore\n      swap2\n      0x20\n      add\n      swap2\n      jump(tag_48)\n    tag_49:\n      dup3\n      add\n      swap2\n      swap1\n      0x00\n      mstore\n      keccak256(0x00, 0x20)\n      swap1\n    tag_50:\n      dup2\n      sload\n      dup2\n      mstore\n      swap1\n      0x01\n      add\n      swap1\n      0x20\n      add\n      dup1\n      dup4\n      gt\n      tag_50\n      jumpi\n      dup3\n      swap1\n      sub\n      0x1f\n      and\n      dup3\n      add\n      swap2\n    tag_48:\n      pop\n      pop\n      pop\n      pop\n      pop\n      dup2\n      mstore\n      pop\n      pop\n      swap2\n      pop\n      pop\n        /* \"contracts/Tags.sol\":423:552  function get(uint256 _index) public view returns (Tag memory) {... */\n      swap2\n      swap1\n      pop\n      jump\t// out\n        /* \"contracts/Tags.sol\":278:417  function add(string calldata _name) public isOwner {... */\n    tag_25:\n        /* \"contracts/core/interfaces/Ownerable.sol\":202:212  msg.sender */\n      caller\n        /* \"contracts/core/interfaces/Ownerable.sol\":193:212  owner == msg.sender */\n      0xffffffffffffffffffffffffffffffffffffffff\n      and\n        /* \"contracts/core/interfaces/Ownerable.sol\":193:198  owner */\n      0x00\n      dup1\n      sload\n      swap1\n      0x0100\n      exp\n      swap1\n      div\n      0xffffffffffffffffffffffffffffffffffffffff\n      and\n        /* \"contracts/core/interfaces/Ownerable.sol\":193:212  owner == msg.sender */\n      0xffffffffffffffffffffffffffffffffffffffff\n      and\n      eq\n        /* \"contracts/core/interfaces/Ownerable.sol\":185:262  require(owner == msg.sender, \"Only authorized personel can add new entries.\") */\n      tag_52\n      jumpi\n      mload(0x40)\n      0x08c379a000000000000000000000000000000000000000000000000000000000\n      dup2\n      mstore\n      0x04\n      add\n      tag_53\n      swap1\n      tag_54\n      jump\t// in\n    tag_53:\n      mload(0x40)\n      dup1\n      swap2\n      sub\n      swap1\n      revert\n    tag_52:\n        /* \"contracts/Tags.sol\":339:355  incrementCount() */\n      tag_56\n        /* \"contracts/Tags.sol\":339:353  incrementCount */\n      tag_57\n        /* \"contracts/Tags.sol\":339:355  incrementCount() */\n      jump\t// in\n    tag_56:\n        /* \"contracts/Tags.sol\":380:410  Tag({id: _count, name: _name}) */\n      mload(0x40)\n      dup1\n      0x40\n      add\n      0x40\n      mstore\n      dup1\n        /* \"contracts/Tags.sol\":389:395  _count */\n      sload(0x01)\n        /* \"contracts/Tags.sol\":380:410  Tag({id: _count, name: _name}) */\n      dup2\n      mstore\n      0x20\n      add\n        /* \"contracts/Tags.sol\":403:408  _name */\n      dup4\n      dup4\n        /* \"contracts/Tags.sol\":380:410  Tag({id: _count, name: _name}) */\n      dup1\n      dup1\n      0x1f\n      add\n      0x20\n      dup1\n      swap2\n      div\n      mul\n      0x20\n      add\n      mload(0x40)\n      swap1\n      dup2\n      add\n      0x40\n      mstore\n      dup1\n      swap4\n      swap3\n      swap2\n      swap1\n      dup2\n      dup2\n      mstore\n      0x20\n      add\n      dup4\n      dup4\n      dup1\n      dup3\n      dup5\n      calldatacopy\n      0x00\n      dup2\n      dup5\n      add\n      mstore\n      not(0x1f)\n      0x1f\n      dup3\n      add\n      and\n      swap1\n      pop\n      dup1\n      dup4\n      add\n      swap3\n      pop\n      pop\n      pop\n      pop\n      pop\n      pop\n      pop\n      dup2\n      mstore\n      pop\n        /* \"contracts/Tags.sol\":365:369  tags */\n      0x02\n        /* \"contracts/Tags.sol\":365:377  tags[_count] */\n      0x00\n        /* \"contracts/Tags.sol\":370:376  _count */\n      sload(0x01)\n        /* \"contracts/Tags.sol\":365:377  tags[_count] */\n      dup2\n      mstore\n      0x20\n      add\n      swap1\n      dup2\n      mstore\n      0x20\n      add\n      0x00\n      keccak256\n        /* \"contracts/Tags.sol\":365:410  tags[_count] = Tag({id: _count, name: _name}) */\n      0x00\n      dup3\n      add\n      mload\n      dup2\n      0x00\n      add\n      sstore\n      0x20\n      dup3\n      add\n      mload\n      dup2\n      0x01\n      add\n      swap1\n      dup2\n      tag_58\n      swap2\n      swap1\n      tag_59\n      jump\t// in\n    tag_58:\n      pop\n      swap1\n      pop\n      pop\n        /* \"contracts/Tags.sol\":278:417  function add(string calldata _name) public isOwner {... */\n      pop\n      pop\n      jump\t// out\n        /* \"contracts/Tags.sol\":558:978  function some(uint256 _limit, uint256 _offset)... */\n    tag_29:\n        /* \"contracts/Tags.sol\":650:662  Tag[] memory */\n      0x60\n        /* \"contracts/Tags.sol\":697:703  _count */\n      sload(0x01)\n        /* \"contracts/Tags.sol\":687:693  _limit */\n      dup4\n        /* \"contracts/Tags.sol\":687:703  _limit >= _count */\n      lt\n      iszero\n        /* \"contracts/Tags.sol\":687:721  _limit >= _count ? _count : _limit */\n      tag_61\n      jumpi\n        /* \"contracts/Tags.sol\":715:721  _limit */\n      dup3\n        /* \"contracts/Tags.sol\":687:721  _limit >= _count ? _count : _limit */\n      jump(tag_62)\n    tag_61:\n        /* \"contracts/Tags.sol\":706:712  _count */\n      sload(0x01)\n        /* \"contracts/Tags.sol\":687:721  _limit >= _count ? _count : _limit */\n    tag_62:\n        /* \"contracts/Tags.sol\":678:721  _limit = _limit >= _count ? _count : _limit */\n      swap3\n      pop\n        /* \"contracts/Tags.sol\":752:753  0 */\n      0x00\n        /* \"contracts/Tags.sol\":741:748  _offset */\n      dup3\n        /* \"contracts/Tags.sol\":741:753  _offset <= 0 */\n      gt\n      iszero\n        /* \"contracts/Tags.sol\":741:795  _offset <= 0 ? 1 : _offset > _count ? _count : _offset */\n      tag_63\n      jumpi\n        /* \"contracts/Tags.sol\":770:776  _count */\n      sload(0x01)\n        /* \"contracts/Tags.sol\":760:767  _offset */\n      dup3\n        /* \"contracts/Tags.sol\":760:776  _offset > _count */\n      gt\n        /* \"contracts/Tags.sol\":760:795  _offset > _count ? _count : _offset */\n      tag_64\n      jumpi\n        /* \"contracts/Tags.sol\":788:795  _offset */\n      dup2\n        /* \"contracts/Tags.sol\":760:795  _offset > _count ? _count : _offset */\n      jump(tag_65)\n    tag_64:\n        /* \"contracts/Tags.sol\":779:785  _count */\n      sload(0x01)\n        /* \"contracts/Tags.sol\":760:795  _offset > _count ? _count : _offset */\n    tag_65:\n        /* \"contracts/Tags.sol\":741:795  _offset <= 0 ? 1 : _offset > _count ? _count : _offset */\n      jump(tag_66)\n    tag_63:\n        /* \"contracts/Tags.sol\":756:757  1 */\n      0x01\n        /* \"contracts/Tags.sol\":741:795  _offset <= 0 ? 1 : _offset > _count ? _count : _offset */\n    tag_66:\n        /* \"contracts/Tags.sol\":731:795  _offset = _offset <= 0 ? 1 : _offset > _count ? _count : _offset */\n      swap2\n      pop\n        /* \"contracts/Tags.sol\":814:832  Tag[] memory _tags */\n      0x00\n        /* \"contracts/Tags.sol\":845:851  _limit */\n      dup4\n        /* \"contracts/Tags.sol\":835:852  new Tag[](_limit) */\n      0xffffffffffffffff\n      dup2\n      gt\n      iszero\n      tag_67\n      jumpi\n      tag_68\n      tag_69\n      jump\t// in\n    tag_68:\n    tag_67:\n      mload(0x40)\n      swap1\n      dup1\n      dup3\n      mstore\n      dup1\n      0x20\n      mul\n      0x20\n      add\n      dup3\n      add\n      0x40\n      mstore\n      dup1\n      iszero\n      tag_70\n      jumpi\n      dup2\n      0x20\n      add\n    tag_71:\n      tag_72\n      tag_43\n      jump\t// in\n    tag_72:\n      dup2\n      mstore\n      0x20\n      add\n      swap1\n      0x01\n      swap1\n      sub\n      swap1\n      dup2\n      tag_71\n      jumpi\n      swap1\n      pop\n    tag_70:\n      pop\n        /* \"contracts/Tags.sol\":814:852  Tag[] memory _tags = new Tag[](_limit) */\n      swap1\n      pop\n        /* \"contracts/Tags.sol\":868:877  uint256 i */\n      0x00\n        /* \"contracts/Tags.sol\":863:949  for (uint256 i; i < _limit; i++) {... */\n    tag_73:\n        /* \"contracts/Tags.sol\":883:889  _limit */\n      dup5\n        /* \"contracts/Tags.sol\":879:880  i */\n      dup2\n        /* \"contracts/Tags.sol\":879:889  i < _limit */\n      lt\n        /* \"contracts/Tags.sol\":863:949  for (uint256 i; i < _limit; i++) {... */\n      iszero\n      tag_74\n      jumpi\n        /* \"contracts/Tags.sol\":921:925  tags */\n      0x02\n        /* \"contracts/Tags.sol\":921:938  tags[i + _offset] */\n      0x00\n        /* \"contracts/Tags.sol\":930:937  _offset */\n      dup6\n        /* \"contracts/Tags.sol\":926:927  i */\n      dup4\n        /* \"contracts/Tags.sol\":926:937  i + _offset */\n      tag_76\n      swap2\n      swap1\n      tag_77\n      jump\t// in\n    tag_76:\n        /* \"contracts/Tags.sol\":921:938  tags[i + _offset] */\n      dup2\n      mstore\n      0x20\n      add\n      swap1\n      dup2\n      mstore\n      0x20\n      add\n      0x00\n      keccak256\n        /* \"contracts/Tags.sol\":910:938  _tags[i] = tags[i + _offset] */\n      mload(0x40)\n      dup1\n      0x40\n      add\n      0x40\n      mstore\n      swap1\n      dup2\n      0x00\n      dup3\n      add\n      sload\n      dup2\n      mstore\n      0x20\n      add\n      0x01\n      dup3\n      add\n      dup1\n      sload\n      tag_78\n      swap1\n      tag_46\n      jump\t// in\n    tag_78:\n      dup1\n      0x1f\n      add\n      0x20\n      dup1\n      swap2\n      div\n      mul\n      0x20\n      add\n      mload(0x40)\n      swap1\n      dup2\n      add\n      0x40\n      mstore\n      dup1\n      swap3\n      swap2\n      swap1\n      dup2\n      dup2\n      mstore\n      0x20\n      add\n      dup3\n      dup1\n      sload\n      tag_79\n      swap1\n      tag_46\n      jump\t// in\n    tag_79:\n      dup1\n      iszero\n      tag_80\n      jumpi\n      dup1\n      0x1f\n      lt\n      tag_81\n      jumpi\n      0x0100\n      dup1\n      dup4\n      sload\n      div\n      mul\n      dup4\n      mstore\n      swap2\n      0x20\n      add\n      swap2\n      jump(tag_80)\n    tag_81:\n      dup3\n      add\n      swap2\n      swap1\n      0x00\n      mstore\n      keccak256(0x00, 0x20)\n      swap1\n    tag_82:\n      dup2\n      sload\n      dup2\n      mstore\n      swap1\n      0x01\n      add\n      swap1\n      0x20\n      add\n      dup1\n      dup4\n      gt\n      tag_82\n      jumpi\n      dup3\n      swap1\n      sub\n      0x1f\n      and\n      dup3\n      add\n      swap2\n    tag_80:\n      pop\n      pop\n      pop\n      pop\n      pop\n      dup2\n      mstore\n      pop\n      pop\n        /* \"contracts/Tags.sol\":910:915  _tags */\n      dup3\n        /* \"contracts/Tags.sol\":916:917  i */\n      dup3\n        /* \"contracts/Tags.sol\":910:918  _tags[i] */\n      dup2\n      mload\n      dup2\n      lt\n      tag_83\n      jumpi\n      tag_84\n      tag_85\n      jump\t// in\n    tag_84:\n    tag_83:\n      0x20\n      mul\n      0x20\n      add\n      add\n        /* \"contracts/Tags.sol\":910:938  _tags[i] = tags[i + _offset] */\n      dup2\n      swap1\n      mstore\n      pop\n        /* \"contracts/Tags.sol\":891:894  i++ */\n      dup1\n      dup1\n      0x01\n      add\n      swap2\n      pop\n      pop\n        /* \"contracts/Tags.sol\":863:949  for (uint256 i; i < _limit; i++) {... */\n      jump(tag_73)\n    tag_74:\n      pop\n        /* \"contracts/Tags.sol\":966:971  _tags */\n      dup1\n        /* \"contracts/Tags.sol\":959:971  return _tags */\n      swap2\n      pop\n      pop\n        /* \"contracts/Tags.sol\":558:978  function some(uint256 _limit, uint256 _offset)... */\n      swap3\n      swap2\n      pop\n      pop\n      jump\t// out\n        /* \"contracts/Tags.sol\":984:1179  function update(uint _index, string calldata _name) public {... */\n    tag_35:\n        /* \"contracts/Tags.sol\":1071:1077  _count */\n      sload(0x01)\n        /* \"contracts/Tags.sol\":1061:1067  _index */\n      dup4\n        /* \"contracts/Tags.sol\":1061:1077  _index >= _count */\n      lt\n      iszero\n        /* \"contracts/Tags.sol\":1061:1097  _index >= _count || _index <= _count */\n      dup1\n      tag_87\n      jumpi\n      pop\n        /* \"contracts/Tags.sol\":1091:1097  _count */\n      sload(0x01)\n        /* \"contracts/Tags.sol\":1081:1087  _index */\n      dup4\n        /* \"contracts/Tags.sol\":1081:1097  _index <= _count */\n      gt\n      iszero\n        /* \"contracts/Tags.sol\":1061:1097  _index >= _count || _index <= _count */\n    tag_87:\n        /* \"contracts/Tags.sol\":1053:1137  require(_index >= _count || _index <= _count, \"No item with the given index found.\") */\n      tag_88\n      jumpi\n      mload(0x40)\n      0x08c379a000000000000000000000000000000000000000000000000000000000\n      dup2\n      mstore\n      0x04\n      add\n      tag_89\n      swap1\n      tag_90\n      jump\t// in\n    tag_89:\n      mload(0x40)\n      dup1\n      swap2\n      sub\n      swap1\n      revert\n    tag_88:\n        /* \"contracts/Tags.sol\":1167:1172  _name */\n      dup2\n      dup2\n        /* \"contracts/Tags.sol\":1147:1151  tags */\n      0x02\n        /* \"contracts/Tags.sol\":1147:1159  tags[_index] */\n      0x00\n        /* \"contracts/Tags.sol\":1152:1158  _index */\n      dup7\n        /* \"contracts/Tags.sol\":1147:1159  tags[_index] */\n      dup2\n      mstore\n      0x20\n      add\n      swap1\n      dup2\n      mstore\n      0x20\n      add\n      0x00\n      keccak256\n        /* \"contracts/Tags.sol\":1147:1164  tags[_index].name */\n      0x01\n      add\n        /* \"contracts/Tags.sol\":1147:1172  tags[_index].name = _name */\n      swap2\n      dup3\n      tag_91\n      swap3\n      swap2\n      swap1\n      tag_92\n      jump\t// in\n    tag_91:\n      pop\n        /* \"contracts/Tags.sol\":984:1179  function update(uint _index, string calldata _name) public {... */\n      pop\n      pop\n      pop\n      jump\t// out\n        /* \"contracts/core/interfaces/Countable.sol\":171:231  function decrementCount() internal {... */\n    tag_41:\n        /* \"contracts/core/interfaces/Countable.sol\":216:222  _count */\n      0x01\n      0x00\n        /* \"contracts/core/interfaces/Countable.sol\":216:224  _count-- */\n      dup2\n      sload\n      dup1\n      swap3\n      swap2\n      swap1\n      tag_94\n      swap1\n      tag_95\n      jump\t// in\n    tag_94:\n      swap2\n      swap1\n      pop\n      sstore\n      pop\n        /* \"contracts/core/interfaces/Countable.sol\":171:231  function decrementCount() internal {... */\n      jump\t// out\n        /* \"contracts/core/interfaces/Countable.sol\":105:165  function incrementCount() internal {... */\n    tag_57:\n        /* \"contracts/core/interfaces/Countable.sol\":150:156  _count */\n      0x01\n      0x00\n        /* \"contracts/core/interfaces/Countable.sol\":150:158  _count++ */\n      dup2\n      sload\n      dup1\n      swap3\n      swap2\n      swap1\n      tag_97\n      swap1\n      tag_98\n      jump\t// in\n    tag_97:\n      swap2\n      swap1\n      pop\n      sstore\n      pop\n        /* \"contracts/core/interfaces/Countable.sol\":105:165  function incrementCount() internal {... */\n      jump\t// out\n    tag_39:\n      pop\n      dup1\n      sload\n      tag_99\n      swap1\n      tag_46\n      jump\t// in\n    tag_99:\n      0x00\n      dup3\n      sstore\n      dup1\n      0x1f\n      lt\n      tag_101\n      jumpi\n      pop\n      jump(tag_100)\n    tag_101:\n      0x1f\n      add\n      0x20\n      swap1\n      div\n      swap1\n      0x00\n      mstore\n      keccak256(0x00, 0x20)\n      swap1\n      dup2\n      add\n      swap1\n      tag_102\n      swap2\n      swap1\n      tag_103\n      jump\t// in\n    tag_102:\n    tag_100:\n      pop\n      jump\t// out\n    tag_43:\n      mload(0x40)\n      dup1\n      0x40\n      add\n      0x40\n      mstore\n      dup1\n      0x00\n      dup2\n      mstore\n      0x20\n      add\n      0x60\n      dup2\n      mstore\n      pop\n      swap1\n      jump\t// out\n    tag_103:\n    tag_104:\n      dup1\n      dup3\n      gt\n      iszero\n      tag_105\n      jumpi\n      0x00\n      dup2\n      0x00\n      swap1\n      sstore\n      pop\n      0x01\n      add\n      jump(tag_104)\n    tag_105:\n      pop\n      swap1\n      jump\t// out\n        /* \"#utility.yul\":7:84   */\n    tag_106:\n        /* \"#utility.yul\":44:51   */\n      0x00\n        /* \"#utility.yul\":73:78   */\n      dup2\n        /* \"#utility.yul\":62:78   */\n      swap1\n      pop\n        /* \"#utility.yul\":7:84   */\n      swap2\n      swap1\n      pop\n      jump\t// out\n        /* \"#utility.yul\":90:208   */\n    tag_107:\n        /* \"#utility.yul\":177:201   */\n      tag_157\n        /* \"#utility.yul\":195:200   */\n      dup2\n        /* \"#utility.yul\":177:201   */\n      tag_106\n      jump\t// in\n    tag_157:\n        /* \"#utility.yul\":172:175   */\n      dup3\n        /* \"#utility.yul\":165:202   */\n      mstore\n        /* \"#utility.yul\":90:208   */\n      pop\n      pop\n      jump\t// out\n        /* \"#utility.yul\":214:436   */\n    tag_12:\n        /* \"#utility.yul\":307:311   */\n      0x00\n        /* \"#utility.yul\":345:347   */\n      0x20\n        /* \"#utility.yul\":334:343   */\n      dup3\n        /* \"#utility.yul\":330:348   */\n      add\n        /* \"#utility.yul\":322:348   */\n      swap1\n      pop\n        /* \"#utility.yul\":358:429   */\n      tag_159\n        /* \"#utility.yul\":426:427   */\n      0x00\n        /* \"#utility.yul\":415:424   */\n      dup4\n        /* \"#utility.yul\":411:428   */\n      add\n        /* \"#utility.yul\":402:408   */\n      dup5\n        /* \"#utility.yul\":358:429   */\n      tag_107\n      jump\t// in\n    tag_159:\n        /* \"#utility.yul\":214:436   */\n      swap3\n      swap2\n      pop\n      pop\n      jump\t// out\n        /* \"#utility.yul\":523:640   */\n    tag_109:\n        /* \"#utility.yul\":632:633   */\n      0x00\n        /* \"#utility.yul\":629:630   */\n      dup1\n        /* \"#utility.yul\":622:634   */\n      revert\n        /* \"#utility.yul\":646:763   */\n    tag_110:\n        /* \"#utility.yul\":755:756   */\n      0x00\n        /* \"#utility.yul\":752:753   */\n      dup1\n        /* \"#utility.yul\":745:757   */\n      revert\n        /* \"#utility.yul\":769:891   */\n    tag_111:\n        /* \"#utility.yul\":842:866   */\n      tag_164\n        /* \"#utility.yul\":860:865   */\n      dup2\n        /* \"#utility.yul\":842:866   */\n      tag_106\n      jump\t// in\n    tag_164:\n        /* \"#utility.yul\":835:840   */\n      dup2\n        /* \"#utility.yul\":832:867   */\n      eq\n        /* \"#utility.yul\":822:885   */\n      tag_165\n      jumpi\n        /* \"#utility.yul\":881:882   */\n      0x00\n        /* \"#utility.yul\":878:879   */\n      dup1\n        /* \"#utility.yul\":871:883   */\n      revert\n        /* \"#utility.yul\":822:885   */\n    tag_165:\n        /* \"#utility.yul\":769:891   */\n      pop\n      jump\t// out\n        /* \"#utility.yul\":897:1036   */\n    tag_112:\n        /* \"#utility.yul\":943:948   */\n      0x00\n        /* \"#utility.yul\":981:987   */\n      dup2\n        /* \"#utility.yul\":968:988   */\n      calldataload\n        /* \"#utility.yul\":959:988   */\n      swap1\n      pop\n        /* \"#utility.yul\":997:1030   */\n      tag_167\n        /* \"#utility.yul\":1024:1029   */\n      dup2\n        /* \"#utility.yul\":997:1030   */\n      tag_111\n      jump\t// in\n    tag_167:\n        /* \"#utility.yul\":897:1036   */\n      swap3\n      swap2\n      pop\n      pop\n      jump\t// out\n        /* \"#utility.yul\":1042:1371   */\n    tag_15:\n        /* \"#utility.yul\":1101:1107   */\n      0x00\n        /* \"#utility.yul\":1150:1152   */\n      0x20\n        /* \"#utility.yul\":1138:1147   */\n      dup3\n        /* \"#utility.yul\":1129:1136   */\n      dup5\n        /* \"#utility.yul\":1125:1148   */\n      sub\n        /* \"#utility.yul\":1121:1153   */\n      slt\n        /* \"#utility.yul\":1118:1237   */\n      iszero\n      tag_169\n      jumpi\n        /* \"#utility.yul\":1156:1235   */\n      tag_170\n      tag_109\n      jump\t// in\n    tag_170:\n        /* \"#utility.yul\":1118:1237   */\n    tag_169:\n        /* \"#utility.yul\":1276:1277   */\n      0x00\n        /* \"#utility.yul\":1301:1354   */\n      tag_171\n        /* \"#utility.yul\":1346:1353   */\n      dup5\n        /* \"#utility.yul\":1337:1343   */\n      dup3\n        /* \"#utility.yul\":1326:1335   */\n      dup6\n        /* \"#utility.yul\":1322:1344   */\n      add\n        /* \"#utility.yul\":1301:1354   */\n      tag_112\n      jump\t// in\n    tag_171:\n        /* \"#utility.yul\":1291:1354   */\n      swap2\n      pop\n        /* \"#utility.yul\":1247:1364   */\n      pop\n        /* \"#utility.yul\":1042:1371   */\n      swap3\n      swap2\n      pop\n      pop\n      jump\t// out\n        /* \"#utility.yul\":1377:1485   */\n    tag_113:\n        /* \"#utility.yul\":1454:1478   */\n      tag_173\n        /* \"#utility.yul\":1472:1477   */\n      dup2\n        /* \"#utility.yul\":1454:1478   */\n      tag_106\n      jump\t// in\n    tag_173:\n        /* \"#utility.yul\":1449:1452   */\n      dup3\n        /* \"#utility.yul\":1442:1479   */\n      mstore\n        /* \"#utility.yul\":1377:1485   */\n      pop\n      pop\n      jump\t// out\n        /* \"#utility.yul\":1491:1590   */\n    tag_114:\n        /* \"#utility.yul\":1543:1549   */\n      0x00\n        /* \"#utility.yul\":1577:1582   */\n      dup2\n        /* \"#utility.yul\":1571:1583   */\n      mload\n        /* \"#utility.yul\":1561:1583   */\n      swap1\n      pop\n        /* \"#utility.yul\":1491:1590   */\n      swap2\n      swap1\n      pop\n      jump\t// out\n        /* \"#utility.yul\":1596:1755   */\n    tag_115:\n        /* \"#utility.yul\":1670:1681   */\n      0x00\n        /* \"#utility.yul\":1704:1710   */\n      dup3\n        /* \"#utility.yul\":1699:1702   */\n      dup3\n        /* \"#utility.yul\":1692:1711   */\n      mstore\n        /* \"#utility.yul\":1744:1748   */\n      0x20\n        /* \"#utility.yul\":1739:1742   */\n      dup3\n        /* \"#utility.yul\":1735:1749   */\n      add\n        /* \"#utility.yul\":1720:1749   */\n      swap1\n      pop\n        /* \"#utility.yul\":1596:1755   */\n      swap3\n      swap2\n      pop\n      pop\n      jump\t// out\n        /* \"#utility.yul\":1761:1900   */\n    tag_116:\n        /* \"#utility.yul\":1850:1856   */\n      dup3\n        /* \"#utility.yul\":1845:1848   */\n      dup2\n        /* \"#utility.yul\":1840:1843   */\n      dup4\n        /* \"#utility.yul\":1834:1857   */\n      mcopy\n        /* \"#utility.yul\":1891:1892   */\n      0x00\n        /* \"#utility.yul\":1882:1888   */\n      dup4\n        /* \"#utility.yul\":1877:1880   */\n      dup4\n        /* \"#utility.yul\":1873:1889   */\n      add\n        /* \"#utility.yul\":1866:1893   */\n      mstore\n        /* \"#utility.yul\":1761:1900   */\n      pop\n      pop\n      pop\n      jump\t// out\n        /* \"#utility.yul\":1906:2008   */\n    tag_117:\n        /* \"#utility.yul\":1947:1953   */\n      0x00\n        /* \"#utility.yul\":1998:2000   */\n      0x1f\n        /* \"#utility.yul\":1994:2001   */\n      not\n        /* \"#utility.yul\":1989:1991   */\n      0x1f\n        /* \"#utility.yul\":1982:1987   */\n      dup4\n        /* \"#utility.yul\":1978:1992   */\n      add\n        /* \"#utility.yul\":1974:2002   */\n      and\n        /* \"#utility.yul\":1964:2002   */\n      swap1\n      pop\n        /* \"#utility.yul\":1906:2008   */\n      swap2\n      swap1\n      pop\n      jump\t// out\n        /* \"#utility.yul\":2014:2371   */\n    tag_118:\n        /* \"#utility.yul\":2092:2095   */\n      0x00\n        /* \"#utility.yul\":2120:2159   */\n      tag_179\n        /* \"#utility.yul\":2153:2158   */\n      dup3\n        /* \"#utility.yul\":2120:2159   */\n      tag_114\n      jump\t// in\n    tag_179:\n        /* \"#utility.yul\":2175:2236   */\n      tag_180\n        /* \"#utility.yul\":2229:2235   */\n      dup2\n        /* \"#utility.yul\":2224:2227   */\n      dup6\n        /* \"#utility.yul\":2175:2236   */\n      tag_115\n      jump\t// in\n    tag_180:\n        /* \"#utility.yul\":2168:2236   */\n      swap4\n      pop\n        /* \"#utility.yul\":2245:2310   */\n      tag_181\n        /* \"#utility.yul\":2303:2309   */\n      dup2\n        /* \"#utility.yul\":2298:2301   */\n      dup6\n        /* \"#utility.yul\":2291:2295   */\n      0x20\n        /* \"#utility.yul\":2284:2289   */\n      dup7\n        /* \"#utility.yul\":2280:2296   */\n      add\n        /* \"#utility.yul\":2245:2310   */\n      tag_116\n      jump\t// in\n    tag_181:\n        /* \"#utility.yul\":2335:2364   */\n      tag_182\n        /* \"#utility.yul\":2357:2363   */\n      dup2\n        /* \"#utility.yul\":2335:2364   */\n      tag_117\n      jump\t// in\n    tag_182:\n        /* \"#utility.yul\":2330:2333   */\n      dup5\n        /* \"#utility.yul\":2326:2365   */\n      add\n        /* \"#utility.yul\":2319:2365   */\n      swap2\n      pop\n        /* \"#utility.yul\":2096:2371   */\n      pop\n        /* \"#utility.yul\":2014:2371   */\n      swap3\n      swap2\n      pop\n      pop\n      jump\t// out\n        /* \"#utility.yul\":2409:3003   */\n    tag_119:\n        /* \"#utility.yul\":2518:2521   */\n      0x00\n        /* \"#utility.yul\":2554:2558   */\n      0x40\n        /* \"#utility.yul\":2549:2552   */\n      dup4\n        /* \"#utility.yul\":2545:2559   */\n      add\n        /* \"#utility.yul\":2639:2643   */\n      0x00\n        /* \"#utility.yul\":2632:2637   */\n      dup4\n        /* \"#utility.yul\":2628:2644   */\n      add\n        /* \"#utility.yul\":2622:2645   */\n      mload\n        /* \"#utility.yul\":2658:2721   */\n      tag_184\n        /* \"#utility.yul\":2715:2719   */\n      0x00\n        /* \"#utility.yul\":2710:2713   */\n      dup7\n        /* \"#utility.yul\":2706:2720   */\n      add\n        /* \"#utility.yul\":2692:2704   */\n      dup3\n        /* \"#utility.yul\":2658:2721   */\n      tag_113\n      jump\t// in\n    tag_184:\n        /* \"#utility.yul\":2569:2731   */\n      pop\n        /* \"#utility.yul\":2813:2817   */\n      0x20\n        /* \"#utility.yul\":2806:2811   */\n      dup4\n        /* \"#utility.yul\":2802:2818   */\n      add\n        /* \"#utility.yul\":2796:2819   */\n      mload\n        /* \"#utility.yul\":2866:2869   */\n      dup5\n        /* \"#utility.yul\":2860:2864   */\n      dup3\n        /* \"#utility.yul\":2856:2870   */\n      sub\n        /* \"#utility.yul\":2849:2853   */\n      0x20\n        /* \"#utility.yul\":2844:2847   */\n      dup7\n        /* \"#utility.yul\":2840:2854   */\n      add\n        /* \"#utility.yul\":2833:2871   */\n      mstore\n        /* \"#utility.yul\":2892:2965   */\n      tag_185\n        /* \"#utility.yul\":2960:2964   */\n      dup3\n        /* \"#utility.yul\":2946:2958   */\n      dup3\n        /* \"#utility.yul\":2892:2965   */\n      tag_118\n      jump\t// in\n    tag_185:\n        /* \"#utility.yul\":2884:2965   */\n      swap2\n      pop\n        /* \"#utility.yul\":2741:2976   */\n      pop\n        /* \"#utility.yul\":2993:2997   */\n      dup1\n        /* \"#utility.yul\":2986:2997   */\n      swap2\n      pop\n        /* \"#utility.yul\":2523:3003   */\n      pop\n        /* \"#utility.yul\":2409:3003   */\n      swap3\n      swap2\n      pop\n      pop\n      jump\t// out\n        /* \"#utility.yul\":3009:3362   */\n    tag_21:\n        /* \"#utility.yul\":3142:3146   */\n      0x00\n        /* \"#utility.yul\":3180:3182   */\n      0x20\n        /* \"#utility.yul\":3169:3178   */\n      dup3\n        /* \"#utility.yul\":3165:3183   */\n      add\n        /* \"#utility.yul\":3157:3183   */\n      swap1\n      pop\n        /* \"#utility.yul\":3229:3238   */\n      dup2\n        /* \"#utility.yul\":3223:3227   */\n      dup2\n        /* \"#utility.yul\":3219:3239   */\n      sub\n        /* \"#utility.yul\":3215:3216   */\n      0x00\n        /* \"#utility.yul\":3204:3213   */\n      dup4\n        /* \"#utility.yul\":3200:3217   */\n      add\n        /* \"#utility.yul\":3193:3240   */\n      mstore\n        /* \"#utility.yul\":3257:3355   */\n      tag_187\n        /* \"#utility.yul\":3350:3354   */\n      dup2\n        /* \"#utility.yul\":3341:3347   */\n      dup5\n        /* \"#utility.yul\":3257:3355   */\n      tag_119\n      jump\t// in\n    tag_187:\n        /* \"#utility.yul\":3249:3355   */\n      swap1\n      pop\n        /* \"#utility.yul\":3009:3362   */\n      swap3\n      swap2\n      pop\n      pop\n      jump\t// out\n        /* \"#utility.yul\":3368:3485   */\n    tag_120:\n        /* \"#utility.yul\":3477:3478   */\n      0x00\n        /* \"#utility.yul\":3474:3475   */\n      dup1\n        /* \"#utility.yul\":3467:3479   */\n      revert\n        /* \"#utility.yul\":3491:3608   */\n    tag_121:\n        /* \"#utility.yul\":3600:3601   */\n      0x00\n        /* \"#utility.yul\":3597:3598   */\n      dup1\n        /* \"#utility.yul\":3590:3602   */\n      revert\n        /* \"#utility.yul\":3614:3731   */\n    tag_122:\n        /* \"#utility.yul\":3723:3724   */\n      0x00\n        /* \"#utility.yul\":3720:3721   */\n      dup1\n        /* \"#utility.yul\":3713:3725   */\n      revert\n        /* \"#utility.yul\":3751:4304   */\n    tag_123:\n        /* \"#utility.yul\":3809:3817   */\n      0x00\n        /* \"#utility.yul\":3819:3825   */\n      dup1\n        /* \"#utility.yul\":3869:3872   */\n      dup4\n        /* \"#utility.yul\":3862:3866   */\n      0x1f\n        /* \"#utility.yul\":3854:3860   */\n      dup5\n        /* \"#utility.yul\":3850:3867   */\n      add\n        /* \"#utility.yul\":3846:3873   */\n      slt\n        /* \"#utility.yul\":3836:3958   */\n      tag_192\n      jumpi\n        /* \"#utility.yul\":3877:3956   */\n      tag_193\n      tag_120\n      jump\t// in\n    tag_193:\n        /* \"#utility.yul\":3836:3958   */\n    tag_192:\n        /* \"#utility.yul\":3990:3996   */\n      dup3\n        /* \"#utility.yul\":3977:3997   */\n      calldataload\n        /* \"#utility.yul\":3967:3997   */\n      swap1\n      pop\n        /* \"#utility.yul\":4020:4038   */\n      0xffffffffffffffff\n        /* \"#utility.yul\":4012:4018   */\n      dup2\n        /* \"#utility.yul\":4009:4039   */\n      gt\n        /* \"#utility.yul\":4006:4123   */\n      iszero\n      tag_194\n      jumpi\n        /* \"#utility.yul\":4042:4121   */\n      tag_195\n      tag_121\n      jump\t// in\n    tag_195:\n        /* \"#utility.yul\":4006:4123   */\n    tag_194:\n        /* \"#utility.yul\":4156:4160   */\n      0x20\n        /* \"#utility.yul\":4148:4154   */\n      dup4\n        /* \"#utility.yul\":4144:4161   */\n      add\n        /* \"#utility.yul\":4132:4161   */\n      swap2\n      pop\n        /* \"#utility.yul\":4210:4213   */\n      dup4\n        /* \"#utility.yul\":4202:4206   */\n      0x01\n        /* \"#utility.yul\":4194:4200   */\n      dup3\n        /* \"#utility.yul\":4190:4207   */\n      mul\n        /* \"#utility.yul\":4180:4188   */\n      dup4\n        /* \"#utility.yul\":4176:4208   */\n      add\n        /* \"#utility.yul\":4173:4214   */\n      gt\n        /* \"#utility.yul\":4170:4298   */\n      iszero\n      tag_196\n      jumpi\n        /* \"#utility.yul\":4217:4296   */\n      tag_197\n      tag_122\n      jump\t// in\n    tag_197:\n        /* \"#utility.yul\":4170:4298   */\n    tag_196:\n        /* \"#utility.yul\":3751:4304   */\n      swap3\n      pop\n      swap3\n      swap1\n      pop\n      jump\t// out\n        /* \"#utility.yul\":4310:4839   */\n    tag_24:\n        /* \"#utility.yul\":4381:4387   */\n      0x00\n        /* \"#utility.yul\":4389:4395   */\n      dup1\n        /* \"#utility.yul\":4438:4440   */\n      0x20\n        /* \"#utility.yul\":4426:4435   */\n      dup4\n        /* \"#utility.yul\":4417:4424   */\n      dup6\n        /* \"#utility.yul\":4413:4436   */\n      sub\n        /* \"#utility.yul\":4409:4441   */\n      slt\n        /* \"#utility.yul\":4406:4525   */\n      iszero\n      tag_199\n      jumpi\n        /* \"#utility.yul\":4444:4523   */\n      tag_200\n      tag_109\n      jump\t// in\n    tag_200:\n        /* \"#utility.yul\":4406:4525   */\n    tag_199:\n        /* \"#utility.yul\":4592:4593   */\n      0x00\n        /* \"#utility.yul\":4581:4590   */\n      dup4\n        /* \"#utility.yul\":4577:4594   */\n      add\n        /* \"#utility.yul\":4564:4595   */\n      calldataload\n        /* \"#utility.yul\":4622:4640   */\n      0xffffffffffffffff\n        /* \"#utility.yul\":4614:4620   */\n      dup2\n        /* \"#utility.yul\":4611:4641   */\n      gt\n        /* \"#utility.yul\":4608:4725   */\n      iszero\n      tag_201\n      jumpi\n        /* \"#utility.yul\":4644:4723   */\n      tag_202\n      tag_110\n      jump\t// in\n    tag_202:\n        /* \"#utility.yul\":4608:4725   */\n    tag_201:\n        /* \"#utility.yul\":4757:4822   */\n      tag_203\n        /* \"#utility.yul\":4814:4821   */\n      dup6\n        /* \"#utility.yul\":4805:4811   */\n      dup3\n        /* \"#utility.yul\":4794:4803   */\n      dup7\n        /* \"#utility.yul\":4790:4812   */\n      add\n        /* \"#utility.yul\":4757:4822   */\n      tag_123\n      jump\t// in\n    tag_203:\n        /* \"#utility.yul\":4739:4822   */\n      swap3\n      pop\n      swap3\n      pop\n        /* \"#utility.yul\":4535:4832   */\n      pop\n        /* \"#utility.yul\":4310:4839   */\n      swap3\n      pop\n      swap3\n      swap1\n      pop\n      jump\t// out\n        /* \"#utility.yul\":4845:5319   */\n    tag_28:\n        /* \"#utility.yul\":4913:4919   */\n      0x00\n        /* \"#utility.yul\":4921:4927   */\n      dup1\n        /* \"#utility.yul\":4970:4972   */\n      0x40\n        /* \"#utility.yul\":4958:4967   */\n      dup4\n        /* \"#utility.yul\":4949:4956   */\n      dup6\n        /* \"#utility.yul\":4945:4968   */\n      sub\n        /* \"#utility.yul\":4941:4973   */\n      slt\n        /* \"#utility.yul\":4938:5057   */\n      iszero\n      tag_205\n      jumpi\n        /* \"#utility.yul\":4976:5055   */\n      tag_206\n      tag_109\n      jump\t// in\n    tag_206:\n        /* \"#utility.yul\":4938:5057   */\n    tag_205:\n        /* \"#utility.yul\":5096:5097   */\n      0x00\n        /* \"#utility.yul\":5121:5174   */\n      tag_207\n        /* \"#utility.yul\":5166:5173   */\n      dup6\n        /* \"#utility.yul\":5157:5163   */\n      dup3\n        /* \"#utility.yul\":5146:5155   */\n      dup7\n        /* \"#utility.yul\":5142:5164   */\n      add\n        /* \"#utility.yul\":5121:5174   */\n      tag_112\n      jump\t// in\n    tag_207:\n        /* \"#utility.yul\":5111:5174   */\n      swap3\n      pop\n        /* \"#utility.yul\":5067:5184   */\n      pop\n        /* \"#utility.yul\":5223:5225   */\n      0x20\n        /* \"#utility.yul\":5249:5302   */\n      tag_208\n        /* \"#utility.yul\":5294:5301   */\n      dup6\n        /* \"#utility.yul\":5285:5291   */\n      dup3\n        /* \"#utility.yul\":5274:5283   */\n      dup7\n        /* \"#utility.yul\":5270:5292   */\n      add\n        /* \"#utility.yul\":5249:5302   */\n      tag_112\n      jump\t// in\n    tag_208:\n        /* \"#utility.yul\":5239:5302   */\n      swap2\n      pop\n        /* \"#utility.yul\":5194:5312   */\n      pop\n        /* \"#utility.yul\":4845:5319   */\n      swap3\n      pop\n      swap3\n      swap1\n      pop\n      jump\t// out\n        /* \"#utility.yul\":5325:5459   */\n    tag_124:\n        /* \"#utility.yul\":5412:5418   */\n      0x00\n        /* \"#utility.yul\":5446:5451   */\n      dup2\n        /* \"#utility.yul\":5440:5452   */\n      mload\n        /* \"#utility.yul\":5430:5452   */\n      swap1\n      pop\n        /* \"#utility.yul\":5325:5459   */\n      swap2\n      swap1\n      pop\n      jump\t// out\n        /* \"#utility.yul\":5465:5669   */\n    tag_125:\n        /* \"#utility.yul\":5584:5595   */\n      0x00\n        /* \"#utility.yul\":5618:5624   */\n      dup3\n        /* \"#utility.yul\":5613:5616   */\n      dup3\n        /* \"#utility.yul\":5606:5625   */\n      mstore\n        /* \"#utility.yul\":5658:5662   */\n      0x20\n        /* \"#utility.yul\":5653:5656   */\n      dup3\n        /* \"#utility.yul\":5649:5663   */\n      add\n        /* \"#utility.yul\":5634:5663   */\n      swap1\n      pop\n        /* \"#utility.yul\":5465:5669   */\n      swap3\n      swap2\n      pop\n      pop\n      jump\t// out\n        /* \"#utility.yul\":5675:5827   */\n    tag_126:\n        /* \"#utility.yul\":5762:5766   */\n      0x00\n        /* \"#utility.yul\":5785:5788   */\n      dup2\n        /* \"#utility.yul\":5777:5788   */\n      swap1\n      pop\n        /* \"#utility.yul\":5815:5819   */\n      0x20\n        /* \"#utility.yul\":5810:5813   */\n      dup3\n        /* \"#utility.yul\":5806:5820   */\n      add\n        /* \"#utility.yul\":5798:5820   */\n      swap1\n      pop\n        /* \"#utility.yul\":5675:5827   */\n      swap2\n      swap1\n      pop\n      jump\t// out\n        /* \"#utility.yul\":5865:6449   */\n    tag_127:\n        /* \"#utility.yul\":5964:5967   */\n      0x00\n        /* \"#utility.yul\":6000:6004   */\n      0x40\n        /* \"#utility.yul\":5995:5998   */\n      dup4\n        /* \"#utility.yul\":5991:6005   */\n      add\n        /* \"#utility.yul\":6085:6089   */\n      0x00\n        /* \"#utility.yul\":6078:6083   */\n      dup4\n        /* \"#utility.yul\":6074:6090   */\n      add\n        /* \"#utility.yul\":6068:6091   */\n      mload\n        /* \"#utility.yul\":6104:6167   */\n      tag_213\n        /* \"#utility.yul\":6161:6165   */\n      0x00\n        /* \"#utility.yul\":6156:6159   */\n      dup7\n        /* \"#utility.yul\":6152:6166   */\n      add\n        /* \"#utility.yul\":6138:6150   */\n      dup3\n        /* \"#utility.yul\":6104:6167   */\n      tag_113\n      jump\t// in\n    tag_213:\n        /* \"#utility.yul\":6015:6177   */\n      pop\n        /* \"#utility.yul\":6259:6263   */\n      0x20\n        /* \"#utility.yul\":6252:6257   */\n      dup4\n        /* \"#utility.yul\":6248:6264   */\n      add\n        /* \"#utility.yul\":6242:6265   */\n      mload\n        /* \"#utility.yul\":6312:6315   */\n      dup5\n        /* \"#utility.yul\":6306:6310   */\n      dup3\n        /* \"#utility.yul\":6302:6316   */\n      sub\n        /* \"#utility.yul\":6295:6299   */\n      0x20\n        /* \"#utility.yul\":6290:6293   */\n      dup7\n        /* \"#utility.yul\":6286:6300   */\n      add\n        /* \"#utility.yul\":6279:6317   */\n      mstore\n        /* \"#utility.yul\":6338:6411   */\n      tag_214\n        /* \"#utility.yul\":6406:6410   */\n      dup3\n        /* \"#utility.yul\":6392:6404   */\n      dup3\n        /* \"#utility.yul\":6338:6411   */\n      tag_118\n      jump\t// in\n    tag_214:\n        /* \"#utility.yul\":6330:6411   */\n      swap2\n      pop\n        /* \"#utility.yul\":6187:6422   */\n      pop\n        /* \"#utility.yul\":6439:6443   */\n      dup1\n        /* \"#utility.yul\":6432:6443   */\n      swap2\n      pop\n        /* \"#utility.yul\":5969:6449   */\n      pop\n        /* \"#utility.yul\":5865:6449   */\n      swap3\n      swap2\n      pop\n      pop\n      jump\t// out\n        /* \"#utility.yul\":6455:6691   */\n    tag_128:\n        /* \"#utility.yul\":6564:6574   */\n      0x00\n        /* \"#utility.yul\":6599:6685   */\n      tag_216\n        /* \"#utility.yul\":6681:6684   */\n      dup4\n        /* \"#utility.yul\":6673:6679   */\n      dup4\n        /* \"#utility.yul\":6599:6685   */\n      tag_127\n      jump\t// in\n    tag_216:\n        /* \"#utility.yul\":6585:6685   */\n      swap1\n      pop\n        /* \"#utility.yul\":6455:6691   */\n      swap3\n      swap2\n      pop\n      pop\n      jump\t// out\n        /* \"#utility.yul\":6697:6830   */\n    tag_129:\n        /* \"#utility.yul\":6787:6791   */\n      0x00\n        /* \"#utility.yul\":6819:6823   */\n      0x20\n        /* \"#utility.yul\":6814:6817   */\n      dup3\n        /* \"#utility.yul\":6810:6824   */\n      add\n        /* \"#utility.yul\":6802:6824   */\n      swap1\n      pop\n        /* \"#utility.yul\":6697:6830   */\n      swap2\n      swap1\n      pop\n      jump\t// out\n        /* \"#utility.yul\":6872:7943   */\n    tag_130:\n        /* \"#utility.yul\":7031:7034   */\n      0x00\n        /* \"#utility.yul\":7060:7134   */\n      tag_219\n        /* \"#utility.yul\":7128:7133   */\n      dup3\n        /* \"#utility.yul\":7060:7134   */\n      tag_124\n      jump\t// in\n    tag_219:\n        /* \"#utility.yul\":7150:7256   */\n      tag_220\n        /* \"#utility.yul\":7249:7255   */\n      dup2\n        /* \"#utility.yul\":7244:7247   */\n      dup6\n        /* \"#utility.yul\":7150:7256   */\n      tag_125\n      jump\t// in\n    tag_220:\n        /* \"#utility.yul\":7143:7256   */\n      swap4\n      pop\n        /* \"#utility.yul\":7282:7285   */\n      dup4\n        /* \"#utility.yul\":7327:7331   */\n      0x20\n        /* \"#utility.yul\":7319:7325   */\n      dup3\n        /* \"#utility.yul\":7315:7332   */\n      mul\n        /* \"#utility.yul\":7310:7313   */\n      dup6\n        /* \"#utility.yul\":7306:7333   */\n      add\n        /* \"#utility.yul\":7357:7433   */\n      tag_221\n        /* \"#utility.yul\":7427:7432   */\n      dup6\n        /* \"#utility.yul\":7357:7433   */\n      tag_126\n      jump\t// in\n    tag_221:\n        /* \"#utility.yul\":7456:7463   */\n      dup1\n        /* \"#utility.yul\":7487:7488   */\n      0x00\n        /* \"#utility.yul\":7472:7898   */\n    tag_222:\n        /* \"#utility.yul\":7497:7503   */\n      dup6\n        /* \"#utility.yul\":7494:7495   */\n      dup2\n        /* \"#utility.yul\":7491:7504   */\n      lt\n        /* \"#utility.yul\":7472:7898   */\n      iszero\n      tag_224\n      jumpi\n        /* \"#utility.yul\":7568:7577   */\n      dup5\n        /* \"#utility.yul\":7562:7566   */\n      dup5\n        /* \"#utility.yul\":7558:7578   */\n      sub\n        /* \"#utility.yul\":7553:7556   */\n      dup10\n        /* \"#utility.yul\":7546:7579   */\n      mstore\n        /* \"#utility.yul\":7619:7625   */\n      dup2\n        /* \"#utility.yul\":7613:7626   */\n      mload\n        /* \"#utility.yul\":7647:7751   */\n      tag_225\n        /* \"#utility.yul\":7746:7750   */\n      dup6\n        /* \"#utility.yul\":7731:7744   */\n      dup3\n        /* \"#utility.yul\":7647:7751   */\n      tag_128\n      jump\t// in\n    tag_225:\n        /* \"#utility.yul\":7639:7751   */\n      swap5\n      pop\n        /* \"#utility.yul\":7774:7854   */\n      tag_226\n        /* \"#utility.yul\":7847:7853   */\n      dup4\n        /* \"#utility.yul\":7774:7854   */\n      tag_129\n      jump\t// in\n    tag_226:\n        /* \"#utility.yul\":7764:7854   */\n      swap3\n      pop\n        /* \"#utility.yul\":7883:7887   */\n      0x20\n        /* \"#utility.yul\":7878:7881   */\n      dup11\n        /* \"#utility.yul\":7874:7888   */\n      add\n        /* \"#utility.yul\":7867:7888   */\n      swap10\n      pop\n        /* \"#utility.yul\":7532:7898   */\n      pop\n        /* \"#utility.yul\":7519:7520   */\n      0x01\n        /* \"#utility.yul\":7516:7517   */\n      dup2\n        /* \"#utility.yul\":7512:7521   */\n      add\n        /* \"#utility.yul\":7507:7521   */\n      swap1\n      pop\n        /* \"#utility.yul\":7472:7898   */\n      jump(tag_222)\n    tag_224:\n        /* \"#utility.yul\":7476:7490   */\n      pop\n        /* \"#utility.yul\":7914:7918   */\n      dup3\n        /* \"#utility.yul\":7907:7918   */\n      swap8\n      pop\n        /* \"#utility.yul\":7934:7937   */\n      dup8\n        /* \"#utility.yul\":7927:7937   */\n      swap6\n      pop\n        /* \"#utility.yul\":7036:7943   */\n      pop\n      pop\n      pop\n      pop\n      pop\n        /* \"#utility.yul\":6872:7943   */\n      swap3\n      swap2\n      pop\n      pop\n      jump\t// out\n        /* \"#utility.yul\":7949:8402   */\n    tag_31:\n        /* \"#utility.yul\":8132:8136   */\n      0x00\n        /* \"#utility.yul\":8170:8172   */\n      0x20\n        /* \"#utility.yul\":8159:8168   */\n      dup3\n        /* \"#utility.yul\":8155:8173   */\n      add\n        /* \"#utility.yul\":8147:8173   */\n      swap1\n      pop\n        /* \"#utility.yul\":8219:8228   */\n      dup2\n        /* \"#utility.yul\":8213:8217   */\n      dup2\n        /* \"#utility.yul\":8209:8229   */\n      sub\n        /* \"#utility.yul\":8205:8206   */\n      0x00\n        /* \"#utility.yul\":8194:8203   */\n      dup4\n        /* \"#utility.yul\":8190:8207   */\n      add\n        /* \"#utility.yul\":8183:8230   */\n      mstore\n        /* \"#utility.yul\":8247:8395   */\n      tag_228\n        /* \"#utility.yul\":8390:8394   */\n      dup2\n        /* \"#utility.yul\":8381:8387   */\n      dup5\n        /* \"#utility.yul\":8247:8395   */\n      tag_130\n      jump\t// in\n    tag_228:\n        /* \"#utility.yul\":8239:8395   */\n      swap1\n      pop\n        /* \"#utility.yul\":7949:8402   */\n      swap3\n      swap2\n      pop\n      pop\n      jump\t// out\n        /* \"#utility.yul\":8408:9082   */\n    tag_34:\n        /* \"#utility.yul\":8488:8494   */\n      0x00\n        /* \"#utility.yul\":8496:8502   */\n      dup1\n        /* \"#utility.yul\":8504:8510   */\n      0x00\n        /* \"#utility.yul\":8553:8555   */\n      0x40\n        /* \"#utility.yul\":8541:8550   */\n      dup5\n        /* \"#utility.yul\":8532:8539   */\n      dup7\n        /* \"#utility.yul\":8528:8551   */\n      sub\n        /* \"#utility.yul\":8524:8556   */\n      slt\n        /* \"#utility.yul\":8521:8640   */\n      iszero\n      tag_230\n      jumpi\n        /* \"#utility.yul\":8559:8638   */\n      tag_231\n      tag_109\n      jump\t// in\n    tag_231:\n        /* \"#utility.yul\":8521:8640   */\n    tag_230:\n        /* \"#utility.yul\":8679:8680   */\n      0x00\n        /* \"#utility.yul\":8704:8757   */\n      tag_232\n        /* \"#utility.yul\":8749:8756   */\n      dup7\n        /* \"#utility.yul\":8740:8746   */\n      dup3\n        /* \"#utility.yul\":8729:8738   */\n      dup8\n        /* \"#utility.yul\":8725:8747   */\n      add\n        /* \"#utility.yul\":8704:8757   */\n      tag_112\n      jump\t// in\n    tag_232:\n        /* \"#utility.yul\":8694:8757   */\n      swap4\n      pop\n        /* \"#utility.yul\":8650:8767   */\n      pop\n        /* \"#utility.yul\":8834:8836   */\n      0x20\n        /* \"#utility.yul\":8823:8832   */\n      dup5\n        /* \"#utility.yul\":8819:8837   */\n      add\n        /* \"#utility.yul\":8806:8838   */\n      calldataload\n        /* \"#utility.yul\":8865:8883   */\n      0xffffffffffffffff\n        /* \"#utility.yul\":8857:8863   */\n      dup2\n        /* \"#utility.yul\":8854:8884   */\n      gt\n        /* \"#utility.yul\":8851:8968   */\n      iszero\n      tag_233\n      jumpi\n        /* \"#utility.yul\":8887:8966   */\n      tag_234\n      tag_110\n      jump\t// in\n    tag_234:\n        /* \"#utility.yul\":8851:8968   */\n    tag_233:\n        /* \"#utility.yul\":9000:9065   */\n      tag_235\n        /* \"#utility.yul\":9057:9064   */\n      dup7\n        /* \"#utility.yul\":9048:9054   */\n      dup3\n        /* \"#utility.yul\":9037:9046   */\n      dup8\n        /* \"#utility.yul\":9033:9055   */\n      add\n        /* \"#utility.yul\":9000:9065   */\n      tag_123\n      jump\t// in\n    tag_235:\n        /* \"#utility.yul\":8982:9065   */\n      swap3\n      pop\n      swap3\n      pop\n        /* \"#utility.yul\":8777:9075   */\n      pop\n        /* \"#utility.yul\":8408:9082   */\n      swap3\n      pop\n      swap3\n      pop\n      swap3\n      jump\t// out\n        /* \"#utility.yul\":9088:9268   */\n    tag_131:\n        /* \"#utility.yul\":9136:9213   */\n      0x4e487b7100000000000000000000000000000000000000000000000000000000\n        /* \"#utility.yul\":9133:9134   */\n      0x00\n        /* \"#utility.yul\":9126:9214   */\n      mstore\n        /* \"#utility.yul\":9233:9237   */\n      0x22\n        /* \"#utility.yul\":9230:9231   */\n      0x04\n        /* \"#utility.yul\":9223:9238   */\n      mstore\n        /* \"#utility.yul\":9257:9261   */\n      0x24\n        /* \"#utility.yul\":9254:9255   */\n      0x00\n        /* \"#utility.yul\":9247:9262   */\n      revert\n        /* \"#utility.yul\":9274:9594   */\n    tag_46:\n        /* \"#utility.yul\":9318:9324   */\n      0x00\n        /* \"#utility.yul\":9355:9356   */\n      0x02\n        /* \"#utility.yul\":9349:9353   */\n      dup3\n        /* \"#utility.yul\":9345:9357   */\n      div\n        /* \"#utility.yul\":9335:9357   */\n      swap1\n      pop\n        /* \"#utility.yul\":9402:9403   */\n      0x01\n        /* \"#utility.yul\":9396:9400   */\n      dup3\n        /* \"#utility.yul\":9392:9404   */\n      and\n        /* \"#utility.yul\":9423:9441   */\n      dup1\n        /* \"#utility.yul\":9413:9494   */\n      tag_238\n      jumpi\n        /* \"#utility.yul\":9479:9483   */\n      0x7f\n        /* \"#utility.yul\":9471:9477   */\n      dup3\n        /* \"#utility.yul\":9467:9484   */\n      and\n        /* \"#utility.yul\":9457:9484   */\n      swap2\n      pop\n        /* \"#utility.yul\":9413:9494   */\n    tag_238:\n        /* \"#utility.yul\":9541:9543   */\n      0x20\n        /* \"#utility.yul\":9533:9539   */\n      dup3\n        /* \"#utility.yul\":9530:9544   */\n      lt\n        /* \"#utility.yul\":9510:9528   */\n      dup2\n        /* \"#utility.yul\":9507:9545   */\n      sub\n        /* \"#utility.yul\":9504:9588   */\n      tag_239\n      jumpi\n        /* \"#utility.yul\":9560:9578   */\n      tag_240\n      tag_131\n      jump\t// in\n    tag_240:\n        /* \"#utility.yul\":9504:9588   */\n    tag_239:\n        /* \"#utility.yul\":9325:9594   */\n      pop\n        /* \"#utility.yul\":9274:9594   */\n      swap2\n      swap1\n      pop\n      jump\t// out\n        /* \"#utility.yul\":9600:9769   */\n    tag_132:\n        /* \"#utility.yul\":9684:9695   */\n      0x00\n        /* \"#utility.yul\":9718:9724   */\n      dup3\n        /* \"#utility.yul\":9713:9716   */\n      dup3\n        /* \"#utility.yul\":9706:9725   */\n      mstore\n        /* \"#utility.yul\":9758:9762   */\n      0x20\n        /* \"#utility.yul\":9753:9756   */\n      dup3\n        /* \"#utility.yul\":9749:9763   */\n      add\n        /* \"#utility.yul\":9734:9763   */\n      swap1\n      pop\n        /* \"#utility.yul\":9600:9769   */\n      swap3\n      swap2\n      pop\n      pop\n      jump\t// out\n        /* \"#utility.yul\":9775:10007   */\n    tag_133:\n        /* \"#utility.yul\":9915:9949   */\n      0x4f6e6c7920617574686f72697a656420706572736f6e656c2063616e20616464\n        /* \"#utility.yul\":9911:9912   */\n      0x00\n        /* \"#utility.yul\":9903:9909   */\n      dup3\n        /* \"#utility.yul\":9899:9913   */\n      add\n        /* \"#utility.yul\":9892:9950   */\n      mstore\n        /* \"#utility.yul\":9984:9999   */\n      0x206e657720656e74726965732e00000000000000000000000000000000000000\n        /* \"#utility.yul\":9979:9981   */\n      0x20\n        /* \"#utility.yul\":9971:9977   */\n      dup3\n        /* \"#utility.yul\":9967:9982   */\n      add\n        /* \"#utility.yul\":9960:10000   */\n      mstore\n        /* \"#utility.yul\":9775:10007   */\n      pop\n      jump\t// out\n        /* \"#utility.yul\":10013:10379   */\n    tag_134:\n        /* \"#utility.yul\":10155:10158   */\n      0x00\n        /* \"#utility.yul\":10176:10243   */\n      tag_244\n        /* \"#utility.yul\":10240:10242   */\n      0x2d\n        /* \"#utility.yul\":10235:10238   */\n      dup4\n        /* \"#utility.yul\":10176:10243   */\n      tag_132\n      jump\t// in\n    tag_244:\n        /* \"#utility.yul\":10169:10243   */\n      swap2\n      pop\n        /* \"#utility.yul\":10252:10345   */\n      tag_245\n        /* \"#utility.yul\":10341:10344   */\n      dup3\n        /* \"#utility.yul\":10252:10345   */\n      tag_133\n      jump\t// in\n    tag_245:\n        /* \"#utility.yul\":10370:10372   */\n      0x40\n        /* \"#utility.yul\":10365:10368   */\n      dup3\n        /* \"#utility.yul\":10361:10373   */\n      add\n        /* \"#utility.yul\":10354:10373   */\n      swap1\n      pop\n        /* \"#utility.yul\":10013:10379   */\n      swap2\n      swap1\n      pop\n      jump\t// out\n        /* \"#utility.yul\":10385:10804   */\n    tag_54:\n        /* \"#utility.yul\":10551:10555   */\n      0x00\n        /* \"#utility.yul\":10589:10591   */\n      0x20\n        /* \"#utility.yul\":10578:10587   */\n      dup3\n        /* \"#utility.yul\":10574:10592   */\n      add\n        /* \"#utility.yul\":10566:10592   */\n      swap1\n      pop\n        /* \"#utility.yul\":10638:10647   */\n      dup2\n        /* \"#utility.yul\":10632:10636   */\n      dup2\n        /* \"#utility.yul\":10628:10648   */\n      sub\n        /* \"#utility.yul\":10624:10625   */\n      0x00\n        /* \"#utility.yul\":10613:10622   */\n      dup4\n        /* \"#utility.yul\":10609:10626   */\n      add\n        /* \"#utility.yul\":10602:10649   */\n      mstore\n        /* \"#utility.yul\":10666:10797   */\n      tag_247\n        /* \"#utility.yul\":10792:10796   */\n      dup2\n        /* \"#utility.yul\":10666:10797   */\n      tag_134\n      jump\t// in\n    tag_247:\n        /* \"#utility.yul\":10658:10797   */\n      swap1\n      pop\n        /* \"#utility.yul\":10385:10804   */\n      swap2\n      swap1\n      pop\n      jump\t// out\n        /* \"#utility.yul\":10810:10990   */\n    tag_69:\n        /* \"#utility.yul\":10858:10935   */\n      0x4e487b7100000000000000000000000000000000000000000000000000000000\n        /* \"#utility.yul\":10855:10856   */\n      0x00\n        /* \"#utility.yul\":10848:10936   */\n      mstore\n        /* \"#utility.yul\":10955:10959   */\n      0x41\n        /* \"#utility.yul\":10952:10953   */\n      0x04\n        /* \"#utility.yul\":10945:10960   */\n      mstore\n        /* \"#utility.yul\":10979:10983   */\n      0x24\n        /* \"#utility.yul\":10976:10977   */\n      0x00\n        /* \"#utility.yul\":10969:10984   */\n      revert\n        /* \"#utility.yul\":10996:11137   */\n    tag_135:\n        /* \"#utility.yul\":11045:11049   */\n      0x00\n        /* \"#utility.yul\":11068:11071   */\n      dup2\n        /* \"#utility.yul\":11060:11071   */\n      swap1\n      pop\n        /* \"#utility.yul\":11091:11094   */\n      dup2\n        /* \"#utility.yul\":11088:11089   */\n      0x00\n        /* \"#utility.yul\":11081:11095   */\n      mstore\n        /* \"#utility.yul\":11125:11129   */\n      0x20\n        /* \"#utility.yul\":11122:11123   */\n      0x00\n        /* \"#utility.yul\":11112:11130   */\n      keccak256\n        /* \"#utility.yul\":11104:11130   */\n      swap1\n      pop\n        /* \"#utility.yul\":10996:11137   */\n      swap2\n      swap1\n      pop\n      jump\t// out\n        /* \"#utility.yul\":11143:11236   */\n    tag_136:\n        /* \"#utility.yul\":11180:11186   */\n      0x00\n        /* \"#utility.yul\":11227:11229   */\n      0x20\n        /* \"#utility.yul\":11222:11224   */\n      0x1f\n        /* \"#utility.yul\":11215:11220   */\n      dup4\n        /* \"#utility.yul\":11211:11225   */\n      add\n        /* \"#utility.yul\":11207:11230   */\n      div\n        /* \"#utility.yul\":11197:11230   */\n      swap1\n      pop\n        /* \"#utility.yul\":11143:11236   */\n      swap2\n      swap1\n      pop\n      jump\t// out\n        /* \"#utility.yul\":11242:11349   */\n    tag_137:\n        /* \"#utility.yul\":11286:11294   */\n      0x00\n        /* \"#utility.yul\":11336:11341   */\n      dup3\n        /* \"#utility.yul\":11330:11334   */\n      dup3\n        /* \"#utility.yul\":11326:11342   */\n      shl\n        /* \"#utility.yul\":11305:11342   */\n      swap1\n      pop\n        /* \"#utility.yul\":11242:11349   */\n      swap3\n      swap2\n      pop\n      pop\n      jump\t// out\n        /* \"#utility.yul\":11355:11748   */\n    tag_138:\n        /* \"#utility.yul\":11424:11430   */\n      0x00\n        /* \"#utility.yul\":11474:11475   */\n      0x08\n        /* \"#utility.yul\":11462:11472   */\n      dup4\n        /* \"#utility.yul\":11458:11476   */\n      mul\n        /* \"#utility.yul\":11497:11594   */\n      tag_253\n        /* \"#utility.yul\":11527:11593   */\n      0xffffffffffffffffffffffffffffffffffffffffffffffffffffffffffffffff\n        /* \"#utility.yul\":11516:11525   */\n      dup3\n        /* \"#utility.yul\":11497:11594   */\n      tag_137\n      jump\t// in\n    tag_253:\n        /* \"#utility.yul\":11615:11654   */\n      tag_254\n        /* \"#utility.yul\":11645:11653   */\n      dup7\n        /* \"#utility.yul\":11634:11643   */\n      dup4\n        /* \"#utility.yul\":11615:11654   */\n      tag_137\n      jump\t// in\n    tag_254:\n        /* \"#utility.yul\":11603:11654   */\n      swap6\n      pop\n        /* \"#utility.yul\":11687:11691   */\n      dup1\n        /* \"#utility.yul\":11683:11692   */\n      not\n        /* \"#utility.yul\":11676:11681   */\n      dup5\n        /* \"#utility.yul\":11672:11693   */\n      and\n        /* \"#utility.yul\":11663:11693   */\n      swap4\n      pop\n        /* \"#utility.yul\":11736:11740   */\n      dup1\n        /* \"#utility.yul\":11726:11734   */\n      dup7\n        /* \"#utility.yul\":11722:11741   */\n      and\n        /* \"#utility.yul\":11715:11720   */\n      dup5\n        /* \"#utility.yul\":11712:11742   */\n      or\n        /* \"#utility.yul\":11702:11742   */\n      swap3\n      pop\n        /* \"#utility.yul\":11431:11748   */\n      pop\n      pop\n        /* \"#utility.yul\":11355:11748   */\n      swap4\n      swap3\n      pop\n      pop\n      pop\n      jump\t// out\n        /* \"#utility.yul\":11754:11814   */\n    tag_139:\n        /* \"#utility.yul\":11782:11785   */\n      0x00\n        /* \"#utility.yul\":11803:11808   */\n      dup2\n        /* \"#utility.yul\":11796:11808   */\n      swap1\n      pop\n        /* \"#utility.yul\":11754:11814   */\n      swap2\n      swap1\n      pop\n      jump\t// out\n        /* \"#utility.yul\":11820:11962   */\n    tag_140:\n        /* \"#utility.yul\":11870:11879   */\n      0x00\n        /* \"#utility.yul\":11903:11956   */\n      tag_257\n        /* \"#utility.yul\":11921:11955   */\n      tag_258\n        /* \"#utility.yul\":11930:11954   */\n      tag_259\n        /* \"#utility.yul\":11948:11953   */\n      dup5\n        /* \"#utility.yul\":11930:11954   */\n      tag_106\n      jump\t// in\n    tag_259:\n        /* \"#utility.yul\":11921:11955   */\n      tag_139\n      jump\t// in\n    tag_258:\n        /* \"#utility.yul\":11903:11956   */\n      tag_106\n      jump\t// in\n    tag_257:\n        /* \"#utility.yul\":11890:11956   */\n      swap1\n      pop\n        /* \"#utility.yul\":11820:11962   */\n      swap2\n      swap1\n      pop\n      jump\t// out\n        /* \"#utility.yul\":11968:12043   */\n    tag_141:\n        /* \"#utility.yul\":12011:12014   */\n      0x00\n        /* \"#utility.yul\":12032:12037   */\n      dup2\n        /* \"#utility.yul\":12025:12037   */\n      swap1\n      pop\n        /* \"#utility.yul\":11968:12043   */\n      swap2\n      swap1\n      pop\n      jump\t// out\n        /* \"#utility.yul\":12049:12318   */\n    tag_142:\n        /* \"#utility.yul\":12159:12198   */\n      tag_262\n        /* \"#utility.yul\":12190:12197   */\n      dup4\n        /* \"#utility.yul\":12159:12198   */\n      tag_140\n      jump\t// in\n    tag_262:\n        /* \"#utility.yul\":12220:12311   */\n      tag_263\n        /* \"#utility.yul\":12269:12310   */\n      tag_264\n        /* \"#utility.yul\":12293:12309   */\n      dup3\n        /* \"#utility.yul\":12269:12310   */\n      tag_141\n      jump\t// in\n    tag_264:\n        /* \"#utility.yul\":12261:12267   */\n      dup5\n        /* \"#utility.yul\":12254:12258   */\n      dup5\n        /* \"#utility.yul\":12248:12259   */\n      sload\n        /* \"#utility.yul\":12220:12311   */\n      tag_138\n      jump\t// in\n    tag_263:\n        /* \"#utility.yul\":12214:12218   */\n      dup3\n        /* \"#utility.yul\":12207:12312   */\n      sstore\n        /* \"#utility.yul\":12125:12318   */\n      pop\n        /* \"#utility.yul\":12049:12318   */\n      pop\n      pop\n      pop\n      jump\t// out\n        /* \"#utility.yul\":12324:12397   */\n    tag_143:\n        /* \"#utility.yul\":12369:12372   */\n      0x00\n        /* \"#utility.yul\":12324:12397   */\n      swap1\n      jump\t// out\n        /* \"#utility.yul\":12403:12592   */\n    tag_144:\n        /* \"#utility.yul\":12480:12512   */\n      tag_267\n      tag_143\n      jump\t// in\n    tag_267:\n        /* \"#utility.yul\":12521:12586   */\n      tag_268\n        /* \"#utility.yul\":12579:12585   */\n      dup2\n        /* \"#utility.yul\":12571:12577   */\n      dup5\n        /* \"#utility.yul\":12565:12569   */\n      dup5\n        /* \"#utility.yul\":12521:12586   */\n      tag_142\n      jump\t// in\n    tag_268:\n        /* \"#utility.yul\":12456:12592   */\n      pop\n        /* \"#utility.yul\":12403:12592   */\n      pop\n      pop\n      jump\t// out\n        /* \"#utility.yul\":12598:12784   */\n    tag_145:\n        /* \"#utility.yul\":12658:12778   */\n    tag_270:\n        /* \"#utility.yul\":12675:12678   */\n      dup2\n        /* \"#utility.yul\":12668:12673   */\n      dup2\n        /* \"#utility.yul\":12665:12679   */\n      lt\n        /* \"#utility.yul\":12658:12778   */\n      iszero\n      tag_272\n      jumpi\n        /* \"#utility.yul\":12729:12768   */\n      tag_273\n        /* \"#utility.yul\":12766:12767   */\n      0x00\n        /* \"#utility.yul\":12759:12764   */\n      dup3\n        /* \"#utility.yul\":12729:12768   */\n      tag_144\n      jump\t// in\n    tag_273:\n        /* \"#utility.yul\":12702:12703   */\n      0x01\n        /* \"#utility.yul\":12695:12700   */\n      dup2\n        /* \"#utility.yul\":12691:12704   */\n      add\n        /* \"#utility.yul\":12682:12704   */\n      swap1\n      pop\n        /* \"#utility.yul\":12658:12778   */\n      jump(tag_270)\n    tag_272:\n        /* \"#utility.yul\":12598:12784   */\n      pop\n      pop\n      jump\t// out\n        /* \"#utility.yul\":12790:13333   */\n    tag_146:\n        /* \"#utility.yul\":12891:12893   */\n      0x1f\n        /* \"#utility.yul\":12886:12889   */\n      dup3\n        /* \"#utility.yul\":12883:12894   */\n      gt\n        /* \"#utility.yul\":12880:13326   */\n      iszero\n      tag_275\n      jumpi\n        /* \"#utility.yul\":12925:12963   */\n      tag_276\n        /* \"#utility.yul\":12957:12962   */\n      dup2\n        /* \"#utility.yul\":12925:12963   */\n      tag_135\n      jump\t// in\n    tag_276:\n        /* \"#utility.yul\":13009:13038   */\n      tag_277\n        /* \"#utility.yul\":13027:13037   */\n      dup5\n        /* \"#utility.yul\":13009:13038   */\n      tag_136\n      jump\t// in\n    tag_277:\n        /* \"#utility.yul\":12999:13007   */\n      dup2\n        /* \"#utility.yul\":12995:13039   */\n      add\n        /* \"#utility.yul\":13192:13194   */\n      0x20\n        /* \"#utility.yul\":13180:13190   */\n      dup6\n        /* \"#utility.yul\":13177:13195   */\n      lt\n        /* \"#utility.yul\":13174:13223   */\n      iszero\n      tag_278\n      jumpi\n        /* \"#utility.yul\":13213:13221   */\n      dup2\n        /* \"#utility.yul\":13198:13221   */\n      swap1\n      pop\n        /* \"#utility.yul\":13174:13223   */\n    tag_278:\n        /* \"#utility.yul\":13236:13316   */\n      tag_279\n        /* \"#utility.yul\":13292:13314   */\n      tag_280\n        /* \"#utility.yul\":13310:13313   */\n      dup6\n        /* \"#utility.yul\":13292:13314   */\n      tag_136\n      jump\t// in\n    tag_280:\n        /* \"#utility.yul\":13282:13290   */\n      dup4\n        /* \"#utility.yul\":13278:13315   */\n      add\n        /* \"#utility.yul\":13265:13276   */\n      dup3\n        /* \"#utility.yul\":13236:13316   */\n      tag_145\n      jump\t// in\n    tag_279:\n        /* \"#utility.yul\":12895:13326   */\n      pop\n      pop\n        /* \"#utility.yul\":12880:13326   */\n    tag_275:\n        /* \"#utility.yul\":12790:13333   */\n      pop\n      pop\n      pop\n      jump\t// out\n        /* \"#utility.yul\":13339:13456   */\n    tag_147:\n        /* \"#utility.yul\":13393:13401   */\n      0x00\n        /* \"#utility.yul\":13443:13448   */\n      dup3\n        /* \"#utility.yul\":13437:13441   */\n      dup3\n        /* \"#utility.yul\":13433:13449   */\n      shr\n        /* \"#utility.yul\":13412:13449   */\n      swap1\n      pop\n        /* \"#utility.yul\":13339:13456   */\n      swap3\n      swap2\n      pop\n      pop\n      jump\t// out\n        /* \"#utility.yul\":13462:13631   */\n    tag_148:\n        /* \"#utility.yul\":13506:13512   */\n      0x00\n        /* \"#utility.yul\":13539:13590   */\n      tag_283\n        /* \"#utility.yul\":13587:13588   */\n      0x00\n        /* \"#utility.yul\":13583:13589   */\n      not\n        /* \"#utility.yul\":13575:13580   */\n      dup5\n        /* \"#utility.yul\":13572:13573   */\n      0x08\n        /* \"#utility.yul\":13568:13581   */\n      mul\n        /* \"#utility.yul\":13539:13590   */\n      tag_147\n      jump\t// in\n    tag_283:\n        /* \"#utility.yul\":13535:13591   */\n      not\n        /* \"#utility.yul\":13620:13624   */\n      dup1\n        /* \"#utility.yul\":13614:13618   */\n      dup4\n        /* \"#utility.yul\":13610:13625   */\n      and\n        /* \"#utility.yul\":13600:13625   */\n      swap2\n      pop\n        /* \"#utility.yul\":13513:13631   */\n      pop\n        /* \"#utility.yul\":13462:13631   */\n      swap3\n      swap2\n      pop\n      pop\n      jump\t// out\n        /* \"#utility.yul\":13636:13931   */\n    tag_149:\n        /* \"#utility.yul\":13712:13716   */\n      0x00\n        /* \"#utility.yul\":13858:13887   */\n      tag_285\n        /* \"#utility.yul\":13883:13886   */\n      dup4\n        /* \"#utility.yul\":13877:13881   */\n      dup4\n        /* \"#utility.yul\":13858:13887   */\n      tag_148\n      jump\t// in\n    tag_285:\n        /* \"#utility.yul\":13850:13887   */\n      swap2\n      pop\n        /* \"#utility.yul\":13920:13923   */\n      dup3\n        /* \"#utility.yul\":13917:13918   */\n      0x02\n        /* \"#utility.yul\":13913:13924   */\n      mul\n        /* \"#utility.yul\":13907:13911   */\n      dup3\n        /* \"#utility.yul\":13904:13925   */\n      or\n        /* \"#utility.yul\":13896:13925   */\n      swap1\n      pop\n        /* \"#utility.yul\":13636:13931   */\n      swap3\n      swap2\n      pop\n      pop\n      jump\t// out\n        /* \"#utility.yul\":13936:15331   */\n    tag_59:\n        /* \"#utility.yul\":14053:14090   */\n      tag_287\n        /* \"#utility.yul\":14086:14089   */\n      dup3\n        /* \"#utility.yul\":14053:14090   */\n      tag_114\n      jump\t// in\n    tag_287:\n        /* \"#utility.yul\":14155:14173   */\n      0xffffffffffffffff\n        /* \"#utility.yul\":14147:14153   */\n      dup2\n        /* \"#utility.yul\":14144:14174   */\n      gt\n        /* \"#utility.yul\":14141:14197   */\n      iszero\n      tag_288\n      jumpi\n        /* \"#utility.yul\":14177:14195   */\n      tag_289\n      tag_69\n      jump\t// in\n    tag_289:\n        /* \"#utility.yul\":14141:14197   */\n    tag_288:\n        /* \"#utility.yul\":14221:14259   */\n      tag_290\n        /* \"#utility.yul\":14253:14257   */\n      dup3\n        /* \"#utility.yul\":14247:14258   */\n      sload\n        /* \"#utility.yul\":14221:14259   */\n      tag_46\n      jump\t// in\n    tag_290:\n        /* \"#utility.yul\":14306:14373   */\n      tag_291\n        /* \"#utility.yul\":14366:14372   */\n      dup3\n        /* \"#utility.yul\":14358:14364   */\n      dup3\n        /* \"#utility.yul\":14352:14356   */\n      dup6\n        /* \"#utility.yul\":14306:14373   */\n      tag_146\n      jump\t// in\n    tag_291:\n        /* \"#utility.yul\":14400:14401   */\n      0x00\n        /* \"#utility.yul\":14424:14428   */\n      0x20\n        /* \"#utility.yul\":14411:14428   */\n      swap1\n      pop\n        /* \"#utility.yul\":14456:14458   */\n      0x1f\n        /* \"#utility.yul\":14448:14454   */\n      dup4\n        /* \"#utility.yul\":14445:14459   */\n      gt\n        /* \"#utility.yul\":14473:14474   */\n      0x01\n        /* \"#utility.yul\":14468:15086   */\n      dup2\n      eq\n      tag_293\n      jumpi\n        /* \"#utility.yul\":15130:15131   */\n      0x00\n        /* \"#utility.yul\":15147:15153   */\n      dup5\n        /* \"#utility.yul\":15144:15221   */\n      iszero\n      tag_294\n      jumpi\n        /* \"#utility.yul\":15196:15205   */\n      dup3\n        /* \"#utility.yul\":15191:15194   */\n      dup8\n        /* \"#utility.yul\":15187:15206   */\n      add\n        /* \"#utility.yul\":15181:15207   */\n      mload\n        /* \"#utility.yul\":15172:15207   */\n      swap1\n      pop\n        /* \"#utility.yul\":15144:15221   */\n    tag_294:\n        /* \"#utility.yul\":15247:15314   */\n      tag_295\n        /* \"#utility.yul\":15307:15313   */\n      dup6\n        /* \"#utility.yul\":15300:15305   */\n      dup3\n        /* \"#utility.yul\":15247:15314   */\n      tag_149\n      jump\t// in\n    tag_295:\n        /* \"#utility.yul\":15241:15245   */\n      dup7\n        /* \"#utility.yul\":15234:15315   */\n      sstore\n        /* \"#utility.yul\":15103:15325   */\n      pop\n        /* \"#utility.yul\":14438:15325   */\n      jump(tag_292)\n        /* \"#utility.yul\":14468:15086   */\n    tag_293:\n        /* \"#utility.yul\":14520:14524   */\n      0x1f\n        /* \"#utility.yul\":14516:14525   */\n      not\n        /* \"#utility.yul\":14508:14514   */\n      dup5\n        /* \"#utility.yul\":14504:14526   */\n      and\n        /* \"#utility.yul\":14554:14591   */\n      tag_296\n        /* \"#utility.yul\":14586:14590   */\n      dup7\n        /* \"#utility.yul\":14554:14591   */\n      tag_135\n      jump\t// in\n    tag_296:\n        /* \"#utility.yul\":14613:14614   */\n      0x00\n        /* \"#utility.yul\":14627:14835   */\n    tag_297:\n        /* \"#utility.yul\":14641:14648   */\n      dup3\n        /* \"#utility.yul\":14638:14639   */\n      dup2\n        /* \"#utility.yul\":14635:14649   */\n      lt\n        /* \"#utility.yul\":14627:14835   */\n      iszero\n      tag_299\n      jumpi\n        /* \"#utility.yul\":14720:14729   */\n      dup5\n        /* \"#utility.yul\":14715:14718   */\n      dup10\n        /* \"#utility.yul\":14711:14730   */\n      add\n        /* \"#utility.yul\":14705:14731   */\n      mload\n        /* \"#utility.yul\":14697:14703   */\n      dup3\n        /* \"#utility.yul\":14690:14732   */\n      sstore\n        /* \"#utility.yul\":14771:14772   */\n      0x01\n        /* \"#utility.yul\":14763:14769   */\n      dup3\n        /* \"#utility.yul\":14759:14773   */\n      add\n        /* \"#utility.yul\":14749:14773   */\n      swap2\n      pop\n        /* \"#utility.yul\":14818:14820   */\n      0x20\n        /* \"#utility.yul\":14807:14816   */\n      dup6\n        /* \"#utility.yul\":14803:14821   */\n      add\n        /* \"#utility.yul\":14790:14821   */\n      swap5\n      pop\n        /* \"#utility.yul\":14664:14668   */\n      0x20\n        /* \"#utility.yul\":14661:14662   */\n      dup2\n        /* \"#utility.yul\":14657:14669   */\n      add\n        /* \"#utility.yul\":14652:14669   */\n      swap1\n      pop\n        /* \"#utility.yul\":14627:14835   */\n      jump(tag_297)\n    tag_299:\n        /* \"#utility.yul\":14863:14869   */\n      dup7\n        /* \"#utility.yul\":14854:14861   */\n      dup4\n        /* \"#utility.yul\":14851:14870   */\n      lt\n        /* \"#utility.yul\":14848:15027   */\n      iszero\n      tag_300\n      jumpi\n        /* \"#utility.yul\":14921:14930   */\n      dup5\n        /* \"#utility.yul\":14916:14919   */\n      dup10\n        /* \"#utility.yul\":14912:14931   */\n      add\n        /* \"#utility.yul\":14906:14932   */\n      mload\n        /* \"#utility.yul\":14964:15012   */\n      tag_301\n        /* \"#utility.yul\":15006:15010   */\n      0x1f\n        /* \"#utility.yul\":14998:15004   */\n      dup10\n        /* \"#utility.yul\":14994:15011   */\n      and\n        /* \"#utility.yul\":14983:14992   */\n      dup3\n        /* \"#utility.yul\":14964:15012   */\n      tag_148\n      jump\t// in\n    tag_301:\n        /* \"#utility.yul\":14956:14962   */\n      dup4\n        /* \"#utility.yul\":14949:15013   */\n      sstore\n        /* \"#utility.yul\":14871:15027   */\n      pop\n        /* \"#utility.yul\":14848:15027   */\n    tag_300:\n        /* \"#utility.yul\":15073:15074   */\n      0x01\n        /* \"#utility.yul\":15069:15070   */\n      0x02\n        /* \"#utility.yul\":15061:15067   */\n      dup9\n        /* \"#utility.yul\":15057:15071   */\n      mul\n        /* \"#utility.yul\":15053:15075   */\n      add\n        /* \"#utility.yul\":15047:15051   */\n      dup9\n        /* \"#utility.yul\":15040:15076   */\n      sstore\n        /* \"#utility.yul\":14475:15086   */\n      pop\n      pop\n      pop\n        /* \"#utility.yul\":14438:15325   */\n    tag_292:\n      pop\n        /* \"#utility.yul\":14028:15331   */\n      pop\n      pop\n      pop\n        /* \"#utility.yul\":13936:15331   */\n      pop\n      pop\n      jump\t// out\n        /* \"#utility.yul\":15337:15517   */\n    tag_150:\n        /* \"#utility.yul\":15385:15462   */\n      0x4e487b7100000000000000000000000000000000000000000000000000000000\n        /* \"#utility.yul\":15382:15383   */\n      0x00\n        /* \"#utility.yul\":15375:15463   */\n      mstore\n        /* \"#utility.yul\":15482:15486   */\n      0x11\n        /* \"#utility.yul\":15479:15480   */\n      0x04\n        /* \"#utility.yul\":15472:15487   */\n      mstore\n        /* \"#utility.yul\":15506:15510   */\n      0x24\n        /* \"#utility.yul\":15503:15504   */\n      0x00\n        /* \"#utility.yul\":15496:15511   */\n      revert\n        /* \"#utility.yul\":15523:15714   */\n    tag_77:\n        /* \"#utility.yul\":15563:15566   */\n      0x00\n        /* \"#utility.yul\":15582:15602   */\n      tag_304\n        /* \"#utility.yul\":15600:15601   */\n      dup3\n        /* \"#utility.yul\":15582:15602   */\n      tag_106\n      jump\t// in\n    tag_304:\n        /* \"#utility.yul\":15577:15602   */\n      swap2\n      pop\n        /* \"#utility.yul\":15616:15636   */\n      tag_305\n        /* \"#utility.yul\":15634:15635   */\n      dup4\n        /* \"#utility.yul\":15616:15636   */\n      tag_106\n      jump\t// in\n    tag_305:\n        /* \"#utility.yul\":15611:15636   */\n      swap3\n      pop\n        /* \"#utility.yul\":15659:15660   */\n      dup3\n        /* \"#utility.yul\":15656:15657   */\n      dup3\n        /* \"#utility.yul\":15652:15661   */\n      add\n        /* \"#utility.yul\":15645:15661   */\n      swap1\n      pop\n        /* \"#utility.yul\":15680:15683   */\n      dup1\n        /* \"#utility.yul\":15677:15678   */\n      dup3\n        /* \"#utility.yul\":15674:15684   */\n      gt\n        /* \"#utility.yul\":15671:15707   */\n      iszero\n      tag_306\n      jumpi\n        /* \"#utility.yul\":15687:15705   */\n      tag_307\n      tag_150\n      jump\t// in\n    tag_307:\n        /* \"#utility.yul\":15671:15707   */\n    tag_306:\n        /* \"#utility.yul\":15523:15714   */\n      swap3\n      swap2\n      pop\n      pop\n      jump\t// out\n        /* \"#utility.yul\":15720:15900   */\n    tag_85:\n        /* \"#utility.yul\":15768:15845   */\n      0x4e487b7100000000000000000000000000000000000000000000000000000000\n        /* \"#utility.yul\":15765:15766   */\n      0x00\n        /* \"#utility.yul\":15758:15846   */\n      mstore\n        /* \"#utility.yul\":15865:15869   */\n      0x32\n        /* \"#utility.yul\":15862:15863   */\n      0x04\n        /* \"#utility.yul\":15855:15870   */\n      mstore\n        /* \"#utility.yul\":15889:15893   */\n      0x24\n        /* \"#utility.yul\":15886:15887   */\n      0x00\n        /* \"#utility.yul\":15879:15894   */\n      revert\n        /* \"#utility.yul\":15906:16128   */\n    tag_151:\n        /* \"#utility.yul\":16046:16080   */\n      0x4e6f206974656d20776974682074686520676976656e20696e64657820666f75\n        /* \"#utility.yul\":16042:16043   */\n      0x00\n        /* \"#utility.yul\":16034:16040   */\n      dup3\n        /* \"#utility.yul\":16030:16044   */\n      add\n        /* \"#utility.yul\":16023:16081   */\n      mstore\n        /* \"#utility.yul\":16115:16120   */\n      0x6e642e0000000000000000000000000000000000000000000000000000000000\n        /* \"#utility.yul\":16110:16112   */\n      0x20\n        /* \"#utility.yul\":16102:16108   */\n      dup3\n        /* \"#utility.yul\":16098:16113   */\n      add\n        /* \"#utility.yul\":16091:16121   */\n      mstore\n        /* \"#utility.yul\":15906:16128   */\n      pop\n      jump\t// out\n        /* \"#utility.yul\":16134:16500   */\n    tag_152:\n        /* \"#utility.yul\":16276:16279   */\n      0x00\n        /* \"#utility.yul\":16297:16364   */\n      tag_311\n        /* \"#utility.yul\":16361:16363   */\n      0x23\n        /* \"#utility.yul\":16356:16359   */\n      dup4\n        /* \"#utility.yul\":16297:16364   */\n      tag_132\n      jump\t// in\n    tag_311:\n        /* \"#utility.yul\":16290:16364   */\n      swap2\n      pop\n        /* \"#utility.yul\":16373:16466   */\n      tag_312\n        /* \"#utility.yul\":16462:16465   */\n      dup3\n        /* \"#utility.yul\":16373:16466   */\n      tag_151\n      jump\t// in\n    tag_312:\n        /* \"#utility.yul\":16491:16493   */\n      0x40\n        /* \"#utility.yul\":16486:16489   */\n      dup3\n        /* \"#utility.yul\":16482:16494   */\n      add\n        /* \"#utility.yul\":16475:16494   */\n      swap1\n      pop\n        /* \"#utility.yul\":16134:16500   */\n      swap2\n      swap1\n      pop\n      jump\t// out\n        /* \"#utility.yul\":16506:16925   */\n    tag_90:\n        /* \"#utility.yul\":16672:16676   */\n      0x00\n        /* \"#utility.yul\":16710:16712   */\n      0x20\n        /* \"#utility.yul\":16699:16708   */\n      dup3\n        /* \"#utility.yul\":16695:16713   */\n      add\n        /* \"#utility.yul\":16687:16713   */\n      swap1\n      pop\n        /* \"#utility.yul\":16759:16768   */\n      dup2\n        /* \"#utility.yul\":16753:16757   */\n      dup2\n        /* \"#utility.yul\":16749:16769   */\n      sub\n        /* \"#utility.yul\":16745:16746   */\n      0x00\n        /* \"#utility.yul\":16734:16743   */\n      dup4\n        /* \"#utility.yul\":16730:16747   */\n      add\n        /* \"#utility.yul\":16723:16770   */\n      mstore\n        /* \"#utility.yul\":16787:16918   */\n      tag_314\n        /* \"#utility.yul\":16913:16917   */\n      dup2\n        /* \"#utility.yul\":16787:16918   */\n      tag_152\n      jump\t// in\n    tag_314:\n        /* \"#utility.yul\":16779:16918   */\n      swap1\n      pop\n        /* \"#utility.yul\":16506:16925   */\n      swap2\n      swap1\n      pop\n      jump\t// out\n        /* \"#utility.yul\":16931:17028   */\n    tag_153:\n        /* \"#utility.yul\":16990:16996   */\n      0x00\n        /* \"#utility.yul\":17018:17021   */\n      dup3\n        /* \"#utility.yul\":17008:17021   */\n      swap1\n      pop\n        /* \"#utility.yul\":16931:17028   */\n      swap3\n      swap2\n      pop\n      pop\n      jump\t// out\n        /* \"#utility.yul\":17034:18437   */\n    tag_92:\n        /* \"#utility.yul\":17158:17202   */\n      tag_317\n        /* \"#utility.yul\":17198:17201   */\n      dup4\n        /* \"#utility.yul\":17193:17196   */\n      dup4\n        /* \"#utility.yul\":17158:17202   */\n      tag_153\n      jump\t// in\n    tag_317:\n        /* \"#utility.yul\":17267:17285   */\n      0xffffffffffffffff\n        /* \"#utility.yul\":17259:17265   */\n      dup2\n        /* \"#utility.yul\":17256:17286   */\n      gt\n        /* \"#utility.yul\":17253:17309   */\n      iszero\n      tag_318\n      jumpi\n        /* \"#utility.yul\":17289:17307   */\n      tag_319\n      tag_69\n      jump\t// in\n    tag_319:\n        /* \"#utility.yul\":17253:17309   */\n    tag_318:\n        /* \"#utility.yul\":17333:17371   */\n      tag_320\n        /* \"#utility.yul\":17365:17369   */\n      dup3\n        /* \"#utility.yul\":17359:17370   */\n      sload\n        /* \"#utility.yul\":17333:17371   */\n      tag_46\n      jump\t// in\n    tag_320:\n        /* \"#utility.yul\":17418:17485   */\n      tag_321\n        /* \"#utility.yul\":17478:17484   */\n      dup3\n        /* \"#utility.yul\":17470:17476   */\n      dup3\n        /* \"#utility.yul\":17464:17468   */\n      dup6\n        /* \"#utility.yul\":17418:17485   */\n      tag_146\n      jump\t// in\n    tag_321:\n        /* \"#utility.yul\":17512:17513   */\n      0x00\n        /* \"#utility.yul\":17541:17543   */\n      0x1f\n        /* \"#utility.yul\":17533:17539   */\n      dup4\n        /* \"#utility.yul\":17530:17544   */\n      gt\n        /* \"#utility.yul\":17558:17559   */\n      0x01\n        /* \"#utility.yul\":17553:18185   */\n      dup2\n      eq\n      tag_323\n      jumpi\n        /* \"#utility.yul\":18229:18230   */\n      0x00\n        /* \"#utility.yul\":18246:18252   */\n      dup5\n        /* \"#utility.yul\":18243:18327   */\n      iszero\n      tag_324\n      jumpi\n        /* \"#utility.yul\":18302:18311   */\n      dup3\n        /* \"#utility.yul\":18297:18300   */\n      dup8\n        /* \"#utility.yul\":18293:18312   */\n      add\n        /* \"#utility.yul\":18280:18313   */\n      calldataload\n        /* \"#utility.yul\":18271:18313   */\n      swap1\n      pop\n        /* \"#utility.yul\":18243:18327   */\n    tag_324:\n        /* \"#utility.yul\":18353:18420   */\n      tag_325\n        /* \"#utility.yul\":18413:18419   */\n      dup6\n        /* \"#utility.yul\":18406:18411   */\n      dup3\n        /* \"#utility.yul\":18353:18420   */\n      tag_149\n      jump\t// in\n    tag_325:\n        /* \"#utility.yul\":18347:18351   */\n      dup7\n        /* \"#utility.yul\":18340:18421   */\n      sstore\n        /* \"#utility.yul\":18202:18431   */\n      pop\n        /* \"#utility.yul\":17523:18431   */\n      jump(tag_322)\n        /* \"#utility.yul\":17553:18185   */\n    tag_323:\n        /* \"#utility.yul\":17605:17609   */\n      0x1f\n        /* \"#utility.yul\":17601:17610   */\n      not\n        /* \"#utility.yul\":17593:17599   */\n      dup5\n        /* \"#utility.yul\":17589:17611   */\n      and\n        /* \"#utility.yul\":17639:17676   */\n      tag_326\n        /* \"#utility.yul\":17671:17675   */\n      dup7\n        /* \"#utility.yul\":17639:17676   */\n      tag_135\n      jump\t// in\n    tag_326:\n        /* \"#utility.yul\":17698:17699   */\n      0x00\n        /* \"#utility.yul\":17712:17927   */\n    tag_327:\n        /* \"#utility.yul\":17726:17733   */\n      dup3\n        /* \"#utility.yul\":17723:17724   */\n      dup2\n        /* \"#utility.yul\":17720:17734   */\n      lt\n        /* \"#utility.yul\":17712:17927   */\n      iszero\n      tag_329\n      jumpi\n        /* \"#utility.yul\":17812:17821   */\n      dup5\n        /* \"#utility.yul\":17807:17810   */\n      dup10\n        /* \"#utility.yul\":17803:17822   */\n      add\n        /* \"#utility.yul\":17790:17823   */\n      calldataload\n        /* \"#utility.yul\":17782:17788   */\n      dup3\n        /* \"#utility.yul\":17775:17824   */\n      sstore\n        /* \"#utility.yul\":17863:17864   */\n      0x01\n        /* \"#utility.yul\":17855:17861   */\n      dup3\n        /* \"#utility.yul\":17851:17865   */\n      add\n        /* \"#utility.yul\":17841:17865   */\n      swap2\n      pop\n        /* \"#utility.yul\":17910:17912   */\n      0x20\n        /* \"#utility.yul\":17899:17908   */\n      dup6\n        /* \"#utility.yul\":17895:17913   */\n      add\n        /* \"#utility.yul\":17882:17913   */\n      swap5\n      pop\n        /* \"#utility.yul\":17749:17753   */\n      0x20\n        /* \"#utility.yul\":17746:17747   */\n      dup2\n        /* \"#utility.yul\":17742:17754   */\n      add\n        /* \"#utility.yul\":17737:17754   */\n      swap1\n      pop\n        /* \"#utility.yul\":17712:17927   */\n      jump(tag_327)\n    tag_329:\n        /* \"#utility.yul\":17955:17961   */\n      dup7\n        /* \"#utility.yul\":17946:17953   */\n      dup4\n        /* \"#utility.yul\":17943:17962   */\n      lt\n        /* \"#utility.yul\":17940:18126   */\n      iszero\n      tag_330\n      jumpi\n        /* \"#utility.yul\":18020:18029   */\n      dup5\n        /* \"#utility.yul\":18015:18018   */\n      dup10\n        /* \"#utility.yul\":18011:18030   */\n      add\n        /* \"#utility.yul\":17998:18031   */\n      calldataload\n        /* \"#utility.yul\":18063:18111   */\n      tag_331\n        /* \"#utility.yul\":18105:18109   */\n      0x1f\n        /* \"#utility.yul\":18097:18103   */\n      dup10\n        /* \"#utility.yul\":18093:18110   */\n      and\n        /* \"#utility.yul\":18082:18091   */\n      dup3\n        /* \"#utility.yul\":18063:18111   */\n      tag_148\n      jump\t// in\n    tag_331:\n        /* \"#utility.yul\":18055:18061   */\n      dup4\n        /* \"#utility.yul\":18048:18112   */\n      sstore\n        /* \"#utility.yul\":17963:18126   */\n      pop\n        /* \"#utility.yul\":17940:18126   */\n    tag_330:\n        /* \"#utility.yul\":18172:18173   */\n      0x01\n        /* \"#utility.yul\":18168:18169   */\n      0x02\n        /* \"#utility.yul\":18160:18166   */\n      dup9\n        /* \"#utility.yul\":18156:18170   */\n      mul\n        /* \"#utility.yul\":18152:18174   */\n      add\n        /* \"#utility.yul\":18146:18150   */\n      dup9\n        /* \"#utility.yul\":18139:18175   */\n      sstore\n        /* \"#utility.yul\":17560:18185   */\n      pop\n      pop\n      pop\n        /* \"#utility.yul\":17523:18431   */\n    tag_322:\n      pop\n        /* \"#utility.yul\":17133:18437   */\n      pop\n      pop\n      pop\n        /* \"#utility.yul\":17034:18437   */\n      pop\n      pop\n      pop\n      jump\t// out\n        /* \"#utility.yul\":18443:18614   */\n    tag_95:\n        /* \"#utility.yul\":18482:18485   */\n      0x00\n        /* \"#utility.yul\":18505:18529   */\n      tag_333\n        /* \"#utility.yul\":18523:18528   */\n      dup3\n        /* \"#utility.yul\":18505:18529   */\n      tag_106\n      jump\t// in\n    tag_333:\n        /* \"#utility.yul\":18496:18529   */\n      swap2\n      pop\n        /* \"#utility.yul\":18551:18555   */\n      0x00\n        /* \"#utility.yul\":18544:18549   */\n      dup3\n        /* \"#utility.yul\":18541:18556   */\n      sub\n        /* \"#utility.yul\":18538:18579   */\n      tag_334\n      jumpi\n        /* \"#utility.yul\":18559:18577   */\n      tag_335\n      tag_150\n      jump\t// in\n    tag_335:\n        /* \"#utility.yul\":18538:18579   */\n    tag_334:\n        /* \"#utility.yul\":18606:18607   */\n      0x01\n        /* \"#utility.yul\":18599:18604   */\n      dup3\n        /* \"#utility.yul\":18595:18608   */\n      sub\n        /* \"#utility.yul\":18588:18608   */\n      swap1\n      pop\n        /* \"#utility.yul\":18443:18614   */\n      swap2\n      swap1\n      pop\n      jump\t// out\n        /* \"#utility.yul\":18620:18853   */\n    tag_98:\n        /* \"#utility.yul\":18659:18662   */\n      0x00\n        /* \"#utility.yul\":18682:18706   */\n      tag_337\n        /* \"#utility.yul\":18700:18705   */\n      dup3\n        /* \"#utility.yul\":18682:18706   */\n      tag_106\n      jump\t// in\n    tag_337:\n        /* \"#utility.yul\":18673:18706   */\n      swap2\n      pop\n        /* \"#utility.yul\":18728:18794   */\n      0xffffffffffffffffffffffffffffffffffffffffffffffffffffffffffffffff\n        /* \"#utility.yul\":18721:18726   */\n      dup3\n        /* \"#utility.yul\":18718:18795   */\n      sub\n        /* \"#utility.yul\":18715:18818   */\n      tag_338\n      jumpi\n        /* \"#utility.yul\":18798:18816   */\n      tag_339\n      tag_150\n      jump\t// in\n    tag_339:\n        /* \"#utility.yul\":18715:18818   */\n    tag_338:\n        /* \"#utility.yul\":18845:18846   */\n      0x01\n        /* \"#utility.yul\":18838:18843   */\n      dup3\n        /* \"#utility.yul\":18834:18847   */\n      add\n        /* \"#utility.yul\":18827:18847   */\n      swap1\n      pop\n        /* \"#utility.yul\":18620:18853   */\n      swap2\n      swap1\n      pop\n      jump\t// out\n\n    auxdata: 0xa2646970667358221220374d1b1527d30c59d8b652c80e9e55e97aa6378c7bd6f742ecedd751e51981fe64736f6c634300081a0033\n}\n",
				"bytecode": {
					"linkReferences": {},
					"object": "60806040525f6001553480156012575f80fd5b50335f806101000a81548173ffffffffffffffffffffffffffffffffffffffff021916908373ffffffffffffffffffffffffffffffffffffffff1602179055506110028061005f5f395ff3fe608060405234801561000f575f80fd5b5060043610610060575f3560e01c806306661abd146100645780634cc82215146100825780639507d39a1461009e578063b0c8f9dc146100ce578063cdb3deb6146100ea578063f745630f1461011a575b5f80fd5b61006c610136565b604051610079919061062d565b60405180910390f35b61009c60048036038101906100979190610678565b61013f565b005b6100b860048036038101906100b39190610678565b610173565b6040516100c5919061075c565b60405180910390f35b6100e860048036038101906100e391906107dd565b61023c565b005b61010460048036038101906100ff9190610828565b610363565b604051610111919061095b565b60405180910390f35b610134600480360381019061012f919061097b565b6104f7565b005b5f600154905090565b60025f8281526020019081526020015f205f8082015f9055600182015f61016691906105a4565b5050610170610572565b50565b61017b6105e1565b5f60025f8481526020019081526020015f209050806040518060400160405290815f82015481526020016001820180546101b490610a05565b80601f01602080910402602001604051908101604052809291908181526020018280546101e090610a05565b801561022b5780601f106102025761010080835404028352916020019161022b565b820191905f5260205f20905b81548152906001019060200180831161020e57829003601f168201915b505050505081525050915050919050565b3373ffffffffffffffffffffffffffffffffffffffff165f8054906101000a900473ffffffffffffffffffffffffffffffffffffffff1673ffffffffffffffffffffffffffffffffffffffff16146102c9576040517f08c379a00000000000000000000000000000000000000000000000000000000081526004016102c090610ab5565b60405180910390fd5b6102d161058b565b6040518060400160405280600154815260200183838080601f0160208091040260200160405190810160405280939291908181526020018383808284375f81840152601f19601f8201169050808301925050505050505081525060025f60015481526020019081526020015f205f820151815f0155602082015181600101908161035b9190610c9d565b509050505050565b60606001548310156103755782610379565b6001545b92505f82111561039b5760015482116103925781610396565b6001545b61039e565b60015b91505f8367ffffffffffffffff8111156103bb576103ba610ad3565b5b6040519080825280602002602001820160405280156103f457816020015b6103e16105e1565b8152602001906001900390816103d95790505b5090505f5b848110156104ec5760025f85836104109190610d99565b81526020019081526020015f206040518060400160405290815f820154815260200160018201805461044190610a05565b80601f016020809104026020016040519081016040528092919081815260200182805461046d90610a05565b80156104b85780601f1061048f576101008083540402835291602001916104b8565b820191905f5260205f20905b81548152906001019060200180831161049b57829003601f168201915b5050505050815250508282815181106104d4576104d3610dcc565b5b602002602001018190525080806001019150506103f9565b508091505092915050565b6001548310158061050a57506001548311155b610549576040517f08c379a000000000000000000000000000000000000000000000000000000000815260040161054090610e69565b60405180910390fd5b818160025f8681526020019081526020015f20600101918261056c929190610e91565b50505050565b60015f81548092919061058490610f5e565b9190505550565b60015f81548092919061059d90610f85565b9190505550565b5080546105b090610a05565b5f825580601f106105c157506105de565b601f0160209004905f5260205f20908101906105dd91906105fa565b5b50565b60405180604001604052805f8152602001606081525090565b5b80821115610611575f815f9055506001016105fb565b5090565b5f819050919050565b61062781610615565b82525050565b5f6020820190506106405f83018461061e565b92915050565b5f80fd5b5f80fd5b61065781610615565b8114610661575f80fd5b50565b5f813590506106728161064e565b92915050565b5f6020828403121561068d5761068c610646565b5b5f61069a84828501610664565b91505092915050565b6106ac81610615565b82525050565b5f81519050919050565b5f82825260208201905092915050565b8281835e5f83830152505050565b5f601f19601f8301169050919050565b5f6106f4826106b2565b6106fe81856106bc565b935061070e8185602086016106cc565b610717816106da565b840191505092915050565b5f604083015f8301516107375f8601826106a3565b506020830151848203602086015261074f82826106ea565b9150508091505092915050565b5f6020820190508181035f8301526107748184610722565b905092915050565b5f80fd5b5f80fd5b5f80fd5b5f8083601f84011261079d5761079c61077c565b5b8235905067ffffffffffffffff8111156107ba576107b9610780565b5b6020830191508360018202830111156107d6576107d5610784565b5b9250929050565b5f80602083850312156107f3576107f2610646565b5b5f83013567ffffffffffffffff8111156108105761080f61064a565b5b61081c85828601610788565b92509250509250929050565b5f806040838503121561083e5761083d610646565b5b5f61084b85828601610664565b925050602061085c85828601610664565b9150509250929050565b5f81519050919050565b5f82825260208201905092915050565b5f819050602082019050919050565b5f604083015f8301516108a45f8601826106a3565b50602083015184820360208601526108bc82826106ea565b9150508091505092915050565b5f6108d4838361088f565b905092915050565b5f602082019050919050565b5f6108f282610866565b6108fc8185610870565b93508360208202850161090e85610880565b805f5b85811015610949578484038952815161092a85826108c9565b9450610935836108dc565b925060208a01995050600181019050610911565b50829750879550505050505092915050565b5f6020820190508181035f83015261097381846108e8565b905092915050565b5f805f6040848603121561099257610991610646565b5b5f61099f86828701610664565b935050602084013567ffffffffffffffff8111156109c0576109bf61064a565b5b6109cc86828701610788565b92509250509250925092565b7f4e487b71000000000000000000000000000000000000000000000000000000005f52602260045260245ffd5b5f6002820490506001821680610a1c57607f821691505b602082108103610a2f57610a2e6109d8565b5b50919050565b5f82825260208201905092915050565b7f4f6e6c7920617574686f72697a656420706572736f6e656c2063616e206164645f8201527f206e657720656e74726965732e00000000000000000000000000000000000000602082015250565b5f610a9f602d83610a35565b9150610aaa82610a45565b604082019050919050565b5f6020820190508181035f830152610acc81610a93565b9050919050565b7f4e487b71000000000000000000000000000000000000000000000000000000005f52604160045260245ffd5b5f819050815f5260205f209050919050565b5f6020601f8301049050919050565b5f82821b905092915050565b5f60088302610b5c7fffffffffffffffffffffffffffffffffffffffffffffffffffffffffffffffff82610b21565b610b668683610b21565b95508019841693508086168417925050509392505050565b5f819050919050565b5f610ba1610b9c610b9784610615565b610b7e565b610615565b9050919050565b5f819050919050565b610bba83610b87565b610bce610bc682610ba8565b848454610b2d565b825550505050565b5f90565b610be2610bd6565b610bed818484610bb1565b505050565b5b81811015610c1057610c055f82610bda565b600181019050610bf3565b5050565b601f821115610c5557610c2681610b00565b610c2f84610b12565b81016020851015610c3e578190505b610c52610c4a85610b12565b830182610bf2565b50505b505050565b5f82821c905092915050565b5f610c755f1984600802610c5a565b1980831691505092915050565b5f610c8d8383610c66565b9150826002028217905092915050565b610ca6826106b2565b67ffffffffffffffff811115610cbf57610cbe610ad3565b5b610cc98254610a05565b610cd4828285610c14565b5f60209050601f831160018114610d05575f8415610cf3578287015190505b610cfd8582610c82565b865550610d64565b601f198416610d1386610b00565b5f5b82811015610d3a57848901518255600182019150602085019450602081019050610d15565b86831015610d575784890151610d53601f891682610c66565b8355505b6001600288020188555050505b505050505050565b7f4e487b71000000000000000000000000000000000000000000000000000000005f52601160045260245ffd5b5f610da382610615565b9150610dae83610615565b9250828201905080821115610dc657610dc5610d6c565b5b92915050565b7f4e487b71000000000000000000000000000000000000000000000000000000005f52603260045260245ffd5b7f4e6f206974656d20776974682074686520676976656e20696e64657820666f755f8201527f6e642e0000000000000000000000000000000000000000000000000000000000602082015250565b5f610e53602383610a35565b9150610e5e82610df9565b604082019050919050565b5f6020820190508181035f830152610e8081610e47565b9050919050565b5f82905092915050565b610e9b8383610e87565b67ffffffffffffffff811115610eb457610eb3610ad3565b5b610ebe8254610a05565b610ec9828285610c14565b5f601f831160018114610ef6575f8415610ee4578287013590505b610eee8582610c82565b865550610f55565b601f198416610f0486610b00565b5f5b82811015610f2b57848901358255600182019150602085019450602081019050610f06565b86831015610f485784890135610f44601f891682610c66565b8355505b6001600288020188555050505b50505050505050565b5f610f6882610615565b91505f8203610f7a57610f79610d6c565b5b600182039050919050565b5f610f8f82610615565b91507fffffffffffffffffffffffffffffffffffffffffffffffffffffffffffffffff8203610fc157610fc0610d6c565b5b60018201905091905056fea2646970667358221220374d1b1527d30c59d8b652c80e9e55e97aa6378c7bd6f742ecedd751e51981fe64736f6c634300081a0033",
					"opcodes": "PUSH1 0x80 PUSH1 0x40 MSTORE PUSH0 PUSH1 0x1 SSTORE CALLVALUE DUP1 ISZERO PUSH1 0x12 JUMPI PUSH0 DUP1 REVERT JUMPDEST POP CALLER PUSH0 DUP1 PUSH2 0x100 EXP DUP2 SLOAD DUP2 PUSH20 0xFFFFFFFFFFFFFFFFFFFFFFFFFFFFFFFFFFFFFFFF MUL NOT AND SWAP1 DUP4 PUSH20 0xFFFFFFFFFFFFFFFFFFFFFFFFFFFFFFFFFFFFFFFF AND MUL OR SWAP1 SSTORE POP PUSH2 0x1002 DUP1 PUSH2 0x5F PUSH0 CODECOPY PUSH0 RETURN INVALID PUSH1 0x80 PUSH1 0x40 MSTORE CALLVALUE DUP1 ISZERO PUSH2 0xF JUMPI PUSH0 DUP1 REVERT JUMPDEST POP PUSH1 0x4 CALLDATASIZE LT PUSH2 0x60 JUMPI PUSH0 CALLDATALOAD PUSH1 0xE0 SHR DUP1 PUSH4 0x6661ABD EQ PUSH2 0x64 JUMPI DUP1 PUSH4 0x4CC82215 EQ PUSH2 0x82 JUMPI DUP1 PUSH4 0x9507D39A EQ PUSH2 0x9E JUMPI DUP1 PUSH4 0xB0C8F9DC EQ PUSH2 0xCE JUMPI DUP1 PUSH4 0xCDB3DEB6 EQ PUSH2 0xEA JUMPI DUP1 PUSH4 0xF745630F EQ PUSH2 0x11A JUMPI JUMPDEST PUSH0 DUP1 REVERT JUMPDEST PUSH2 0x6C PUSH2 0x136 JUMP JUMPDEST PUSH1 0x40 MLOAD PUSH2 0x79 SWAP2 SWAP1 PUSH2 0x62D JUMP JUMPDEST PUSH1 0x40 MLOAD DUP1 SWAP2 SUB SWAP1 RETURN JUMPDEST PUSH2 0x9C PUSH1 0x4 DUP1 CALLDATASIZE SUB DUP2 ADD SWAP1 PUSH2 0x97 SWAP2 SWAP1 PUSH2 0x678 JUMP JUMPDEST PUSH2 0x13F JUMP JUMPDEST STOP JUMPDEST PUSH2 0xB8 PUSH1 0x4 DUP1 CALLDATASIZE SUB DUP2 ADD SWAP1 PUSH2 0xB3 SWAP2 SWAP1 PUSH2 0x678 JUMP JUMPDEST PUSH2 0x173 JUMP JUMPDEST PUSH1 0x40 MLOAD PUSH2 0xC5 SWAP2 SWAP1 PUSH2 0x75C JUMP JUMPDEST PUSH1 0x40 MLOAD DUP1 SWAP2 SUB SWAP1 RETURN JUMPDEST PUSH2 0xE8 PUSH1 0x4 DUP1 CALLDATASIZE SUB DUP2 ADD SWAP1 PUSH2 0xE3 SWAP2 SWAP1 PUSH2 0x7DD JUMP JUMPDEST PUSH2 0x23C JUMP JUMPDEST STOP JUMPDEST PUSH2 0x104 PUSH1 0x4 DUP1 CALLDATASIZE SUB DUP2 ADD SWAP1 PUSH2 0xFF SWAP2 SWAP1 PUSH2 0x828 JUMP JUMPDEST PUSH2 0x363 JUMP JUMPDEST PUSH1 0x40 MLOAD PUSH2 0x111 SWAP2 SWAP1 PUSH2 0x95B JUMP JUMPDEST PUSH1 0x40 MLOAD DUP1 SWAP2 SUB SWAP1 RETURN JUMPDEST PUSH2 0x134 PUSH1 0x4 DUP1 CALLDATASIZE SUB DUP2 ADD SWAP1 PUSH2 0x12F SWAP2 SWAP1 PUSH2 0x97B JUMP JUMPDEST PUSH2 0x4F7 JUMP JUMPDEST STOP JUMPDEST PUSH0 PUSH1 0x1 SLOAD SWAP1 POP SWAP1 JUMP JUMPDEST PUSH1 0x2 PUSH0 DUP3 DUP2 MSTORE PUSH1 0x20 ADD SWAP1 DUP2 MSTORE PUSH1 0x20 ADD PUSH0 KECCAK256 PUSH0 DUP1 DUP3 ADD PUSH0 SWAP1 SSTORE PUSH1 0x1 DUP3 ADD PUSH0 PUSH2 0x166 SWAP2 SWAP1 PUSH2 0x5A4 JUMP JUMPDEST POP POP PUSH2 0x170 PUSH2 0x572 JUMP JUMPDEST POP JUMP JUMPDEST PUSH2 0x17B PUSH2 0x5E1 JUMP JUMPDEST PUSH0 PUSH1 0x2 PUSH0 DUP5 DUP2 MSTORE PUSH1 0x20 ADD SWAP1 DUP2 MSTORE PUSH1 0x20 ADD PUSH0 KECCAK256 SWAP1 POP DUP1 PUSH1 0x40 MLOAD DUP1 PUSH1 0x40 ADD PUSH1 0x40 MSTORE SWAP1 DUP2 PUSH0 DUP3 ADD SLOAD DUP2 MSTORE PUSH1 0x20 ADD PUSH1 0x1 DUP3 ADD DUP1 SLOAD PUSH2 0x1B4 SWAP1 PUSH2 0xA05 JUMP JUMPDEST DUP1 PUSH1 0x1F ADD PUSH1 0x20 DUP1 SWAP2 DIV MUL PUSH1 0x20 ADD PUSH1 0x40 MLOAD SWAP1 DUP2 ADD PUSH1 0x40 MSTORE DUP1 SWAP3 SWAP2 SWAP1 DUP2 DUP2 MSTORE PUSH1 0x20 ADD DUP3 DUP1 SLOAD PUSH2 0x1E0 SWAP1 PUSH2 0xA05 JUMP JUMPDEST DUP1 ISZERO PUSH2 0x22B JUMPI DUP1 PUSH1 0x1F LT PUSH2 0x202 JUMPI PUSH2 0x100 DUP1 DUP4 SLOAD DIV MUL DUP4 MSTORE SWAP2 PUSH1 0x20 ADD SWAP2 PUSH2 0x22B JUMP JUMPDEST DUP3 ADD SWAP2 SWAP1 PUSH0 MSTORE PUSH1 0x20 PUSH0 KECCAK256 SWAP1 JUMPDEST DUP2 SLOAD DUP2 MSTORE SWAP1 PUSH1 0x1 ADD SWAP1 PUSH1 0x20 ADD DUP1 DUP4 GT PUSH2 0x20E JUMPI DUP3 SWAP1 SUB PUSH1 0x1F AND DUP3 ADD SWAP2 JUMPDEST POP POP POP POP POP DUP2 MSTORE POP POP SWAP2 POP POP SWAP2 SWAP1 POP JUMP JUMPDEST CALLER PUSH20 0xFFFFFFFFFFFFFFFFFFFFFFFFFFFFFFFFFFFFFFFF AND PUSH0 DUP1 SLOAD SWAP1 PUSH2 0x100 EXP SWAP1 DIV PUSH20 0xFFFFFFFFFFFFFFFFFFFFFFFFFFFFFFFFFFFFFFFF AND PUSH20 0xFFFFFFFFFFFFFFFFFFFFFFFFFFFFFFFFFFFFFFFF AND EQ PUSH2 0x2C9 JUMPI PUSH1 0x40 MLOAD PUSH32 0x8C379A000000000000000000000000000000000000000000000000000000000 DUP2 MSTORE PUSH1 0x4 ADD PUSH2 0x2C0 SWAP1 PUSH2 0xAB5 JUMP JUMPDEST PUSH1 0x40 MLOAD DUP1 SWAP2 SUB SWAP1 REVERT JUMPDEST PUSH2 0x2D1 PUSH2 0x58B JUMP JUMPDEST PUSH1 0x40 MLOAD DUP1 PUSH1 0x40 ADD PUSH1 0x40 MSTORE DUP1 PUSH1 0x1 SLOAD DUP2 MSTORE PUSH1 0x20 ADD DUP4 DUP4 DUP1 DUP1 PUSH1 0x1F ADD PUSH1 0x20 DUP1 SWAP2 DIV MUL PUSH1 0x20 ADD PUSH1 0x40 MLOAD SWAP1 DUP2 ADD PUSH1 0x40 MSTORE DUP1 SWAP4 SWAP3 SWAP2 SWAP1 DUP2 DUP2 MSTORE PUSH1 0x20 ADD DUP4 DUP4 DUP1 DUP3 DUP5 CALLDATACOPY PUSH0 DUP2 DUP5 ADD MSTORE PUSH1 0x1F NOT PUSH1 0x1F DUP3 ADD AND SWAP1 POP DUP1 DUP4 ADD SWAP3 POP POP POP POP POP POP POP DUP2 MSTORE POP PUSH1 0x2 PUSH0 PUSH1 0x1 SLOAD DUP2 MSTORE PUSH1 0x20 ADD SWAP1 DUP2 MSTORE PUSH1 0x20 ADD PUSH0 KECCAK256 PUSH0 DUP3 ADD MLOAD DUP2 PUSH0 ADD SSTORE PUSH1 0x20 DUP3 ADD MLOAD DUP2 PUSH1 0x1 ADD SWAP1 DUP2 PUSH2 0x35B SWAP2 SWAP1 PUSH2 0xC9D JUMP JUMPDEST POP SWAP1 POP POP POP POP JUMP JUMPDEST PUSH1 0x60 PUSH1 0x1 SLOAD DUP4 LT ISZERO PUSH2 0x375 JUMPI DUP3 PUSH2 0x379 JUMP JUMPDEST PUSH1 0x1 SLOAD JUMPDEST SWAP3 POP PUSH0 DUP3 GT ISZERO PUSH2 0x39B JUMPI PUSH1 0x1 SLOAD DUP3 GT PUSH2 0x392 JUMPI DUP2 PUSH2 0x396 JUMP JUMPDEST PUSH1 0x1 SLOAD JUMPDEST PUSH2 0x39E JUMP JUMPDEST PUSH1 0x1 JUMPDEST SWAP2 POP PUSH0 DUP4 PUSH8 0xFFFFFFFFFFFFFFFF DUP2 GT ISZERO PUSH2 0x3BB JUMPI PUSH2 0x3BA PUSH2 0xAD3 JUMP JUMPDEST JUMPDEST PUSH1 0x40 MLOAD SWAP1 DUP1 DUP3 MSTORE DUP1 PUSH1 0x20 MUL PUSH1 0x20 ADD DUP3 ADD PUSH1 0x40 MSTORE DUP1 ISZERO PUSH2 0x3F4 JUMPI DUP2 PUSH1 0x20 ADD JUMPDEST PUSH2 0x3E1 PUSH2 0x5E1 JUMP JUMPDEST DUP2 MSTORE PUSH1 0x20 ADD SWAP1 PUSH1 0x1 SWAP1 SUB SWAP1 DUP2 PUSH2 0x3D9 JUMPI SWAP1 POP JUMPDEST POP SWAP1 POP PUSH0 JUMPDEST DUP5 DUP2 LT ISZERO PUSH2 0x4EC JUMPI PUSH1 0x2 PUSH0 DUP6 DUP4 PUSH2 0x410 SWAP2 SWAP1 PUSH2 0xD99 JUMP JUMPDEST DUP2 MSTORE PUSH1 0x20 ADD SWAP1 DUP2 MSTORE PUSH1 0x20 ADD PUSH0 KECCAK256 PUSH1 0x40 MLOAD DUP1 PUSH1 0x40 ADD PUSH1 0x40 MSTORE SWAP1 DUP2 PUSH0 DUP3 ADD SLOAD DUP2 MSTORE PUSH1 0x20 ADD PUSH1 0x1 DUP3 ADD DUP1 SLOAD PUSH2 0x441 SWAP1 PUSH2 0xA05 JUMP JUMPDEST DUP1 PUSH1 0x1F ADD PUSH1 0x20 DUP1 SWAP2 DIV MUL PUSH1 0x20 ADD PUSH1 0x40 MLOAD SWAP1 DUP2 ADD PUSH1 0x40 MSTORE DUP1 SWAP3 SWAP2 SWAP1 DUP2 DUP2 MSTORE PUSH1 0x20 ADD DUP3 DUP1 SLOAD PUSH2 0x46D SWAP1 PUSH2 0xA05 JUMP JUMPDEST DUP1 ISZERO PUSH2 0x4B8 JUMPI DUP1 PUSH1 0x1F LT PUSH2 0x48F JUMPI PUSH2 0x100 DUP1 DUP4 SLOAD DIV MUL DUP4 MSTORE SWAP2 PUSH1 0x20 ADD SWAP2 PUSH2 0x4B8 JUMP JUMPDEST DUP3 ADD SWAP2 SWAP1 PUSH0 MSTORE PUSH1 0x20 PUSH0 KECCAK256 SWAP1 JUMPDEST DUP2 SLOAD DUP2 MSTORE SWAP1 PUSH1 0x1 ADD SWAP1 PUSH1 0x20 ADD DUP1 DUP4 GT PUSH2 0x49B JUMPI DUP3 SWAP1 SUB PUSH1 0x1F AND DUP3 ADD SWAP2 JUMPDEST POP POP POP POP POP DUP2 MSTORE POP POP DUP3 DUP3 DUP2 MLOAD DUP2 LT PUSH2 0x4D4 JUMPI PUSH2 0x4D3 PUSH2 0xDCC JUMP JUMPDEST JUMPDEST PUSH1 0x20 MUL PUSH1 0x20 ADD ADD DUP2 SWAP1 MSTORE POP DUP1 DUP1 PUSH1 0x1 ADD SWAP2 POP POP PUSH2 0x3F9 JUMP JUMPDEST POP DUP1 SWAP2 POP POP SWAP3 SWAP2 POP POP JUMP JUMPDEST PUSH1 0x1 SLOAD DUP4 LT ISZERO DUP1 PUSH2 0x50A JUMPI POP PUSH1 0x1 SLOAD DUP4 GT ISZERO JUMPDEST PUSH2 0x549 JUMPI PUSH1 0x40 MLOAD PUSH32 0x8C379A000000000000000000000000000000000000000000000000000000000 DUP2 MSTORE PUSH1 0x4 ADD PUSH2 0x540 SWAP1 PUSH2 0xE69 JUMP JUMPDEST PUSH1 0x40 MLOAD DUP1 SWAP2 SUB SWAP1 REVERT JUMPDEST DUP2 DUP2 PUSH1 0x2 PUSH0 DUP7 DUP2 MSTORE PUSH1 0x20 ADD SWAP1 DUP2 MSTORE PUSH1 0x20 ADD PUSH0 KECCAK256 PUSH1 0x1 ADD SWAP2 DUP3 PUSH2 0x56C SWAP3 SWAP2 SWAP1 PUSH2 0xE91 JUMP JUMPDEST POP POP POP POP JUMP JUMPDEST PUSH1 0x1 PUSH0 DUP2 SLOAD DUP1 SWAP3 SWAP2 SWAP1 PUSH2 0x584 SWAP1 PUSH2 0xF5E JUMP JUMPDEST SWAP2 SWAP1 POP SSTORE POP JUMP JUMPDEST PUSH1 0x1 PUSH0 DUP2 SLOAD DUP1 SWAP3 SWAP2 SWAP1 PUSH2 0x59D SWAP1 PUSH2 0xF85 JUMP JUMPDEST SWAP2 SWAP1 POP SSTORE POP JUMP JUMPDEST POP DUP1 SLOAD PUSH2 0x5B0 SWAP1 PUSH2 0xA05 JUMP JUMPDEST PUSH0 DUP3 SSTORE DUP1 PUSH1 0x1F LT PUSH2 0x5C1 JUMPI POP PUSH2 0x5DE JUMP JUMPDEST PUSH1 0x1F ADD PUSH1 0x20 SWAP1 DIV SWAP1 PUSH0 MSTORE PUSH1 0x20 PUSH0 KECCAK256 SWAP1 DUP2 ADD SWAP1 PUSH2 0x5DD SWAP2 SWAP1 PUSH2 0x5FA JUMP JUMPDEST JUMPDEST POP JUMP JUMPDEST PUSH1 0x40 MLOAD DUP1 PUSH1 0x40 ADD PUSH1 0x40 MSTORE DUP1 PUSH0 DUP2 MSTORE PUSH1 0x20 ADD PUSH1 0x60 DUP2 MSTORE POP SWAP1 JUMP JUMPDEST JUMPDEST DUP1 DUP3 GT ISZERO PUSH2 0x611 JUMPI PUSH0 DUP2 PUSH0 SWAP1 SSTORE POP PUSH1 0x1 ADD PUSH2 0x5FB JUMP JUMPDEST POP SWAP1 JUMP JUMPDEST PUSH0 DUP2 SWAP1 POP SWAP2 SWAP1 POP JUMP JUMPDEST PUSH2 0x627 DUP2 PUSH2 0x615 JUMP JUMPDEST DUP3 MSTORE POP POP JUMP JUMPDEST PUSH0 PUSH1 0x20 DUP3 ADD SWAP1 POP PUSH2 0x640 PUSH0 DUP4 ADD DUP5 PUSH2 0x61E JUMP JUMPDEST SWAP3 SWAP2 POP POP JUMP JUMPDEST PUSH0 DUP1 REVERT JUMPDEST PUSH0 DUP1 REVERT JUMPDEST PUSH2 0x657 DUP2 PUSH2 0x615 JUMP JUMPDEST DUP2 EQ PUSH2 0x661 JUMPI PUSH0 DUP1 REVERT JUMPDEST POP JUMP JUMPDEST PUSH0 DUP2 CALLDATALOAD SWAP1 POP PUSH2 0x672 DUP2 PUSH2 0x64E JUMP JUMPDEST SWAP3 SWAP2 POP POP JUMP JUMPDEST PUSH0 PUSH1 0x20 DUP3 DUP5 SUB SLT ISZERO PUSH2 0x68D JUMPI PUSH2 0x68C PUSH2 0x646 JUMP JUMPDEST JUMPDEST PUSH0 PUSH2 0x69A DUP5 DUP3 DUP6 ADD PUSH2 0x664 JUMP JUMPDEST SWAP2 POP POP SWAP3 SWAP2 POP POP JUMP JUMPDEST PUSH2 0x6AC DUP2 PUSH2 0x615 JUMP JUMPDEST DUP3 MSTORE POP POP JUMP JUMPDEST PUSH0 DUP2 MLOAD SWAP1 POP SWAP2 SWAP1 POP JUMP JUMPDEST PUSH0 DUP3 DUP3 MSTORE PUSH1 0x20 DUP3 ADD SWAP1 POP SWAP3 SWAP2 POP POP JUMP JUMPDEST DUP3 DUP2 DUP4 MCOPY PUSH0 DUP4 DUP4 ADD MSTORE POP POP POP JUMP JUMPDEST PUSH0 PUSH1 0x1F NOT PUSH1 0x1F DUP4 ADD AND SWAP1 POP SWAP2 SWAP1 POP JUMP JUMPDEST PUSH0 PUSH2 0x6F4 DUP3 PUSH2 0x6B2 JUMP JUMPDEST PUSH2 0x6FE DUP2 DUP6 PUSH2 0x6BC JUMP JUMPDEST SWAP4 POP PUSH2 0x70E DUP2 DUP6 PUSH1 0x20 DUP7 ADD PUSH2 0x6CC JUMP JUMPDEST PUSH2 0x717 DUP2 PUSH2 0x6DA JUMP JUMPDEST DUP5 ADD SWAP2 POP POP SWAP3 SWAP2 POP POP JUMP JUMPDEST PUSH0 PUSH1 0x40 DUP4 ADD PUSH0 DUP4 ADD MLOAD PUSH2 0x737 PUSH0 DUP7 ADD DUP3 PUSH2 0x6A3 JUMP JUMPDEST POP PUSH1 0x20 DUP4 ADD MLOAD DUP5 DUP3 SUB PUSH1 0x20 DUP7 ADD MSTORE PUSH2 0x74F DUP3 DUP3 PUSH2 0x6EA JUMP JUMPDEST SWAP2 POP POP DUP1 SWAP2 POP POP SWAP3 SWAP2 POP POP JUMP JUMPDEST PUSH0 PUSH1 0x20 DUP3 ADD SWAP1 POP DUP2 DUP2 SUB PUSH0 DUP4 ADD MSTORE PUSH2 0x774 DUP2 DUP5 PUSH2 0x722 JUMP JUMPDEST SWAP1 POP SWAP3 SWAP2 POP POP JUMP JUMPDEST PUSH0 DUP1 REVERT JUMPDEST PUSH0 DUP1 REVERT JUMPDEST PUSH0 DUP1 REVERT JUMPDEST PUSH0 DUP1 DUP4 PUSH1 0x1F DUP5 ADD SLT PUSH2 0x79D JUMPI PUSH2 0x79C PUSH2 0x77C JUMP JUMPDEST JUMPDEST DUP3 CALLDATALOAD SWAP1 POP PUSH8 0xFFFFFFFFFFFFFFFF DUP2 GT ISZERO PUSH2 0x7BA JUMPI PUSH2 0x7B9 PUSH2 0x780 JUMP JUMPDEST JUMPDEST PUSH1 0x20 DUP4 ADD SWAP2 POP DUP4 PUSH1 0x1 DUP3 MUL DUP4 ADD GT ISZERO PUSH2 0x7D6 JUMPI PUSH2 0x7D5 PUSH2 0x784 JUMP JUMPDEST JUMPDEST SWAP3 POP SWAP3 SWAP1 POP JUMP JUMPDEST PUSH0 DUP1 PUSH1 0x20 DUP4 DUP6 SUB SLT ISZERO PUSH2 0x7F3 JUMPI PUSH2 0x7F2 PUSH2 0x646 JUMP JUMPDEST JUMPDEST PUSH0 DUP4 ADD CALLDATALOAD PUSH8 0xFFFFFFFFFFFFFFFF DUP2 GT ISZERO PUSH2 0x810 JUMPI PUSH2 0x80F PUSH2 0x64A JUMP JUMPDEST JUMPDEST PUSH2 0x81C DUP6 DUP3 DUP7 ADD PUSH2 0x788 JUMP JUMPDEST SWAP3 POP SWAP3 POP POP SWAP3 POP SWAP3 SWAP1 POP JUMP JUMPDEST PUSH0 DUP1 PUSH1 0x40 DUP4 DUP6 SUB SLT ISZERO PUSH2 0x83E JUMPI PUSH2 0x83D PUSH2 0x646 JUMP JUMPDEST JUMPDEST PUSH0 PUSH2 0x84B DUP6 DUP3 DUP7 ADD PUSH2 0x664 JUMP JUMPDEST SWAP3 POP POP PUSH1 0x20 PUSH2 0x85C DUP6 DUP3 DUP7 ADD PUSH2 0x664 JUMP JUMPDEST SWAP2 POP POP SWAP3 POP SWAP3 SWAP1 POP JUMP JUMPDEST PUSH0 DUP2 MLOAD SWAP1 POP SWAP2 SWAP1 POP JUMP JUMPDEST PUSH0 DUP3 DUP3 MSTORE PUSH1 0x20 DUP3 ADD SWAP1 POP SWAP3 SWAP2 POP POP JUMP JUMPDEST PUSH0 DUP2 SWAP1 POP PUSH1 0x20 DUP3 ADD SWAP1 POP SWAP2 SWAP1 POP JUMP JUMPDEST PUSH0 PUSH1 0x40 DUP4 ADD PUSH0 DUP4 ADD MLOAD PUSH2 0x8A4 PUSH0 DUP7 ADD DUP3 PUSH2 0x6A3 JUMP JUMPDEST POP PUSH1 0x20 DUP4 ADD MLOAD DUP5 DUP3 SUB PUSH1 0x20 DUP7 ADD MSTORE PUSH2 0x8BC DUP3 DUP3 PUSH2 0x6EA JUMP JUMPDEST SWAP2 POP POP DUP1 SWAP2 POP POP SWAP3 SWAP2 POP POP JUMP JUMPDEST PUSH0 PUSH2 0x8D4 DUP4 DUP4 PUSH2 0x88F JUMP JUMPDEST SWAP1 POP SWAP3 SWAP2 POP POP JUMP JUMPDEST PUSH0 PUSH1 0x20 DUP3 ADD SWAP1 POP SWAP2 SWAP1 POP JUMP JUMPDEST PUSH0 PUSH2 0x8F2 DUP3 PUSH2 0x866 JUMP JUMPDEST PUSH2 0x8FC DUP2 DUP6 PUSH2 0x870 JUMP JUMPDEST SWAP4 POP DUP4 PUSH1 0x20 DUP3 MUL DUP6 ADD PUSH2 0x90E DUP6 PUSH2 0x880 JUMP JUMPDEST DUP1 PUSH0 JUMPDEST DUP6 DUP2 LT ISZERO PUSH2 0x949 JUMPI DUP5 DUP5 SUB DUP10 MSTORE DUP2 MLOAD PUSH2 0x92A DUP6 DUP3 PUSH2 0x8C9 JUMP JUMPDEST SWAP5 POP PUSH2 0x935 DUP4 PUSH2 0x8DC JUMP JUMPDEST SWAP3 POP PUSH1 0x20 DUP11 ADD SWAP10 POP POP PUSH1 0x1 DUP2 ADD SWAP1 POP PUSH2 0x911 JUMP JUMPDEST POP DUP3 SWAP8 POP DUP8 SWAP6 POP POP POP POP POP POP SWAP3 SWAP2 POP POP JUMP JUMPDEST PUSH0 PUSH1 0x20 DUP3 ADD SWAP1 POP DUP2 DUP2 SUB PUSH0 DUP4 ADD MSTORE PUSH2 0x973 DUP2 DUP5 PUSH2 0x8E8 JUMP JUMPDEST SWAP1 POP SWAP3 SWAP2 POP POP JUMP JUMPDEST PUSH0 DUP1 PUSH0 PUSH1 0x40 DUP5 DUP7 SUB SLT ISZERO PUSH2 0x992 JUMPI PUSH2 0x991 PUSH2 0x646 JUMP JUMPDEST JUMPDEST PUSH0 PUSH2 0x99F DUP7 DUP3 DUP8 ADD PUSH2 0x664 JUMP JUMPDEST SWAP4 POP POP PUSH1 0x20 DUP5 ADD CALLDATALOAD PUSH8 0xFFFFFFFFFFFFFFFF DUP2 GT ISZERO PUSH2 0x9C0 JUMPI PUSH2 0x9BF PUSH2 0x64A JUMP JUMPDEST JUMPDEST PUSH2 0x9CC DUP7 DUP3 DUP8 ADD PUSH2 0x788 JUMP JUMPDEST SWAP3 POP SWAP3 POP POP SWAP3 POP SWAP3 POP SWAP3 JUMP JUMPDEST PUSH32 0x4E487B7100000000000000000000000000000000000000000000000000000000 PUSH0 MSTORE PUSH1 0x22 PUSH1 0x4 MSTORE PUSH1 0x24 PUSH0 REVERT JUMPDEST PUSH0 PUSH1 0x2 DUP3 DIV SWAP1 POP PUSH1 0x1 DUP3 AND DUP1 PUSH2 0xA1C JUMPI PUSH1 0x7F DUP3 AND SWAP2 POP JUMPDEST PUSH1 0x20 DUP3 LT DUP2 SUB PUSH2 0xA2F JUMPI PUSH2 0xA2E PUSH2 0x9D8 JUMP JUMPDEST JUMPDEST POP SWAP2 SWAP1 POP JUMP JUMPDEST PUSH0 DUP3 DUP3 MSTORE PUSH1 0x20 DUP3 ADD SWAP1 POP SWAP3 SWAP2 POP POP JUMP JUMPDEST PUSH32 0x4F6E6C7920617574686F72697A656420706572736F6E656C2063616E20616464 PUSH0 DUP3 ADD MSTORE PUSH32 0x206E657720656E74726965732E00000000000000000000000000000000000000 PUSH1 0x20 DUP3 ADD MSTORE POP JUMP JUMPDEST PUSH0 PUSH2 0xA9F PUSH1 0x2D DUP4 PUSH2 0xA35 JUMP JUMPDEST SWAP2 POP PUSH2 0xAAA DUP3 PUSH2 0xA45 JUMP JUMPDEST PUSH1 0x40 DUP3 ADD SWAP1 POP SWAP2 SWAP1 POP JUMP JUMPDEST PUSH0 PUSH1 0x20 DUP3 ADD SWAP1 POP DUP2 DUP2 SUB PUSH0 DUP4 ADD MSTORE PUSH2 0xACC DUP2 PUSH2 0xA93 JUMP JUMPDEST SWAP1 POP SWAP2 SWAP1 POP JUMP JUMPDEST PUSH32 0x4E487B7100000000000000000000000000000000000000000000000000000000 PUSH0 MSTORE PUSH1 0x41 PUSH1 0x4 MSTORE PUSH1 0x24 PUSH0 REVERT JUMPDEST PUSH0 DUP2 SWAP1 POP DUP2 PUSH0 MSTORE PUSH1 0x20 PUSH0 KECCAK256 SWAP1 POP SWAP2 SWAP1 POP JUMP JUMPDEST PUSH0 PUSH1 0x20 PUSH1 0x1F DUP4 ADD DIV SWAP1 POP SWAP2 SWAP1 POP JUMP JUMPDEST PUSH0 DUP3 DUP3 SHL SWAP1 POP SWAP3 SWAP2 POP POP JUMP JUMPDEST PUSH0 PUSH1 0x8 DUP4 MUL PUSH2 0xB5C PUSH32 0xFFFFFFFFFFFFFFFFFFFFFFFFFFFFFFFFFFFFFFFFFFFFFFFFFFFFFFFFFFFFFFFF DUP3 PUSH2 0xB21 JUMP JUMPDEST PUSH2 0xB66 DUP7 DUP4 PUSH2 0xB21 JUMP JUMPDEST SWAP6 POP DUP1 NOT DUP5 AND SWAP4 POP DUP1 DUP7 AND DUP5 OR SWAP3 POP POP POP SWAP4 SWAP3 POP POP POP JUMP JUMPDEST PUSH0 DUP2 SWAP1 POP SWAP2 SWAP1 POP JUMP JUMPDEST PUSH0 PUSH2 0xBA1 PUSH2 0xB9C PUSH2 0xB97 DUP5 PUSH2 0x615 JUMP JUMPDEST PUSH2 0xB7E JUMP JUMPDEST PUSH2 0x615 JUMP JUMPDEST SWAP1 POP SWAP2 SWAP1 POP JUMP JUMPDEST PUSH0 DUP2 SWAP1 POP SWAP2 SWAP1 POP JUMP JUMPDEST PUSH2 0xBBA DUP4 PUSH2 0xB87 JUMP JUMPDEST PUSH2 0xBCE PUSH2 0xBC6 DUP3 PUSH2 0xBA8 JUMP JUMPDEST DUP5 DUP5 SLOAD PUSH2 0xB2D JUMP JUMPDEST DUP3 SSTORE POP POP POP POP JUMP JUMPDEST PUSH0 SWAP1 JUMP JUMPDEST PUSH2 0xBE2 PUSH2 0xBD6 JUMP JUMPDEST PUSH2 0xBED DUP2 DUP5 DUP5 PUSH2 0xBB1 JUMP JUMPDEST POP POP POP JUMP JUMPDEST JUMPDEST DUP2 DUP2 LT ISZERO PUSH2 0xC10 JUMPI PUSH2 0xC05 PUSH0 DUP3 PUSH2 0xBDA JUMP JUMPDEST PUSH1 0x1 DUP2 ADD SWAP1 POP PUSH2 0xBF3 JUMP JUMPDEST POP POP JUMP JUMPDEST PUSH1 0x1F DUP3 GT ISZERO PUSH2 0xC55 JUMPI PUSH2 0xC26 DUP2 PUSH2 0xB00 JUMP JUMPDEST PUSH2 0xC2F DUP5 PUSH2 0xB12 JUMP JUMPDEST DUP2 ADD PUSH1 0x20 DUP6 LT ISZERO PUSH2 0xC3E JUMPI DUP2 SWAP1 POP JUMPDEST PUSH2 0xC52 PUSH2 0xC4A DUP6 PUSH2 0xB12 JUMP JUMPDEST DUP4 ADD DUP3 PUSH2 0xBF2 JUMP JUMPDEST POP POP JUMPDEST POP POP POP JUMP JUMPDEST PUSH0 DUP3 DUP3 SHR SWAP1 POP SWAP3 SWAP2 POP POP JUMP JUMPDEST PUSH0 PUSH2 0xC75 PUSH0 NOT DUP5 PUSH1 0x8 MUL PUSH2 0xC5A JUMP JUMPDEST NOT DUP1 DUP4 AND SWAP2 POP POP SWAP3 SWAP2 POP POP JUMP JUMPDEST PUSH0 PUSH2 0xC8D DUP4 DUP4 PUSH2 0xC66 JUMP JUMPDEST SWAP2 POP DUP3 PUSH1 0x2 MUL DUP3 OR SWAP1 POP SWAP3 SWAP2 POP POP JUMP JUMPDEST PUSH2 0xCA6 DUP3 PUSH2 0x6B2 JUMP JUMPDEST PUSH8 0xFFFFFFFFFFFFFFFF DUP2 GT ISZERO PUSH2 0xCBF JUMPI PUSH2 0xCBE PUSH2 0xAD3 JUMP JUMPDEST JUMPDEST PUSH2 0xCC9 DUP3 SLOAD PUSH2 0xA05 JUMP JUMPDEST PUSH2 0xCD4 DUP3 DUP3 DUP6 PUSH2 0xC14 JUMP JUMPDEST PUSH0 PUSH1 0x20 SWAP1 POP PUSH1 0x1F DUP4 GT PUSH1 0x1 DUP2 EQ PUSH2 0xD05 JUMPI PUSH0 DUP5 ISZERO PUSH2 0xCF3 JUMPI DUP3 DUP8 ADD MLOAD SWAP1 POP JUMPDEST PUSH2 0xCFD DUP6 DUP3 PUSH2 0xC82 JUMP JUMPDEST DUP7 SSTORE POP PUSH2 0xD64 JUMP JUMPDEST PUSH1 0x1F NOT DUP5 AND PUSH2 0xD13 DUP7 PUSH2 0xB00 JUMP JUMPDEST PUSH0 JUMPDEST DUP3 DUP2 LT ISZERO PUSH2 0xD3A JUMPI DUP5 DUP10 ADD MLOAD DUP3 SSTORE PUSH1 0x1 DUP3 ADD SWAP2 POP PUSH1 0x20 DUP6 ADD SWAP5 POP PUSH1 0x20 DUP2 ADD SWAP1 POP PUSH2 0xD15 JUMP JUMPDEST DUP7 DUP4 LT ISZERO PUSH2 0xD57 JUMPI DUP5 DUP10 ADD MLOAD PUSH2 0xD53 PUSH1 0x1F DUP10 AND DUP3 PUSH2 0xC66 JUMP JUMPDEST DUP4 SSTORE POP JUMPDEST PUSH1 0x1 PUSH1 0x2 DUP9 MUL ADD DUP9 SSTORE POP POP POP JUMPDEST POP POP POP POP POP POP JUMP JUMPDEST PUSH32 0x4E487B7100000000000000000000000000000000000000000000000000000000 PUSH0 MSTORE PUSH1 0x11 PUSH1 0x4 MSTORE PUSH1 0x24 PUSH0 REVERT JUMPDEST PUSH0 PUSH2 0xDA3 DUP3 PUSH2 0x615 JUMP JUMPDEST SWAP2 POP PUSH2 0xDAE DUP4 PUSH2 0x615 JUMP JUMPDEST SWAP3 POP DUP3 DUP3 ADD SWAP1 POP DUP1 DUP3 GT ISZERO PUSH2 0xDC6 JUMPI PUSH2 0xDC5 PUSH2 0xD6C JUMP JUMPDEST JUMPDEST SWAP3 SWAP2 POP POP JUMP JUMPDEST PUSH32 0x4E487B7100000000000000000000000000000000000000000000000000000000 PUSH0 MSTORE PUSH1 0x32 PUSH1 0x4 MSTORE PUSH1 0x24 PUSH0 REVERT JUMPDEST PUSH32 0x4E6F206974656D20776974682074686520676976656E20696E64657820666F75 PUSH0 DUP3 ADD MSTORE PUSH32 0x6E642E0000000000000000000000000000000000000000000000000000000000 PUSH1 0x20 DUP3 ADD MSTORE POP JUMP JUMPDEST PUSH0 PUSH2 0xE53 PUSH1 0x23 DUP4 PUSH2 0xA35 JUMP JUMPDEST SWAP2 POP PUSH2 0xE5E DUP3 PUSH2 0xDF9 JUMP JUMPDEST PUSH1 0x40 DUP3 ADD SWAP1 POP SWAP2 SWAP1 POP JUMP JUMPDEST PUSH0 PUSH1 0x20 DUP3 ADD SWAP1 POP DUP2 DUP2 SUB PUSH0 DUP4 ADD MSTORE PUSH2 0xE80 DUP2 PUSH2 0xE47 JUMP JUMPDEST SWAP1 POP SWAP2 SWAP1 POP JUMP JUMPDEST PUSH0 DUP3 SWAP1 POP SWAP3 SWAP2 POP POP JUMP JUMPDEST PUSH2 0xE9B DUP4 DUP4 PUSH2 0xE87 JUMP JUMPDEST PUSH8 0xFFFFFFFFFFFFFFFF DUP2 GT ISZERO PUSH2 0xEB4 JUMPI PUSH2 0xEB3 PUSH2 0xAD3 JUMP JUMPDEST JUMPDEST PUSH2 0xEBE DUP3 SLOAD PUSH2 0xA05 JUMP JUMPDEST PUSH2 0xEC9 DUP3 DUP3 DUP6 PUSH2 0xC14 JUMP JUMPDEST PUSH0 PUSH1 0x1F DUP4 GT PUSH1 0x1 DUP2 EQ PUSH2 0xEF6 JUMPI PUSH0 DUP5 ISZERO PUSH2 0xEE4 JUMPI DUP3 DUP8 ADD CALLDATALOAD SWAP1 POP JUMPDEST PUSH2 0xEEE DUP6 DUP3 PUSH2 0xC82 JUMP JUMPDEST DUP7 SSTORE POP PUSH2 0xF55 JUMP JUMPDEST PUSH1 0x1F NOT DUP5 AND PUSH2 0xF04 DUP7 PUSH2 0xB00 JUMP JUMPDEST PUSH0 JUMPDEST DUP3 DUP2 LT ISZERO PUSH2 0xF2B JUMPI DUP5 DUP10 ADD CALLDATALOAD DUP3 SSTORE PUSH1 0x1 DUP3 ADD SWAP2 POP PUSH1 0x20 DUP6 ADD SWAP5 POP PUSH1 0x20 DUP2 ADD SWAP1 POP PUSH2 0xF06 JUMP JUMPDEST DUP7 DUP4 LT ISZERO PUSH2 0xF48 JUMPI DUP5 DUP10 ADD CALLDATALOAD PUSH2 0xF44 PUSH1 0x1F DUP10 AND DUP3 PUSH2 0xC66 JUMP JUMPDEST DUP4 SSTORE POP JUMPDEST PUSH1 0x1 PUSH1 0x2 DUP9 MUL ADD DUP9 SSTORE POP POP POP JUMPDEST POP POP POP POP POP POP POP JUMP JUMPDEST PUSH0 PUSH2 0xF68 DUP3 PUSH2 0x615 JUMP JUMPDEST SWAP2 POP PUSH0 DUP3 SUB PUSH2 0xF7A JUMPI PUSH2 0xF79 PUSH2 0xD6C JUMP JUMPDEST JUMPDEST PUSH1 0x1 DUP3 SUB SWAP1 POP SWAP2 SWAP1 POP JUMP JUMPDEST PUSH0 PUSH2 0xF8F DUP3 PUSH2 0x615 JUMP JUMPDEST SWAP2 POP PUSH32 0xFFFFFFFFFFFFFFFFFFFFFFFFFFFFFFFFFFFFFFFFFFFFFFFFFFFFFFFFFFFFFFFF DUP3 SUB PUSH2 0xFC1 JUMPI PUSH2 0xFC0 PUSH2 0xD6C JUMP JUMPDEST JUMPDEST PUSH1 0x1 DUP3 ADD SWAP1 POP SWAP2 SWAP1 POP JUMP INVALID LOG2 PUSH5 0x6970667358 0x22 SLT KECCAK256 CALLDATACOPY 0x4D SHL ISZERO 0x27 0xD3 0xC MSIZE 0xD8 0xB6 MSTORE 0xC8 0xE SWAP15 SSTORE 0xE9 PUSH27 0xA6378C7BD6F742ECEDD751E51981FE64736F6C634300081A003300 "
				},
				"gasEstimates": {
					"creation": {
						"codeDepositCost": "819600",
						"executionCost": "30125",
						"totalCost": "849725"
					},
					"external": {
						"add(string)": "infinite",
						"count()": "2410",
						"get(uint256)": "infinite",
						"remove(uint256)": "infinite",
						"some(uint256,uint256)": "infinite",
						"update(uint256,string)": "infinite"
					}
				},
				"methodIdentifiers": {
					"add(string)": "b0c8f9dc",
					"count()": "06661abd",
					"get(uint256)": "9507d39a",
					"remove(uint256)": "4cc82215",
					"some(uint256,uint256)": "cdb3deb6",
					"update(uint256,string)": "f745630f"
				}
			},
			"storageLayout": {
				"storage": [
					{
						"astId": 194,
						"contract": "contracts/Tags.sol:Tags",
						"label": "owner",
						"offset": 0,
						"slot": "0",
						"type": "t_address"
					},
					{
						"astId": 167,
						"contract": "contracts/Tags.sol:Tags",
						"label": "_count",
						"offset": 0,
						"slot": "1",
						"type": "t_uint256"
					},
					{
						"astId": 13,
						"contract": "contracts/Tags.sol:Tags",
						"label": "tags",
						"offset": 0,
						"slot": "2",
						"type": "t_mapping(t_uint256,t_struct(Tag)223_storage)"
					}
				],
				"types": {
					"t_address": {
						"encoding": "inplace",
						"label": "address",
						"numberOfBytes": "20"
					},
					"t_mapping(t_uint256,t_struct(Tag)223_storage)": {
						"encoding": "mapping",
						"key": "t_uint256",
						"label": "mapping(uint256 => struct Tag)",
						"numberOfBytes": "32",
						"value": "t_struct(Tag)223_storage"
					},
					"t_string_storage": {
						"encoding": "bytes",
						"label": "string",
						"numberOfBytes": "32"
					},
					"t_struct(Tag)223_storage": {
						"encoding": "inplace",
						"label": "struct Tag",
						"members": [
							{
								"astId": 220,
								"contract": "contracts/Tags.sol:Tags",
								"label": "id",
								"offset": 0,
								"slot": "0",
								"type": "t_uint256"
							},
							{
								"astId": 222,
								"contract": "contracts/Tags.sol:Tags",
								"label": "name",
								"offset": 0,
								"slot": "1",
								"type": "t_string_storage"
							}
						],
						"numberOfBytes": "64"
					},
					"t_uint256": {
						"encoding": "inplace",
						"label": "uint256",
						"numberOfBytes": "32"
					}
				}
			},
			"userdoc": {
				"kind": "user",
				"methods": {},
				"version": 1
			}
		}
	}
}