{
	"contracts/Patents.sol": {
		"Patents": {
			"abi": [
				{
					"inputs": [
						{
							"internalType": "string",
							"name": "_title",
							"type": "string"
						},
						{
							"internalType": "string",
							"name": "_summary",
							"type": "string"
						},
						{
							"internalType": "string",
							"name": "_body",
							"type": "string"
						},
						{
							"internalType": "uint256",
							"name": "_category_id",
							"type": "uint256"
						},
						{
							"internalType": "uint256[]",
							"name": "_tags",
							"type": "uint256[]"
						}
					],
					"name": "add",
					"outputs": [],
					"stateMutability": "payable",
					"type": "function"
				},
				{
					"inputs": [
						{
							"internalType": "address",
							"name": "_newOwner",
							"type": "address"
						},
						{
							"internalType": "uint256",
							"name": "_index",
							"type": "uint256"
						}
					],
					"name": "changeOwner",
					"outputs": [],
					"stateMutability": "view",
					"type": "function"
				},
				{
					"inputs": [],
					"name": "count",
					"outputs": [
						{
							"internalType": "uint256",
							"name": "",
							"type": "uint256"
						}
					],
					"stateMutability": "view",
					"type": "function"
				},
				{
					"inputs": [],
					"name": "creationFee",
					"outputs": [
						{
							"internalType": "uint256",
							"name": "",
							"type": "uint256"
						}
					],
					"stateMutability": "view",
					"type": "function"
				},
				{
					"inputs": [
						{
							"internalType": "uint256",
							"name": "_index",
							"type": "uint256"
						}
					],
					"name": "get",
					"outputs": [
						{
							"components": [
								{
									"internalType": "uint256",
									"name": "id",
									"type": "uint256"
								},
								{
									"internalType": "string",
									"name": "title",
									"type": "string"
								},
								{
									"internalType": "string",
									"name": "summary",
									"type": "string"
								},
								{
									"internalType": "string",
									"name": "body",
									"type": "string"
								},
								{
									"internalType": "uint256",
									"name": "created_at",
									"type": "uint256"
								},
								{
									"internalType": "uint256",
									"name": "updated_at",
									"type": "uint256"
								},
								{
									"internalType": "uint256",
									"name": "category_id",
									"type": "uint256"
								},
								{
									"internalType": "uint256[]",
									"name": "tags",
									"type": "uint256[]"
								},
								{
									"internalType": "address",
									"name": "author",
									"type": "address"
								}
							],
							"internalType": "struct Patent",
							"name": "",
							"type": "tuple"
						}
					],
					"stateMutability": "view",
					"type": "function"
				},
				{
					"inputs": [],
					"name": "mine",
					"outputs": [
						{
							"components": [
								{
									"internalType": "uint256",
									"name": "id",
									"type": "uint256"
								},
								{
									"internalType": "string",
									"name": "title",
									"type": "string"
								},
								{
									"internalType": "string",
									"name": "summary",
									"type": "string"
								},
								{
									"internalType": "string",
									"name": "body",
									"type": "string"
								},
								{
									"internalType": "uint256",
									"name": "created_at",
									"type": "uint256"
								},
								{
									"internalType": "uint256",
									"name": "updated_at",
									"type": "uint256"
								},
								{
									"internalType": "uint256",
									"name": "category_id",
									"type": "uint256"
								},
								{
									"internalType": "uint256[]",
									"name": "tags",
									"type": "uint256[]"
								},
								{
									"internalType": "address",
									"name": "author",
									"type": "address"
								}
							],
							"internalType": "struct Patent[]",
							"name": "",
							"type": "tuple[]"
						}
					],
					"stateMutability": "view",
					"type": "function"
				},
				{
					"inputs": [
						{
							"internalType": "uint256",
							"name": "_index",
							"type": "uint256"
						}
					],
					"name": "remove",
					"outputs": [],
					"stateMutability": "nonpayable",
					"type": "function"
				},
				{
					"inputs": [
						{
							"internalType": "uint256",
							"name": "_index",
							"type": "uint256"
						}
					],
					"name": "renew",
					"outputs": [],
					"stateMutability": "payable",
					"type": "function"
				},
				{
					"inputs": [],
					"name": "renewalFee",
					"outputs": [
						{
							"internalType": "uint256",
							"name": "",
							"type": "uint256"
						}
					],
					"stateMutability": "view",
					"type": "function"
				},
				{
					"inputs": [],
					"name": "revenew",
					"outputs": [
						{
							"internalType": "uint256",
							"name": "",
							"type": "uint256"
						}
					],
					"stateMutability": "view",
					"type": "function"
				},
				{
					"inputs": [
						{
							"internalType": "uint256",
							"name": "_limit",
							"type": "uint256"
						},
						{
							"internalType": "uint256",
							"name": "_offset",
							"type": "uint256"
						}
					],
					"name": "some",
					"outputs": [
						{
							"components": [
								{
									"internalType": "uint256",
									"name": "id",
									"type": "uint256"
								},
								{
									"internalType": "string",
									"name": "title",
									"type": "string"
								},
								{
									"internalType": "string",
									"name": "summary",
									"type": "string"
								},
								{
									"internalType": "string",
									"name": "body",
									"type": "string"
								},
								{
									"internalType": "uint256",
									"name": "created_at",
									"type": "uint256"
								},
								{
									"internalType": "uint256",
									"name": "updated_at",
									"type": "uint256"
								},
								{
									"internalType": "uint256",
									"name": "category_id",
									"type": "uint256"
								},
								{
									"internalType": "uint256[]",
									"name": "tags",
									"type": "uint256[]"
								},
								{
									"internalType": "address",
									"name": "author",
									"type": "address"
								}
							],
							"internalType": "struct Patent[]",
							"name": "",
							"type": "tuple[]"
						}
					],
					"stateMutability": "view",
					"type": "function"
				},
				{
					"inputs": [
						{
							"internalType": "uint256",
							"name": "_index",
							"type": "uint256"
						},
						{
							"internalType": "string",
							"name": "_title",
							"type": "string"
						},
						{
							"internalType": "string",
							"name": "_summary",
							"type": "string"
						},
						{
							"internalType": "string",
							"name": "_body",
							"type": "string"
						},
						{
							"internalType": "uint256",
							"name": "_category_id",
							"type": "uint256"
						},
						{
							"internalType": "uint256[]",
							"name": "_tags",
							"type": "uint256[]"
						}
					],
					"name": "update",
					"outputs": [],
					"stateMutability": "nonpayable",
					"type": "function"
				},
				{
					"inputs": [
						{
							"internalType": "uint256",
							"name": "_amount",
							"type": "uint256"
						}
					],
					"name": "updateCreationFee",
					"outputs": [],
					"stateMutability": "nonpayable",
					"type": "function"
				},
				{
					"inputs": [
						{
							"internalType": "uint256",
							"name": "_amount",
							"type": "uint256"
						}
					],
					"name": "updateRenewalFee",
					"outputs": [],
					"stateMutability": "nonpayable",
					"type": "function"
				},
				{
					"inputs": [
						{
							"internalType": "address",
							"name": "to",
							"type": "address"
						}
					],
					"name": "withdraw",
					"outputs": [],
					"stateMutability": "nonpayable",
					"type": "function"
				}
			],
			"devdoc": {
				"kind": "dev",
				"methods": {},
				"version": 1
			},
			"evm": {
				"assembly": "    /* \"contracts/Patents.sol\":202:4093  contract Patents is Countable, Ownerable {... */\n  mstore(0x40, 0x80)\n    /* \"contracts/core/interfaces/Countable.sol\":97:98  0 */\n  0x00\n    /* \"contracts/core/interfaces/Countable.sol\":83:98  uint _count = 0 */\n  dup1\n  sstore\n    /* \"contracts/Patents.sol\":364:375  0.001 ether */\n  0x038d7ea4c68000\n    /* \"contracts/Patents.sol\":335:375  uint256 public creationFee = 0.001 ether */\n  0x04\n  sstore\n    /* \"contracts/Patents.sol\":409:421  0.0005 ether */\n  0x01c6bf52634000\n    /* \"contracts/Patents.sol\":381:421  uint256 public renewalFee = 0.0005 ether */\n  0x05\n  sstore\n    /* \"contracts/Patents.sol\":202:4093  contract Patents is Countable, Ownerable {... */\n  callvalue\n  dup1\n  iszero\n  tag_1\n  jumpi\n  0x00\n  dup1\n  revert\ntag_1:\n  pop\n    /* \"contracts/core/interfaces/Ownerable.sol\":135:145  msg.sender */\n  caller\n    /* \"contracts/core/interfaces/Ownerable.sol\":127:132  owner */\n  0x01\n  0x00\n    /* \"contracts/core/interfaces/Ownerable.sol\":127:145  owner = msg.sender */\n  0x0100\n  exp\n  dup2\n  sload\n  dup2\n  0xffffffffffffffffffffffffffffffffffffffff\n  mul\n  not\n  and\n  swap1\n  dup4\n  0xffffffffffffffffffffffffffffffffffffffff\n  and\n  mul\n  or\n  swap1\n  sstore\n  pop\n    /* \"contracts/Patents.sol\":202:4093  contract Patents is Countable, Ownerable {... */\n  dataSize(sub_0)\n  dup1\n  dataOffset(sub_0)\n  0x00\n  codecopy\n  0x00\n  return\nstop\n\nsub_0: assembly {\n        /* \"contracts/Patents.sol\":202:4093  contract Patents is Countable, Ownerable {... */\n      mstore(0x40, 0x80)\n      jumpi(tag_1, lt(calldatasize, 0x04))\n      shr(0xe0, calldataload(0x00))\n      dup1\n      0x5f020a1e\n      gt\n      tag_17\n      jumpi\n      dup1\n      0x99f4b251\n      gt\n      tag_18\n      jumpi\n      dup1\n      0x99f4b251\n      eq\n      tag_13\n      jumpi\n      dup1\n      0xcdb3deb6\n      eq\n      tag_14\n      jumpi\n      dup1\n      0xd35a2a9f\n      eq\n      tag_15\n      jumpi\n      dup1\n      0xdce0b4e4\n      eq\n      tag_16\n      jumpi\n      jump(tag_1)\n    tag_18:\n      dup1\n      0x5f020a1e\n      eq\n      tag_9\n      jumpi\n      dup1\n      0x6fa23795\n      eq\n      tag_10\n      jumpi\n      dup1\n      0x7e0c194f\n      eq\n      tag_11\n      jumpi\n      dup1\n      0x9507d39a\n      eq\n      tag_12\n      jumpi\n      jump(tag_1)\n    tag_17:\n      dup1\n      0x4cc82215\n      gt\n      tag_19\n      jumpi\n      dup1\n      0x4cc82215\n      eq\n      tag_5\n      jumpi\n      dup1\n      0x51cff8d9\n      eq\n      tag_6\n      jumpi\n      dup1\n      0x56df3db1\n      eq\n      tag_7\n      jumpi\n      dup1\n      0x5baa7509\n      eq\n      tag_8\n      jumpi\n      jump(tag_1)\n    tag_19:\n      dup1\n      0x06661abd\n      eq\n      tag_2\n      jumpi\n      dup1\n      0x080b301e\n      eq\n      tag_3\n      jumpi\n      dup1\n      0x4cba0eae\n      eq\n      tag_4\n      jumpi\n    tag_1:\n      0x00\n      dup1\n      revert\n        /* \"contracts/core/interfaces/Countable.sol\":237:314  function count() public view returns (uint256) {... */\n    tag_2:\n      callvalue\n      dup1\n      iszero\n      tag_20\n      jumpi\n      0x00\n      dup1\n      revert\n    tag_20:\n      pop\n      tag_21\n      tag_22\n      jump\t// in\n    tag_21:\n      mload(0x40)\n      tag_23\n      swap2\n      swap1\n      tag_24\n      jump\t// in\n    tag_23:\n      mload(0x40)\n      dup1\n      swap2\n      sub\n      swap1\n      return\n        /* \"contracts/Patents.sol\":381:421  uint256 public renewalFee = 0.0005 ether */\n    tag_3:\n      callvalue\n      dup1\n      iszero\n      tag_25\n      jumpi\n      0x00\n      dup1\n      revert\n    tag_25:\n      pop\n      tag_26\n      tag_27\n      jump\t// in\n    tag_26:\n      mload(0x40)\n      tag_28\n      swap2\n      swap1\n      tag_24\n      jump\t// in\n    tag_28:\n      mload(0x40)\n      dup1\n      swap2\n      sub\n      swap1\n      return\n        /* \"contracts/Patents.sol\":2603:3287  function update(... */\n    tag_4:\n      callvalue\n      dup1\n      iszero\n      tag_29\n      jumpi\n      0x00\n      dup1\n      revert\n    tag_29:\n      pop\n      tag_30\n      0x04\n      dup1\n      calldatasize\n      sub\n      dup2\n      add\n      swap1\n      tag_31\n      swap2\n      swap1\n      tag_32\n      jump\t// in\n    tag_31:\n      tag_33\n      jump\t// in\n    tag_30:\n      stop\n        /* \"contracts/Patents.sol\":3899:4091  function remove(uint256 _index) public {... */\n    tag_5:\n      callvalue\n      dup1\n      iszero\n      tag_34\n      jumpi\n      0x00\n      dup1\n      revert\n    tag_34:\n      pop\n      tag_35\n      0x04\n      dup1\n      calldatasize\n      sub\n      dup2\n      add\n      swap1\n      tag_36\n      swap2\n      swap1\n      tag_37\n      jump\t// in\n    tag_36:\n      tag_38\n      jump\t// in\n    tag_35:\n      stop\n        /* \"contracts/Patents.sol\":657:851  function withdraw(address to) public isOwner {... */\n    tag_6:\n      callvalue\n      dup1\n      iszero\n      tag_39\n      jumpi\n      0x00\n      dup1\n      revert\n    tag_39:\n      pop\n      tag_40\n      0x04\n      dup1\n      calldatasize\n      sub\n      dup2\n      add\n      swap1\n      tag_41\n      swap2\n      swap1\n      tag_42\n      jump\t// in\n    tag_41:\n      tag_43\n      jump\t// in\n    tag_40:\n      stop\n        /* \"contracts/Patents.sol\":3663:3893  function changeOwner(address _newOwner, uint256 _index) public view {... */\n    tag_7:\n      callvalue\n      dup1\n      iszero\n      tag_44\n      jumpi\n      0x00\n      dup1\n      revert\n    tag_44:\n      pop\n      tag_45\n      0x04\n      dup1\n      calldatasize\n      sub\n      dup2\n      add\n      swap1\n      tag_46\n      swap2\n      swap1\n      tag_47\n      jump\t// in\n    tag_46:\n      tag_48\n      jump\t// in\n    tag_45:\n      stop\n        /* \"contracts/Patents.sol\":3293:3657  function renew(uint256 _index) public payable {... */\n    tag_8:\n      tag_49\n      0x04\n      dup1\n      calldatasize\n      sub\n      dup2\n      add\n      swap1\n      tag_50\n      swap2\n      swap1\n      tag_37\n      jump\t// in\n    tag_50:\n      tag_51\n      jump\t// in\n    tag_49:\n      stop\n        /* \"contracts/Patents.sol\":857:1558  function add(... */\n    tag_9:\n      tag_52\n      0x04\n      dup1\n      calldatasize\n      sub\n      dup2\n      add\n      swap1\n      tag_53\n      swap2\n      swap1\n      tag_54\n      jump\t// in\n    tag_53:\n      tag_55\n      jump\t// in\n    tag_52:\n      stop\n        /* \"contracts/Patents.sol\":456:553  function updateCreationFee(uint256 _amount) public isOwner {... */\n    tag_10:\n      callvalue\n      dup1\n      iszero\n      tag_56\n      jumpi\n      0x00\n      dup1\n      revert\n    tag_56:\n      pop\n      tag_57\n      0x04\n      dup1\n      calldatasize\n      sub\n      dup2\n      add\n      swap1\n      tag_58\n      swap2\n      swap1\n      tag_37\n      jump\t// in\n    tag_58:\n      tag_59\n      jump\t// in\n    tag_57:\n      stop\n        /* \"contracts/Patents.sol\":559:651  function updateRenewalFee(uint _amount) public isOwner {... */\n    tag_11:\n      callvalue\n      dup1\n      iszero\n      tag_60\n      jumpi\n      0x00\n      dup1\n      revert\n    tag_60:\n      pop\n      tag_61\n      0x04\n      dup1\n      calldatasize\n      sub\n      dup2\n      add\n      swap1\n      tag_62\n      swap2\n      swap1\n      tag_37\n      jump\t// in\n    tag_62:\n      tag_63\n      jump\t// in\n    tag_61:\n      stop\n        /* \"contracts/Patents.sol\":1564:1668  function get(uint256 _index) public view returns (Patent memory) {... */\n    tag_12:\n      callvalue\n      dup1\n      iszero\n      tag_64\n      jumpi\n      0x00\n      dup1\n      revert\n    tag_64:\n      pop\n      tag_65\n      0x04\n      dup1\n      calldatasize\n      sub\n      dup2\n      add\n      swap1\n      tag_66\n      swap2\n      swap1\n      tag_37\n      jump\t// in\n    tag_66:\n      tag_67\n      jump\t// in\n    tag_65:\n      mload(0x40)\n      tag_68\n      swap2\n      swap1\n      tag_69\n      jump\t// in\n    tag_68:\n      mload(0x40)\n      dup1\n      swap2\n      sub\n      swap1\n      return\n        /* \"contracts/Patents.sol\":1674:2158  function mine() public view returns (Patent[] memory) {... */\n    tag_13:\n      callvalue\n      dup1\n      iszero\n      tag_70\n      jumpi\n      0x00\n      dup1\n      revert\n    tag_70:\n      pop\n      tag_71\n      tag_72\n      jump\t// in\n    tag_71:\n      mload(0x40)\n      tag_73\n      swap2\n      swap1\n      tag_74\n      jump\t// in\n    tag_73:\n      mload(0x40)\n      dup1\n      swap2\n      sub\n      swap1\n      return\n        /* \"contracts/Patents.sol\":2164:2597  function some(uint256 _limit, uint256 _offset)... */\n    tag_14:\n      callvalue\n      dup1\n      iszero\n      tag_75\n      jumpi\n      0x00\n      dup1\n      revert\n    tag_75:\n      pop\n      tag_76\n      0x04\n      dup1\n      calldatasize\n      sub\n      dup2\n      add\n      swap1\n      tag_77\n      swap2\n      swap1\n      tag_78\n      jump\t// in\n    tag_77:\n      tag_79\n      jump\t// in\n    tag_76:\n      mload(0x40)\n      tag_80\n      swap2\n      swap1\n      tag_74\n      jump\t// in\n    tag_80:\n      mload(0x40)\n      dup1\n      swap2\n      sub\n      swap1\n      return\n        /* \"contracts/Patents.sol\":427:449  uint256 public revenew */\n    tag_15:\n      callvalue\n      dup1\n      iszero\n      tag_81\n      jumpi\n      0x00\n      dup1\n      revert\n    tag_81:\n      pop\n      tag_82\n      tag_83\n      jump\t// in\n    tag_82:\n      mload(0x40)\n      tag_84\n      swap2\n      swap1\n      tag_24\n      jump\t// in\n    tag_84:\n      mload(0x40)\n      dup1\n      swap2\n      sub\n      swap1\n      return\n        /* \"contracts/Patents.sol\":335:375  uint256 public creationFee = 0.001 ether */\n    tag_16:\n      callvalue\n      dup1\n      iszero\n      tag_85\n      jumpi\n      0x00\n      dup1\n      revert\n    tag_85:\n      pop\n      tag_86\n      tag_87\n      jump\t// in\n    tag_86:\n      mload(0x40)\n      tag_88\n      swap2\n      swap1\n      tag_24\n      jump\t// in\n    tag_88:\n      mload(0x40)\n      dup1\n      swap2\n      sub\n      swap1\n      return\n        /* \"contracts/core/interfaces/Countable.sol\":237:314  function count() public view returns (uint256) {... */\n    tag_22:\n        /* \"contracts/core/interfaces/Countable.sol\":275:282  uint256 */\n      0x00\n        /* \"contracts/core/interfaces/Countable.sol\":301:307  _count */\n      dup1\n      sload\n        /* \"contracts/core/interfaces/Countable.sol\":294:307  return _count */\n      swap1\n      pop\n        /* \"contracts/core/interfaces/Countable.sol\":237:314  function count() public view returns (uint256) {... */\n      swap1\n      jump\t// out\n        /* \"contracts/Patents.sol\":381:421  uint256 public renewalFee = 0.0005 ether */\n    tag_27:\n      sload(0x05)\n      dup2\n      jump\t// out\n        /* \"contracts/Patents.sol\":2603:3287  function update(... */\n    tag_33:\n        /* \"contracts/Patents.sol\":2858:2864  _count */\n      sload(0x00)\n        /* \"contracts/Patents.sol\":2848:2854  _index */\n      dup11\n        /* \"contracts/Patents.sol\":2848:2864  _index >= _count */\n      lt\n      iszero\n        /* \"contracts/Patents.sol\":2848:2884  _index >= _count || _index <= _count */\n      dup1\n      tag_91\n      jumpi\n      pop\n        /* \"contracts/Patents.sol\":2878:2884  _count */\n      sload(0x00)\n        /* \"contracts/Patents.sol\":2868:2874  _index */\n      dup11\n        /* \"contracts/Patents.sol\":2868:2884  _index <= _count */\n      gt\n      iszero\n        /* \"contracts/Patents.sol\":2848:2884  _index >= _count || _index <= _count */\n    tag_91:\n        /* \"contracts/Patents.sol\":2827:2945  require(... */\n      tag_92\n      jumpi\n      mload(0x40)\n      0x08c379a000000000000000000000000000000000000000000000000000000000\n      dup2\n      mstore\n      0x04\n      add\n      tag_93\n      swap1\n      tag_94\n      jump\t// in\n    tag_93:\n      mload(0x40)\n      dup1\n      swap2\n      sub\n      swap1\n      revert\n    tag_92:\n        /* \"contracts/Patents.sol\":2956:2977  Patent storage patent */\n      0x00\n        /* \"contracts/Patents.sol\":2980:2987  patents */\n      0x02\n        /* \"contracts/Patents.sol\":2980:2995  patents[_index] */\n      0x00\n        /* \"contracts/Patents.sol\":2988:2994  _index */\n      dup13\n        /* \"contracts/Patents.sol\":2980:2995  patents[_index] */\n      dup2\n      mstore\n      0x20\n      add\n      swap1\n      dup2\n      mstore\n      0x20\n      add\n      0x00\n      keccak256\n        /* \"contracts/Patents.sol\":2956:2995  Patent storage patent = patents[_index] */\n      swap1\n      pop\n        /* \"contracts/Patents.sol\":3030:3040  msg.sender */\n      caller\n        /* \"contracts/Patents.sol\":3013:3040  patent.author == msg.sender */\n      0xffffffffffffffffffffffffffffffffffffffff\n      and\n        /* \"contracts/Patents.sol\":3013:3019  patent */\n      dup2\n        /* \"contracts/Patents.sol\":3013:3026  patent.author */\n      0x08\n      add\n      0x00\n      swap1\n      sload\n      swap1\n      0x0100\n      exp\n      swap1\n      div\n      0xffffffffffffffffffffffffffffffffffffffff\n      and\n        /* \"contracts/Patents.sol\":3013:3040  patent.author == msg.sender */\n      0xffffffffffffffffffffffffffffffffffffffff\n      and\n      eq\n        /* \"contracts/Patents.sol\":3005:3067  require(patent.author == msg.sender, \"Action not authorized.\") */\n      tag_95\n      jumpi\n      mload(0x40)\n      0x08c379a000000000000000000000000000000000000000000000000000000000\n      dup2\n      mstore\n      0x04\n      add\n      tag_96\n      swap1\n      tag_97\n      jump\t// in\n    tag_96:\n      mload(0x40)\n      dup1\n      swap2\n      sub\n      swap1\n      revert\n    tag_95:\n        /* \"contracts/Patents.sol\":3093:3099  _title */\n      dup10\n      dup10\n        /* \"contracts/Patents.sol\":3078:3084  patent */\n      dup3\n        /* \"contracts/Patents.sol\":3078:3090  patent.title */\n      0x01\n      add\n        /* \"contracts/Patents.sol\":3078:3099  patent.title = _title */\n      swap2\n      dup3\n      tag_98\n      swap3\n      swap2\n      swap1\n      tag_99\n      jump\t// in\n    tag_98:\n      pop\n        /* \"contracts/Patents.sol\":3126:3134  _summary */\n      dup8\n      dup8\n        /* \"contracts/Patents.sol\":3109:3115  patent */\n      dup3\n        /* \"contracts/Patents.sol\":3109:3123  patent.summary */\n      0x02\n      add\n        /* \"contracts/Patents.sol\":3109:3134  patent.summary = _summary */\n      swap2\n      dup3\n      tag_100\n      swap3\n      swap2\n      swap1\n      tag_99\n      jump\t// in\n    tag_100:\n      pop\n        /* \"contracts/Patents.sol\":3158:3163  _body */\n      dup6\n      dup6\n        /* \"contracts/Patents.sol\":3144:3150  patent */\n      dup3\n        /* \"contracts/Patents.sol\":3144:3155  patent.body */\n      0x03\n      add\n        /* \"contracts/Patents.sol\":3144:3163  patent.body = _body */\n      swap2\n      dup3\n      tag_101\n      swap3\n      swap2\n      swap1\n      tag_99\n      jump\t// in\n    tag_101:\n      pop\n        /* \"contracts/Patents.sol\":3193:3208  block.timestamp */\n      timestamp\n        /* \"contracts/Patents.sol\":3173:3179  patent */\n      dup2\n        /* \"contracts/Patents.sol\":3173:3190  patent.updated_at */\n      0x05\n      add\n        /* \"contracts/Patents.sol\":3173:3208  patent.updated_at = block.timestamp */\n      dup2\n      swap1\n      sstore\n      pop\n        /* \"contracts/Patents.sol\":3239:3251  _category_id */\n      dup4\n        /* \"contracts/Patents.sol\":3218:3224  patent */\n      dup2\n        /* \"contracts/Patents.sol\":3218:3236  patent.category_id */\n      0x06\n      add\n        /* \"contracts/Patents.sol\":3218:3251  patent.category_id = _category_id */\n      dup2\n      swap1\n      sstore\n      pop\n        /* \"contracts/Patents.sol\":3275:3280  _tags */\n      dup3\n      dup3\n        /* \"contracts/Patents.sol\":3261:3267  patent */\n      dup3\n        /* \"contracts/Patents.sol\":3261:3272  patent.tags */\n      0x07\n      add\n        /* \"contracts/Patents.sol\":3261:3280  patent.tags = _tags */\n      swap2\n      swap1\n      tag_102\n      swap3\n      swap2\n      swap1\n      tag_103\n      jump\t// in\n    tag_102:\n      pop\n        /* \"contracts/Patents.sol\":2817:3287  {... */\n      pop\n        /* \"contracts/Patents.sol\":2603:3287  function update(... */\n      pop\n      pop\n      pop\n      pop\n      pop\n      pop\n      pop\n      pop\n      pop\n      pop\n      jump\t// out\n        /* \"contracts/Patents.sol\":3899:4091  function remove(uint256 _index) public {... */\n    tag_38:\n        /* \"contracts/Patents.sol\":3948:3968  Patent memory patent */\n      0x00\n        /* \"contracts/Patents.sol\":3971:3978  patents */\n      0x02\n        /* \"contracts/Patents.sol\":3971:3986  patents[_index] */\n      0x00\n        /* \"contracts/Patents.sol\":3979:3985  _index */\n      dup4\n        /* \"contracts/Patents.sol\":3971:3986  patents[_index] */\n      dup2\n      mstore\n      0x20\n      add\n      swap1\n      dup2\n      mstore\n      0x20\n      add\n      0x00\n      keccak256\n        /* \"contracts/Patents.sol\":3948:3986  Patent memory patent = patents[_index] */\n      mload(0x40)\n      dup1\n      0x0120\n      add\n      0x40\n      mstore\n      swap1\n      dup2\n      0x00\n      dup3\n      add\n      sload\n      dup2\n      mstore\n      0x20\n      add\n      0x01\n      dup3\n      add\n      dup1\n      sload\n      tag_105\n      swap1\n      tag_106\n      jump\t// in\n    tag_105:\n      dup1\n      0x1f\n      add\n      0x20\n      dup1\n      swap2\n      div\n      mul\n      0x20\n      add\n      mload(0x40)\n      swap1\n      dup2\n      add\n      0x40\n      mstore\n      dup1\n      swap3\n      swap2\n      swap1\n      dup2\n      dup2\n      mstore\n      0x20\n      add\n      dup3\n      dup1\n      sload\n      tag_107\n      swap1\n      tag_106\n      jump\t// in\n    tag_107:\n      dup1\n      iszero\n      tag_108\n      jumpi\n      dup1\n      0x1f\n      lt\n      tag_109\n      jumpi\n      0x0100\n      dup1\n      dup4\n      sload\n      div\n      mul\n      dup4\n      mstore\n      swap2\n      0x20\n      add\n      swap2\n      jump(tag_108)\n    tag_109:\n      dup3\n      add\n      swap2\n      swap1\n      0x00\n      mstore\n      keccak256(0x00, 0x20)\n      swap1\n    tag_110:\n      dup2\n      sload\n      dup2\n      mstore\n      swap1\n      0x01\n      add\n      swap1\n      0x20\n      add\n      dup1\n      dup4\n      gt\n      tag_110\n      jumpi\n      dup3\n      swap1\n      sub\n      0x1f\n      and\n      dup3\n      add\n      swap2\n    tag_108:\n      pop\n      pop\n      pop\n      pop\n      pop\n      dup2\n      mstore\n      0x20\n      add\n      0x02\n      dup3\n      add\n      dup1\n      sload\n      tag_111\n      swap1\n      tag_106\n      jump\t// in\n    tag_111:\n      dup1\n      0x1f\n      add\n      0x20\n      dup1\n      swap2\n      div\n      mul\n      0x20\n      add\n      mload(0x40)\n      swap1\n      dup2\n      add\n      0x40\n      mstore\n      dup1\n      swap3\n      swap2\n      swap1\n      dup2\n      dup2\n      mstore\n      0x20\n      add\n      dup3\n      dup1\n      sload\n      tag_112\n      swap1\n      tag_106\n      jump\t// in\n    tag_112:\n      dup1\n      iszero\n      tag_113\n      jumpi\n      dup1\n      0x1f\n      lt\n      tag_114\n      jumpi\n      0x0100\n      dup1\n      dup4\n      sload\n      div\n      mul\n      dup4\n      mstore\n      swap2\n      0x20\n      add\n      swap2\n      jump(tag_113)\n    tag_114:\n      dup3\n      add\n      swap2\n      swap1\n      0x00\n      mstore\n      keccak256(0x00, 0x20)\n      swap1\n    tag_115:\n      dup2\n      sload\n      dup2\n      mstore\n      swap1\n      0x01\n      add\n      swap1\n      0x20\n      add\n      dup1\n      dup4\n      gt\n      tag_115\n      jumpi\n      dup3\n      swap1\n      sub\n      0x1f\n      and\n      dup3\n      add\n      swap2\n    tag_113:\n      pop\n      pop\n      pop\n      pop\n      pop\n      dup2\n      mstore\n      0x20\n      add\n      0x03\n      dup3\n      add\n      dup1\n      sload\n      tag_116\n      swap1\n      tag_106\n      jump\t// in\n    tag_116:\n      dup1\n      0x1f\n      add\n      0x20\n      dup1\n      swap2\n      div\n      mul\n      0x20\n      add\n      mload(0x40)\n      swap1\n      dup2\n      add\n      0x40\n      mstore\n      dup1\n      swap3\n      swap2\n      swap1\n      dup2\n      dup2\n      mstore\n      0x20\n      add\n      dup3\n      dup1\n      sload\n      tag_117\n      swap1\n      tag_106\n      jump\t// in\n    tag_117:\n      dup1\n      iszero\n      tag_118\n      jumpi\n      dup1\n      0x1f\n      lt\n      tag_119\n      jumpi\n      0x0100\n      dup1\n      dup4\n      sload\n      div\n      mul\n      dup4\n      mstore\n      swap2\n      0x20\n      add\n      swap2\n      jump(tag_118)\n    tag_119:\n      dup3\n      add\n      swap2\n      swap1\n      0x00\n      mstore\n      keccak256(0x00, 0x20)\n      swap1\n    tag_120:\n      dup2\n      sload\n      dup2\n      mstore\n      swap1\n      0x01\n      add\n      swap1\n      0x20\n      add\n      dup1\n      dup4\n      gt\n      tag_120\n      jumpi\n      dup3\n      swap1\n      sub\n      0x1f\n      and\n      dup3\n      add\n      swap2\n    tag_118:\n      pop\n      pop\n      pop\n      pop\n      pop\n      dup2\n      mstore\n      0x20\n      add\n      0x04\n      dup3\n      add\n      sload\n      dup2\n      mstore\n      0x20\n      add\n      0x05\n      dup3\n      add\n      sload\n      dup2\n      mstore\n      0x20\n      add\n      0x06\n      dup3\n      add\n      sload\n      dup2\n      mstore\n      0x20\n      add\n      0x07\n      dup3\n      add\n      dup1\n      sload\n      dup1\n      0x20\n      mul\n      0x20\n      add\n      mload(0x40)\n      swap1\n      dup2\n      add\n      0x40\n      mstore\n      dup1\n      swap3\n      swap2\n      swap1\n      dup2\n      dup2\n      mstore\n      0x20\n      add\n      dup3\n      dup1\n      sload\n      dup1\n      iszero\n      tag_121\n      jumpi\n      0x20\n      mul\n      dup3\n      add\n      swap2\n      swap1\n      0x00\n      mstore\n      keccak256(0x00, 0x20)\n      swap1\n    tag_122:\n      dup2\n      sload\n      dup2\n      mstore\n      0x20\n      add\n      swap1\n      0x01\n      add\n      swap1\n      dup1\n      dup4\n      gt\n      tag_122\n      jumpi\n    tag_121:\n      pop\n      pop\n      pop\n      pop\n      pop\n      dup2\n      mstore\n      0x20\n      add\n      0x08\n      dup3\n      add\n      0x00\n      swap1\n      sload\n      swap1\n      0x0100\n      exp\n      swap1\n      div\n      0xffffffffffffffffffffffffffffffffffffffff\n      and\n      0xffffffffffffffffffffffffffffffffffffffff\n      and\n      0xffffffffffffffffffffffffffffffffffffffff\n      and\n      dup2\n      mstore\n      pop\n      pop\n      swap1\n      pop\n        /* \"contracts/Patents.sol\":4021:4031  msg.sender */\n      caller\n        /* \"contracts/Patents.sol\":4004:4031  patent.author == msg.sender */\n      0xffffffffffffffffffffffffffffffffffffffff\n      and\n        /* \"contracts/Patents.sol\":4004:4010  patent */\n      dup2\n        /* \"contracts/Patents.sol\":4004:4017  patent.author */\n      0x0100\n      add\n      mload\n        /* \"contracts/Patents.sol\":4004:4031  patent.author == msg.sender */\n      0xffffffffffffffffffffffffffffffffffffffff\n      and\n      eq\n        /* \"contracts/Patents.sol\":3996:4058  require(patent.author == msg.sender, \"Action not authorized.\") */\n      tag_123\n      jumpi\n      mload(0x40)\n      0x08c379a000000000000000000000000000000000000000000000000000000000\n      dup2\n      mstore\n      0x04\n      add\n      tag_124\n      swap1\n      tag_97\n      jump\t// in\n    tag_124:\n      mload(0x40)\n      dup1\n      swap2\n      sub\n      swap1\n      revert\n    tag_123:\n        /* \"contracts/Patents.sol\":4068:4084  decrementCount() */\n      tag_125\n        /* \"contracts/Patents.sol\":4068:4082  decrementCount */\n      tag_126\n        /* \"contracts/Patents.sol\":4068:4084  decrementCount() */\n      jump\t// in\n    tag_125:\n        /* \"contracts/Patents.sol\":3938:4091  {... */\n      pop\n        /* \"contracts/Patents.sol\":3899:4091  function remove(uint256 _index) public {... */\n      pop\n      jump\t// out\n        /* \"contracts/Patents.sol\":657:851  function withdraw(address to) public isOwner {... */\n    tag_43:\n        /* \"contracts/core/interfaces/Ownerable.sol\":202:212  msg.sender */\n      caller\n        /* \"contracts/core/interfaces/Ownerable.sol\":193:212  owner == msg.sender */\n      0xffffffffffffffffffffffffffffffffffffffff\n      and\n        /* \"contracts/core/interfaces/Ownerable.sol\":193:198  owner */\n      0x01\n      0x00\n      swap1\n      sload\n      swap1\n      0x0100\n      exp\n      swap1\n      div\n      0xffffffffffffffffffffffffffffffffffffffff\n      and\n        /* \"contracts/core/interfaces/Ownerable.sol\":193:212  owner == msg.sender */\n      0xffffffffffffffffffffffffffffffffffffffff\n      and\n      eq\n        /* \"contracts/core/interfaces/Ownerable.sol\":185:262  require(owner == msg.sender, \"Only authorized personel can add new entries.\") */\n      tag_128\n      jumpi\n      mload(0x40)\n      0x08c379a000000000000000000000000000000000000000000000000000000000\n      dup2\n      mstore\n      0x04\n      add\n      tag_129\n      swap1\n      tag_130\n      jump\t// in\n    tag_129:\n      mload(0x40)\n      dup1\n      swap2\n      sub\n      swap1\n      revert\n    tag_128:\n        /* \"contracts/Patents.sol\":712:727  uint256 balance */\n      0x00\n        /* \"contracts/Patents.sol\":730:751  address(this).balance */\n      selfbalance\n        /* \"contracts/Patents.sol\":712:751  uint256 balance = address(this).balance */\n      swap1\n      pop\n        /* \"contracts/Patents.sol\":779:780  0 */\n      0x00\n        /* \"contracts/Patents.sol\":769:776  balance */\n      dup2\n        /* \"contracts/Patents.sol\":769:780  balance > 0 */\n      gt\n        /* \"contracts/Patents.sol\":761:804  require(balance > 0, \"No funds available.\") */\n      tag_132\n      jumpi\n      mload(0x40)\n      0x08c379a000000000000000000000000000000000000000000000000000000000\n      dup2\n      mstore\n      0x04\n      add\n      tag_133\n      swap1\n      tag_134\n      jump\t// in\n    tag_133:\n      mload(0x40)\n      dup1\n      swap2\n      sub\n      swap1\n      revert\n    tag_132:\n        /* \"contracts/Patents.sol\":823:825  to */\n      dup2\n        /* \"contracts/Patents.sol\":815:835  payable(to).transfer */\n      0xffffffffffffffffffffffffffffffffffffffff\n      and\n        /* \"contracts/Patents.sol\":815:844  payable(to).transfer(balance) */\n      0x08fc\n        /* \"contracts/Patents.sol\":836:843  balance */\n      dup3\n        /* \"contracts/Patents.sol\":815:844  payable(to).transfer(balance) */\n      swap1\n      dup2\n      iszero\n      mul\n      swap1\n      mload(0x40)\n      0x00\n      mload(0x40)\n      dup1\n      dup4\n      sub\n      dup2\n      dup6\n      dup9\n      dup9\n      call\n      swap4\n      pop\n      pop\n      pop\n      pop\n      iszero\n      dup1\n      iszero\n      tag_136\n      jumpi\n      returndatasize\n      0x00\n      dup1\n      returndatacopy\n      revert(0x00, returndatasize)\n    tag_136:\n      pop\n        /* \"contracts/Patents.sol\":702:851  {... */\n      pop\n        /* \"contracts/Patents.sol\":657:851  function withdraw(address to) public isOwner {... */\n      pop\n      jump\t// out\n        /* \"contracts/Patents.sol\":3663:3893  function changeOwner(address _newOwner, uint256 _index) public view {... */\n    tag_48:\n        /* \"contracts/Patents.sol\":3741:3761  Patent memory patent */\n      0x00\n        /* \"contracts/Patents.sol\":3764:3771  patents */\n      0x02\n        /* \"contracts/Patents.sol\":3764:3779  patents[_index] */\n      0x00\n        /* \"contracts/Patents.sol\":3772:3778  _index */\n      dup4\n        /* \"contracts/Patents.sol\":3764:3779  patents[_index] */\n      dup2\n      mstore\n      0x20\n      add\n      swap1\n      dup2\n      mstore\n      0x20\n      add\n      0x00\n      keccak256\n        /* \"contracts/Patents.sol\":3741:3779  Patent memory patent = patents[_index] */\n      mload(0x40)\n      dup1\n      0x0120\n      add\n      0x40\n      mstore\n      swap1\n      dup2\n      0x00\n      dup3\n      add\n      sload\n      dup2\n      mstore\n      0x20\n      add\n      0x01\n      dup3\n      add\n      dup1\n      sload\n      tag_138\n      swap1\n      tag_106\n      jump\t// in\n    tag_138:\n      dup1\n      0x1f\n      add\n      0x20\n      dup1\n      swap2\n      div\n      mul\n      0x20\n      add\n      mload(0x40)\n      swap1\n      dup2\n      add\n      0x40\n      mstore\n      dup1\n      swap3\n      swap2\n      swap1\n      dup2\n      dup2\n      mstore\n      0x20\n      add\n      dup3\n      dup1\n      sload\n      tag_139\n      swap1\n      tag_106\n      jump\t// in\n    tag_139:\n      dup1\n      iszero\n      tag_140\n      jumpi\n      dup1\n      0x1f\n      lt\n      tag_141\n      jumpi\n      0x0100\n      dup1\n      dup4\n      sload\n      div\n      mul\n      dup4\n      mstore\n      swap2\n      0x20\n      add\n      swap2\n      jump(tag_140)\n    tag_141:\n      dup3\n      add\n      swap2\n      swap1\n      0x00\n      mstore\n      keccak256(0x00, 0x20)\n      swap1\n    tag_142:\n      dup2\n      sload\n      dup2\n      mstore\n      swap1\n      0x01\n      add\n      swap1\n      0x20\n      add\n      dup1\n      dup4\n      gt\n      tag_142\n      jumpi\n      dup3\n      swap1\n      sub\n      0x1f\n      and\n      dup3\n      add\n      swap2\n    tag_140:\n      pop\n      pop\n      pop\n      pop\n      pop\n      dup2\n      mstore\n      0x20\n      add\n      0x02\n      dup3\n      add\n      dup1\n      sload\n      tag_143\n      swap1\n      tag_106\n      jump\t// in\n    tag_143:\n      dup1\n      0x1f\n      add\n      0x20\n      dup1\n      swap2\n      div\n      mul\n      0x20\n      add\n      mload(0x40)\n      swap1\n      dup2\n      add\n      0x40\n      mstore\n      dup1\n      swap3\n      swap2\n      swap1\n      dup2\n      dup2\n      mstore\n      0x20\n      add\n      dup3\n      dup1\n      sload\n      tag_144\n      swap1\n      tag_106\n      jump\t// in\n    tag_144:\n      dup1\n      iszero\n      tag_145\n      jumpi\n      dup1\n      0x1f\n      lt\n      tag_146\n      jumpi\n      0x0100\n      dup1\n      dup4\n      sload\n      div\n      mul\n      dup4\n      mstore\n      swap2\n      0x20\n      add\n      swap2\n      jump(tag_145)\n    tag_146:\n      dup3\n      add\n      swap2\n      swap1\n      0x00\n      mstore\n      keccak256(0x00, 0x20)\n      swap1\n    tag_147:\n      dup2\n      sload\n      dup2\n      mstore\n      swap1\n      0x01\n      add\n      swap1\n      0x20\n      add\n      dup1\n      dup4\n      gt\n      tag_147\n      jumpi\n      dup3\n      swap1\n      sub\n      0x1f\n      and\n      dup3\n      add\n      swap2\n    tag_145:\n      pop\n      pop\n      pop\n      pop\n      pop\n      dup2\n      mstore\n      0x20\n      add\n      0x03\n      dup3\n      add\n      dup1\n      sload\n      tag_148\n      swap1\n      tag_106\n      jump\t// in\n    tag_148:\n      dup1\n      0x1f\n      add\n      0x20\n      dup1\n      swap2\n      div\n      mul\n      0x20\n      add\n      mload(0x40)\n      swap1\n      dup2\n      add\n      0x40\n      mstore\n      dup1\n      swap3\n      swap2\n      swap1\n      dup2\n      dup2\n      mstore\n      0x20\n      add\n      dup3\n      dup1\n      sload\n      tag_149\n      swap1\n      tag_106\n      jump\t// in\n    tag_149:\n      dup1\n      iszero\n      tag_150\n      jumpi\n      dup1\n      0x1f\n      lt\n      tag_151\n      jumpi\n      0x0100\n      dup1\n      dup4\n      sload\n      div\n      mul\n      dup4\n      mstore\n      swap2\n      0x20\n      add\n      swap2\n      jump(tag_150)\n    tag_151:\n      dup3\n      add\n      swap2\n      swap1\n      0x00\n      mstore\n      keccak256(0x00, 0x20)\n      swap1\n    tag_152:\n      dup2\n      sload\n      dup2\n      mstore\n      swap1\n      0x01\n      add\n      swap1\n      0x20\n      add\n      dup1\n      dup4\n      gt\n      tag_152\n      jumpi\n      dup3\n      swap1\n      sub\n      0x1f\n      and\n      dup3\n      add\n      swap2\n    tag_150:\n      pop\n      pop\n      pop\n      pop\n      pop\n      dup2\n      mstore\n      0x20\n      add\n      0x04\n      dup3\n      add\n      sload\n      dup2\n      mstore\n      0x20\n      add\n      0x05\n      dup3\n      add\n      sload\n      dup2\n      mstore\n      0x20\n      add\n      0x06\n      dup3\n      add\n      sload\n      dup2\n      mstore\n      0x20\n      add\n      0x07\n      dup3\n      add\n      dup1\n      sload\n      dup1\n      0x20\n      mul\n      0x20\n      add\n      mload(0x40)\n      swap1\n      dup2\n      add\n      0x40\n      mstore\n      dup1\n      swap3\n      swap2\n      swap1\n      dup2\n      dup2\n      mstore\n      0x20\n      add\n      dup3\n      dup1\n      sload\n      dup1\n      iszero\n      tag_153\n      jumpi\n      0x20\n      mul\n      dup3\n      add\n      swap2\n      swap1\n      0x00\n      mstore\n      keccak256(0x00, 0x20)\n      swap1\n    tag_154:\n      dup2\n      sload\n      dup2\n      mstore\n      0x20\n      add\n      swap1\n      0x01\n      add\n      swap1\n      dup1\n      dup4\n      gt\n      tag_154\n      jumpi\n    tag_153:\n      pop\n      pop\n      pop\n      pop\n      pop\n      dup2\n      mstore\n      0x20\n      add\n      0x08\n      dup3\n      add\n      0x00\n      swap1\n      sload\n      swap1\n      0x0100\n      exp\n      swap1\n      div\n      0xffffffffffffffffffffffffffffffffffffffff\n      and\n      0xffffffffffffffffffffffffffffffffffffffff\n      and\n      0xffffffffffffffffffffffffffffffffffffffff\n      and\n      dup2\n      mstore\n      pop\n      pop\n      swap1\n      pop\n        /* \"contracts/Patents.sol\":3814:3824  msg.sender */\n      caller\n        /* \"contracts/Patents.sol\":3797:3824  patent.author == msg.sender */\n      0xffffffffffffffffffffffffffffffffffffffff\n      and\n        /* \"contracts/Patents.sol\":3797:3803  patent */\n      dup2\n        /* \"contracts/Patents.sol\":3797:3810  patent.author */\n      0x0100\n      add\n      mload\n        /* \"contracts/Patents.sol\":3797:3824  patent.author == msg.sender */\n      0xffffffffffffffffffffffffffffffffffffffff\n      and\n      eq\n        /* \"contracts/Patents.sol\":3789:3851  require(patent.author == msg.sender, \"Action not authorized.\") */\n      tag_155\n      jumpi\n      mload(0x40)\n      0x08c379a000000000000000000000000000000000000000000000000000000000\n      dup2\n      mstore\n      0x04\n      add\n      tag_156\n      swap1\n      tag_97\n      jump\t// in\n    tag_156:\n      mload(0x40)\n      dup1\n      swap2\n      sub\n      swap1\n      revert\n    tag_155:\n        /* \"contracts/Patents.sol\":3877:3886  _newOwner */\n      dup3\n        /* \"contracts/Patents.sol\":3861:3867  patent */\n      dup2\n        /* \"contracts/Patents.sol\":3861:3874  patent.author */\n      0x0100\n      add\n        /* \"contracts/Patents.sol\":3861:3886  patent.author = _newOwner */\n      swap1\n      0xffffffffffffffffffffffffffffffffffffffff\n      and\n      swap1\n      dup2\n      0xffffffffffffffffffffffffffffffffffffffff\n      and\n      dup2\n      mstore\n      pop\n      pop\n        /* \"contracts/Patents.sol\":3731:3893  {... */\n      pop\n        /* \"contracts/Patents.sol\":3663:3893  function changeOwner(address _newOwner, uint256 _index) public view {... */\n      pop\n      pop\n      jump\t// out\n        /* \"contracts/Patents.sol\":3293:3657  function renew(uint256 _index) public payable {... */\n    tag_51:\n        /* \"contracts/Patents.sol\":3370:3380  renewalFee */\n      sload(0x05)\n        /* \"contracts/Patents.sol\":3357:3366  msg.value */\n      callvalue\n        /* \"contracts/Patents.sol\":3357:3380  msg.value == renewalFee */\n      eq\n        /* \"contracts/Patents.sol\":3349:3407  require(msg.value == renewalFee, \"Incorrect renewal fee.\") */\n      tag_158\n      jumpi\n      mload(0x40)\n      0x08c379a000000000000000000000000000000000000000000000000000000000\n      dup2\n      mstore\n      0x04\n      add\n      tag_159\n      swap1\n      tag_160\n      jump\t// in\n    tag_159:\n      mload(0x40)\n      dup1\n      swap2\n      sub\n      swap1\n      revert\n    tag_158:\n        /* \"contracts/Patents.sol\":3418:3438  Patent memory patent */\n      0x00\n        /* \"contracts/Patents.sol\":3441:3448  patents */\n      0x02\n        /* \"contracts/Patents.sol\":3441:3456  patents[_index] */\n      0x00\n        /* \"contracts/Patents.sol\":3449:3455  _index */\n      dup4\n        /* \"contracts/Patents.sol\":3441:3456  patents[_index] */\n      dup2\n      mstore\n      0x20\n      add\n      swap1\n      dup2\n      mstore\n      0x20\n      add\n      0x00\n      keccak256\n        /* \"contracts/Patents.sol\":3418:3456  Patent memory patent = patents[_index] */\n      mload(0x40)\n      dup1\n      0x0120\n      add\n      0x40\n      mstore\n      swap1\n      dup2\n      0x00\n      dup3\n      add\n      sload\n      dup2\n      mstore\n      0x20\n      add\n      0x01\n      dup3\n      add\n      dup1\n      sload\n      tag_161\n      swap1\n      tag_106\n      jump\t// in\n    tag_161:\n      dup1\n      0x1f\n      add\n      0x20\n      dup1\n      swap2\n      div\n      mul\n      0x20\n      add\n      mload(0x40)\n      swap1\n      dup2\n      add\n      0x40\n      mstore\n      dup1\n      swap3\n      swap2\n      swap1\n      dup2\n      dup2\n      mstore\n      0x20\n      add\n      dup3\n      dup1\n      sload\n      tag_162\n      swap1\n      tag_106\n      jump\t// in\n    tag_162:\n      dup1\n      iszero\n      tag_163\n      jumpi\n      dup1\n      0x1f\n      lt\n      tag_164\n      jumpi\n      0x0100\n      dup1\n      dup4\n      sload\n      div\n      mul\n      dup4\n      mstore\n      swap2\n      0x20\n      add\n      swap2\n      jump(tag_163)\n    tag_164:\n      dup3\n      add\n      swap2\n      swap1\n      0x00\n      mstore\n      keccak256(0x00, 0x20)\n      swap1\n    tag_165:\n      dup2\n      sload\n      dup2\n      mstore\n      swap1\n      0x01\n      add\n      swap1\n      0x20\n      add\n      dup1\n      dup4\n      gt\n      tag_165\n      jumpi\n      dup3\n      swap1\n      sub\n      0x1f\n      and\n      dup3\n      add\n      swap2\n    tag_163:\n      pop\n      pop\n      pop\n      pop\n      pop\n      dup2\n      mstore\n      0x20\n      add\n      0x02\n      dup3\n      add\n      dup1\n      sload\n      tag_166\n      swap1\n      tag_106\n      jump\t// in\n    tag_166:\n      dup1\n      0x1f\n      add\n      0x20\n      dup1\n      swap2\n      div\n      mul\n      0x20\n      add\n      mload(0x40)\n      swap1\n      dup2\n      add\n      0x40\n      mstore\n      dup1\n      swap3\n      swap2\n      swap1\n      dup2\n      dup2\n      mstore\n      0x20\n      add\n      dup3\n      dup1\n      sload\n      tag_167\n      swap1\n      tag_106\n      jump\t// in\n    tag_167:\n      dup1\n      iszero\n      tag_168\n      jumpi\n      dup1\n      0x1f\n      lt\n      tag_169\n      jumpi\n      0x0100\n      dup1\n      dup4\n      sload\n      div\n      mul\n      dup4\n      mstore\n      swap2\n      0x20\n      add\n      swap2\n      jump(tag_168)\n    tag_169:\n      dup3\n      add\n      swap2\n      swap1\n      0x00\n      mstore\n      keccak256(0x00, 0x20)\n      swap1\n    tag_170:\n      dup2\n      sload\n      dup2\n      mstore\n      swap1\n      0x01\n      add\n      swap1\n      0x20\n      add\n      dup1\n      dup4\n      gt\n      tag_170\n      jumpi\n      dup3\n      swap1\n      sub\n      0x1f\n      and\n      dup3\n      add\n      swap2\n    tag_168:\n      pop\n      pop\n      pop\n      pop\n      pop\n      dup2\n      mstore\n      0x20\n      add\n      0x03\n      dup3\n      add\n      dup1\n      sload\n      tag_171\n      swap1\n      tag_106\n      jump\t// in\n    tag_171:\n      dup1\n      0x1f\n      add\n      0x20\n      dup1\n      swap2\n      div\n      mul\n      0x20\n      add\n      mload(0x40)\n      swap1\n      dup2\n      add\n      0x40\n      mstore\n      dup1\n      swap3\n      swap2\n      swap1\n      dup2\n      dup2\n      mstore\n      0x20\n      add\n      dup3\n      dup1\n      sload\n      tag_172\n      swap1\n      tag_106\n      jump\t// in\n    tag_172:\n      dup1\n      iszero\n      tag_173\n      jumpi\n      dup1\n      0x1f\n      lt\n      tag_174\n      jumpi\n      0x0100\n      dup1\n      dup4\n      sload\n      div\n      mul\n      dup4\n      mstore\n      swap2\n      0x20\n      add\n      swap2\n      jump(tag_173)\n    tag_174:\n      dup3\n      add\n      swap2\n      swap1\n      0x00\n      mstore\n      keccak256(0x00, 0x20)\n      swap1\n    tag_175:\n      dup2\n      sload\n      dup2\n      mstore\n      swap1\n      0x01\n      add\n      swap1\n      0x20\n      add\n      dup1\n      dup4\n      gt\n      tag_175\n      jumpi\n      dup3\n      swap1\n      sub\n      0x1f\n      and\n      dup3\n      add\n      swap2\n    tag_173:\n      pop\n      pop\n      pop\n      pop\n      pop\n      dup2\n      mstore\n      0x20\n      add\n      0x04\n      dup3\n      add\n      sload\n      dup2\n      mstore\n      0x20\n      add\n      0x05\n      dup3\n      add\n      sload\n      dup2\n      mstore\n      0x20\n      add\n      0x06\n      dup3\n      add\n      sload\n      dup2\n      mstore\n      0x20\n      add\n      0x07\n      dup3\n      add\n      dup1\n      sload\n      dup1\n      0x20\n      mul\n      0x20\n      add\n      mload(0x40)\n      swap1\n      dup2\n      add\n      0x40\n      mstore\n      dup1\n      swap3\n      swap2\n      swap1\n      dup2\n      dup2\n      mstore\n      0x20\n      add\n      dup3\n      dup1\n      sload\n      dup1\n      iszero\n      tag_176\n      jumpi\n      0x20\n      mul\n      dup3\n      add\n      swap2\n      swap1\n      0x00\n      mstore\n      keccak256(0x00, 0x20)\n      swap1\n    tag_177:\n      dup2\n      sload\n      dup2\n      mstore\n      0x20\n      add\n      swap1\n      0x01\n      add\n      swap1\n      dup1\n      dup4\n      gt\n      tag_177\n      jumpi\n    tag_176:\n      pop\n      pop\n      pop\n      pop\n      pop\n      dup2\n      mstore\n      0x20\n      add\n      0x08\n      dup3\n      add\n      0x00\n      swap1\n      sload\n      swap1\n      0x0100\n      exp\n      swap1\n      div\n      0xffffffffffffffffffffffffffffffffffffffff\n      and\n      0xffffffffffffffffffffffffffffffffffffffff\n      and\n      0xffffffffffffffffffffffffffffffffffffffff\n      and\n      dup2\n      mstore\n      pop\n      pop\n      swap1\n      pop\n        /* \"contracts/Patents.sol\":3491:3501  msg.sender */\n      caller\n        /* \"contracts/Patents.sol\":3474:3501  patent.author == msg.sender */\n      0xffffffffffffffffffffffffffffffffffffffff\n      and\n        /* \"contracts/Patents.sol\":3474:3480  patent */\n      dup2\n        /* \"contracts/Patents.sol\":3474:3487  patent.author */\n      0x0100\n      add\n      mload\n        /* \"contracts/Patents.sol\":3474:3501  patent.author == msg.sender */\n      0xffffffffffffffffffffffffffffffffffffffff\n      and\n      eq\n        /* \"contracts/Patents.sol\":3466:3528  require(patent.author == msg.sender, \"Action not authorized.\") */\n      tag_178\n      jumpi\n      mload(0x40)\n      0x08c379a000000000000000000000000000000000000000000000000000000000\n      dup2\n      mstore\n      0x04\n      add\n      tag_179\n      swap1\n      tag_97\n      jump\t// in\n    tag_179:\n      mload(0x40)\n      dup1\n      swap2\n      sub\n      swap1\n      revert\n    tag_178:\n        /* \"contracts/Patents.sol\":3550:3559  msg.value */\n      callvalue\n        /* \"contracts/Patents.sol\":3539:3546  revenew */\n      0x06\n      0x00\n        /* \"contracts/Patents.sol\":3539:3559  revenew += msg.value */\n      dup3\n      dup3\n      sload\n      tag_180\n      swap2\n      swap1\n      tag_181\n      jump\t// in\n    tag_180:\n      swap3\n      pop\n      pop\n      dup2\n      swap1\n      sstore\n      pop\n        /* \"contracts/Patents.sol\":3590:3605  block.timestamp */\n      timestamp\n        /* \"contracts/Patents.sol\":3570:3576  patent */\n      dup2\n        /* \"contracts/Patents.sol\":3570:3587  patent.created_at */\n      0x80\n      add\n        /* \"contracts/Patents.sol\":3570:3605  patent.created_at = block.timestamp */\n      dup2\n      dup2\n      mstore\n      pop\n      pop\n        /* \"contracts/Patents.sol\":3635:3650  block.timestamp */\n      timestamp\n        /* \"contracts/Patents.sol\":3615:3621  patent */\n      dup2\n        /* \"contracts/Patents.sol\":3615:3632  patent.updated_at */\n      0xa0\n      add\n        /* \"contracts/Patents.sol\":3615:3650  patent.updated_at = block.timestamp */\n      dup2\n      dup2\n      mstore\n      pop\n      pop\n        /* \"contracts/Patents.sol\":3339:3657  {... */\n      pop\n        /* \"contracts/Patents.sol\":3293:3657  function renew(uint256 _index) public payable {... */\n      pop\n      jump\t// out\n        /* \"contracts/Patents.sol\":857:1558  function add(... */\n    tag_55:\n        /* \"contracts/Patents.sol\":1083:1094  creationFee */\n      sload(0x04)\n        /* \"contracts/Patents.sol\":1070:1079  msg.value */\n      callvalue\n        /* \"contracts/Patents.sol\":1070:1094  msg.value == creationFee */\n      eq\n        /* \"contracts/Patents.sol\":1062:1122  require(msg.value == creationFee, \"Incorrect creation fee.\") */\n      tag_183\n      jumpi\n      mload(0x40)\n      0x08c379a000000000000000000000000000000000000000000000000000000000\n      dup2\n      mstore\n      0x04\n      add\n      tag_184\n      swap1\n      tag_185\n      jump\t// in\n    tag_184:\n      mload(0x40)\n      dup1\n      swap2\n      sub\n      swap1\n      revert\n    tag_183:\n        /* \"contracts/Patents.sol\":1144:1153  msg.value */\n      callvalue\n        /* \"contracts/Patents.sol\":1133:1140  revenew */\n      0x06\n      0x00\n        /* \"contracts/Patents.sol\":1133:1153  revenew += msg.value */\n      dup3\n      dup3\n      sload\n      tag_186\n      swap2\n      swap1\n      tag_181\n      jump\t// in\n    tag_186:\n      swap3\n      pop\n      pop\n      dup2\n      swap1\n      sstore\n      pop\n        /* \"contracts/Patents.sol\":1164:1180  incrementCount() */\n      tag_187\n        /* \"contracts/Patents.sol\":1164:1178  incrementCount */\n      tag_188\n        /* \"contracts/Patents.sol\":1164:1180  incrementCount() */\n      jump\t// in\n    tag_187:\n        /* \"contracts/Patents.sol\":1209:1512  Patent({... */\n      mload(0x40)\n      dup1\n      0x0120\n      add\n      0x40\n      mstore\n      dup1\n        /* \"contracts/Patents.sol\":1234:1240  _count */\n      sload(0x00)\n        /* \"contracts/Patents.sol\":1209:1512  Patent({... */\n      dup2\n      mstore\n      0x20\n      add\n        /* \"contracts/Patents.sol\":1261:1267  _title */\n      dup11\n      dup11\n        /* \"contracts/Patents.sol\":1209:1512  Patent({... */\n      dup1\n      dup1\n      0x1f\n      add\n      0x20\n      dup1\n      swap2\n      div\n      mul\n      0x20\n      add\n      mload(0x40)\n      swap1\n      dup2\n      add\n      0x40\n      mstore\n      dup1\n      swap4\n      swap3\n      swap2\n      swap1\n      dup2\n      dup2\n      mstore\n      0x20\n      add\n      dup4\n      dup4\n      dup1\n      dup3\n      dup5\n      calldatacopy\n      0x00\n      dup2\n      dup5\n      add\n      mstore\n      not(0x1f)\n      0x1f\n      dup3\n      add\n      and\n      swap1\n      pop\n      dup1\n      dup4\n      add\n      swap3\n      pop\n      pop\n      pop\n      pop\n      pop\n      pop\n      pop\n      dup2\n      mstore\n      0x20\n      add\n        /* \"contracts/Patents.sol\":1290:1298  _summary */\n      dup9\n      dup9\n        /* \"contracts/Patents.sol\":1209:1512  Patent({... */\n      dup1\n      dup1\n      0x1f\n      add\n      0x20\n      dup1\n      swap2\n      div\n      mul\n      0x20\n      add\n      mload(0x40)\n      swap1\n      dup2\n      add\n      0x40\n      mstore\n      dup1\n      swap4\n      swap3\n      swap2\n      swap1\n      dup2\n      dup2\n      mstore\n      0x20\n      add\n      dup4\n      dup4\n      dup1\n      dup3\n      dup5\n      calldatacopy\n      0x00\n      dup2\n      dup5\n      add\n      mstore\n      not(0x1f)\n      0x1f\n      dup3\n      add\n      and\n      swap1\n      pop\n      dup1\n      dup4\n      add\n      swap3\n      pop\n      pop\n      pop\n      pop\n      pop\n      pop\n      pop\n      dup2\n      mstore\n      0x20\n      add\n        /* \"contracts/Patents.sol\":1318:1323  _body */\n      dup7\n      dup7\n        /* \"contracts/Patents.sol\":1209:1512  Patent({... */\n      dup1\n      dup1\n      0x1f\n      add\n      0x20\n      dup1\n      swap2\n      div\n      mul\n      0x20\n      add\n      mload(0x40)\n      swap1\n      dup2\n      add\n      0x40\n      mstore\n      dup1\n      swap4\n      swap3\n      swap2\n      swap1\n      dup2\n      dup2\n      mstore\n      0x20\n      add\n      dup4\n      dup4\n      dup1\n      dup3\n      dup5\n      calldatacopy\n      0x00\n      dup2\n      dup5\n      add\n      mstore\n      not(0x1f)\n      0x1f\n      dup3\n      add\n      and\n      swap1\n      pop\n      dup1\n      dup4\n      add\n      swap3\n      pop\n      pop\n      pop\n      pop\n      pop\n      pop\n      pop\n      dup2\n      mstore\n      0x20\n      add\n        /* \"contracts/Patents.sol\":1349:1364  block.timestamp */\n      timestamp\n        /* \"contracts/Patents.sol\":1209:1512  Patent({... */\n      dup2\n      mstore\n      0x20\n      add\n        /* \"contracts/Patents.sol\":1390:1405  block.timestamp */\n      timestamp\n        /* \"contracts/Patents.sol\":1209:1512  Patent({... */\n      dup2\n      mstore\n      0x20\n      add\n        /* \"contracts/Patents.sol\":1432:1444  _category_id */\n      dup5\n        /* \"contracts/Patents.sol\":1209:1512  Patent({... */\n      dup2\n      mstore\n      0x20\n      add\n        /* \"contracts/Patents.sol\":1464:1469  _tags */\n      dup4\n      dup4\n        /* \"contracts/Patents.sol\":1209:1512  Patent({... */\n      dup1\n      dup1\n      0x20\n      mul\n      0x20\n      add\n      mload(0x40)\n      swap1\n      dup2\n      add\n      0x40\n      mstore\n      dup1\n      swap4\n      swap3\n      swap2\n      swap1\n      dup2\n      dup2\n      mstore\n      0x20\n      add\n      dup4\n      dup4\n      0x20\n      mul\n      dup1\n      dup3\n      dup5\n      calldatacopy\n      0x00\n      dup2\n      dup5\n      add\n      mstore\n      not(0x1f)\n      0x1f\n      dup3\n      add\n      and\n      swap1\n      pop\n      dup1\n      dup4\n      add\n      swap3\n      pop\n      pop\n      pop\n      pop\n      pop\n      pop\n      pop\n      dup2\n      mstore\n      0x20\n      add\n        /* \"contracts/Patents.sol\":1491:1501  msg.sender */\n      caller\n        /* \"contracts/Patents.sol\":1209:1512  Patent({... */\n      0xffffffffffffffffffffffffffffffffffffffff\n      and\n      dup2\n      mstore\n      pop\n        /* \"contracts/Patents.sol\":1191:1198  patents */\n      0x02\n        /* \"contracts/Patents.sol\":1191:1206  patents[_count] */\n      0x00\n        /* \"contracts/Patents.sol\":1199:1205  _count */\n      dup1\n      sload\n        /* \"contracts/Patents.sol\":1191:1206  patents[_count] */\n      dup2\n      mstore\n      0x20\n      add\n      swap1\n      dup2\n      mstore\n      0x20\n      add\n      0x00\n      keccak256\n        /* \"contracts/Patents.sol\":1191:1512  patents[_count] = Patent({... */\n      0x00\n      dup3\n      add\n      mload\n      dup2\n      0x00\n      add\n      sstore\n      0x20\n      dup3\n      add\n      mload\n      dup2\n      0x01\n      add\n      swap1\n      dup2\n      tag_189\n      swap2\n      swap1\n      tag_190\n      jump\t// in\n    tag_189:\n      pop\n      0x40\n      dup3\n      add\n      mload\n      dup2\n      0x02\n      add\n      swap1\n      dup2\n      tag_191\n      swap2\n      swap1\n      tag_190\n      jump\t// in\n    tag_191:\n      pop\n      0x60\n      dup3\n      add\n      mload\n      dup2\n      0x03\n      add\n      swap1\n      dup2\n      tag_192\n      swap2\n      swap1\n      tag_190\n      jump\t// in\n    tag_192:\n      pop\n      0x80\n      dup3\n      add\n      mload\n      dup2\n      0x04\n      add\n      sstore\n      0xa0\n      dup3\n      add\n      mload\n      dup2\n      0x05\n      add\n      sstore\n      0xc0\n      dup3\n      add\n      mload\n      dup2\n      0x06\n      add\n      sstore\n      0xe0\n      dup3\n      add\n      mload\n      dup2\n      0x07\n      add\n      swap1\n      dup1\n      mload\n      swap1\n      0x20\n      add\n      swap1\n      tag_193\n      swap3\n      swap2\n      swap1\n      tag_194\n      jump\t// in\n    tag_193:\n      pop\n      0x0100\n      dup3\n      add\n      mload\n      dup2\n      0x08\n      add\n      exp(0x0100, 0x00)\n      dup2\n      sload\n      dup2\n      0xffffffffffffffffffffffffffffffffffffffff\n      mul\n      not\n      and\n      swap1\n      dup4\n      0xffffffffffffffffffffffffffffffffffffffff\n      and\n      mul\n      or\n      swap1\n      sstore\n      pop\n      swap1\n      pop\n      pop\n        /* \"contracts/Patents.sol\":1550:1551  1 */\n      0x01\n        /* \"contracts/Patents.sol\":1523:1534  userPatents */\n      0x03\n        /* \"contracts/Patents.sol\":1523:1546  userPatents[msg.sender] */\n      0x00\n        /* \"contracts/Patents.sol\":1535:1545  msg.sender */\n      caller\n        /* \"contracts/Patents.sol\":1523:1546  userPatents[msg.sender] */\n      0xffffffffffffffffffffffffffffffffffffffff\n      and\n      0xffffffffffffffffffffffffffffffffffffffff\n      and\n      dup2\n      mstore\n      0x20\n      add\n      swap1\n      dup2\n      mstore\n      0x20\n      add\n      0x00\n      keccak256\n      0x00\n        /* \"contracts/Patents.sol\":1523:1551  userPatents[msg.sender] += 1 */\n      dup3\n      dup3\n      sload\n      tag_195\n      swap2\n      swap1\n      tag_181\n      jump\t// in\n    tag_195:\n      swap3\n      pop\n      pop\n      dup2\n      swap1\n      sstore\n      pop\n        /* \"contracts/Patents.sol\":857:1558  function add(... */\n      pop\n      pop\n      pop\n      pop\n      pop\n      pop\n      pop\n      pop\n      pop\n      jump\t// out\n        /* \"contracts/Patents.sol\":456:553  function updateCreationFee(uint256 _amount) public isOwner {... */\n    tag_59:\n        /* \"contracts/core/interfaces/Ownerable.sol\":202:212  msg.sender */\n      caller\n        /* \"contracts/core/interfaces/Ownerable.sol\":193:212  owner == msg.sender */\n      0xffffffffffffffffffffffffffffffffffffffff\n      and\n        /* \"contracts/core/interfaces/Ownerable.sol\":193:198  owner */\n      0x01\n      0x00\n      swap1\n      sload\n      swap1\n      0x0100\n      exp\n      swap1\n      div\n      0xffffffffffffffffffffffffffffffffffffffff\n      and\n        /* \"contracts/core/interfaces/Ownerable.sol\":193:212  owner == msg.sender */\n      0xffffffffffffffffffffffffffffffffffffffff\n      and\n      eq\n        /* \"contracts/core/interfaces/Ownerable.sol\":185:262  require(owner == msg.sender, \"Only authorized personel can add new entries.\") */\n      tag_197\n      jumpi\n      mload(0x40)\n      0x08c379a000000000000000000000000000000000000000000000000000000000\n      dup2\n      mstore\n      0x04\n      add\n      tag_198\n      swap1\n      tag_130\n      jump\t// in\n    tag_198:\n      mload(0x40)\n      dup1\n      swap2\n      sub\n      swap1\n      revert\n    tag_197:\n        /* \"contracts/Patents.sol\":539:546  _amount */\n      dup1\n        /* \"contracts/Patents.sol\":525:536  creationFee */\n      0x04\n        /* \"contracts/Patents.sol\":525:546  creationFee = _amount */\n      dup2\n      swap1\n      sstore\n      pop\n        /* \"contracts/Patents.sol\":456:553  function updateCreationFee(uint256 _amount) public isOwner {... */\n      pop\n      jump\t// out\n        /* \"contracts/Patents.sol\":559:651  function updateRenewalFee(uint _amount) public isOwner {... */\n    tag_63:\n        /* \"contracts/core/interfaces/Ownerable.sol\":202:212  msg.sender */\n      caller\n        /* \"contracts/core/interfaces/Ownerable.sol\":193:212  owner == msg.sender */\n      0xffffffffffffffffffffffffffffffffffffffff\n      and\n        /* \"contracts/core/interfaces/Ownerable.sol\":193:198  owner */\n      0x01\n      0x00\n      swap1\n      sload\n      swap1\n      0x0100\n      exp\n      swap1\n      div\n      0xffffffffffffffffffffffffffffffffffffffff\n      and\n        /* \"contracts/core/interfaces/Ownerable.sol\":193:212  owner == msg.sender */\n      0xffffffffffffffffffffffffffffffffffffffff\n      and\n      eq\n        /* \"contracts/core/interfaces/Ownerable.sol\":185:262  require(owner == msg.sender, \"Only authorized personel can add new entries.\") */\n      tag_201\n      jumpi\n      mload(0x40)\n      0x08c379a000000000000000000000000000000000000000000000000000000000\n      dup2\n      mstore\n      0x04\n      add\n      tag_202\n      swap1\n      tag_130\n      jump\t// in\n    tag_202:\n      mload(0x40)\n      dup1\n      swap2\n      sub\n      swap1\n      revert\n    tag_201:\n        /* \"contracts/Patents.sol\":637:644  _amount */\n      dup1\n        /* \"contracts/Patents.sol\":624:634  renewalFee */\n      0x05\n        /* \"contracts/Patents.sol\":624:644  renewalFee = _amount */\n      dup2\n      swap1\n      sstore\n      pop\n        /* \"contracts/Patents.sol\":559:651  function updateRenewalFee(uint _amount) public isOwner {... */\n      pop\n      jump\t// out\n        /* \"contracts/Patents.sol\":1564:1668  function get(uint256 _index) public view returns (Patent memory) {... */\n    tag_67:\n        /* \"contracts/Patents.sol\":1614:1627  Patent memory */\n      tag_204\n      tag_205\n      jump\t// in\n    tag_204:\n        /* \"contracts/Patents.sol\":1646:1653  patents */\n      0x02\n        /* \"contracts/Patents.sol\":1646:1661  patents[_index] */\n      0x00\n        /* \"contracts/Patents.sol\":1654:1660  _index */\n      dup4\n        /* \"contracts/Patents.sol\":1646:1661  patents[_index] */\n      dup2\n      mstore\n      0x20\n      add\n      swap1\n      dup2\n      mstore\n      0x20\n      add\n      0x00\n      keccak256\n        /* \"contracts/Patents.sol\":1639:1661  return patents[_index] */\n      mload(0x40)\n      dup1\n      0x0120\n      add\n      0x40\n      mstore\n      swap1\n      dup2\n      0x00\n      dup3\n      add\n      sload\n      dup2\n      mstore\n      0x20\n      add\n      0x01\n      dup3\n      add\n      dup1\n      sload\n      tag_207\n      swap1\n      tag_106\n      jump\t// in\n    tag_207:\n      dup1\n      0x1f\n      add\n      0x20\n      dup1\n      swap2\n      div\n      mul\n      0x20\n      add\n      mload(0x40)\n      swap1\n      dup2\n      add\n      0x40\n      mstore\n      dup1\n      swap3\n      swap2\n      swap1\n      dup2\n      dup2\n      mstore\n      0x20\n      add\n      dup3\n      dup1\n      sload\n      tag_208\n      swap1\n      tag_106\n      jump\t// in\n    tag_208:\n      dup1\n      iszero\n      tag_209\n      jumpi\n      dup1\n      0x1f\n      lt\n      tag_210\n      jumpi\n      0x0100\n      dup1\n      dup4\n      sload\n      div\n      mul\n      dup4\n      mstore\n      swap2\n      0x20\n      add\n      swap2\n      jump(tag_209)\n    tag_210:\n      dup3\n      add\n      swap2\n      swap1\n      0x00\n      mstore\n      keccak256(0x00, 0x20)\n      swap1\n    tag_211:\n      dup2\n      sload\n      dup2\n      mstore\n      swap1\n      0x01\n      add\n      swap1\n      0x20\n      add\n      dup1\n      dup4\n      gt\n      tag_211\n      jumpi\n      dup3\n      swap1\n      sub\n      0x1f\n      and\n      dup3\n      add\n      swap2\n    tag_209:\n      pop\n      pop\n      pop\n      pop\n      pop\n      dup2\n      mstore\n      0x20\n      add\n      0x02\n      dup3\n      add\n      dup1\n      sload\n      tag_212\n      swap1\n      tag_106\n      jump\t// in\n    tag_212:\n      dup1\n      0x1f\n      add\n      0x20\n      dup1\n      swap2\n      div\n      mul\n      0x20\n      add\n      mload(0x40)\n      swap1\n      dup2\n      add\n      0x40\n      mstore\n      dup1\n      swap3\n      swap2\n      swap1\n      dup2\n      dup2\n      mstore\n      0x20\n      add\n      dup3\n      dup1\n      sload\n      tag_213\n      swap1\n      tag_106\n      jump\t// in\n    tag_213:\n      dup1\n      iszero\n      tag_214\n      jumpi\n      dup1\n      0x1f\n      lt\n      tag_215\n      jumpi\n      0x0100\n      dup1\n      dup4\n      sload\n      div\n      mul\n      dup4\n      mstore\n      swap2\n      0x20\n      add\n      swap2\n      jump(tag_214)\n    tag_215:\n      dup3\n      add\n      swap2\n      swap1\n      0x00\n      mstore\n      keccak256(0x00, 0x20)\n      swap1\n    tag_216:\n      dup2\n      sload\n      dup2\n      mstore\n      swap1\n      0x01\n      add\n      swap1\n      0x20\n      add\n      dup1\n      dup4\n      gt\n      tag_216\n      jumpi\n      dup3\n      swap1\n      sub\n      0x1f\n      and\n      dup3\n      add\n      swap2\n    tag_214:\n      pop\n      pop\n      pop\n      pop\n      pop\n      dup2\n      mstore\n      0x20\n      add\n      0x03\n      dup3\n      add\n      dup1\n      sload\n      tag_217\n      swap1\n      tag_106\n      jump\t// in\n    tag_217:\n      dup1\n      0x1f\n      add\n      0x20\n      dup1\n      swap2\n      div\n      mul\n      0x20\n      add\n      mload(0x40)\n      swap1\n      dup2\n      add\n      0x40\n      mstore\n      dup1\n      swap3\n      swap2\n      swap1\n      dup2\n      dup2\n      mstore\n      0x20\n      add\n      dup3\n      dup1\n      sload\n      tag_218\n      swap1\n      tag_106\n      jump\t// in\n    tag_218:\n      dup1\n      iszero\n      tag_219\n      jumpi\n      dup1\n      0x1f\n      lt\n      tag_220\n      jumpi\n      0x0100\n      dup1\n      dup4\n      sload\n      div\n      mul\n      dup4\n      mstore\n      swap2\n      0x20\n      add\n      swap2\n      jump(tag_219)\n    tag_220:\n      dup3\n      add\n      swap2\n      swap1\n      0x00\n      mstore\n      keccak256(0x00, 0x20)\n      swap1\n    tag_221:\n      dup2\n      sload\n      dup2\n      mstore\n      swap1\n      0x01\n      add\n      swap1\n      0x20\n      add\n      dup1\n      dup4\n      gt\n      tag_221\n      jumpi\n      dup3\n      swap1\n      sub\n      0x1f\n      and\n      dup3\n      add\n      swap2\n    tag_219:\n      pop\n      pop\n      pop\n      pop\n      pop\n      dup2\n      mstore\n      0x20\n      add\n      0x04\n      dup3\n      add\n      sload\n      dup2\n      mstore\n      0x20\n      add\n      0x05\n      dup3\n      add\n      sload\n      dup2\n      mstore\n      0x20\n      add\n      0x06\n      dup3\n      add\n      sload\n      dup2\n      mstore\n      0x20\n      add\n      0x07\n      dup3\n      add\n      dup1\n      sload\n      dup1\n      0x20\n      mul\n      0x20\n      add\n      mload(0x40)\n      swap1\n      dup2\n      add\n      0x40\n      mstore\n      dup1\n      swap3\n      swap2\n      swap1\n      dup2\n      dup2\n      mstore\n      0x20\n      add\n      dup3\n      dup1\n      sload\n      dup1\n      iszero\n      tag_222\n      jumpi\n      0x20\n      mul\n      dup3\n      add\n      swap2\n      swap1\n      0x00\n      mstore\n      keccak256(0x00, 0x20)\n      swap1\n    tag_223:\n      dup2\n      sload\n      dup2\n      mstore\n      0x20\n      add\n      swap1\n      0x01\n      add\n      swap1\n      dup1\n      dup4\n      gt\n      tag_223\n      jumpi\n    tag_222:\n      pop\n      pop\n      pop\n      pop\n      pop\n      dup2\n      mstore\n      0x20\n      add\n      0x08\n      dup3\n      add\n      0x00\n      swap1\n      sload\n      swap1\n      0x0100\n      exp\n      swap1\n      div\n      0xffffffffffffffffffffffffffffffffffffffff\n      and\n      0xffffffffffffffffffffffffffffffffffffffff\n      and\n      0xffffffffffffffffffffffffffffffffffffffff\n      and\n      dup2\n      mstore\n      pop\n      pop\n      swap1\n      pop\n        /* \"contracts/Patents.sol\":1564:1668  function get(uint256 _index) public view returns (Patent memory) {... */\n      swap2\n      swap1\n      pop\n      jump\t// out\n        /* \"contracts/Patents.sol\":1674:2158  function mine() public view returns (Patent[] memory) {... */\n    tag_72:\n        /* \"contracts/Patents.sol\":1711:1726  Patent[] memory */\n      0x60\n        /* \"contracts/Patents.sol\":1738:1760  uint256 myPatentsCount */\n      0x00\n        /* \"contracts/Patents.sol\":1763:1774  userPatents */\n      0x03\n        /* \"contracts/Patents.sol\":1763:1786  userPatents[msg.sender] */\n      0x00\n        /* \"contracts/Patents.sol\":1775:1785  msg.sender */\n      caller\n        /* \"contracts/Patents.sol\":1763:1786  userPatents[msg.sender] */\n      0xffffffffffffffffffffffffffffffffffffffff\n      and\n      0xffffffffffffffffffffffffffffffffffffffff\n      and\n      dup2\n      mstore\n      0x20\n      add\n      swap1\n      dup2\n      mstore\n      0x20\n      add\n      0x00\n      keccak256\n      sload\n        /* \"contracts/Patents.sol\":1738:1786  uint256 myPatentsCount = userPatents[msg.sender] */\n      swap1\n      pop\n        /* \"contracts/Patents.sol\":1797:1822  Patent[] memory myPatents */\n      0x00\n        /* \"contracts/Patents.sol\":1838:1852  myPatentsCount */\n      dup2\n        /* \"contracts/Patents.sol\":1825:1853  new Patent[](myPatentsCount) */\n      0xffffffffffffffff\n      dup2\n      gt\n      iszero\n      tag_225\n      jumpi\n      tag_226\n      tag_227\n      jump\t// in\n    tag_226:\n    tag_225:\n      mload(0x40)\n      swap1\n      dup1\n      dup3\n      mstore\n      dup1\n      0x20\n      mul\n      0x20\n      add\n      dup3\n      add\n      0x40\n      mstore\n      dup1\n      iszero\n      tag_228\n      jumpi\n      dup2\n      0x20\n      add\n    tag_229:\n      tag_230\n      tag_205\n      jump\t// in\n    tag_230:\n      dup2\n      mstore\n      0x20\n      add\n      swap1\n      0x01\n      swap1\n      sub\n      swap1\n      dup2\n      tag_229\n      jumpi\n      swap1\n      pop\n    tag_228:\n      pop\n        /* \"contracts/Patents.sol\":1797:1853  Patent[] memory myPatents = new Patent[](myPatentsCount) */\n      swap1\n      pop\n        /* \"contracts/Patents.sol\":1864:1877  uint256 index */\n      0x00\n        /* \"contracts/Patents.sol\":1897:1906  uint256 i */\n      dup1\n        /* \"contracts/Patents.sol\":1892:2125  for (uint256 i; i < myPatentsCount; i++) {... */\n    tag_231:\n        /* \"contracts/Patents.sol\":1912:1926  myPatentsCount */\n      dup4\n        /* \"contracts/Patents.sol\":1908:1909  i */\n      dup2\n        /* \"contracts/Patents.sol\":1908:1926  i < myPatentsCount */\n      lt\n        /* \"contracts/Patents.sol\":1892:2125  for (uint256 i; i < myPatentsCount; i++) {... */\n      iszero\n      tag_232\n      jumpi\n        /* \"contracts/Patents.sol\":1947:1967  Patent memory patent */\n      0x00\n        /* \"contracts/Patents.sol\":1970:1977  patents */\n      0x02\n        /* \"contracts/Patents.sol\":1970:1984  patents[i + 1] */\n      0x00\n        /* \"contracts/Patents.sol\":1982:1983  1 */\n      0x01\n        /* \"contracts/Patents.sol\":1978:1979  i */\n      dup5\n        /* \"contracts/Patents.sol\":1978:1983  i + 1 */\n      tag_234\n      swap2\n      swap1\n      tag_181\n      jump\t// in\n    tag_234:\n        /* \"contracts/Patents.sol\":1970:1984  patents[i + 1] */\n      dup2\n      mstore\n      0x20\n      add\n      swap1\n      dup2\n      mstore\n      0x20\n      add\n      0x00\n      keccak256\n        /* \"contracts/Patents.sol\":1947:1984  Patent memory patent = patents[i + 1] */\n      mload(0x40)\n      dup1\n      0x0120\n      add\n      0x40\n      mstore\n      swap1\n      dup2\n      0x00\n      dup3\n      add\n      sload\n      dup2\n      mstore\n      0x20\n      add\n      0x01\n      dup3\n      add\n      dup1\n      sload\n      tag_235\n      swap1\n      tag_106\n      jump\t// in\n    tag_235:\n      dup1\n      0x1f\n      add\n      0x20\n      dup1\n      swap2\n      div\n      mul\n      0x20\n      add\n      mload(0x40)\n      swap1\n      dup2\n      add\n      0x40\n      mstore\n      dup1\n      swap3\n      swap2\n      swap1\n      dup2\n      dup2\n      mstore\n      0x20\n      add\n      dup3\n      dup1\n      sload\n      tag_236\n      swap1\n      tag_106\n      jump\t// in\n    tag_236:\n      dup1\n      iszero\n      tag_237\n      jumpi\n      dup1\n      0x1f\n      lt\n      tag_238\n      jumpi\n      0x0100\n      dup1\n      dup4\n      sload\n      div\n      mul\n      dup4\n      mstore\n      swap2\n      0x20\n      add\n      swap2\n      jump(tag_237)\n    tag_238:\n      dup3\n      add\n      swap2\n      swap1\n      0x00\n      mstore\n      keccak256(0x00, 0x20)\n      swap1\n    tag_239:\n      dup2\n      sload\n      dup2\n      mstore\n      swap1\n      0x01\n      add\n      swap1\n      0x20\n      add\n      dup1\n      dup4\n      gt\n      tag_239\n      jumpi\n      dup3\n      swap1\n      sub\n      0x1f\n      and\n      dup3\n      add\n      swap2\n    tag_237:\n      pop\n      pop\n      pop\n      pop\n      pop\n      dup2\n      mstore\n      0x20\n      add\n      0x02\n      dup3\n      add\n      dup1\n      sload\n      tag_240\n      swap1\n      tag_106\n      jump\t// in\n    tag_240:\n      dup1\n      0x1f\n      add\n      0x20\n      dup1\n      swap2\n      div\n      mul\n      0x20\n      add\n      mload(0x40)\n      swap1\n      dup2\n      add\n      0x40\n      mstore\n      dup1\n      swap3\n      swap2\n      swap1\n      dup2\n      dup2\n      mstore\n      0x20\n      add\n      dup3\n      dup1\n      sload\n      tag_241\n      swap1\n      tag_106\n      jump\t// in\n    tag_241:\n      dup1\n      iszero\n      tag_242\n      jumpi\n      dup1\n      0x1f\n      lt\n      tag_243\n      jumpi\n      0x0100\n      dup1\n      dup4\n      sload\n      div\n      mul\n      dup4\n      mstore\n      swap2\n      0x20\n      add\n      swap2\n      jump(tag_242)\n    tag_243:\n      dup3\n      add\n      swap2\n      swap1\n      0x00\n      mstore\n      keccak256(0x00, 0x20)\n      swap1\n    tag_244:\n      dup2\n      sload\n      dup2\n      mstore\n      swap1\n      0x01\n      add\n      swap1\n      0x20\n      add\n      dup1\n      dup4\n      gt\n      tag_244\n      jumpi\n      dup3\n      swap1\n      sub\n      0x1f\n      and\n      dup3\n      add\n      swap2\n    tag_242:\n      pop\n      pop\n      pop\n      pop\n      pop\n      dup2\n      mstore\n      0x20\n      add\n      0x03\n      dup3\n      add\n      dup1\n      sload\n      tag_245\n      swap1\n      tag_106\n      jump\t// in\n    tag_245:\n      dup1\n      0x1f\n      add\n      0x20\n      dup1\n      swap2\n      div\n      mul\n      0x20\n      add\n      mload(0x40)\n      swap1\n      dup2\n      add\n      0x40\n      mstore\n      dup1\n      swap3\n      swap2\n      swap1\n      dup2\n      dup2\n      mstore\n      0x20\n      add\n      dup3\n      dup1\n      sload\n      tag_246\n      swap1\n      tag_106\n      jump\t// in\n    tag_246:\n      dup1\n      iszero\n      tag_247\n      jumpi\n      dup1\n      0x1f\n      lt\n      tag_248\n      jumpi\n      0x0100\n      dup1\n      dup4\n      sload\n      div\n      mul\n      dup4\n      mstore\n      swap2\n      0x20\n      add\n      swap2\n      jump(tag_247)\n    tag_248:\n      dup3\n      add\n      swap2\n      swap1\n      0x00\n      mstore\n      keccak256(0x00, 0x20)\n      swap1\n    tag_249:\n      dup2\n      sload\n      dup2\n      mstore\n      swap1\n      0x01\n      add\n      swap1\n      0x20\n      add\n      dup1\n      dup4\n      gt\n      tag_249\n      jumpi\n      dup3\n      swap1\n      sub\n      0x1f\n      and\n      dup3\n      add\n      swap2\n    tag_247:\n      pop\n      pop\n      pop\n      pop\n      pop\n      dup2\n      mstore\n      0x20\n      add\n      0x04\n      dup3\n      add\n      sload\n      dup2\n      mstore\n      0x20\n      add\n      0x05\n      dup3\n      add\n      sload\n      dup2\n      mstore\n      0x20\n      add\n      0x06\n      dup3\n      add\n      sload\n      dup2\n      mstore\n      0x20\n      add\n      0x07\n      dup3\n      add\n      dup1\n      sload\n      dup1\n      0x20\n      mul\n      0x20\n      add\n      mload(0x40)\n      swap1\n      dup2\n      add\n      0x40\n      mstore\n      dup1\n      swap3\n      swap2\n      swap1\n      dup2\n      dup2\n      mstore\n      0x20\n      add\n      dup3\n      dup1\n      sload\n      dup1\n      iszero\n      tag_250\n      jumpi\n      0x20\n      mul\n      dup3\n      add\n      swap2\n      swap1\n      0x00\n      mstore\n      keccak256(0x00, 0x20)\n      swap1\n    tag_251:\n      dup2\n      sload\n      dup2\n      mstore\n      0x20\n      add\n      swap1\n      0x01\n      add\n      swap1\n      dup1\n      dup4\n      gt\n      tag_251\n      jumpi\n    tag_250:\n      pop\n      pop\n      pop\n      pop\n      pop\n      dup2\n      mstore\n      0x20\n      add\n      0x08\n      dup3\n      add\n      0x00\n      swap1\n      sload\n      swap1\n      0x0100\n      exp\n      swap1\n      div\n      0xffffffffffffffffffffffffffffffffffffffff\n      and\n      0xffffffffffffffffffffffffffffffffffffffff\n      and\n      0xffffffffffffffffffffffffffffffffffffffff\n      and\n      dup2\n      mstore\n      pop\n      pop\n      swap1\n      pop\n        /* \"contracts/Patents.sol\":2020:2030  msg.sender */\n      caller\n        /* \"contracts/Patents.sol\":2003:2030  patent.author == msg.sender */\n      0xffffffffffffffffffffffffffffffffffffffff\n      and\n        /* \"contracts/Patents.sol\":2003:2009  patent */\n      dup2\n        /* \"contracts/Patents.sol\":2003:2016  patent.author */\n      0x0100\n      add\n      mload\n        /* \"contracts/Patents.sol\":2003:2030  patent.author == msg.sender */\n      0xffffffffffffffffffffffffffffffffffffffff\n      and\n      sub\n        /* \"contracts/Patents.sol\":1999:2115  if (patent.author == msg.sender) {... */\n      tag_252\n      jumpi\n        /* \"contracts/Patents.sol\":2069:2075  patent */\n      dup1\n        /* \"contracts/Patents.sol\":2050:2059  myPatents */\n      dup5\n        /* \"contracts/Patents.sol\":2060:2065  index */\n      dup5\n        /* \"contracts/Patents.sol\":2050:2066  myPatents[index] */\n      dup2\n      mload\n      dup2\n      lt\n      tag_253\n      jumpi\n      tag_254\n      tag_255\n      jump\t// in\n    tag_254:\n    tag_253:\n      0x20\n      mul\n      0x20\n      add\n      add\n        /* \"contracts/Patents.sol\":2050:2075  myPatents[index] = patent */\n      dup2\n      swap1\n      mstore\n      pop\n        /* \"contracts/Patents.sol\":2093:2100  index++ */\n      dup3\n      dup1\n      tag_256\n      swap1\n      tag_257\n      jump\t// in\n    tag_256:\n      swap4\n      pop\n      pop\n        /* \"contracts/Patents.sol\":1999:2115  if (patent.author == msg.sender) {... */\n    tag_252:\n        /* \"contracts/Patents.sol\":1933:2125  {... */\n      pop\n        /* \"contracts/Patents.sol\":1928:1931  i++ */\n      dup1\n      dup1\n      0x01\n      add\n      swap2\n      pop\n      pop\n        /* \"contracts/Patents.sol\":1892:2125  for (uint256 i; i < myPatentsCount; i++) {... */\n      jump(tag_231)\n    tag_232:\n      pop\n        /* \"contracts/Patents.sol\":2142:2151  myPatents */\n      dup2\n        /* \"contracts/Patents.sol\":2135:2151  return myPatents */\n      swap4\n      pop\n      pop\n      pop\n      pop\n        /* \"contracts/Patents.sol\":1674:2158  function mine() public view returns (Patent[] memory) {... */\n      swap1\n      jump\t// out\n        /* \"contracts/Patents.sol\":2164:2597  function some(uint256 _limit, uint256 _offset)... */\n    tag_79:\n        /* \"contracts/Patents.sol\":2256:2271  Patent[] memory */\n      0x60\n        /* \"contracts/Patents.sol\":2306:2312  _count */\n      sload(0x00)\n        /* \"contracts/Patents.sol\":2296:2302  _limit */\n      dup4\n        /* \"contracts/Patents.sol\":2296:2312  _limit >= _count */\n      lt\n      iszero\n        /* \"contracts/Patents.sol\":2296:2330  _limit >= _count ? _count : _limit */\n      tag_259\n      jumpi\n        /* \"contracts/Patents.sol\":2324:2330  _limit */\n      dup3\n        /* \"contracts/Patents.sol\":2296:2330  _limit >= _count ? _count : _limit */\n      jump(tag_260)\n    tag_259:\n        /* \"contracts/Patents.sol\":2315:2321  _count */\n      sload(0x00)\n        /* \"contracts/Patents.sol\":2296:2330  _limit >= _count ? _count : _limit */\n    tag_260:\n        /* \"contracts/Patents.sol\":2287:2330  _limit = _limit >= _count ? _count : _limit */\n      swap3\n      pop\n        /* \"contracts/Patents.sol\":2361:2362  0 */\n      0x00\n        /* \"contracts/Patents.sol\":2350:2357  _offset */\n      dup3\n        /* \"contracts/Patents.sol\":2350:2362  _offset <= 0 */\n      gt\n      iszero\n        /* \"contracts/Patents.sol\":2350:2404  _offset <= 0 ? 1 : _offset > _count ? _count : _offset */\n      tag_261\n      jumpi\n        /* \"contracts/Patents.sol\":2379:2385  _count */\n      sload(0x00)\n        /* \"contracts/Patents.sol\":2369:2376  _offset */\n      dup3\n        /* \"contracts/Patents.sol\":2369:2385  _offset > _count */\n      gt\n        /* \"contracts/Patents.sol\":2369:2404  _offset > _count ? _count : _offset */\n      tag_262\n      jumpi\n        /* \"contracts/Patents.sol\":2397:2404  _offset */\n      dup2\n        /* \"contracts/Patents.sol\":2369:2404  _offset > _count ? _count : _offset */\n      jump(tag_263)\n    tag_262:\n        /* \"contracts/Patents.sol\":2388:2394  _count */\n      sload(0x00)\n        /* \"contracts/Patents.sol\":2369:2404  _offset > _count ? _count : _offset */\n    tag_263:\n        /* \"contracts/Patents.sol\":2350:2404  _offset <= 0 ? 1 : _offset > _count ? _count : _offset */\n      jump(tag_264)\n    tag_261:\n        /* \"contracts/Patents.sol\":2365:2366  1 */\n      0x01\n        /* \"contracts/Patents.sol\":2350:2404  _offset <= 0 ? 1 : _offset > _count ? _count : _offset */\n    tag_264:\n        /* \"contracts/Patents.sol\":2340:2404  _offset = _offset <= 0 ? 1 : _offset > _count ? _count : _offset */\n      swap2\n      pop\n        /* \"contracts/Patents.sol\":2415:2439  Patent[] memory _patents */\n      0x00\n        /* \"contracts/Patents.sol\":2455:2461  _limit */\n      dup4\n        /* \"contracts/Patents.sol\":2442:2462  new Patent[](_limit) */\n      0xffffffffffffffff\n      dup2\n      gt\n      iszero\n      tag_265\n      jumpi\n      tag_266\n      tag_227\n      jump\t// in\n    tag_266:\n    tag_265:\n      mload(0x40)\n      swap1\n      dup1\n      dup3\n      mstore\n      dup1\n      0x20\n      mul\n      0x20\n      add\n      dup3\n      add\n      0x40\n      mstore\n      dup1\n      iszero\n      tag_267\n      jumpi\n      dup2\n      0x20\n      add\n    tag_268:\n      tag_269\n      tag_205\n      jump\t// in\n    tag_269:\n      dup2\n      mstore\n      0x20\n      add\n      swap1\n      0x01\n      swap1\n      sub\n      swap1\n      dup2\n      tag_268\n      jumpi\n      swap1\n      pop\n    tag_267:\n      pop\n        /* \"contracts/Patents.sol\":2415:2462  Patent[] memory _patents = new Patent[](_limit) */\n      swap1\n      pop\n        /* \"contracts/Patents.sol\":2478:2487  uint256 i */\n      0x00\n        /* \"contracts/Patents.sol\":2473:2565  for (uint256 i; i < _limit; i++) {... */\n    tag_270:\n        /* \"contracts/Patents.sol\":2493:2499  _limit */\n      dup5\n        /* \"contracts/Patents.sol\":2489:2490  i */\n      dup2\n        /* \"contracts/Patents.sol\":2489:2499  i < _limit */\n      lt\n        /* \"contracts/Patents.sol\":2473:2565  for (uint256 i; i < _limit; i++) {... */\n      iszero\n      tag_271\n      jumpi\n        /* \"contracts/Patents.sol\":2534:2541  patents */\n      0x02\n        /* \"contracts/Patents.sol\":2534:2554  patents[i + _offset] */\n      0x00\n        /* \"contracts/Patents.sol\":2546:2553  _offset */\n      dup6\n        /* \"contracts/Patents.sol\":2542:2543  i */\n      dup4\n        /* \"contracts/Patents.sol\":2542:2553  i + _offset */\n      tag_273\n      swap2\n      swap1\n      tag_181\n      jump\t// in\n    tag_273:\n        /* \"contracts/Patents.sol\":2534:2554  patents[i + _offset] */\n      dup2\n      mstore\n      0x20\n      add\n      swap1\n      dup2\n      mstore\n      0x20\n      add\n      0x00\n      keccak256\n        /* \"contracts/Patents.sol\":2520:2554  _patents[i] = patents[i + _offset] */\n      mload(0x40)\n      dup1\n      0x0120\n      add\n      0x40\n      mstore\n      swap1\n      dup2\n      0x00\n      dup3\n      add\n      sload\n      dup2\n      mstore\n      0x20\n      add\n      0x01\n      dup3\n      add\n      dup1\n      sload\n      tag_274\n      swap1\n      tag_106\n      jump\t// in\n    tag_274:\n      dup1\n      0x1f\n      add\n      0x20\n      dup1\n      swap2\n      div\n      mul\n      0x20\n      add\n      mload(0x40)\n      swap1\n      dup2\n      add\n      0x40\n      mstore\n      dup1\n      swap3\n      swap2\n      swap1\n      dup2\n      dup2\n      mstore\n      0x20\n      add\n      dup3\n      dup1\n      sload\n      tag_275\n      swap1\n      tag_106\n      jump\t// in\n    tag_275:\n      dup1\n      iszero\n      tag_276\n      jumpi\n      dup1\n      0x1f\n      lt\n      tag_277\n      jumpi\n      0x0100\n      dup1\n      dup4\n      sload\n      div\n      mul\n      dup4\n      mstore\n      swap2\n      0x20\n      add\n      swap2\n      jump(tag_276)\n    tag_277:\n      dup3\n      add\n      swap2\n      swap1\n      0x00\n      mstore\n      keccak256(0x00, 0x20)\n      swap1\n    tag_278:\n      dup2\n      sload\n      dup2\n      mstore\n      swap1\n      0x01\n      add\n      swap1\n      0x20\n      add\n      dup1\n      dup4\n      gt\n      tag_278\n      jumpi\n      dup3\n      swap1\n      sub\n      0x1f\n      and\n      dup3\n      add\n      swap2\n    tag_276:\n      pop\n      pop\n      pop\n      pop\n      pop\n      dup2\n      mstore\n      0x20\n      add\n      0x02\n      dup3\n      add\n      dup1\n      sload\n      tag_279\n      swap1\n      tag_106\n      jump\t// in\n    tag_279:\n      dup1\n      0x1f\n      add\n      0x20\n      dup1\n      swap2\n      div\n      mul\n      0x20\n      add\n      mload(0x40)\n      swap1\n      dup2\n      add\n      0x40\n      mstore\n      dup1\n      swap3\n      swap2\n      swap1\n      dup2\n      dup2\n      mstore\n      0x20\n      add\n      dup3\n      dup1\n      sload\n      tag_280\n      swap1\n      tag_106\n      jump\t// in\n    tag_280:\n      dup1\n      iszero\n      tag_281\n      jumpi\n      dup1\n      0x1f\n      lt\n      tag_282\n      jumpi\n      0x0100\n      dup1\n      dup4\n      sload\n      div\n      mul\n      dup4\n      mstore\n      swap2\n      0x20\n      add\n      swap2\n      jump(tag_281)\n    tag_282:\n      dup3\n      add\n      swap2\n      swap1\n      0x00\n      mstore\n      keccak256(0x00, 0x20)\n      swap1\n    tag_283:\n      dup2\n      sload\n      dup2\n      mstore\n      swap1\n      0x01\n      add\n      swap1\n      0x20\n      add\n      dup1\n      dup4\n      gt\n      tag_283\n      jumpi\n      dup3\n      swap1\n      sub\n      0x1f\n      and\n      dup3\n      add\n      swap2\n    tag_281:\n      pop\n      pop\n      pop\n      pop\n      pop\n      dup2\n      mstore\n      0x20\n      add\n      0x03\n      dup3\n      add\n      dup1\n      sload\n      tag_284\n      swap1\n      tag_106\n      jump\t// in\n    tag_284:\n      dup1\n      0x1f\n      add\n      0x20\n      dup1\n      swap2\n      div\n      mul\n      0x20\n      add\n      mload(0x40)\n      swap1\n      dup2\n      add\n      0x40\n      mstore\n      dup1\n      swap3\n      swap2\n      swap1\n      dup2\n      dup2\n      mstore\n      0x20\n      add\n      dup3\n      dup1\n      sload\n      tag_285\n      swap1\n      tag_106\n      jump\t// in\n    tag_285:\n      dup1\n      iszero\n      tag_286\n      jumpi\n      dup1\n      0x1f\n      lt\n      tag_287\n      jumpi\n      0x0100\n      dup1\n      dup4\n      sload\n      div\n      mul\n      dup4\n      mstore\n      swap2\n      0x20\n      add\n      swap2\n      jump(tag_286)\n    tag_287:\n      dup3\n      add\n      swap2\n      swap1\n      0x00\n      mstore\n      keccak256(0x00, 0x20)\n      swap1\n    tag_288:\n      dup2\n      sload\n      dup2\n      mstore\n      swap1\n      0x01\n      add\n      swap1\n      0x20\n      add\n      dup1\n      dup4\n      gt\n      tag_288\n      jumpi\n      dup3\n      swap1\n      sub\n      0x1f\n      and\n      dup3\n      add\n      swap2\n    tag_286:\n      pop\n      pop\n      pop\n      pop\n      pop\n      dup2\n      mstore\n      0x20\n      add\n      0x04\n      dup3\n      add\n      sload\n      dup2\n      mstore\n      0x20\n      add\n      0x05\n      dup3\n      add\n      sload\n      dup2\n      mstore\n      0x20\n      add\n      0x06\n      dup3\n      add\n      sload\n      dup2\n      mstore\n      0x20\n      add\n      0x07\n      dup3\n      add\n      dup1\n      sload\n      dup1\n      0x20\n      mul\n      0x20\n      add\n      mload(0x40)\n      swap1\n      dup2\n      add\n      0x40\n      mstore\n      dup1\n      swap3\n      swap2\n      swap1\n      dup2\n      dup2\n      mstore\n      0x20\n      add\n      dup3\n      dup1\n      sload\n      dup1\n      iszero\n      tag_289\n      jumpi\n      0x20\n      mul\n      dup3\n      add\n      swap2\n      swap1\n      0x00\n      mstore\n      keccak256(0x00, 0x20)\n      swap1\n    tag_290:\n      dup2\n      sload\n      dup2\n      mstore\n      0x20\n      add\n      swap1\n      0x01\n      add\n      swap1\n      dup1\n      dup4\n      gt\n      tag_290\n      jumpi\n    tag_289:\n      pop\n      pop\n      pop\n      pop\n      pop\n      dup2\n      mstore\n      0x20\n      add\n      0x08\n      dup3\n      add\n      0x00\n      swap1\n      sload\n      swap1\n      0x0100\n      exp\n      swap1\n      div\n      0xffffffffffffffffffffffffffffffffffffffff\n      and\n      0xffffffffffffffffffffffffffffffffffffffff\n      and\n      0xffffffffffffffffffffffffffffffffffffffff\n      and\n      dup2\n      mstore\n      pop\n      pop\n        /* \"contracts/Patents.sol\":2520:2528  _patents */\n      dup3\n        /* \"contracts/Patents.sol\":2529:2530  i */\n      dup3\n        /* \"contracts/Patents.sol\":2520:2531  _patents[i] */\n      dup2\n      mload\n      dup2\n      lt\n      tag_291\n      jumpi\n      tag_292\n      tag_255\n      jump\t// in\n    tag_292:\n    tag_291:\n      0x20\n      mul\n      0x20\n      add\n      add\n        /* \"contracts/Patents.sol\":2520:2554  _patents[i] = patents[i + _offset] */\n      dup2\n      swap1\n      mstore\n      pop\n        /* \"contracts/Patents.sol\":2501:2504  i++ */\n      dup1\n      dup1\n      0x01\n      add\n      swap2\n      pop\n      pop\n        /* \"contracts/Patents.sol\":2473:2565  for (uint256 i; i < _limit; i++) {... */\n      jump(tag_270)\n    tag_271:\n      pop\n        /* \"contracts/Patents.sol\":2582:2590  _patents */\n      dup1\n        /* \"contracts/Patents.sol\":2575:2590  return _patents */\n      swap2\n      pop\n      pop\n        /* \"contracts/Patents.sol\":2164:2597  function some(uint256 _limit, uint256 _offset)... */\n      swap3\n      swap2\n      pop\n      pop\n      jump\t// out\n        /* \"contracts/Patents.sol\":427:449  uint256 public revenew */\n    tag_83:\n      sload(0x06)\n      dup2\n      jump\t// out\n        /* \"contracts/Patents.sol\":335:375  uint256 public creationFee = 0.001 ether */\n    tag_87:\n      sload(0x04)\n      dup2\n      jump\t// out\n        /* \"contracts/core/interfaces/Countable.sol\":171:231  function decrementCount() internal {... */\n    tag_126:\n        /* \"contracts/core/interfaces/Countable.sol\":216:222  _count */\n      0x00\n      dup1\n        /* \"contracts/core/interfaces/Countable.sol\":216:224  _count-- */\n      dup2\n      sload\n      dup1\n      swap3\n      swap2\n      swap1\n      tag_294\n      swap1\n      tag_295\n      jump\t// in\n    tag_294:\n      swap2\n      swap1\n      pop\n      sstore\n      pop\n        /* \"contracts/core/interfaces/Countable.sol\":171:231  function decrementCount() internal {... */\n      jump\t// out\n        /* \"contracts/core/interfaces/Countable.sol\":105:165  function incrementCount() internal {... */\n    tag_188:\n        /* \"contracts/core/interfaces/Countable.sol\":150:156  _count */\n      0x00\n      dup1\n        /* \"contracts/core/interfaces/Countable.sol\":150:158  _count++ */\n      dup2\n      sload\n      dup1\n      swap3\n      swap2\n      swap1\n      tag_297\n      swap1\n      tag_257\n      jump\t// in\n    tag_297:\n      swap2\n      swap1\n      pop\n      sstore\n      pop\n        /* \"contracts/core/interfaces/Countable.sol\":105:165  function incrementCount() internal {... */\n      jump\t// out\n    tag_103:\n      dup3\n      dup1\n      sload\n      dup3\n      dup3\n      sstore\n      swap1\n      0x00\n      mstore\n      keccak256(0x00, 0x20)\n      swap1\n      dup2\n      add\n      swap3\n      dup3\n      iszero\n      tag_298\n      jumpi\n      swap2\n      0x20\n      mul\n      dup3\n      add\n    tag_299:\n      dup3\n      dup2\n      gt\n      iszero\n      tag_300\n      jumpi\n      dup3\n      calldataload\n      dup3\n      sstore\n      swap2\n      0x20\n      add\n      swap2\n      swap1\n      0x01\n      add\n      swap1\n      jump(tag_299)\n    tag_300:\n    tag_298:\n      pop\n      swap1\n      pop\n      tag_301\n      swap2\n      swap1\n      tag_302\n      jump\t// in\n    tag_301:\n      pop\n      swap1\n      jump\t// out\n    tag_194:\n      dup3\n      dup1\n      sload\n      dup3\n      dup3\n      sstore\n      swap1\n      0x00\n      mstore\n      keccak256(0x00, 0x20)\n      swap1\n      dup2\n      add\n      swap3\n      dup3\n      iszero\n      tag_303\n      jumpi\n      swap2\n      0x20\n      mul\n      dup3\n      add\n    tag_304:\n      dup3\n      dup2\n      gt\n      iszero\n      tag_305\n      jumpi\n      dup3\n      mload\n      dup3\n      sstore\n      swap2\n      0x20\n      add\n      swap2\n      swap1\n      0x01\n      add\n      swap1\n      jump(tag_304)\n    tag_305:\n    tag_303:\n      pop\n      swap1\n      pop\n      tag_306\n      swap2\n      swap1\n      tag_302\n      jump\t// in\n    tag_306:\n      pop\n      swap1\n      jump\t// out\n    tag_205:\n      mload(0x40)\n      dup1\n      0x0120\n      add\n      0x40\n      mstore\n      dup1\n      0x00\n      dup2\n      mstore\n      0x20\n      add\n      0x60\n      dup2\n      mstore\n      0x20\n      add\n      0x60\n      dup2\n      mstore\n      0x20\n      add\n      0x60\n      dup2\n      mstore\n      0x20\n      add\n      0x00\n      dup2\n      mstore\n      0x20\n      add\n      0x00\n      dup2\n      mstore\n      0x20\n      add\n      0x00\n      dup2\n      mstore\n      0x20\n      add\n      0x60\n      dup2\n      mstore\n      0x20\n      add\n      and(0xffffffffffffffffffffffffffffffffffffffff, 0x00)\n      dup2\n      mstore\n      pop\n      swap1\n      jump\t// out\n    tag_302:\n    tag_307:\n      dup1\n      dup3\n      gt\n      iszero\n      tag_308\n      jumpi\n      0x00\n      dup2\n      0x00\n      swap1\n      sstore\n      pop\n      0x01\n      add\n      jump(tag_307)\n    tag_308:\n      pop\n      swap1\n      jump\t// out\n        /* \"#utility.yul\":7:84   */\n    tag_309:\n        /* \"#utility.yul\":44:51   */\n      0x00\n        /* \"#utility.yul\":73:78   */\n      dup2\n        /* \"#utility.yul\":62:78   */\n      swap1\n      pop\n        /* \"#utility.yul\":7:84   */\n      swap2\n      swap1\n      pop\n      jump\t// out\n        /* \"#utility.yul\":90:208   */\n    tag_310:\n        /* \"#utility.yul\":177:201   */\n      tag_380\n        /* \"#utility.yul\":195:200   */\n      dup2\n        /* \"#utility.yul\":177:201   */\n      tag_309\n      jump\t// in\n    tag_380:\n        /* \"#utility.yul\":172:175   */\n      dup3\n        /* \"#utility.yul\":165:202   */\n      mstore\n        /* \"#utility.yul\":90:208   */\n      pop\n      pop\n      jump\t// out\n        /* \"#utility.yul\":214:436   */\n    tag_24:\n        /* \"#utility.yul\":307:311   */\n      0x00\n        /* \"#utility.yul\":345:347   */\n      0x20\n        /* \"#utility.yul\":334:343   */\n      dup3\n        /* \"#utility.yul\":330:348   */\n      add\n        /* \"#utility.yul\":322:348   */\n      swap1\n      pop\n        /* \"#utility.yul\":358:429   */\n      tag_382\n        /* \"#utility.yul\":426:427   */\n      0x00\n        /* \"#utility.yul\":415:424   */\n      dup4\n        /* \"#utility.yul\":411:428   */\n      add\n        /* \"#utility.yul\":402:408   */\n      dup5\n        /* \"#utility.yul\":358:429   */\n      tag_310\n      jump\t// in\n    tag_382:\n        /* \"#utility.yul\":214:436   */\n      swap3\n      swap2\n      pop\n      pop\n      jump\t// out\n        /* \"#utility.yul\":523:640   */\n    tag_312:\n        /* \"#utility.yul\":632:633   */\n      0x00\n        /* \"#utility.yul\":629:630   */\n      dup1\n        /* \"#utility.yul\":622:634   */\n      revert\n        /* \"#utility.yul\":646:763   */\n    tag_313:\n        /* \"#utility.yul\":755:756   */\n      0x00\n        /* \"#utility.yul\":752:753   */\n      dup1\n        /* \"#utility.yul\":745:757   */\n      revert\n        /* \"#utility.yul\":769:891   */\n    tag_314:\n        /* \"#utility.yul\":842:866   */\n      tag_387\n        /* \"#utility.yul\":860:865   */\n      dup2\n        /* \"#utility.yul\":842:866   */\n      tag_309\n      jump\t// in\n    tag_387:\n        /* \"#utility.yul\":835:840   */\n      dup2\n        /* \"#utility.yul\":832:867   */\n      eq\n        /* \"#utility.yul\":822:885   */\n      tag_388\n      jumpi\n        /* \"#utility.yul\":881:882   */\n      0x00\n        /* \"#utility.yul\":878:879   */\n      dup1\n        /* \"#utility.yul\":871:883   */\n      revert\n        /* \"#utility.yul\":822:885   */\n    tag_388:\n        /* \"#utility.yul\":769:891   */\n      pop\n      jump\t// out\n        /* \"#utility.yul\":897:1036   */\n    tag_315:\n        /* \"#utility.yul\":943:948   */\n      0x00\n        /* \"#utility.yul\":981:987   */\n      dup2\n        /* \"#utility.yul\":968:988   */\n      calldataload\n        /* \"#utility.yul\":959:988   */\n      swap1\n      pop\n        /* \"#utility.yul\":997:1030   */\n      tag_390\n        /* \"#utility.yul\":1024:1029   */\n      dup2\n        /* \"#utility.yul\":997:1030   */\n      tag_314\n      jump\t// in\n    tag_390:\n        /* \"#utility.yul\":897:1036   */\n      swap3\n      swap2\n      pop\n      pop\n      jump\t// out\n        /* \"#utility.yul\":1042:1159   */\n    tag_316:\n        /* \"#utility.yul\":1151:1152   */\n      0x00\n        /* \"#utility.yul\":1148:1149   */\n      dup1\n        /* \"#utility.yul\":1141:1153   */\n      revert\n        /* \"#utility.yul\":1165:1282   */\n    tag_317:\n        /* \"#utility.yul\":1274:1275   */\n      0x00\n        /* \"#utility.yul\":1271:1272   */\n      dup1\n        /* \"#utility.yul\":1264:1276   */\n      revert\n        /* \"#utility.yul\":1288:1405   */\n    tag_318:\n        /* \"#utility.yul\":1397:1398   */\n      0x00\n        /* \"#utility.yul\":1394:1395   */\n      dup1\n        /* \"#utility.yul\":1387:1399   */\n      revert\n        /* \"#utility.yul\":1425:1978   */\n    tag_319:\n        /* \"#utility.yul\":1483:1491   */\n      0x00\n        /* \"#utility.yul\":1493:1499   */\n      dup1\n        /* \"#utility.yul\":1543:1546   */\n      dup4\n        /* \"#utility.yul\":1536:1540   */\n      0x1f\n        /* \"#utility.yul\":1528:1534   */\n      dup5\n        /* \"#utility.yul\":1524:1541   */\n      add\n        /* \"#utility.yul\":1520:1547   */\n      slt\n        /* \"#utility.yul\":1510:1632   */\n      tag_395\n      jumpi\n        /* \"#utility.yul\":1551:1630   */\n      tag_396\n      tag_316\n      jump\t// in\n    tag_396:\n        /* \"#utility.yul\":1510:1632   */\n    tag_395:\n        /* \"#utility.yul\":1664:1670   */\n      dup3\n        /* \"#utility.yul\":1651:1671   */\n      calldataload\n        /* \"#utility.yul\":1641:1671   */\n      swap1\n      pop\n        /* \"#utility.yul\":1694:1712   */\n      0xffffffffffffffff\n        /* \"#utility.yul\":1686:1692   */\n      dup2\n        /* \"#utility.yul\":1683:1713   */\n      gt\n        /* \"#utility.yul\":1680:1797   */\n      iszero\n      tag_397\n      jumpi\n        /* \"#utility.yul\":1716:1795   */\n      tag_398\n      tag_317\n      jump\t// in\n    tag_398:\n        /* \"#utility.yul\":1680:1797   */\n    tag_397:\n        /* \"#utility.yul\":1830:1834   */\n      0x20\n        /* \"#utility.yul\":1822:1828   */\n      dup4\n        /* \"#utility.yul\":1818:1835   */\n      add\n        /* \"#utility.yul\":1806:1835   */\n      swap2\n      pop\n        /* \"#utility.yul\":1884:1887   */\n      dup4\n        /* \"#utility.yul\":1876:1880   */\n      0x01\n        /* \"#utility.yul\":1868:1874   */\n      dup3\n        /* \"#utility.yul\":1864:1881   */\n      mul\n        /* \"#utility.yul\":1854:1862   */\n      dup4\n        /* \"#utility.yul\":1850:1882   */\n      add\n        /* \"#utility.yul\":1847:1888   */\n      gt\n        /* \"#utility.yul\":1844:1972   */\n      iszero\n      tag_399\n      jumpi\n        /* \"#utility.yul\":1891:1970   */\n      tag_400\n      tag_318\n      jump\t// in\n    tag_400:\n        /* \"#utility.yul\":1844:1972   */\n    tag_399:\n        /* \"#utility.yul\":1425:1978   */\n      swap3\n      pop\n      swap3\n      swap1\n      pop\n      jump\t// out\n        /* \"#utility.yul\":2001:2569   */\n    tag_320:\n        /* \"#utility.yul\":2074:2082   */\n      0x00\n        /* \"#utility.yul\":2084:2090   */\n      dup1\n        /* \"#utility.yul\":2134:2137   */\n      dup4\n        /* \"#utility.yul\":2127:2131   */\n      0x1f\n        /* \"#utility.yul\":2119:2125   */\n      dup5\n        /* \"#utility.yul\":2115:2132   */\n      add\n        /* \"#utility.yul\":2111:2138   */\n      slt\n        /* \"#utility.yul\":2101:2223   */\n      tag_402\n      jumpi\n        /* \"#utility.yul\":2142:2221   */\n      tag_403\n      tag_316\n      jump\t// in\n    tag_403:\n        /* \"#utility.yul\":2101:2223   */\n    tag_402:\n        /* \"#utility.yul\":2255:2261   */\n      dup3\n        /* \"#utility.yul\":2242:2262   */\n      calldataload\n        /* \"#utility.yul\":2232:2262   */\n      swap1\n      pop\n        /* \"#utility.yul\":2285:2303   */\n      0xffffffffffffffff\n        /* \"#utility.yul\":2277:2283   */\n      dup2\n        /* \"#utility.yul\":2274:2304   */\n      gt\n        /* \"#utility.yul\":2271:2388   */\n      iszero\n      tag_404\n      jumpi\n        /* \"#utility.yul\":2307:2386   */\n      tag_405\n      tag_317\n      jump\t// in\n    tag_405:\n        /* \"#utility.yul\":2271:2388   */\n    tag_404:\n        /* \"#utility.yul\":2421:2425   */\n      0x20\n        /* \"#utility.yul\":2413:2419   */\n      dup4\n        /* \"#utility.yul\":2409:2426   */\n      add\n        /* \"#utility.yul\":2397:2426   */\n      swap2\n      pop\n        /* \"#utility.yul\":2475:2478   */\n      dup4\n        /* \"#utility.yul\":2467:2471   */\n      0x20\n        /* \"#utility.yul\":2459:2465   */\n      dup3\n        /* \"#utility.yul\":2455:2472   */\n      mul\n        /* \"#utility.yul\":2445:2453   */\n      dup4\n        /* \"#utility.yul\":2441:2473   */\n      add\n        /* \"#utility.yul\":2438:2479   */\n      gt\n        /* \"#utility.yul\":2435:2563   */\n      iszero\n      tag_406\n      jumpi\n        /* \"#utility.yul\":2482:2561   */\n      tag_407\n      tag_318\n      jump\t// in\n    tag_407:\n        /* \"#utility.yul\":2435:2563   */\n    tag_406:\n        /* \"#utility.yul\":2001:2569   */\n      swap3\n      pop\n      swap3\n      swap1\n      pop\n      jump\t// out\n        /* \"#utility.yul\":2575:4462   */\n    tag_32:\n        /* \"#utility.yul\":2742:2748   */\n      0x00\n        /* \"#utility.yul\":2750:2756   */\n      dup1\n        /* \"#utility.yul\":2758:2764   */\n      0x00\n        /* \"#utility.yul\":2766:2772   */\n      dup1\n        /* \"#utility.yul\":2774:2780   */\n      0x00\n        /* \"#utility.yul\":2782:2788   */\n      dup1\n        /* \"#utility.yul\":2790:2796   */\n      0x00\n        /* \"#utility.yul\":2798:2804   */\n      dup1\n        /* \"#utility.yul\":2806:2812   */\n      0x00\n        /* \"#utility.yul\":2814:2820   */\n      dup1\n        /* \"#utility.yul\":2863:2866   */\n      0xc0\n        /* \"#utility.yul\":2851:2860   */\n      dup12\n        /* \"#utility.yul\":2842:2849   */\n      dup14\n        /* \"#utility.yul\":2838:2861   */\n      sub\n        /* \"#utility.yul\":2834:2867   */\n      slt\n        /* \"#utility.yul\":2831:2951   */\n      iszero\n      tag_409\n      jumpi\n        /* \"#utility.yul\":2870:2949   */\n      tag_410\n      tag_312\n      jump\t// in\n    tag_410:\n        /* \"#utility.yul\":2831:2951   */\n    tag_409:\n        /* \"#utility.yul\":2990:2991   */\n      0x00\n        /* \"#utility.yul\":3015:3068   */\n      tag_411\n        /* \"#utility.yul\":3060:3067   */\n      dup14\n        /* \"#utility.yul\":3051:3057   */\n      dup3\n        /* \"#utility.yul\":3040:3049   */\n      dup15\n        /* \"#utility.yul\":3036:3058   */\n      add\n        /* \"#utility.yul\":3015:3068   */\n      tag_315\n      jump\t// in\n    tag_411:\n        /* \"#utility.yul\":3005:3068   */\n      swap11\n      pop\n        /* \"#utility.yul\":2961:3078   */\n      pop\n        /* \"#utility.yul\":3145:3147   */\n      0x20\n        /* \"#utility.yul\":3134:3143   */\n      dup12\n        /* \"#utility.yul\":3130:3148   */\n      add\n        /* \"#utility.yul\":3117:3149   */\n      calldataload\n        /* \"#utility.yul\":3176:3194   */\n      0xffffffffffffffff\n        /* \"#utility.yul\":3168:3174   */\n      dup2\n        /* \"#utility.yul\":3165:3195   */\n      gt\n        /* \"#utility.yul\":3162:3279   */\n      iszero\n      tag_412\n      jumpi\n        /* \"#utility.yul\":3198:3277   */\n      tag_413\n      tag_313\n      jump\t// in\n    tag_413:\n        /* \"#utility.yul\":3162:3279   */\n    tag_412:\n        /* \"#utility.yul\":3311:3376   */\n      tag_414\n        /* \"#utility.yul\":3368:3375   */\n      dup14\n        /* \"#utility.yul\":3359:3365   */\n      dup3\n        /* \"#utility.yul\":3348:3357   */\n      dup15\n        /* \"#utility.yul\":3344:3366   */\n      add\n        /* \"#utility.yul\":3311:3376   */\n      tag_319\n      jump\t// in\n    tag_414:\n        /* \"#utility.yul\":3293:3376   */\n      swap10\n      pop\n      swap10\n      pop\n        /* \"#utility.yul\":3088:3386   */\n      pop\n        /* \"#utility.yul\":3453:3455   */\n      0x40\n        /* \"#utility.yul\":3442:3451   */\n      dup12\n        /* \"#utility.yul\":3438:3456   */\n      add\n        /* \"#utility.yul\":3425:3457   */\n      calldataload\n        /* \"#utility.yul\":3484:3502   */\n      0xffffffffffffffff\n        /* \"#utility.yul\":3476:3482   */\n      dup2\n        /* \"#utility.yul\":3473:3503   */\n      gt\n        /* \"#utility.yul\":3470:3587   */\n      iszero\n      tag_415\n      jumpi\n        /* \"#utility.yul\":3506:3585   */\n      tag_416\n      tag_313\n      jump\t// in\n    tag_416:\n        /* \"#utility.yul\":3470:3587   */\n    tag_415:\n        /* \"#utility.yul\":3619:3684   */\n      tag_417\n        /* \"#utility.yul\":3676:3683   */\n      dup14\n        /* \"#utility.yul\":3667:3673   */\n      dup3\n        /* \"#utility.yul\":3656:3665   */\n      dup15\n        /* \"#utility.yul\":3652:3674   */\n      add\n        /* \"#utility.yul\":3619:3684   */\n      tag_319\n      jump\t// in\n    tag_417:\n        /* \"#utility.yul\":3601:3684   */\n      swap8\n      pop\n      swap8\n      pop\n        /* \"#utility.yul\":3396:3694   */\n      pop\n        /* \"#utility.yul\":3761:3763   */\n      0x60\n        /* \"#utility.yul\":3750:3759   */\n      dup12\n        /* \"#utility.yul\":3746:3764   */\n      add\n        /* \"#utility.yul\":3733:3765   */\n      calldataload\n        /* \"#utility.yul\":3792:3810   */\n      0xffffffffffffffff\n        /* \"#utility.yul\":3784:3790   */\n      dup2\n        /* \"#utility.yul\":3781:3811   */\n      gt\n        /* \"#utility.yul\":3778:3895   */\n      iszero\n      tag_418\n      jumpi\n        /* \"#utility.yul\":3814:3893   */\n      tag_419\n      tag_313\n      jump\t// in\n    tag_419:\n        /* \"#utility.yul\":3778:3895   */\n    tag_418:\n        /* \"#utility.yul\":3927:3992   */\n      tag_420\n        /* \"#utility.yul\":3984:3991   */\n      dup14\n        /* \"#utility.yul\":3975:3981   */\n      dup3\n        /* \"#utility.yul\":3964:3973   */\n      dup15\n        /* \"#utility.yul\":3960:3982   */\n      add\n        /* \"#utility.yul\":3927:3992   */\n      tag_319\n      jump\t// in\n    tag_420:\n        /* \"#utility.yul\":3909:3992   */\n      swap6\n      pop\n      swap6\n      pop\n        /* \"#utility.yul\":3704:4002   */\n      pop\n        /* \"#utility.yul\":4041:4044   */\n      0x80\n        /* \"#utility.yul\":4068:4121   */\n      tag_421\n        /* \"#utility.yul\":4113:4120   */\n      dup14\n        /* \"#utility.yul\":4104:4110   */\n      dup3\n        /* \"#utility.yul\":4093:4102   */\n      dup15\n        /* \"#utility.yul\":4089:4111   */\n      add\n        /* \"#utility.yul\":4068:4121   */\n      tag_315\n      jump\t// in\n    tag_421:\n        /* \"#utility.yul\":4058:4121   */\n      swap4\n      pop\n        /* \"#utility.yul\":4012:4131   */\n      pop\n        /* \"#utility.yul\":4198:4201   */\n      0xa0\n        /* \"#utility.yul\":4187:4196   */\n      dup12\n        /* \"#utility.yul\":4183:4202   */\n      add\n        /* \"#utility.yul\":4170:4203   */\n      calldataload\n        /* \"#utility.yul\":4230:4248   */\n      0xffffffffffffffff\n        /* \"#utility.yul\":4222:4228   */\n      dup2\n        /* \"#utility.yul\":4219:4249   */\n      gt\n        /* \"#utility.yul\":4216:4333   */\n      iszero\n      tag_422\n      jumpi\n        /* \"#utility.yul\":4252:4331   */\n      tag_423\n      tag_313\n      jump\t// in\n    tag_423:\n        /* \"#utility.yul\":4216:4333   */\n    tag_422:\n        /* \"#utility.yul\":4365:4445   */\n      tag_424\n        /* \"#utility.yul\":4437:4444   */\n      dup14\n        /* \"#utility.yul\":4428:4434   */\n      dup3\n        /* \"#utility.yul\":4417:4426   */\n      dup15\n        /* \"#utility.yul\":4413:4435   */\n      add\n        /* \"#utility.yul\":4365:4445   */\n      tag_320\n      jump\t// in\n    tag_424:\n        /* \"#utility.yul\":4347:4445   */\n      swap3\n      pop\n      swap3\n      pop\n        /* \"#utility.yul\":4141:4455   */\n      pop\n        /* \"#utility.yul\":2575:4462   */\n      swap3\n      swap6\n      swap9\n      swap12\n      swap2\n      swap5\n      swap8\n      swap11\n      pop\n      swap3\n      swap6\n      swap9\n      pop\n      jump\t// out\n        /* \"#utility.yul\":4468:4797   */\n    tag_37:\n        /* \"#utility.yul\":4527:4533   */\n      0x00\n        /* \"#utility.yul\":4576:4578   */\n      0x20\n        /* \"#utility.yul\":4564:4573   */\n      dup3\n        /* \"#utility.yul\":4555:4562   */\n      dup5\n        /* \"#utility.yul\":4551:4574   */\n      sub\n        /* \"#utility.yul\":4547:4579   */\n      slt\n        /* \"#utility.yul\":4544:4663   */\n      iszero\n      tag_426\n      jumpi\n        /* \"#utility.yul\":4582:4661   */\n      tag_427\n      tag_312\n      jump\t// in\n    tag_427:\n        /* \"#utility.yul\":4544:4663   */\n    tag_426:\n        /* \"#utility.yul\":4702:4703   */\n      0x00\n        /* \"#utility.yul\":4727:4780   */\n      tag_428\n        /* \"#utility.yul\":4772:4779   */\n      dup5\n        /* \"#utility.yul\":4763:4769   */\n      dup3\n        /* \"#utility.yul\":4752:4761   */\n      dup6\n        /* \"#utility.yul\":4748:4770   */\n      add\n        /* \"#utility.yul\":4727:4780   */\n      tag_315\n      jump\t// in\n    tag_428:\n        /* \"#utility.yul\":4717:4780   */\n      swap2\n      pop\n        /* \"#utility.yul\":4673:4790   */\n      pop\n        /* \"#utility.yul\":4468:4797   */\n      swap3\n      swap2\n      pop\n      pop\n      jump\t// out\n        /* \"#utility.yul\":4803:4929   */\n    tag_321:\n        /* \"#utility.yul\":4840:4847   */\n      0x00\n        /* \"#utility.yul\":4880:4922   */\n      0xffffffffffffffffffffffffffffffffffffffff\n        /* \"#utility.yul\":4873:4878   */\n      dup3\n        /* \"#utility.yul\":4869:4923   */\n      and\n        /* \"#utility.yul\":4858:4923   */\n      swap1\n      pop\n        /* \"#utility.yul\":4803:4929   */\n      swap2\n      swap1\n      pop\n      jump\t// out\n        /* \"#utility.yul\":4935:5031   */\n    tag_322:\n        /* \"#utility.yul\":4972:4979   */\n      0x00\n        /* \"#utility.yul\":5001:5025   */\n      tag_431\n        /* \"#utility.yul\":5019:5024   */\n      dup3\n        /* \"#utility.yul\":5001:5025   */\n      tag_321\n      jump\t// in\n    tag_431:\n        /* \"#utility.yul\":4990:5025   */\n      swap1\n      pop\n        /* \"#utility.yul\":4935:5031   */\n      swap2\n      swap1\n      pop\n      jump\t// out\n        /* \"#utility.yul\":5037:5159   */\n    tag_323:\n        /* \"#utility.yul\":5110:5134   */\n      tag_433\n        /* \"#utility.yul\":5128:5133   */\n      dup2\n        /* \"#utility.yul\":5110:5134   */\n      tag_322\n      jump\t// in\n    tag_433:\n        /* \"#utility.yul\":5103:5108   */\n      dup2\n        /* \"#utility.yul\":5100:5135   */\n      eq\n        /* \"#utility.yul\":5090:5153   */\n      tag_434\n      jumpi\n        /* \"#utility.yul\":5149:5150   */\n      0x00\n        /* \"#utility.yul\":5146:5147   */\n      dup1\n        /* \"#utility.yul\":5139:5151   */\n      revert\n        /* \"#utility.yul\":5090:5153   */\n    tag_434:\n        /* \"#utility.yul\":5037:5159   */\n      pop\n      jump\t// out\n        /* \"#utility.yul\":5165:5304   */\n    tag_324:\n        /* \"#utility.yul\":5211:5216   */\n      0x00\n        /* \"#utility.yul\":5249:5255   */\n      dup2\n        /* \"#utility.yul\":5236:5256   */\n      calldataload\n        /* \"#utility.yul\":5227:5256   */\n      swap1\n      pop\n        /* \"#utility.yul\":5265:5298   */\n      tag_436\n        /* \"#utility.yul\":5292:5297   */\n      dup2\n        /* \"#utility.yul\":5265:5298   */\n      tag_323\n      jump\t// in\n    tag_436:\n        /* \"#utility.yul\":5165:5304   */\n      swap3\n      swap2\n      pop\n      pop\n      jump\t// out\n        /* \"#utility.yul\":5310:5639   */\n    tag_42:\n        /* \"#utility.yul\":5369:5375   */\n      0x00\n        /* \"#utility.yul\":5418:5420   */\n      0x20\n        /* \"#utility.yul\":5406:5415   */\n      dup3\n        /* \"#utility.yul\":5397:5404   */\n      dup5\n        /* \"#utility.yul\":5393:5416   */\n      sub\n        /* \"#utility.yul\":5389:5421   */\n      slt\n        /* \"#utility.yul\":5386:5505   */\n      iszero\n      tag_438\n      jumpi\n        /* \"#utility.yul\":5424:5503   */\n      tag_439\n      tag_312\n      jump\t// in\n    tag_439:\n        /* \"#utility.yul\":5386:5505   */\n    tag_438:\n        /* \"#utility.yul\":5544:5545   */\n      0x00\n        /* \"#utility.yul\":5569:5622   */\n      tag_440\n        /* \"#utility.yul\":5614:5621   */\n      dup5\n        /* \"#utility.yul\":5605:5611   */\n      dup3\n        /* \"#utility.yul\":5594:5603   */\n      dup6\n        /* \"#utility.yul\":5590:5612   */\n      add\n        /* \"#utility.yul\":5569:5622   */\n      tag_324\n      jump\t// in\n    tag_440:\n        /* \"#utility.yul\":5559:5622   */\n      swap2\n      pop\n        /* \"#utility.yul\":5515:5632   */\n      pop\n        /* \"#utility.yul\":5310:5639   */\n      swap3\n      swap2\n      pop\n      pop\n      jump\t// out\n        /* \"#utility.yul\":5645:6119   */\n    tag_47:\n        /* \"#utility.yul\":5713:5719   */\n      0x00\n        /* \"#utility.yul\":5721:5727   */\n      dup1\n        /* \"#utility.yul\":5770:5772   */\n      0x40\n        /* \"#utility.yul\":5758:5767   */\n      dup4\n        /* \"#utility.yul\":5749:5756   */\n      dup6\n        /* \"#utility.yul\":5745:5768   */\n      sub\n        /* \"#utility.yul\":5741:5773   */\n      slt\n        /* \"#utility.yul\":5738:5857   */\n      iszero\n      tag_442\n      jumpi\n        /* \"#utility.yul\":5776:5855   */\n      tag_443\n      tag_312\n      jump\t// in\n    tag_443:\n        /* \"#utility.yul\":5738:5857   */\n    tag_442:\n        /* \"#utility.yul\":5896:5897   */\n      0x00\n        /* \"#utility.yul\":5921:5974   */\n      tag_444\n        /* \"#utility.yul\":5966:5973   */\n      dup6\n        /* \"#utility.yul\":5957:5963   */\n      dup3\n        /* \"#utility.yul\":5946:5955   */\n      dup7\n        /* \"#utility.yul\":5942:5964   */\n      add\n        /* \"#utility.yul\":5921:5974   */\n      tag_324\n      jump\t// in\n    tag_444:\n        /* \"#utility.yul\":5911:5974   */\n      swap3\n      pop\n        /* \"#utility.yul\":5867:5984   */\n      pop\n        /* \"#utility.yul\":6023:6025   */\n      0x20\n        /* \"#utility.yul\":6049:6102   */\n      tag_445\n        /* \"#utility.yul\":6094:6101   */\n      dup6\n        /* \"#utility.yul\":6085:6091   */\n      dup3\n        /* \"#utility.yul\":6074:6083   */\n      dup7\n        /* \"#utility.yul\":6070:6092   */\n      add\n        /* \"#utility.yul\":6049:6102   */\n      tag_315\n      jump\t// in\n    tag_445:\n        /* \"#utility.yul\":6039:6102   */\n      swap2\n      pop\n        /* \"#utility.yul\":5994:6112   */\n      pop\n        /* \"#utility.yul\":5645:6119   */\n      swap3\n      pop\n      swap3\n      swap1\n      pop\n      jump\t// out\n        /* \"#utility.yul\":6125:7866   */\n    tag_54:\n        /* \"#utility.yul\":6283:6289   */\n      0x00\n        /* \"#utility.yul\":6291:6297   */\n      dup1\n        /* \"#utility.yul\":6299:6305   */\n      0x00\n        /* \"#utility.yul\":6307:6313   */\n      dup1\n        /* \"#utility.yul\":6315:6321   */\n      0x00\n        /* \"#utility.yul\":6323:6329   */\n      dup1\n        /* \"#utility.yul\":6331:6337   */\n      0x00\n        /* \"#utility.yul\":6339:6345   */\n      dup1\n        /* \"#utility.yul\":6347:6353   */\n      0x00\n        /* \"#utility.yul\":6396:6399   */\n      0xa0\n        /* \"#utility.yul\":6384:6393   */\n      dup11\n        /* \"#utility.yul\":6375:6382   */\n      dup13\n        /* \"#utility.yul\":6371:6394   */\n      sub\n        /* \"#utility.yul\":6367:6400   */\n      slt\n        /* \"#utility.yul\":6364:6484   */\n      iszero\n      tag_447\n      jumpi\n        /* \"#utility.yul\":6403:6482   */\n      tag_448\n      tag_312\n      jump\t// in\n    tag_448:\n        /* \"#utility.yul\":6364:6484   */\n    tag_447:\n        /* \"#utility.yul\":6551:6552   */\n      0x00\n        /* \"#utility.yul\":6540:6549   */\n      dup11\n        /* \"#utility.yul\":6536:6553   */\n      add\n        /* \"#utility.yul\":6523:6554   */\n      calldataload\n        /* \"#utility.yul\":6581:6599   */\n      0xffffffffffffffff\n        /* \"#utility.yul\":6573:6579   */\n      dup2\n        /* \"#utility.yul\":6570:6600   */\n      gt\n        /* \"#utility.yul\":6567:6684   */\n      iszero\n      tag_449\n      jumpi\n        /* \"#utility.yul\":6603:6682   */\n      tag_450\n      tag_313\n      jump\t// in\n    tag_450:\n        /* \"#utility.yul\":6567:6684   */\n    tag_449:\n        /* \"#utility.yul\":6716:6781   */\n      tag_451\n        /* \"#utility.yul\":6773:6780   */\n      dup13\n        /* \"#utility.yul\":6764:6770   */\n      dup3\n        /* \"#utility.yul\":6753:6762   */\n      dup14\n        /* \"#utility.yul\":6749:6771   */\n      add\n        /* \"#utility.yul\":6716:6781   */\n      tag_319\n      jump\t// in\n    tag_451:\n        /* \"#utility.yul\":6698:6781   */\n      swap10\n      pop\n      swap10\n      pop\n        /* \"#utility.yul\":6494:6791   */\n      pop\n        /* \"#utility.yul\":6858:6860   */\n      0x20\n        /* \"#utility.yul\":6847:6856   */\n      dup11\n        /* \"#utility.yul\":6843:6861   */\n      add\n        /* \"#utility.yul\":6830:6862   */\n      calldataload\n        /* \"#utility.yul\":6889:6907   */\n      0xffffffffffffffff\n        /* \"#utility.yul\":6881:6887   */\n      dup2\n        /* \"#utility.yul\":6878:6908   */\n      gt\n        /* \"#utility.yul\":6875:6992   */\n      iszero\n      tag_452\n      jumpi\n        /* \"#utility.yul\":6911:6990   */\n      tag_453\n      tag_313\n      jump\t// in\n    tag_453:\n        /* \"#utility.yul\":6875:6992   */\n    tag_452:\n        /* \"#utility.yul\":7024:7089   */\n      tag_454\n        /* \"#utility.yul\":7081:7088   */\n      dup13\n        /* \"#utility.yul\":7072:7078   */\n      dup3\n        /* \"#utility.yul\":7061:7070   */\n      dup14\n        /* \"#utility.yul\":7057:7079   */\n      add\n        /* \"#utility.yul\":7024:7089   */\n      tag_319\n      jump\t// in\n    tag_454:\n        /* \"#utility.yul\":7006:7089   */\n      swap8\n      pop\n      swap8\n      pop\n        /* \"#utility.yul\":6801:7099   */\n      pop\n        /* \"#utility.yul\":7166:7168   */\n      0x40\n        /* \"#utility.yul\":7155:7164   */\n      dup11\n        /* \"#utility.yul\":7151:7169   */\n      add\n        /* \"#utility.yul\":7138:7170   */\n      calldataload\n        /* \"#utility.yul\":7197:7215   */\n      0xffffffffffffffff\n        /* \"#utility.yul\":7189:7195   */\n      dup2\n        /* \"#utility.yul\":7186:7216   */\n      gt\n        /* \"#utility.yul\":7183:7300   */\n      iszero\n      tag_455\n      jumpi\n        /* \"#utility.yul\":7219:7298   */\n      tag_456\n      tag_313\n      jump\t// in\n    tag_456:\n        /* \"#utility.yul\":7183:7300   */\n    tag_455:\n        /* \"#utility.yul\":7332:7397   */\n      tag_457\n        /* \"#utility.yul\":7389:7396   */\n      dup13\n        /* \"#utility.yul\":7380:7386   */\n      dup3\n        /* \"#utility.yul\":7369:7378   */\n      dup14\n        /* \"#utility.yul\":7365:7387   */\n      add\n        /* \"#utility.yul\":7332:7397   */\n      tag_319\n      jump\t// in\n    tag_457:\n        /* \"#utility.yul\":7314:7397   */\n      swap6\n      pop\n      swap6\n      pop\n        /* \"#utility.yul\":7109:7407   */\n      pop\n        /* \"#utility.yul\":7446:7448   */\n      0x60\n        /* \"#utility.yul\":7472:7525   */\n      tag_458\n        /* \"#utility.yul\":7517:7524   */\n      dup13\n        /* \"#utility.yul\":7508:7514   */\n      dup3\n        /* \"#utility.yul\":7497:7506   */\n      dup14\n        /* \"#utility.yul\":7493:7515   */\n      add\n        /* \"#utility.yul\":7472:7525   */\n      tag_315\n      jump\t// in\n    tag_458:\n        /* \"#utility.yul\":7462:7525   */\n      swap4\n      pop\n        /* \"#utility.yul\":7417:7535   */\n      pop\n        /* \"#utility.yul\":7602:7605   */\n      0x80\n        /* \"#utility.yul\":7591:7600   */\n      dup11\n        /* \"#utility.yul\":7587:7606   */\n      add\n        /* \"#utility.yul\":7574:7607   */\n      calldataload\n        /* \"#utility.yul\":7634:7652   */\n      0xffffffffffffffff\n        /* \"#utility.yul\":7626:7632   */\n      dup2\n        /* \"#utility.yul\":7623:7653   */\n      gt\n        /* \"#utility.yul\":7620:7737   */\n      iszero\n      tag_459\n      jumpi\n        /* \"#utility.yul\":7656:7735   */\n      tag_460\n      tag_313\n      jump\t// in\n    tag_460:\n        /* \"#utility.yul\":7620:7737   */\n    tag_459:\n        /* \"#utility.yul\":7769:7849   */\n      tag_461\n        /* \"#utility.yul\":7841:7848   */\n      dup13\n        /* \"#utility.yul\":7832:7838   */\n      dup3\n        /* \"#utility.yul\":7821:7830   */\n      dup14\n        /* \"#utility.yul\":7817:7839   */\n      add\n        /* \"#utility.yul\":7769:7849   */\n      tag_320\n      jump\t// in\n    tag_461:\n        /* \"#utility.yul\":7751:7849   */\n      swap3\n      pop\n      swap3\n      pop\n        /* \"#utility.yul\":7545:7859   */\n      pop\n        /* \"#utility.yul\":6125:7866   */\n      swap3\n      swap6\n      swap9\n      pop\n      swap3\n      swap6\n      swap9\n      pop\n      swap3\n      swap6\n      swap9\n      jump\t// out\n        /* \"#utility.yul\":7872:7980   */\n    tag_325:\n        /* \"#utility.yul\":7949:7973   */\n      tag_463\n        /* \"#utility.yul\":7967:7972   */\n      dup2\n        /* \"#utility.yul\":7949:7973   */\n      tag_309\n      jump\t// in\n    tag_463:\n        /* \"#utility.yul\":7944:7947   */\n      dup3\n        /* \"#utility.yul\":7937:7974   */\n      mstore\n        /* \"#utility.yul\":7872:7980   */\n      pop\n      pop\n      jump\t// out\n        /* \"#utility.yul\":7986:8085   */\n    tag_326:\n        /* \"#utility.yul\":8038:8044   */\n      0x00\n        /* \"#utility.yul\":8072:8077   */\n      dup2\n        /* \"#utility.yul\":8066:8078   */\n      mload\n        /* \"#utility.yul\":8056:8078   */\n      swap1\n      pop\n        /* \"#utility.yul\":7986:8085   */\n      swap2\n      swap1\n      pop\n      jump\t// out\n        /* \"#utility.yul\":8091:8250   */\n    tag_327:\n        /* \"#utility.yul\":8165:8176   */\n      0x00\n        /* \"#utility.yul\":8199:8205   */\n      dup3\n        /* \"#utility.yul\":8194:8197   */\n      dup3\n        /* \"#utility.yul\":8187:8206   */\n      mstore\n        /* \"#utility.yul\":8239:8243   */\n      0x20\n        /* \"#utility.yul\":8234:8237   */\n      dup3\n        /* \"#utility.yul\":8230:8244   */\n      add\n        /* \"#utility.yul\":8215:8244   */\n      swap1\n      pop\n        /* \"#utility.yul\":8091:8250   */\n      swap3\n      swap2\n      pop\n      pop\n      jump\t// out\n        /* \"#utility.yul\":8256:8395   */\n    tag_328:\n        /* \"#utility.yul\":8345:8351   */\n      dup3\n        /* \"#utility.yul\":8340:8343   */\n      dup2\n        /* \"#utility.yul\":8335:8338   */\n      dup4\n        /* \"#utility.yul\":8329:8352   */\n      mcopy\n        /* \"#utility.yul\":8386:8387   */\n      0x00\n        /* \"#utility.yul\":8377:8383   */\n      dup4\n        /* \"#utility.yul\":8372:8375   */\n      dup4\n        /* \"#utility.yul\":8368:8384   */\n      add\n        /* \"#utility.yul\":8361:8388   */\n      mstore\n        /* \"#utility.yul\":8256:8395   */\n      pop\n      pop\n      pop\n      jump\t// out\n        /* \"#utility.yul\":8401:8503   */\n    tag_329:\n        /* \"#utility.yul\":8442:8448   */\n      0x00\n        /* \"#utility.yul\":8493:8495   */\n      0x1f\n        /* \"#utility.yul\":8489:8496   */\n      not\n        /* \"#utility.yul\":8484:8486   */\n      0x1f\n        /* \"#utility.yul\":8477:8482   */\n      dup4\n        /* \"#utility.yul\":8473:8487   */\n      add\n        /* \"#utility.yul\":8469:8497   */\n      and\n        /* \"#utility.yul\":8459:8497   */\n      swap1\n      pop\n        /* \"#utility.yul\":8401:8503   */\n      swap2\n      swap1\n      pop\n      jump\t// out\n        /* \"#utility.yul\":8509:8866   */\n    tag_330:\n        /* \"#utility.yul\":8587:8590   */\n      0x00\n        /* \"#utility.yul\":8615:8654   */\n      tag_469\n        /* \"#utility.yul\":8648:8653   */\n      dup3\n        /* \"#utility.yul\":8615:8654   */\n      tag_326\n      jump\t// in\n    tag_469:\n        /* \"#utility.yul\":8670:8731   */\n      tag_470\n        /* \"#utility.yul\":8724:8730   */\n      dup2\n        /* \"#utility.yul\":8719:8722   */\n      dup6\n        /* \"#utility.yul\":8670:8731   */\n      tag_327\n      jump\t// in\n    tag_470:\n        /* \"#utility.yul\":8663:8731   */\n      swap4\n      pop\n        /* \"#utility.yul\":8740:8805   */\n      tag_471\n        /* \"#utility.yul\":8798:8804   */\n      dup2\n        /* \"#utility.yul\":8793:8796   */\n      dup6\n        /* \"#utility.yul\":8786:8790   */\n      0x20\n        /* \"#utility.yul\":8779:8784   */\n      dup7\n        /* \"#utility.yul\":8775:8791   */\n      add\n        /* \"#utility.yul\":8740:8805   */\n      tag_328\n      jump\t// in\n    tag_471:\n        /* \"#utility.yul\":8830:8859   */\n      tag_472\n        /* \"#utility.yul\":8852:8858   */\n      dup2\n        /* \"#utility.yul\":8830:8859   */\n      tag_329\n      jump\t// in\n    tag_472:\n        /* \"#utility.yul\":8825:8828   */\n      dup5\n        /* \"#utility.yul\":8821:8860   */\n      add\n        /* \"#utility.yul\":8814:8860   */\n      swap2\n      pop\n        /* \"#utility.yul\":8591:8866   */\n      pop\n        /* \"#utility.yul\":8509:8866   */\n      swap3\n      swap2\n      pop\n      pop\n      jump\t// out\n        /* \"#utility.yul\":8872:8986   */\n    tag_331:\n        /* \"#utility.yul\":8939:8945   */\n      0x00\n        /* \"#utility.yul\":8973:8978   */\n      dup2\n        /* \"#utility.yul\":8967:8979   */\n      mload\n        /* \"#utility.yul\":8957:8979   */\n      swap1\n      pop\n        /* \"#utility.yul\":8872:8986   */\n      swap2\n      swap1\n      pop\n      jump\t// out\n        /* \"#utility.yul\":8992:9166   */\n    tag_332:\n        /* \"#utility.yul\":9081:9092   */\n      0x00\n        /* \"#utility.yul\":9115:9121   */\n      dup3\n        /* \"#utility.yul\":9110:9113   */\n      dup3\n        /* \"#utility.yul\":9103:9122   */\n      mstore\n        /* \"#utility.yul\":9155:9159   */\n      0x20\n        /* \"#utility.yul\":9150:9153   */\n      dup3\n        /* \"#utility.yul\":9146:9160   */\n      add\n        /* \"#utility.yul\":9131:9160   */\n      swap1\n      pop\n        /* \"#utility.yul\":8992:9166   */\n      swap3\n      swap2\n      pop\n      pop\n      jump\t// out\n        /* \"#utility.yul\":9172:9304   */\n    tag_333:\n        /* \"#utility.yul\":9239:9243   */\n      0x00\n        /* \"#utility.yul\":9262:9265   */\n      dup2\n        /* \"#utility.yul\":9254:9265   */\n      swap1\n      pop\n        /* \"#utility.yul\":9292:9296   */\n      0x20\n        /* \"#utility.yul\":9287:9290   */\n      dup3\n        /* \"#utility.yul\":9283:9297   */\n      add\n        /* \"#utility.yul\":9275:9297   */\n      swap1\n      pop\n        /* \"#utility.yul\":9172:9304   */\n      swap2\n      swap1\n      pop\n      jump\t// out\n        /* \"#utility.yul\":9310:9489   */\n    tag_334:\n        /* \"#utility.yul\":9379:9389   */\n      0x00\n        /* \"#utility.yul\":9400:9446   */\n      tag_477\n        /* \"#utility.yul\":9442:9445   */\n      dup4\n        /* \"#utility.yul\":9434:9440   */\n      dup4\n        /* \"#utility.yul\":9400:9446   */\n      tag_325\n      jump\t// in\n    tag_477:\n        /* \"#utility.yul\":9478:9482   */\n      0x20\n        /* \"#utility.yul\":9473:9476   */\n      dup4\n        /* \"#utility.yul\":9469:9483   */\n      add\n        /* \"#utility.yul\":9455:9483   */\n      swap1\n      pop\n        /* \"#utility.yul\":9310:9489   */\n      swap3\n      swap2\n      pop\n      pop\n      jump\t// out\n        /* \"#utility.yul\":9495:9608   */\n    tag_335:\n        /* \"#utility.yul\":9565:9569   */\n      0x00\n        /* \"#utility.yul\":9597:9601   */\n      0x20\n        /* \"#utility.yul\":9592:9595   */\n      dup3\n        /* \"#utility.yul\":9588:9602   */\n      add\n        /* \"#utility.yul\":9580:9602   */\n      swap1\n      pop\n        /* \"#utility.yul\":9495:9608   */\n      swap2\n      swap1\n      pop\n      jump\t// out\n        /* \"#utility.yul\":9644:10356   */\n    tag_336:\n        /* \"#utility.yul\":9753:9756   */\n      0x00\n        /* \"#utility.yul\":9782:9836   */\n      tag_480\n        /* \"#utility.yul\":9830:9835   */\n      dup3\n        /* \"#utility.yul\":9782:9836   */\n      tag_331\n      jump\t// in\n    tag_480:\n        /* \"#utility.yul\":9852:9928   */\n      tag_481\n        /* \"#utility.yul\":9921:9927   */\n      dup2\n        /* \"#utility.yul\":9916:9919   */\n      dup6\n        /* \"#utility.yul\":9852:9928   */\n      tag_332\n      jump\t// in\n    tag_481:\n        /* \"#utility.yul\":9845:9928   */\n      swap4\n      pop\n        /* \"#utility.yul\":9952:10008   */\n      tag_482\n        /* \"#utility.yul\":10002:10007   */\n      dup4\n        /* \"#utility.yul\":9952:10008   */\n      tag_333\n      jump\t// in\n    tag_482:\n        /* \"#utility.yul\":10031:10038   */\n      dup1\n        /* \"#utility.yul\":10062:10063   */\n      0x00\n        /* \"#utility.yul\":10047:10331   */\n    tag_483:\n        /* \"#utility.yul\":10072:10078   */\n      dup4\n        /* \"#utility.yul\":10069:10070   */\n      dup2\n        /* \"#utility.yul\":10066:10079   */\n      lt\n        /* \"#utility.yul\":10047:10331   */\n      iszero\n      tag_485\n      jumpi\n        /* \"#utility.yul\":10148:10154   */\n      dup2\n        /* \"#utility.yul\":10142:10155   */\n      mload\n        /* \"#utility.yul\":10175:10238   */\n      tag_486\n        /* \"#utility.yul\":10234:10237   */\n      dup9\n        /* \"#utility.yul\":10219:10232   */\n      dup3\n        /* \"#utility.yul\":10175:10238   */\n      tag_334\n      jump\t// in\n    tag_486:\n        /* \"#utility.yul\":10168:10238   */\n      swap8\n      pop\n        /* \"#utility.yul\":10261:10321   */\n      tag_487\n        /* \"#utility.yul\":10314:10320   */\n      dup4\n        /* \"#utility.yul\":10261:10321   */\n      tag_335\n      jump\t// in\n    tag_487:\n        /* \"#utility.yul\":10251:10321   */\n      swap3\n      pop\n        /* \"#utility.yul\":10107:10331   */\n      pop\n        /* \"#utility.yul\":10094:10095   */\n      0x01\n        /* \"#utility.yul\":10091:10092   */\n      dup2\n        /* \"#utility.yul\":10087:10096   */\n      add\n        /* \"#utility.yul\":10082:10096   */\n      swap1\n      pop\n        /* \"#utility.yul\":10047:10331   */\n      jump(tag_483)\n    tag_485:\n        /* \"#utility.yul\":10051:10065   */\n      pop\n        /* \"#utility.yul\":10347:10350   */\n      dup6\n        /* \"#utility.yul\":10340:10350   */\n      swap4\n      pop\n        /* \"#utility.yul\":9758:10356   */\n      pop\n      pop\n      pop\n        /* \"#utility.yul\":9644:10356   */\n      swap3\n      swap2\n      pop\n      pop\n      jump\t// out\n        /* \"#utility.yul\":10362:10470   */\n    tag_337:\n        /* \"#utility.yul\":10439:10463   */\n      tag_489\n        /* \"#utility.yul\":10457:10462   */\n      dup2\n        /* \"#utility.yul\":10439:10463   */\n      tag_322\n      jump\t// in\n    tag_489:\n        /* \"#utility.yul\":10434:10437   */\n      dup3\n        /* \"#utility.yul\":10427:10464   */\n      mstore\n        /* \"#utility.yul\":10362:10470   */\n      pop\n      pop\n      jump\t// out\n        /* \"#utility.yul\":10514:12606   */\n    tag_338:\n        /* \"#utility.yul\":10629:10632   */\n      0x00\n        /* \"#utility.yul\":10665:10671   */\n      0x0120\n        /* \"#utility.yul\":10660:10663   */\n      dup4\n        /* \"#utility.yul\":10656:10672   */\n      add\n        /* \"#utility.yul\":10752:10756   */\n      0x00\n        /* \"#utility.yul\":10745:10750   */\n      dup4\n        /* \"#utility.yul\":10741:10757   */\n      add\n        /* \"#utility.yul\":10735:10758   */\n      mload\n        /* \"#utility.yul\":10771:10834   */\n      tag_491\n        /* \"#utility.yul\":10828:10832   */\n      0x00\n        /* \"#utility.yul\":10823:10826   */\n      dup7\n        /* \"#utility.yul\":10819:10833   */\n      add\n        /* \"#utility.yul\":10805:10817   */\n      dup3\n        /* \"#utility.yul\":10771:10834   */\n      tag_325\n      jump\t// in\n    tag_491:\n        /* \"#utility.yul\":10682:10844   */\n      pop\n        /* \"#utility.yul\":10927:10931   */\n      0x20\n        /* \"#utility.yul\":10920:10925   */\n      dup4\n        /* \"#utility.yul\":10916:10932   */\n      add\n        /* \"#utility.yul\":10910:10933   */\n      mload\n        /* \"#utility.yul\":10980:10983   */\n      dup5\n        /* \"#utility.yul\":10974:10978   */\n      dup3\n        /* \"#utility.yul\":10970:10984   */\n      sub\n        /* \"#utility.yul\":10963:10967   */\n      0x20\n        /* \"#utility.yul\":10958:10961   */\n      dup7\n        /* \"#utility.yul\":10954:10968   */\n      add\n        /* \"#utility.yul\":10947:10985   */\n      mstore\n        /* \"#utility.yul\":11006:11079   */\n      tag_492\n        /* \"#utility.yul\":11074:11078   */\n      dup3\n        /* \"#utility.yul\":11060:11072   */\n      dup3\n        /* \"#utility.yul\":11006:11079   */\n      tag_330\n      jump\t// in\n    tag_492:\n        /* \"#utility.yul\":10998:11079   */\n      swap2\n      pop\n        /* \"#utility.yul\":10854:11090   */\n      pop\n        /* \"#utility.yul\":11175:11179   */\n      0x40\n        /* \"#utility.yul\":11168:11173   */\n      dup4\n        /* \"#utility.yul\":11164:11180   */\n      add\n        /* \"#utility.yul\":11158:11181   */\n      mload\n        /* \"#utility.yul\":11228:11231   */\n      dup5\n        /* \"#utility.yul\":11222:11226   */\n      dup3\n        /* \"#utility.yul\":11218:11232   */\n      sub\n        /* \"#utility.yul\":11211:11215   */\n      0x40\n        /* \"#utility.yul\":11206:11209   */\n      dup7\n        /* \"#utility.yul\":11202:11216   */\n      add\n        /* \"#utility.yul\":11195:11233   */\n      mstore\n        /* \"#utility.yul\":11254:11327   */\n      tag_493\n        /* \"#utility.yul\":11322:11326   */\n      dup3\n        /* \"#utility.yul\":11308:11320   */\n      dup3\n        /* \"#utility.yul\":11254:11327   */\n      tag_330\n      jump\t// in\n    tag_493:\n        /* \"#utility.yul\":11246:11327   */\n      swap2\n      pop\n        /* \"#utility.yul\":11100:11338   */\n      pop\n        /* \"#utility.yul\":11420:11424   */\n      0x60\n        /* \"#utility.yul\":11413:11418   */\n      dup4\n        /* \"#utility.yul\":11409:11425   */\n      add\n        /* \"#utility.yul\":11403:11426   */\n      mload\n        /* \"#utility.yul\":11473:11476   */\n      dup5\n        /* \"#utility.yul\":11467:11471   */\n      dup3\n        /* \"#utility.yul\":11463:11477   */\n      sub\n        /* \"#utility.yul\":11456:11460   */\n      0x60\n        /* \"#utility.yul\":11451:11454   */\n      dup7\n        /* \"#utility.yul\":11447:11461   */\n      add\n        /* \"#utility.yul\":11440:11478   */\n      mstore\n        /* \"#utility.yul\":11499:11572   */\n      tag_494\n        /* \"#utility.yul\":11567:11571   */\n      dup3\n        /* \"#utility.yul\":11553:11565   */\n      dup3\n        /* \"#utility.yul\":11499:11572   */\n      tag_330\n      jump\t// in\n    tag_494:\n        /* \"#utility.yul\":11491:11572   */\n      swap2\n      pop\n        /* \"#utility.yul\":11348:11583   */\n      pop\n        /* \"#utility.yul\":11671:11675   */\n      0x80\n        /* \"#utility.yul\":11664:11669   */\n      dup4\n        /* \"#utility.yul\":11660:11676   */\n      add\n        /* \"#utility.yul\":11654:11677   */\n      mload\n        /* \"#utility.yul\":11690:11753   */\n      tag_495\n        /* \"#utility.yul\":11747:11751   */\n      0x80\n        /* \"#utility.yul\":11742:11745   */\n      dup7\n        /* \"#utility.yul\":11738:11752   */\n      add\n        /* \"#utility.yul\":11724:11736   */\n      dup3\n        /* \"#utility.yul\":11690:11753   */\n      tag_325\n      jump\t// in\n    tag_495:\n        /* \"#utility.yul\":11593:11763   */\n      pop\n        /* \"#utility.yul\":11851:11855   */\n      0xa0\n        /* \"#utility.yul\":11844:11849   */\n      dup4\n        /* \"#utility.yul\":11840:11856   */\n      add\n        /* \"#utility.yul\":11834:11857   */\n      mload\n        /* \"#utility.yul\":11870:11933   */\n      tag_496\n        /* \"#utility.yul\":11927:11931   */\n      0xa0\n        /* \"#utility.yul\":11922:11925   */\n      dup7\n        /* \"#utility.yul\":11918:11932   */\n      add\n        /* \"#utility.yul\":11904:11916   */\n      dup3\n        /* \"#utility.yul\":11870:11933   */\n      tag_325\n      jump\t// in\n    tag_496:\n        /* \"#utility.yul\":11773:11943   */\n      pop\n        /* \"#utility.yul\":12032:12036   */\n      0xc0\n        /* \"#utility.yul\":12025:12030   */\n      dup4\n        /* \"#utility.yul\":12021:12037   */\n      add\n        /* \"#utility.yul\":12015:12038   */\n      mload\n        /* \"#utility.yul\":12051:12114   */\n      tag_497\n        /* \"#utility.yul\":12108:12112   */\n      0xc0\n        /* \"#utility.yul\":12103:12106   */\n      dup7\n        /* \"#utility.yul\":12099:12113   */\n      add\n        /* \"#utility.yul\":12085:12097   */\n      dup3\n        /* \"#utility.yul\":12051:12114   */\n      tag_325\n      jump\t// in\n    tag_497:\n        /* \"#utility.yul\":11953:12124   */\n      pop\n        /* \"#utility.yul\":12206:12210   */\n      0xe0\n        /* \"#utility.yul\":12199:12204   */\n      dup4\n        /* \"#utility.yul\":12195:12211   */\n      add\n        /* \"#utility.yul\":12189:12212   */\n      mload\n        /* \"#utility.yul\":12259:12262   */\n      dup5\n        /* \"#utility.yul\":12253:12257   */\n      dup3\n        /* \"#utility.yul\":12249:12263   */\n      sub\n        /* \"#utility.yul\":12242:12246   */\n      0xe0\n        /* \"#utility.yul\":12237:12240   */\n      dup7\n        /* \"#utility.yul\":12233:12247   */\n      add\n        /* \"#utility.yul\":12226:12264   */\n      mstore\n        /* \"#utility.yul\":12285:12388   */\n      tag_498\n        /* \"#utility.yul\":12383:12387   */\n      dup3\n        /* \"#utility.yul\":12369:12381   */\n      dup3\n        /* \"#utility.yul\":12285:12388   */\n      tag_336\n      jump\t// in\n    tag_498:\n        /* \"#utility.yul\":12277:12388   */\n      swap2\n      pop\n        /* \"#utility.yul\":12134:12399   */\n      pop\n        /* \"#utility.yul\":12483:12489   */\n      0x0100\n        /* \"#utility.yul\":12476:12481   */\n      dup4\n        /* \"#utility.yul\":12472:12490   */\n      add\n        /* \"#utility.yul\":12466:12491   */\n      mload\n        /* \"#utility.yul\":12504:12569   */\n      tag_499\n        /* \"#utility.yul\":12561:12567   */\n      0x0100\n        /* \"#utility.yul\":12556:12559   */\n      dup7\n        /* \"#utility.yul\":12552:12568   */\n      add\n        /* \"#utility.yul\":12538:12550   */\n      dup3\n        /* \"#utility.yul\":12504:12569   */\n      tag_337\n      jump\t// in\n    tag_499:\n        /* \"#utility.yul\":12409:12579   */\n      pop\n        /* \"#utility.yul\":12596:12600   */\n      dup1\n        /* \"#utility.yul\":12589:12600   */\n      swap2\n      pop\n        /* \"#utility.yul\":10634:12606   */\n      pop\n        /* \"#utility.yul\":10514:12606   */\n      swap3\n      swap2\n      pop\n      pop\n      jump\t// out\n        /* \"#utility.yul\":12612:12977   */\n    tag_69:\n        /* \"#utility.yul\":12751:12755   */\n      0x00\n        /* \"#utility.yul\":12789:12791   */\n      0x20\n        /* \"#utility.yul\":12778:12787   */\n      dup3\n        /* \"#utility.yul\":12774:12792   */\n      add\n        /* \"#utility.yul\":12766:12792   */\n      swap1\n      pop\n        /* \"#utility.yul\":12838:12847   */\n      dup2\n        /* \"#utility.yul\":12832:12836   */\n      dup2\n        /* \"#utility.yul\":12828:12848   */\n      sub\n        /* \"#utility.yul\":12824:12825   */\n      0x00\n        /* \"#utility.yul\":12813:12822   */\n      dup4\n        /* \"#utility.yul\":12809:12826   */\n      add\n        /* \"#utility.yul\":12802:12849   */\n      mstore\n        /* \"#utility.yul\":12866:12970   */\n      tag_501\n        /* \"#utility.yul\":12965:12969   */\n      dup2\n        /* \"#utility.yul\":12956:12962   */\n      dup5\n        /* \"#utility.yul\":12866:12970   */\n      tag_338\n      jump\t// in\n    tag_501:\n        /* \"#utility.yul\":12858:12970   */\n      swap1\n      pop\n        /* \"#utility.yul\":12612:12977   */\n      swap3\n      swap2\n      pop\n      pop\n      jump\t// out\n        /* \"#utility.yul\":12983:13120   */\n    tag_339:\n        /* \"#utility.yul\":13073:13079   */\n      0x00\n        /* \"#utility.yul\":13107:13112   */\n      dup2\n        /* \"#utility.yul\":13101:13113   */\n      mload\n        /* \"#utility.yul\":13091:13113   */\n      swap1\n      pop\n        /* \"#utility.yul\":12983:13120   */\n      swap2\n      swap1\n      pop\n      jump\t// out\n        /* \"#utility.yul\":13126:13333   */\n    tag_340:\n        /* \"#utility.yul\":13248:13259   */\n      0x00\n        /* \"#utility.yul\":13282:13288   */\n      dup3\n        /* \"#utility.yul\":13277:13280   */\n      dup3\n        /* \"#utility.yul\":13270:13289   */\n      mstore\n        /* \"#utility.yul\":13322:13326   */\n      0x20\n        /* \"#utility.yul\":13317:13320   */\n      dup3\n        /* \"#utility.yul\":13313:13327   */\n      add\n        /* \"#utility.yul\":13298:13327   */\n      swap1\n      pop\n        /* \"#utility.yul\":13126:13333   */\n      swap3\n      swap2\n      pop\n      pop\n      jump\t// out\n        /* \"#utility.yul\":13339:13494   */\n    tag_341:\n        /* \"#utility.yul\":13429:13433   */\n      0x00\n        /* \"#utility.yul\":13452:13455   */\n      dup2\n        /* \"#utility.yul\":13444:13455   */\n      swap1\n      pop\n        /* \"#utility.yul\":13482:13486   */\n      0x20\n        /* \"#utility.yul\":13477:13480   */\n      dup3\n        /* \"#utility.yul\":13473:13487   */\n      add\n        /* \"#utility.yul\":13465:13487   */\n      swap1\n      pop\n        /* \"#utility.yul\":13339:13494   */\n      swap2\n      swap1\n      pop\n      jump\t// out\n        /* \"#utility.yul\":13538:15620   */\n    tag_342:\n        /* \"#utility.yul\":13643:13646   */\n      0x00\n        /* \"#utility.yul\":13679:13685   */\n      0x0120\n        /* \"#utility.yul\":13674:13677   */\n      dup4\n        /* \"#utility.yul\":13670:13686   */\n      add\n        /* \"#utility.yul\":13766:13770   */\n      0x00\n        /* \"#utility.yul\":13759:13764   */\n      dup4\n        /* \"#utility.yul\":13755:13771   */\n      add\n        /* \"#utility.yul\":13749:13772   */\n      mload\n        /* \"#utility.yul\":13785:13848   */\n      tag_506\n        /* \"#utility.yul\":13842:13846   */\n      0x00\n        /* \"#utility.yul\":13837:13840   */\n      dup7\n        /* \"#utility.yul\":13833:13847   */\n      add\n        /* \"#utility.yul\":13819:13831   */\n      dup3\n        /* \"#utility.yul\":13785:13848   */\n      tag_325\n      jump\t// in\n    tag_506:\n        /* \"#utility.yul\":13696:13858   */\n      pop\n        /* \"#utility.yul\":13941:13945   */\n      0x20\n        /* \"#utility.yul\":13934:13939   */\n      dup4\n        /* \"#utility.yul\":13930:13946   */\n      add\n        /* \"#utility.yul\":13924:13947   */\n      mload\n        /* \"#utility.yul\":13994:13997   */\n      dup5\n        /* \"#utility.yul\":13988:13992   */\n      dup3\n        /* \"#utility.yul\":13984:13998   */\n      sub\n        /* \"#utility.yul\":13977:13981   */\n      0x20\n        /* \"#utility.yul\":13972:13975   */\n      dup7\n        /* \"#utility.yul\":13968:13982   */\n      add\n        /* \"#utility.yul\":13961:13999   */\n      mstore\n        /* \"#utility.yul\":14020:14093   */\n      tag_507\n        /* \"#utility.yul\":14088:14092   */\n      dup3\n        /* \"#utility.yul\":14074:14086   */\n      dup3\n        /* \"#utility.yul\":14020:14093   */\n      tag_330\n      jump\t// in\n    tag_507:\n        /* \"#utility.yul\":14012:14093   */\n      swap2\n      pop\n        /* \"#utility.yul\":13868:14104   */\n      pop\n        /* \"#utility.yul\":14189:14193   */\n      0x40\n        /* \"#utility.yul\":14182:14187   */\n      dup4\n        /* \"#utility.yul\":14178:14194   */\n      add\n        /* \"#utility.yul\":14172:14195   */\n      mload\n        /* \"#utility.yul\":14242:14245   */\n      dup5\n        /* \"#utility.yul\":14236:14240   */\n      dup3\n        /* \"#utility.yul\":14232:14246   */\n      sub\n        /* \"#utility.yul\":14225:14229   */\n      0x40\n        /* \"#utility.yul\":14220:14223   */\n      dup7\n        /* \"#utility.yul\":14216:14230   */\n      add\n        /* \"#utility.yul\":14209:14247   */\n      mstore\n        /* \"#utility.yul\":14268:14341   */\n      tag_508\n        /* \"#utility.yul\":14336:14340   */\n      dup3\n        /* \"#utility.yul\":14322:14334   */\n      dup3\n        /* \"#utility.yul\":14268:14341   */\n      tag_330\n      jump\t// in\n    tag_508:\n        /* \"#utility.yul\":14260:14341   */\n      swap2\n      pop\n        /* \"#utility.yul\":14114:14352   */\n      pop\n        /* \"#utility.yul\":14434:14438   */\n      0x60\n        /* \"#utility.yul\":14427:14432   */\n      dup4\n        /* \"#utility.yul\":14423:14439   */\n      add\n        /* \"#utility.yul\":14417:14440   */\n      mload\n        /* \"#utility.yul\":14487:14490   */\n      dup5\n        /* \"#utility.yul\":14481:14485   */\n      dup3\n        /* \"#utility.yul\":14477:14491   */\n      sub\n        /* \"#utility.yul\":14470:14474   */\n      0x60\n        /* \"#utility.yul\":14465:14468   */\n      dup7\n        /* \"#utility.yul\":14461:14475   */\n      add\n        /* \"#utility.yul\":14454:14492   */\n      mstore\n        /* \"#utility.yul\":14513:14586   */\n      tag_509\n        /* \"#utility.yul\":14581:14585   */\n      dup3\n        /* \"#utility.yul\":14567:14579   */\n      dup3\n        /* \"#utility.yul\":14513:14586   */\n      tag_330\n      jump\t// in\n    tag_509:\n        /* \"#utility.yul\":14505:14586   */\n      swap2\n      pop\n        /* \"#utility.yul\":14362:14597   */\n      pop\n        /* \"#utility.yul\":14685:14689   */\n      0x80\n        /* \"#utility.yul\":14678:14683   */\n      dup4\n        /* \"#utility.yul\":14674:14690   */\n      add\n        /* \"#utility.yul\":14668:14691   */\n      mload\n        /* \"#utility.yul\":14704:14767   */\n      tag_510\n        /* \"#utility.yul\":14761:14765   */\n      0x80\n        /* \"#utility.yul\":14756:14759   */\n      dup7\n        /* \"#utility.yul\":14752:14766   */\n      add\n        /* \"#utility.yul\":14738:14750   */\n      dup3\n        /* \"#utility.yul\":14704:14767   */\n      tag_325\n      jump\t// in\n    tag_510:\n        /* \"#utility.yul\":14607:14777   */\n      pop\n        /* \"#utility.yul\":14865:14869   */\n      0xa0\n        /* \"#utility.yul\":14858:14863   */\n      dup4\n        /* \"#utility.yul\":14854:14870   */\n      add\n        /* \"#utility.yul\":14848:14871   */\n      mload\n        /* \"#utility.yul\":14884:14947   */\n      tag_511\n        /* \"#utility.yul\":14941:14945   */\n      0xa0\n        /* \"#utility.yul\":14936:14939   */\n      dup7\n        /* \"#utility.yul\":14932:14946   */\n      add\n        /* \"#utility.yul\":14918:14930   */\n      dup3\n        /* \"#utility.yul\":14884:14947   */\n      tag_325\n      jump\t// in\n    tag_511:\n        /* \"#utility.yul\":14787:14957   */\n      pop\n        /* \"#utility.yul\":15046:15050   */\n      0xc0\n        /* \"#utility.yul\":15039:15044   */\n      dup4\n        /* \"#utility.yul\":15035:15051   */\n      add\n        /* \"#utility.yul\":15029:15052   */\n      mload\n        /* \"#utility.yul\":15065:15128   */\n      tag_512\n        /* \"#utility.yul\":15122:15126   */\n      0xc0\n        /* \"#utility.yul\":15117:15120   */\n      dup7\n        /* \"#utility.yul\":15113:15127   */\n      add\n        /* \"#utility.yul\":15099:15111   */\n      dup3\n        /* \"#utility.yul\":15065:15128   */\n      tag_325\n      jump\t// in\n    tag_512:\n        /* \"#utility.yul\":14967:15138   */\n      pop\n        /* \"#utility.yul\":15220:15224   */\n      0xe0\n        /* \"#utility.yul\":15213:15218   */\n      dup4\n        /* \"#utility.yul\":15209:15225   */\n      add\n        /* \"#utility.yul\":15203:15226   */\n      mload\n        /* \"#utility.yul\":15273:15276   */\n      dup5\n        /* \"#utility.yul\":15267:15271   */\n      dup3\n        /* \"#utility.yul\":15263:15277   */\n      sub\n        /* \"#utility.yul\":15256:15260   */\n      0xe0\n        /* \"#utility.yul\":15251:15254   */\n      dup7\n        /* \"#utility.yul\":15247:15261   */\n      add\n        /* \"#utility.yul\":15240:15278   */\n      mstore\n        /* \"#utility.yul\":15299:15402   */\n      tag_513\n        /* \"#utility.yul\":15397:15401   */\n      dup3\n        /* \"#utility.yul\":15383:15395   */\n      dup3\n        /* \"#utility.yul\":15299:15402   */\n      tag_336\n      jump\t// in\n    tag_513:\n        /* \"#utility.yul\":15291:15402   */\n      swap2\n      pop\n        /* \"#utility.yul\":15148:15413   */\n      pop\n        /* \"#utility.yul\":15497:15503   */\n      0x0100\n        /* \"#utility.yul\":15490:15495   */\n      dup4\n        /* \"#utility.yul\":15486:15504   */\n      add\n        /* \"#utility.yul\":15480:15505   */\n      mload\n        /* \"#utility.yul\":15518:15583   */\n      tag_514\n        /* \"#utility.yul\":15575:15581   */\n      0x0100\n        /* \"#utility.yul\":15570:15573   */\n      dup7\n        /* \"#utility.yul\":15566:15582   */\n      add\n        /* \"#utility.yul\":15552:15564   */\n      dup3\n        /* \"#utility.yul\":15518:15583   */\n      tag_337\n      jump\t// in\n    tag_514:\n        /* \"#utility.yul\":15423:15593   */\n      pop\n        /* \"#utility.yul\":15610:15614   */\n      dup1\n        /* \"#utility.yul\":15603:15614   */\n      swap2\n      pop\n        /* \"#utility.yul\":13648:15620   */\n      pop\n        /* \"#utility.yul\":13538:15620   */\n      swap3\n      swap2\n      pop\n      pop\n      jump\t// out\n        /* \"#utility.yul\":15626:15874   */\n    tag_343:\n        /* \"#utility.yul\":15741:15751   */\n      0x00\n        /* \"#utility.yul\":15776:15868   */\n      tag_516\n        /* \"#utility.yul\":15864:15867   */\n      dup4\n        /* \"#utility.yul\":15856:15862   */\n      dup4\n        /* \"#utility.yul\":15776:15868   */\n      tag_342\n      jump\t// in\n    tag_516:\n        /* \"#utility.yul\":15762:15868   */\n      swap1\n      pop\n        /* \"#utility.yul\":15626:15874   */\n      swap3\n      swap2\n      pop\n      pop\n      jump\t// out\n        /* \"#utility.yul\":15880:16016   */\n    tag_344:\n        /* \"#utility.yul\":15973:15977   */\n      0x00\n        /* \"#utility.yul\":16005:16009   */\n      0x20\n        /* \"#utility.yul\":16000:16003   */\n      dup3\n        /* \"#utility.yul\":15996:16010   */\n      add\n        /* \"#utility.yul\":15988:16010   */\n      swap1\n      pop\n        /* \"#utility.yul\":15880:16016   */\n      swap2\n      swap1\n      pop\n      jump\t// out\n        /* \"#utility.yul\":16064:17159   */\n    tag_345:\n        /* \"#utility.yul\":16229:16232   */\n      0x00\n        /* \"#utility.yul\":16258:16335   */\n      tag_519\n        /* \"#utility.yul\":16329:16334   */\n      dup3\n        /* \"#utility.yul\":16258:16335   */\n      tag_339\n      jump\t// in\n    tag_519:\n        /* \"#utility.yul\":16351:16460   */\n      tag_520\n        /* \"#utility.yul\":16453:16459   */\n      dup2\n        /* \"#utility.yul\":16448:16451   */\n      dup6\n        /* \"#utility.yul\":16351:16460   */\n      tag_340\n      jump\t// in\n    tag_520:\n        /* \"#utility.yul\":16344:16460   */\n      swap4\n      pop\n        /* \"#utility.yul\":16486:16489   */\n      dup4\n        /* \"#utility.yul\":16531:16535   */\n      0x20\n        /* \"#utility.yul\":16523:16529   */\n      dup3\n        /* \"#utility.yul\":16519:16536   */\n      mul\n        /* \"#utility.yul\":16514:16517   */\n      dup6\n        /* \"#utility.yul\":16510:16537   */\n      add\n        /* \"#utility.yul\":16561:16640   */\n      tag_521\n        /* \"#utility.yul\":16634:16639   */\n      dup6\n        /* \"#utility.yul\":16561:16640   */\n      tag_341\n      jump\t// in\n    tag_521:\n        /* \"#utility.yul\":16663:16670   */\n      dup1\n        /* \"#utility.yul\":16694:16695   */\n      0x00\n        /* \"#utility.yul\":16679:17114   */\n    tag_522:\n        /* \"#utility.yul\":16704:16710   */\n      dup6\n        /* \"#utility.yul\":16701:16702   */\n      dup2\n        /* \"#utility.yul\":16698:16711   */\n      lt\n        /* \"#utility.yul\":16679:17114   */\n      iszero\n      tag_524\n      jumpi\n        /* \"#utility.yul\":16775:16784   */\n      dup5\n        /* \"#utility.yul\":16769:16773   */\n      dup5\n        /* \"#utility.yul\":16765:16785   */\n      sub\n        /* \"#utility.yul\":16760:16763   */\n      dup10\n        /* \"#utility.yul\":16753:16786   */\n      mstore\n        /* \"#utility.yul\":16826:16832   */\n      dup2\n        /* \"#utility.yul\":16820:16833   */\n      mload\n        /* \"#utility.yul\":16854:16964   */\n      tag_525\n        /* \"#utility.yul\":16959:16963   */\n      dup6\n        /* \"#utility.yul\":16944:16957   */\n      dup3\n        /* \"#utility.yul\":16854:16964   */\n      tag_343\n      jump\t// in\n    tag_525:\n        /* \"#utility.yul\":16846:16964   */\n      swap5\n      pop\n        /* \"#utility.yul\":16987:17070   */\n      tag_526\n        /* \"#utility.yul\":17063:17069   */\n      dup4\n        /* \"#utility.yul\":16987:17070   */\n      tag_344\n      jump\t// in\n    tag_526:\n        /* \"#utility.yul\":16977:17070   */\n      swap3\n      pop\n        /* \"#utility.yul\":17099:17103   */\n      0x20\n        /* \"#utility.yul\":17094:17097   */\n      dup11\n        /* \"#utility.yul\":17090:17104   */\n      add\n        /* \"#utility.yul\":17083:17104   */\n      swap10\n      pop\n        /* \"#utility.yul\":16739:17114   */\n      pop\n        /* \"#utility.yul\":16726:16727   */\n      0x01\n        /* \"#utility.yul\":16723:16724   */\n      dup2\n        /* \"#utility.yul\":16719:16728   */\n      add\n        /* \"#utility.yul\":16714:16728   */\n      swap1\n      pop\n        /* \"#utility.yul\":16679:17114   */\n      jump(tag_522)\n    tag_524:\n        /* \"#utility.yul\":16683:16697   */\n      pop\n        /* \"#utility.yul\":17130:17134   */\n      dup3\n        /* \"#utility.yul\":17123:17134   */\n      swap8\n      pop\n        /* \"#utility.yul\":17150:17153   */\n      dup8\n        /* \"#utility.yul\":17143:17153   */\n      swap6\n      pop\n        /* \"#utility.yul\":16234:17159   */\n      pop\n      pop\n      pop\n      pop\n      pop\n        /* \"#utility.yul\":16064:17159   */\n      swap3\n      swap2\n      pop\n      pop\n      jump\t// out\n        /* \"#utility.yul\":17165:17630   */\n    tag_74:\n        /* \"#utility.yul\":17354:17358   */\n      0x00\n        /* \"#utility.yul\":17392:17394   */\n      0x20\n        /* \"#utility.yul\":17381:17390   */\n      dup3\n        /* \"#utility.yul\":17377:17395   */\n      add\n        /* \"#utility.yul\":17369:17395   */\n      swap1\n      pop\n        /* \"#utility.yul\":17441:17450   */\n      dup2\n        /* \"#utility.yul\":17435:17439   */\n      dup2\n        /* \"#utility.yul\":17431:17451   */\n      sub\n        /* \"#utility.yul\":17427:17428   */\n      0x00\n        /* \"#utility.yul\":17416:17425   */\n      dup4\n        /* \"#utility.yul\":17412:17429   */\n      add\n        /* \"#utility.yul\":17405:17452   */\n      mstore\n        /* \"#utility.yul\":17469:17623   */\n      tag_528\n        /* \"#utility.yul\":17618:17622   */\n      dup2\n        /* \"#utility.yul\":17609:17615   */\n      dup5\n        /* \"#utility.yul\":17469:17623   */\n      tag_345\n      jump\t// in\n    tag_528:\n        /* \"#utility.yul\":17461:17623   */\n      swap1\n      pop\n        /* \"#utility.yul\":17165:17630   */\n      swap3\n      swap2\n      pop\n      pop\n      jump\t// out\n        /* \"#utility.yul\":17636:18110   */\n    tag_78:\n        /* \"#utility.yul\":17704:17710   */\n      0x00\n        /* \"#utility.yul\":17712:17718   */\n      dup1\n        /* \"#utility.yul\":17761:17763   */\n      0x40\n        /* \"#utility.yul\":17749:17758   */\n      dup4\n        /* \"#utility.yul\":17740:17747   */\n      dup6\n        /* \"#utility.yul\":17736:17759   */\n      sub\n        /* \"#utility.yul\":17732:17764   */\n      slt\n        /* \"#utility.yul\":17729:17848   */\n      iszero\n      tag_530\n      jumpi\n        /* \"#utility.yul\":17767:17846   */\n      tag_531\n      tag_312\n      jump\t// in\n    tag_531:\n        /* \"#utility.yul\":17729:17848   */\n    tag_530:\n        /* \"#utility.yul\":17887:17888   */\n      0x00\n        /* \"#utility.yul\":17912:17965   */\n      tag_532\n        /* \"#utility.yul\":17957:17964   */\n      dup6\n        /* \"#utility.yul\":17948:17954   */\n      dup3\n        /* \"#utility.yul\":17937:17946   */\n      dup7\n        /* \"#utility.yul\":17933:17955   */\n      add\n        /* \"#utility.yul\":17912:17965   */\n      tag_315\n      jump\t// in\n    tag_532:\n        /* \"#utility.yul\":17902:17965   */\n      swap3\n      pop\n        /* \"#utility.yul\":17858:17975   */\n      pop\n        /* \"#utility.yul\":18014:18016   */\n      0x20\n        /* \"#utility.yul\":18040:18093   */\n      tag_533\n        /* \"#utility.yul\":18085:18092   */\n      dup6\n        /* \"#utility.yul\":18076:18082   */\n      dup3\n        /* \"#utility.yul\":18065:18074   */\n      dup7\n        /* \"#utility.yul\":18061:18083   */\n      add\n        /* \"#utility.yul\":18040:18093   */\n      tag_315\n      jump\t// in\n    tag_533:\n        /* \"#utility.yul\":18030:18093   */\n      swap2\n      pop\n        /* \"#utility.yul\":17985:18103   */\n      pop\n        /* \"#utility.yul\":17636:18110   */\n      swap3\n      pop\n      swap3\n      swap1\n      pop\n      jump\t// out\n        /* \"#utility.yul\":18116:18285   */\n    tag_346:\n        /* \"#utility.yul\":18200:18211   */\n      0x00\n        /* \"#utility.yul\":18234:18240   */\n      dup3\n        /* \"#utility.yul\":18229:18232   */\n      dup3\n        /* \"#utility.yul\":18222:18241   */\n      mstore\n        /* \"#utility.yul\":18274:18278   */\n      0x20\n        /* \"#utility.yul\":18269:18272   */\n      dup3\n        /* \"#utility.yul\":18265:18279   */\n      add\n        /* \"#utility.yul\":18250:18279   */\n      swap1\n      pop\n        /* \"#utility.yul\":18116:18285   */\n      swap3\n      swap2\n      pop\n      pop\n      jump\t// out\n        /* \"#utility.yul\":18291:18513   */\n    tag_347:\n        /* \"#utility.yul\":18431:18465   */\n      0x4e6f206974656d20776974682074686520676976656e20696e64657820666f75\n        /* \"#utility.yul\":18427:18428   */\n      0x00\n        /* \"#utility.yul\":18419:18425   */\n      dup3\n        /* \"#utility.yul\":18415:18429   */\n      add\n        /* \"#utility.yul\":18408:18466   */\n      mstore\n        /* \"#utility.yul\":18500:18505   */\n      0x6e642e0000000000000000000000000000000000000000000000000000000000\n        /* \"#utility.yul\":18495:18497   */\n      0x20\n        /* \"#utility.yul\":18487:18493   */\n      dup3\n        /* \"#utility.yul\":18483:18498   */\n      add\n        /* \"#utility.yul\":18476:18506   */\n      mstore\n        /* \"#utility.yul\":18291:18513   */\n      pop\n      jump\t// out\n        /* \"#utility.yul\":18519:18885   */\n    tag_348:\n        /* \"#utility.yul\":18661:18664   */\n      0x00\n        /* \"#utility.yul\":18682:18749   */\n      tag_537\n        /* \"#utility.yul\":18746:18748   */\n      0x23\n        /* \"#utility.yul\":18741:18744   */\n      dup4\n        /* \"#utility.yul\":18682:18749   */\n      tag_346\n      jump\t// in\n    tag_537:\n        /* \"#utility.yul\":18675:18749   */\n      swap2\n      pop\n        /* \"#utility.yul\":18758:18851   */\n      tag_538\n        /* \"#utility.yul\":18847:18850   */\n      dup3\n        /* \"#utility.yul\":18758:18851   */\n      tag_347\n      jump\t// in\n    tag_538:\n        /* \"#utility.yul\":18876:18878   */\n      0x40\n        /* \"#utility.yul\":18871:18874   */\n      dup3\n        /* \"#utility.yul\":18867:18879   */\n      add\n        /* \"#utility.yul\":18860:18879   */\n      swap1\n      pop\n        /* \"#utility.yul\":18519:18885   */\n      swap2\n      swap1\n      pop\n      jump\t// out\n        /* \"#utility.yul\":18891:19310   */\n    tag_94:\n        /* \"#utility.yul\":19057:19061   */\n      0x00\n        /* \"#utility.yul\":19095:19097   */\n      0x20\n        /* \"#utility.yul\":19084:19093   */\n      dup3\n        /* \"#utility.yul\":19080:19098   */\n      add\n        /* \"#utility.yul\":19072:19098   */\n      swap1\n      pop\n        /* \"#utility.yul\":19144:19153   */\n      dup2\n        /* \"#utility.yul\":19138:19142   */\n      dup2\n        /* \"#utility.yul\":19134:19154   */\n      sub\n        /* \"#utility.yul\":19130:19131   */\n      0x00\n        /* \"#utility.yul\":19119:19128   */\n      dup4\n        /* \"#utility.yul\":19115:19132   */\n      add\n        /* \"#utility.yul\":19108:19155   */\n      mstore\n        /* \"#utility.yul\":19172:19303   */\n      tag_540\n        /* \"#utility.yul\":19298:19302   */\n      dup2\n        /* \"#utility.yul\":19172:19303   */\n      tag_348\n      jump\t// in\n    tag_540:\n        /* \"#utility.yul\":19164:19303   */\n      swap1\n      pop\n        /* \"#utility.yul\":18891:19310   */\n      swap2\n      swap1\n      pop\n      jump\t// out\n        /* \"#utility.yul\":19316:19488   */\n    tag_349:\n        /* \"#utility.yul\":19456:19480   */\n      0x416374696f6e206e6f7420617574686f72697a65642e00000000000000000000\n        /* \"#utility.yul\":19452:19453   */\n      0x00\n        /* \"#utility.yul\":19444:19450   */\n      dup3\n        /* \"#utility.yul\":19440:19454   */\n      add\n        /* \"#utility.yul\":19433:19481   */\n      mstore\n        /* \"#utility.yul\":19316:19488   */\n      pop\n      jump\t// out\n        /* \"#utility.yul\":19494:19860   */\n    tag_350:\n        /* \"#utility.yul\":19636:19639   */\n      0x00\n        /* \"#utility.yul\":19657:19724   */\n      tag_543\n        /* \"#utility.yul\":19721:19723   */\n      0x16\n        /* \"#utility.yul\":19716:19719   */\n      dup4\n        /* \"#utility.yul\":19657:19724   */\n      tag_346\n      jump\t// in\n    tag_543:\n        /* \"#utility.yul\":19650:19724   */\n      swap2\n      pop\n        /* \"#utility.yul\":19733:19826   */\n      tag_544\n        /* \"#utility.yul\":19822:19825   */\n      dup3\n        /* \"#utility.yul\":19733:19826   */\n      tag_349\n      jump\t// in\n    tag_544:\n        /* \"#utility.yul\":19851:19853   */\n      0x20\n        /* \"#utility.yul\":19846:19849   */\n      dup3\n        /* \"#utility.yul\":19842:19854   */\n      add\n        /* \"#utility.yul\":19835:19854   */\n      swap1\n      pop\n        /* \"#utility.yul\":19494:19860   */\n      swap2\n      swap1\n      pop\n      jump\t// out\n        /* \"#utility.yul\":19866:20285   */\n    tag_97:\n        /* \"#utility.yul\":20032:20036   */\n      0x00\n        /* \"#utility.yul\":20070:20072   */\n      0x20\n        /* \"#utility.yul\":20059:20068   */\n      dup3\n        /* \"#utility.yul\":20055:20073   */\n      add\n        /* \"#utility.yul\":20047:20073   */\n      swap1\n      pop\n        /* \"#utility.yul\":20119:20128   */\n      dup2\n        /* \"#utility.yul\":20113:20117   */\n      dup2\n        /* \"#utility.yul\":20109:20129   */\n      sub\n        /* \"#utility.yul\":20105:20106   */\n      0x00\n        /* \"#utility.yul\":20094:20103   */\n      dup4\n        /* \"#utility.yul\":20090:20107   */\n      add\n        /* \"#utility.yul\":20083:20130   */\n      mstore\n        /* \"#utility.yul\":20147:20278   */\n      tag_546\n        /* \"#utility.yul\":20273:20277   */\n      dup2\n        /* \"#utility.yul\":20147:20278   */\n      tag_350\n      jump\t// in\n    tag_546:\n        /* \"#utility.yul\":20139:20278   */\n      swap1\n      pop\n        /* \"#utility.yul\":19866:20285   */\n      swap2\n      swap1\n      pop\n      jump\t// out\n        /* \"#utility.yul\":20291:20388   */\n    tag_351:\n        /* \"#utility.yul\":20350:20356   */\n      0x00\n        /* \"#utility.yul\":20378:20381   */\n      dup3\n        /* \"#utility.yul\":20368:20381   */\n      swap1\n      pop\n        /* \"#utility.yul\":20291:20388   */\n      swap3\n      swap2\n      pop\n      pop\n      jump\t// out\n        /* \"#utility.yul\":20394:20574   */\n    tag_227:\n        /* \"#utility.yul\":20442:20519   */\n      0x4e487b7100000000000000000000000000000000000000000000000000000000\n        /* \"#utility.yul\":20439:20440   */\n      0x00\n        /* \"#utility.yul\":20432:20520   */\n      mstore\n        /* \"#utility.yul\":20539:20543   */\n      0x41\n        /* \"#utility.yul\":20536:20537   */\n      0x04\n        /* \"#utility.yul\":20529:20544   */\n      mstore\n        /* \"#utility.yul\":20563:20567   */\n      0x24\n        /* \"#utility.yul\":20560:20561   */\n      0x00\n        /* \"#utility.yul\":20553:20568   */\n      revert\n        /* \"#utility.yul\":20580:20760   */\n    tag_352:\n        /* \"#utility.yul\":20628:20705   */\n      0x4e487b7100000000000000000000000000000000000000000000000000000000\n        /* \"#utility.yul\":20625:20626   */\n      0x00\n        /* \"#utility.yul\":20618:20706   */\n      mstore\n        /* \"#utility.yul\":20725:20729   */\n      0x22\n        /* \"#utility.yul\":20722:20723   */\n      0x04\n        /* \"#utility.yul\":20715:20730   */\n      mstore\n        /* \"#utility.yul\":20749:20753   */\n      0x24\n        /* \"#utility.yul\":20746:20747   */\n      0x00\n        /* \"#utility.yul\":20739:20754   */\n      revert\n        /* \"#utility.yul\":20766:21086   */\n    tag_106:\n        /* \"#utility.yul\":20810:20816   */\n      0x00\n        /* \"#utility.yul\":20847:20848   */\n      0x02\n        /* \"#utility.yul\":20841:20845   */\n      dup3\n        /* \"#utility.yul\":20837:20849   */\n      div\n        /* \"#utility.yul\":20827:20849   */\n      swap1\n      pop\n        /* \"#utility.yul\":20894:20895   */\n      0x01\n        /* \"#utility.yul\":20888:20892   */\n      dup3\n        /* \"#utility.yul\":20884:20896   */\n      and\n        /* \"#utility.yul\":20915:20933   */\n      dup1\n        /* \"#utility.yul\":20905:20986   */\n      tag_551\n      jumpi\n        /* \"#utility.yul\":20971:20975   */\n      0x7f\n        /* \"#utility.yul\":20963:20969   */\n      dup3\n        /* \"#utility.yul\":20959:20976   */\n      and\n        /* \"#utility.yul\":20949:20976   */\n      swap2\n      pop\n        /* \"#utility.yul\":20905:20986   */\n    tag_551:\n        /* \"#utility.yul\":21033:21035   */\n      0x20\n        /* \"#utility.yul\":21025:21031   */\n      dup3\n        /* \"#utility.yul\":21022:21036   */\n      lt\n        /* \"#utility.yul\":21002:21020   */\n      dup2\n        /* \"#utility.yul\":20999:21037   */\n      sub\n        /* \"#utility.yul\":20996:21080   */\n      tag_552\n      jumpi\n        /* \"#utility.yul\":21052:21070   */\n      tag_553\n      tag_352\n      jump\t// in\n    tag_553:\n        /* \"#utility.yul\":20996:21080   */\n    tag_552:\n        /* \"#utility.yul\":20817:21086   */\n      pop\n        /* \"#utility.yul\":20766:21086   */\n      swap2\n      swap1\n      pop\n      jump\t// out\n        /* \"#utility.yul\":21092:21233   */\n    tag_353:\n        /* \"#utility.yul\":21141:21145   */\n      0x00\n        /* \"#utility.yul\":21164:21167   */\n      dup2\n        /* \"#utility.yul\":21156:21167   */\n      swap1\n      pop\n        /* \"#utility.yul\":21187:21190   */\n      dup2\n        /* \"#utility.yul\":21184:21185   */\n      0x00\n        /* \"#utility.yul\":21177:21191   */\n      mstore\n        /* \"#utility.yul\":21221:21225   */\n      0x20\n        /* \"#utility.yul\":21218:21219   */\n      0x00\n        /* \"#utility.yul\":21208:21226   */\n      keccak256\n        /* \"#utility.yul\":21200:21226   */\n      swap1\n      pop\n        /* \"#utility.yul\":21092:21233   */\n      swap2\n      swap1\n      pop\n      jump\t// out\n        /* \"#utility.yul\":21239:21332   */\n    tag_354:\n        /* \"#utility.yul\":21276:21282   */\n      0x00\n        /* \"#utility.yul\":21323:21325   */\n      0x20\n        /* \"#utility.yul\":21318:21320   */\n      0x1f\n        /* \"#utility.yul\":21311:21316   */\n      dup4\n        /* \"#utility.yul\":21307:21321   */\n      add\n        /* \"#utility.yul\":21303:21326   */\n      div\n        /* \"#utility.yul\":21293:21326   */\n      swap1\n      pop\n        /* \"#utility.yul\":21239:21332   */\n      swap2\n      swap1\n      pop\n      jump\t// out\n        /* \"#utility.yul\":21338:21445   */\n    tag_355:\n        /* \"#utility.yul\":21382:21390   */\n      0x00\n        /* \"#utility.yul\":21432:21437   */\n      dup3\n        /* \"#utility.yul\":21426:21430   */\n      dup3\n        /* \"#utility.yul\":21422:21438   */\n      shl\n        /* \"#utility.yul\":21401:21438   */\n      swap1\n      pop\n        /* \"#utility.yul\":21338:21445   */\n      swap3\n      swap2\n      pop\n      pop\n      jump\t// out\n        /* \"#utility.yul\":21451:21844   */\n    tag_356:\n        /* \"#utility.yul\":21520:21526   */\n      0x00\n        /* \"#utility.yul\":21570:21571   */\n      0x08\n        /* \"#utility.yul\":21558:21568   */\n      dup4\n        /* \"#utility.yul\":21554:21572   */\n      mul\n        /* \"#utility.yul\":21593:21690   */\n      tag_558\n        /* \"#utility.yul\":21623:21689   */\n      0xffffffffffffffffffffffffffffffffffffffffffffffffffffffffffffffff\n        /* \"#utility.yul\":21612:21621   */\n      dup3\n        /* \"#utility.yul\":21593:21690   */\n      tag_355\n      jump\t// in\n    tag_558:\n        /* \"#utility.yul\":21711:21750   */\n      tag_559\n        /* \"#utility.yul\":21741:21749   */\n      dup7\n        /* \"#utility.yul\":21730:21739   */\n      dup4\n        /* \"#utility.yul\":21711:21750   */\n      tag_355\n      jump\t// in\n    tag_559:\n        /* \"#utility.yul\":21699:21750   */\n      swap6\n      pop\n        /* \"#utility.yul\":21783:21787   */\n      dup1\n        /* \"#utility.yul\":21779:21788   */\n      not\n        /* \"#utility.yul\":21772:21777   */\n      dup5\n        /* \"#utility.yul\":21768:21789   */\n      and\n        /* \"#utility.yul\":21759:21789   */\n      swap4\n      pop\n        /* \"#utility.yul\":21832:21836   */\n      dup1\n        /* \"#utility.yul\":21822:21830   */\n      dup7\n        /* \"#utility.yul\":21818:21837   */\n      and\n        /* \"#utility.yul\":21811:21816   */\n      dup5\n        /* \"#utility.yul\":21808:21838   */\n      or\n        /* \"#utility.yul\":21798:21838   */\n      swap3\n      pop\n        /* \"#utility.yul\":21527:21844   */\n      pop\n      pop\n        /* \"#utility.yul\":21451:21844   */\n      swap4\n      swap3\n      pop\n      pop\n      pop\n      jump\t// out\n        /* \"#utility.yul\":21850:21910   */\n    tag_357:\n        /* \"#utility.yul\":21878:21881   */\n      0x00\n        /* \"#utility.yul\":21899:21904   */\n      dup2\n        /* \"#utility.yul\":21892:21904   */\n      swap1\n      pop\n        /* \"#utility.yul\":21850:21910   */\n      swap2\n      swap1\n      pop\n      jump\t// out\n        /* \"#utility.yul\":21916:22058   */\n    tag_358:\n        /* \"#utility.yul\":21966:21975   */\n      0x00\n        /* \"#utility.yul\":21999:22052   */\n      tag_562\n        /* \"#utility.yul\":22017:22051   */\n      tag_563\n        /* \"#utility.yul\":22026:22050   */\n      tag_564\n        /* \"#utility.yul\":22044:22049   */\n      dup5\n        /* \"#utility.yul\":22026:22050   */\n      tag_309\n      jump\t// in\n    tag_564:\n        /* \"#utility.yul\":22017:22051   */\n      tag_357\n      jump\t// in\n    tag_563:\n        /* \"#utility.yul\":21999:22052   */\n      tag_309\n      jump\t// in\n    tag_562:\n        /* \"#utility.yul\":21986:22052   */\n      swap1\n      pop\n        /* \"#utility.yul\":21916:22058   */\n      swap2\n      swap1\n      pop\n      jump\t// out\n        /* \"#utility.yul\":22064:22139   */\n    tag_359:\n        /* \"#utility.yul\":22107:22110   */\n      0x00\n        /* \"#utility.yul\":22128:22133   */\n      dup2\n        /* \"#utility.yul\":22121:22133   */\n      swap1\n      pop\n        /* \"#utility.yul\":22064:22139   */\n      swap2\n      swap1\n      pop\n      jump\t// out\n        /* \"#utility.yul\":22145:22414   */\n    tag_360:\n        /* \"#utility.yul\":22255:22294   */\n      tag_567\n        /* \"#utility.yul\":22286:22293   */\n      dup4\n        /* \"#utility.yul\":22255:22294   */\n      tag_358\n      jump\t// in\n    tag_567:\n        /* \"#utility.yul\":22316:22407   */\n      tag_568\n        /* \"#utility.yul\":22365:22406   */\n      tag_569\n        /* \"#utility.yul\":22389:22405   */\n      dup3\n        /* \"#utility.yul\":22365:22406   */\n      tag_359\n      jump\t// in\n    tag_569:\n        /* \"#utility.yul\":22357:22363   */\n      dup5\n        /* \"#utility.yul\":22350:22354   */\n      dup5\n        /* \"#utility.yul\":22344:22355   */\n      sload\n        /* \"#utility.yul\":22316:22407   */\n      tag_356\n      jump\t// in\n    tag_568:\n        /* \"#utility.yul\":22310:22314   */\n      dup3\n        /* \"#utility.yul\":22303:22408   */\n      sstore\n        /* \"#utility.yul\":22221:22414   */\n      pop\n        /* \"#utility.yul\":22145:22414   */\n      pop\n      pop\n      pop\n      jump\t// out\n        /* \"#utility.yul\":22420:22493   */\n    tag_361:\n        /* \"#utility.yul\":22465:22468   */\n      0x00\n        /* \"#utility.yul\":22420:22493   */\n      swap1\n      jump\t// out\n        /* \"#utility.yul\":22499:22688   */\n    tag_362:\n        /* \"#utility.yul\":22576:22608   */\n      tag_572\n      tag_361\n      jump\t// in\n    tag_572:\n        /* \"#utility.yul\":22617:22682   */\n      tag_573\n        /* \"#utility.yul\":22675:22681   */\n      dup2\n        /* \"#utility.yul\":22667:22673   */\n      dup5\n        /* \"#utility.yul\":22661:22665   */\n      dup5\n        /* \"#utility.yul\":22617:22682   */\n      tag_360\n      jump\t// in\n    tag_573:\n        /* \"#utility.yul\":22552:22688   */\n      pop\n        /* \"#utility.yul\":22499:22688   */\n      pop\n      pop\n      jump\t// out\n        /* \"#utility.yul\":22694:22880   */\n    tag_363:\n        /* \"#utility.yul\":22754:22874   */\n    tag_575:\n        /* \"#utility.yul\":22771:22774   */\n      dup2\n        /* \"#utility.yul\":22764:22769   */\n      dup2\n        /* \"#utility.yul\":22761:22775   */\n      lt\n        /* \"#utility.yul\":22754:22874   */\n      iszero\n      tag_577\n      jumpi\n        /* \"#utility.yul\":22825:22864   */\n      tag_578\n        /* \"#utility.yul\":22862:22863   */\n      0x00\n        /* \"#utility.yul\":22855:22860   */\n      dup3\n        /* \"#utility.yul\":22825:22864   */\n      tag_362\n      jump\t// in\n    tag_578:\n        /* \"#utility.yul\":22798:22799   */\n      0x01\n        /* \"#utility.yul\":22791:22796   */\n      dup2\n        /* \"#utility.yul\":22787:22800   */\n      add\n        /* \"#utility.yul\":22778:22800   */\n      swap1\n      pop\n        /* \"#utility.yul\":22754:22874   */\n      jump(tag_575)\n    tag_577:\n        /* \"#utility.yul\":22694:22880   */\n      pop\n      pop\n      jump\t// out\n        /* \"#utility.yul\":22886:23429   */\n    tag_364:\n        /* \"#utility.yul\":22987:22989   */\n      0x1f\n        /* \"#utility.yul\":22982:22985   */\n      dup3\n        /* \"#utility.yul\":22979:22990   */\n      gt\n        /* \"#utility.yul\":22976:23422   */\n      iszero\n      tag_580\n      jumpi\n        /* \"#utility.yul\":23021:23059   */\n      tag_581\n        /* \"#utility.yul\":23053:23058   */\n      dup2\n        /* \"#utility.yul\":23021:23059   */\n      tag_353\n      jump\t// in\n    tag_581:\n        /* \"#utility.yul\":23105:23134   */\n      tag_582\n        /* \"#utility.yul\":23123:23133   */\n      dup5\n        /* \"#utility.yul\":23105:23134   */\n      tag_354\n      jump\t// in\n    tag_582:\n        /* \"#utility.yul\":23095:23103   */\n      dup2\n        /* \"#utility.yul\":23091:23135   */\n      add\n        /* \"#utility.yul\":23288:23290   */\n      0x20\n        /* \"#utility.yul\":23276:23286   */\n      dup6\n        /* \"#utility.yul\":23273:23291   */\n      lt\n        /* \"#utility.yul\":23270:23319   */\n      iszero\n      tag_583\n      jumpi\n        /* \"#utility.yul\":23309:23317   */\n      dup2\n        /* \"#utility.yul\":23294:23317   */\n      swap1\n      pop\n        /* \"#utility.yul\":23270:23319   */\n    tag_583:\n        /* \"#utility.yul\":23332:23412   */\n      tag_584\n        /* \"#utility.yul\":23388:23410   */\n      tag_585\n        /* \"#utility.yul\":23406:23409   */\n      dup6\n        /* \"#utility.yul\":23388:23410   */\n      tag_354\n      jump\t// in\n    tag_585:\n        /* \"#utility.yul\":23378:23386   */\n      dup4\n        /* \"#utility.yul\":23374:23411   */\n      add\n        /* \"#utility.yul\":23361:23372   */\n      dup3\n        /* \"#utility.yul\":23332:23412   */\n      tag_363\n      jump\t// in\n    tag_584:\n        /* \"#utility.yul\":22991:23422   */\n      pop\n      pop\n        /* \"#utility.yul\":22976:23422   */\n    tag_580:\n        /* \"#utility.yul\":22886:23429   */\n      pop\n      pop\n      pop\n      jump\t// out\n        /* \"#utility.yul\":23435:23552   */\n    tag_365:\n        /* \"#utility.yul\":23489:23497   */\n      0x00\n        /* \"#utility.yul\":23539:23544   */\n      dup3\n        /* \"#utility.yul\":23533:23537   */\n      dup3\n        /* \"#utility.yul\":23529:23545   */\n      shr\n        /* \"#utility.yul\":23508:23545   */\n      swap1\n      pop\n        /* \"#utility.yul\":23435:23552   */\n      swap3\n      swap2\n      pop\n      pop\n      jump\t// out\n        /* \"#utility.yul\":23558:23727   */\n    tag_366:\n        /* \"#utility.yul\":23602:23608   */\n      0x00\n        /* \"#utility.yul\":23635:23686   */\n      tag_588\n        /* \"#utility.yul\":23683:23684   */\n      0x00\n        /* \"#utility.yul\":23679:23685   */\n      not\n        /* \"#utility.yul\":23671:23676   */\n      dup5\n        /* \"#utility.yul\":23668:23669   */\n      0x08\n        /* \"#utility.yul\":23664:23677   */\n      mul\n        /* \"#utility.yul\":23635:23686   */\n      tag_365\n      jump\t// in\n    tag_588:\n        /* \"#utility.yul\":23631:23687   */\n      not\n        /* \"#utility.yul\":23716:23720   */\n      dup1\n        /* \"#utility.yul\":23710:23714   */\n      dup4\n        /* \"#utility.yul\":23706:23721   */\n      and\n        /* \"#utility.yul\":23696:23721   */\n      swap2\n      pop\n        /* \"#utility.yul\":23609:23727   */\n      pop\n        /* \"#utility.yul\":23558:23727   */\n      swap3\n      swap2\n      pop\n      pop\n      jump\t// out\n        /* \"#utility.yul\":23732:24027   */\n    tag_367:\n        /* \"#utility.yul\":23808:23812   */\n      0x00\n        /* \"#utility.yul\":23954:23983   */\n      tag_590\n        /* \"#utility.yul\":23979:23982   */\n      dup4\n        /* \"#utility.yul\":23973:23977   */\n      dup4\n        /* \"#utility.yul\":23954:23983   */\n      tag_366\n      jump\t// in\n    tag_590:\n        /* \"#utility.yul\":23946:23983   */\n      swap2\n      pop\n        /* \"#utility.yul\":24016:24019   */\n      dup3\n        /* \"#utility.yul\":24013:24014   */\n      0x02\n        /* \"#utility.yul\":24009:24020   */\n      mul\n        /* \"#utility.yul\":24003:24007   */\n      dup3\n        /* \"#utility.yul\":24000:24021   */\n      or\n        /* \"#utility.yul\":23992:24021   */\n      swap1\n      pop\n        /* \"#utility.yul\":23732:24027   */\n      swap3\n      swap2\n      pop\n      pop\n      jump\t// out\n        /* \"#utility.yul\":24032:25435   */\n    tag_99:\n        /* \"#utility.yul\":24156:24200   */\n      tag_592\n        /* \"#utility.yul\":24196:24199   */\n      dup4\n        /* \"#utility.yul\":24191:24194   */\n      dup4\n        /* \"#utility.yul\":24156:24200   */\n      tag_351\n      jump\t// in\n    tag_592:\n        /* \"#utility.yul\":24265:24283   */\n      0xffffffffffffffff\n        /* \"#utility.yul\":24257:24263   */\n      dup2\n        /* \"#utility.yul\":24254:24284   */\n      gt\n        /* \"#utility.yul\":24251:24307   */\n      iszero\n      tag_593\n      jumpi\n        /* \"#utility.yul\":24287:24305   */\n      tag_594\n      tag_227\n      jump\t// in\n    tag_594:\n        /* \"#utility.yul\":24251:24307   */\n    tag_593:\n        /* \"#utility.yul\":24331:24369   */\n      tag_595\n        /* \"#utility.yul\":24363:24367   */\n      dup3\n        /* \"#utility.yul\":24357:24368   */\n      sload\n        /* \"#utility.yul\":24331:24369   */\n      tag_106\n      jump\t// in\n    tag_595:\n        /* \"#utility.yul\":24416:24483   */\n      tag_596\n        /* \"#utility.yul\":24476:24482   */\n      dup3\n        /* \"#utility.yul\":24468:24474   */\n      dup3\n        /* \"#utility.yul\":24462:24466   */\n      dup6\n        /* \"#utility.yul\":24416:24483   */\n      tag_364\n      jump\t// in\n    tag_596:\n        /* \"#utility.yul\":24510:24511   */\n      0x00\n        /* \"#utility.yul\":24539:24541   */\n      0x1f\n        /* \"#utility.yul\":24531:24537   */\n      dup4\n        /* \"#utility.yul\":24528:24542   */\n      gt\n        /* \"#utility.yul\":24556:24557   */\n      0x01\n        /* \"#utility.yul\":24551:25183   */\n      dup2\n      eq\n      tag_598\n      jumpi\n        /* \"#utility.yul\":25227:25228   */\n      0x00\n        /* \"#utility.yul\":25244:25250   */\n      dup5\n        /* \"#utility.yul\":25241:25325   */\n      iszero\n      tag_599\n      jumpi\n        /* \"#utility.yul\":25300:25309   */\n      dup3\n        /* \"#utility.yul\":25295:25298   */\n      dup8\n        /* \"#utility.yul\":25291:25310   */\n      add\n        /* \"#utility.yul\":25278:25311   */\n      calldataload\n        /* \"#utility.yul\":25269:25311   */\n      swap1\n      pop\n        /* \"#utility.yul\":25241:25325   */\n    tag_599:\n        /* \"#utility.yul\":25351:25418   */\n      tag_600\n        /* \"#utility.yul\":25411:25417   */\n      dup6\n        /* \"#utility.yul\":25404:25409   */\n      dup3\n        /* \"#utility.yul\":25351:25418   */\n      tag_367\n      jump\t// in\n    tag_600:\n        /* \"#utility.yul\":25345:25349   */\n      dup7\n        /* \"#utility.yul\":25338:25419   */\n      sstore\n        /* \"#utility.yul\":25200:25429   */\n      pop\n        /* \"#utility.yul\":24521:25429   */\n      jump(tag_597)\n        /* \"#utility.yul\":24551:25183   */\n    tag_598:\n        /* \"#utility.yul\":24603:24607   */\n      0x1f\n        /* \"#utility.yul\":24599:24608   */\n      not\n        /* \"#utility.yul\":24591:24597   */\n      dup5\n        /* \"#utility.yul\":24587:24609   */\n      and\n        /* \"#utility.yul\":24637:24674   */\n      tag_601\n        /* \"#utility.yul\":24669:24673   */\n      dup7\n        /* \"#utility.yul\":24637:24674   */\n      tag_353\n      jump\t// in\n    tag_601:\n        /* \"#utility.yul\":24696:24697   */\n      0x00\n        /* \"#utility.yul\":24710:24925   */\n    tag_602:\n        /* \"#utility.yul\":24724:24731   */\n      dup3\n        /* \"#utility.yul\":24721:24722   */\n      dup2\n        /* \"#utility.yul\":24718:24732   */\n      lt\n        /* \"#utility.yul\":24710:24925   */\n      iszero\n      tag_604\n      jumpi\n        /* \"#utility.yul\":24810:24819   */\n      dup5\n        /* \"#utility.yul\":24805:24808   */\n      dup10\n        /* \"#utility.yul\":24801:24820   */\n      add\n        /* \"#utility.yul\":24788:24821   */\n      calldataload\n        /* \"#utility.yul\":24780:24786   */\n      dup3\n        /* \"#utility.yul\":24773:24822   */\n      sstore\n        /* \"#utility.yul\":24861:24862   */\n      0x01\n        /* \"#utility.yul\":24853:24859   */\n      dup3\n        /* \"#utility.yul\":24849:24863   */\n      add\n        /* \"#utility.yul\":24839:24863   */\n      swap2\n      pop\n        /* \"#utility.yul\":24908:24910   */\n      0x20\n        /* \"#utility.yul\":24897:24906   */\n      dup6\n        /* \"#utility.yul\":24893:24911   */\n      add\n        /* \"#utility.yul\":24880:24911   */\n      swap5\n      pop\n        /* \"#utility.yul\":24747:24751   */\n      0x20\n        /* \"#utility.yul\":24744:24745   */\n      dup2\n        /* \"#utility.yul\":24740:24752   */\n      add\n        /* \"#utility.yul\":24735:24752   */\n      swap1\n      pop\n        /* \"#utility.yul\":24710:24925   */\n      jump(tag_602)\n    tag_604:\n        /* \"#utility.yul\":24953:24959   */\n      dup7\n        /* \"#utility.yul\":24944:24951   */\n      dup4\n        /* \"#utility.yul\":24941:24960   */\n      lt\n        /* \"#utility.yul\":24938:25124   */\n      iszero\n      tag_605\n      jumpi\n        /* \"#utility.yul\":25018:25027   */\n      dup5\n        /* \"#utility.yul\":25013:25016   */\n      dup10\n        /* \"#utility.yul\":25009:25028   */\n      add\n        /* \"#utility.yul\":24996:25029   */\n      calldataload\n        /* \"#utility.yul\":25061:25109   */\n      tag_606\n        /* \"#utility.yul\":25103:25107   */\n      0x1f\n        /* \"#utility.yul\":25095:25101   */\n      dup10\n        /* \"#utility.yul\":25091:25108   */\n      and\n        /* \"#utility.yul\":25080:25089   */\n      dup3\n        /* \"#utility.yul\":25061:25109   */\n      tag_366\n      jump\t// in\n    tag_606:\n        /* \"#utility.yul\":25053:25059   */\n      dup4\n        /* \"#utility.yul\":25046:25110   */\n      sstore\n        /* \"#utility.yul\":24961:25124   */\n      pop\n        /* \"#utility.yul\":24938:25124   */\n    tag_605:\n        /* \"#utility.yul\":25170:25171   */\n      0x01\n        /* \"#utility.yul\":25166:25167   */\n      0x02\n        /* \"#utility.yul\":25158:25164   */\n      dup9\n        /* \"#utility.yul\":25154:25168   */\n      mul\n        /* \"#utility.yul\":25150:25172   */\n      add\n        /* \"#utility.yul\":25144:25148   */\n      dup9\n        /* \"#utility.yul\":25137:25173   */\n      sstore\n        /* \"#utility.yul\":24558:25183   */\n      pop\n      pop\n      pop\n        /* \"#utility.yul\":24521:25429   */\n    tag_597:\n      pop\n        /* \"#utility.yul\":24131:25435   */\n      pop\n      pop\n      pop\n        /* \"#utility.yul\":24032:25435   */\n      pop\n      pop\n      pop\n      jump\t// out\n        /* \"#utility.yul\":25441:25673   */\n    tag_368:\n        /* \"#utility.yul\":25581:25615   */\n      0x4f6e6c7920617574686f72697a656420706572736f6e656c2063616e20616464\n        /* \"#utility.yul\":25577:25578   */\n      0x00\n        /* \"#utility.yul\":25569:25575   */\n      dup3\n        /* \"#utility.yul\":25565:25579   */\n      add\n        /* \"#utility.yul\":25558:25616   */\n      mstore\n        /* \"#utility.yul\":25650:25665   */\n      0x206e657720656e74726965732e00000000000000000000000000000000000000\n        /* \"#utility.yul\":25645:25647   */\n      0x20\n        /* \"#utility.yul\":25637:25643   */\n      dup3\n        /* \"#utility.yul\":25633:25648   */\n      add\n        /* \"#utility.yul\":25626:25666   */\n      mstore\n        /* \"#utility.yul\":25441:25673   */\n      pop\n      jump\t// out\n        /* \"#utility.yul\":25679:26045   */\n    tag_369:\n        /* \"#utility.yul\":25821:25824   */\n      0x00\n        /* \"#utility.yul\":25842:25909   */\n      tag_609\n        /* \"#utility.yul\":25906:25908   */\n      0x2d\n        /* \"#utility.yul\":25901:25904   */\n      dup4\n        /* \"#utility.yul\":25842:25909   */\n      tag_346\n      jump\t// in\n    tag_609:\n        /* \"#utility.yul\":25835:25909   */\n      swap2\n      pop\n        /* \"#utility.yul\":25918:26011   */\n      tag_610\n        /* \"#utility.yul\":26007:26010   */\n      dup3\n        /* \"#utility.yul\":25918:26011   */\n      tag_368\n      jump\t// in\n    tag_610:\n        /* \"#utility.yul\":26036:26038   */\n      0x40\n        /* \"#utility.yul\":26031:26034   */\n      dup3\n        /* \"#utility.yul\":26027:26039   */\n      add\n        /* \"#utility.yul\":26020:26039   */\n      swap1\n      pop\n        /* \"#utility.yul\":25679:26045   */\n      swap2\n      swap1\n      pop\n      jump\t// out\n        /* \"#utility.yul\":26051:26470   */\n    tag_130:\n        /* \"#utility.yul\":26217:26221   */\n      0x00\n        /* \"#utility.yul\":26255:26257   */\n      0x20\n        /* \"#utility.yul\":26244:26253   */\n      dup3\n        /* \"#utility.yul\":26240:26258   */\n      add\n        /* \"#utility.yul\":26232:26258   */\n      swap1\n      pop\n        /* \"#utility.yul\":26304:26313   */\n      dup2\n        /* \"#utility.yul\":26298:26302   */\n      dup2\n        /* \"#utility.yul\":26294:26314   */\n      sub\n        /* \"#utility.yul\":26290:26291   */\n      0x00\n        /* \"#utility.yul\":26279:26288   */\n      dup4\n        /* \"#utility.yul\":26275:26292   */\n      add\n        /* \"#utility.yul\":26268:26315   */\n      mstore\n        /* \"#utility.yul\":26332:26463   */\n      tag_612\n        /* \"#utility.yul\":26458:26462   */\n      dup2\n        /* \"#utility.yul\":26332:26463   */\n      tag_369\n      jump\t// in\n    tag_612:\n        /* \"#utility.yul\":26324:26463   */\n      swap1\n      pop\n        /* \"#utility.yul\":26051:26470   */\n      swap2\n      swap1\n      pop\n      jump\t// out\n        /* \"#utility.yul\":26476:26645   */\n    tag_370:\n        /* \"#utility.yul\":26616:26637   */\n      0x4e6f2066756e647320617661696c61626c652e00000000000000000000000000\n        /* \"#utility.yul\":26612:26613   */\n      0x00\n        /* \"#utility.yul\":26604:26610   */\n      dup3\n        /* \"#utility.yul\":26600:26614   */\n      add\n        /* \"#utility.yul\":26593:26638   */\n      mstore\n        /* \"#utility.yul\":26476:26645   */\n      pop\n      jump\t// out\n        /* \"#utility.yul\":26651:27017   */\n    tag_371:\n        /* \"#utility.yul\":26793:26796   */\n      0x00\n        /* \"#utility.yul\":26814:26881   */\n      tag_615\n        /* \"#utility.yul\":26878:26880   */\n      0x13\n        /* \"#utility.yul\":26873:26876   */\n      dup4\n        /* \"#utility.yul\":26814:26881   */\n      tag_346\n      jump\t// in\n    tag_615:\n        /* \"#utility.yul\":26807:26881   */\n      swap2\n      pop\n        /* \"#utility.yul\":26890:26983   */\n      tag_616\n        /* \"#utility.yul\":26979:26982   */\n      dup3\n        /* \"#utility.yul\":26890:26983   */\n      tag_370\n      jump\t// in\n    tag_616:\n        /* \"#utility.yul\":27008:27010   */\n      0x20\n        /* \"#utility.yul\":27003:27006   */\n      dup3\n        /* \"#utility.yul\":26999:27011   */\n      add\n        /* \"#utility.yul\":26992:27011   */\n      swap1\n      pop\n        /* \"#utility.yul\":26651:27017   */\n      swap2\n      swap1\n      pop\n      jump\t// out\n        /* \"#utility.yul\":27023:27442   */\n    tag_134:\n        /* \"#utility.yul\":27189:27193   */\n      0x00\n        /* \"#utility.yul\":27227:27229   */\n      0x20\n        /* \"#utility.yul\":27216:27225   */\n      dup3\n        /* \"#utility.yul\":27212:27230   */\n      add\n        /* \"#utility.yul\":27204:27230   */\n      swap1\n      pop\n        /* \"#utility.yul\":27276:27285   */\n      dup2\n        /* \"#utility.yul\":27270:27274   */\n      dup2\n        /* \"#utility.yul\":27266:27286   */\n      sub\n        /* \"#utility.yul\":27262:27263   */\n      0x00\n        /* \"#utility.yul\":27251:27260   */\n      dup4\n        /* \"#utility.yul\":27247:27264   */\n      add\n        /* \"#utility.yul\":27240:27287   */\n      mstore\n        /* \"#utility.yul\":27304:27435   */\n      tag_618\n        /* \"#utility.yul\":27430:27434   */\n      dup2\n        /* \"#utility.yul\":27304:27435   */\n      tag_371\n      jump\t// in\n    tag_618:\n        /* \"#utility.yul\":27296:27435   */\n      swap1\n      pop\n        /* \"#utility.yul\":27023:27442   */\n      swap2\n      swap1\n      pop\n      jump\t// out\n        /* \"#utility.yul\":27448:27620   */\n    tag_372:\n        /* \"#utility.yul\":27588:27612   */\n      0x496e636f72726563742072656e6577616c206665652e00000000000000000000\n        /* \"#utility.yul\":27584:27585   */\n      0x00\n        /* \"#utility.yul\":27576:27582   */\n      dup3\n        /* \"#utility.yul\":27572:27586   */\n      add\n        /* \"#utility.yul\":27565:27613   */\n      mstore\n        /* \"#utility.yul\":27448:27620   */\n      pop\n      jump\t// out\n        /* \"#utility.yul\":27626:27992   */\n    tag_373:\n        /* \"#utility.yul\":27768:27771   */\n      0x00\n        /* \"#utility.yul\":27789:27856   */\n      tag_621\n        /* \"#utility.yul\":27853:27855   */\n      0x16\n        /* \"#utility.yul\":27848:27851   */\n      dup4\n        /* \"#utility.yul\":27789:27856   */\n      tag_346\n      jump\t// in\n    tag_621:\n        /* \"#utility.yul\":27782:27856   */\n      swap2\n      pop\n        /* \"#utility.yul\":27865:27958   */\n      tag_622\n        /* \"#utility.yul\":27954:27957   */\n      dup3\n        /* \"#utility.yul\":27865:27958   */\n      tag_372\n      jump\t// in\n    tag_622:\n        /* \"#utility.yul\":27983:27985   */\n      0x20\n        /* \"#utility.yul\":27978:27981   */\n      dup3\n        /* \"#utility.yul\":27974:27986   */\n      add\n        /* \"#utility.yul\":27967:27986   */\n      swap1\n      pop\n        /* \"#utility.yul\":27626:27992   */\n      swap2\n      swap1\n      pop\n      jump\t// out\n        /* \"#utility.yul\":27998:28417   */\n    tag_160:\n        /* \"#utility.yul\":28164:28168   */\n      0x00\n        /* \"#utility.yul\":28202:28204   */\n      0x20\n        /* \"#utility.yul\":28191:28200   */\n      dup3\n        /* \"#utility.yul\":28187:28205   */\n      add\n        /* \"#utility.yul\":28179:28205   */\n      swap1\n      pop\n        /* \"#utility.yul\":28251:28260   */\n      dup2\n        /* \"#utility.yul\":28245:28249   */\n      dup2\n        /* \"#utility.yul\":28241:28261   */\n      sub\n        /* \"#utility.yul\":28237:28238   */\n      0x00\n        /* \"#utility.yul\":28226:28235   */\n      dup4\n        /* \"#utility.yul\":28222:28239   */\n      add\n        /* \"#utility.yul\":28215:28262   */\n      mstore\n        /* \"#utility.yul\":28279:28410   */\n      tag_624\n        /* \"#utility.yul\":28405:28409   */\n      dup2\n        /* \"#utility.yul\":28279:28410   */\n      tag_373\n      jump\t// in\n    tag_624:\n        /* \"#utility.yul\":28271:28410   */\n      swap1\n      pop\n        /* \"#utility.yul\":27998:28417   */\n      swap2\n      swap1\n      pop\n      jump\t// out\n        /* \"#utility.yul\":28423:28603   */\n    tag_374:\n        /* \"#utility.yul\":28471:28548   */\n      0x4e487b7100000000000000000000000000000000000000000000000000000000\n        /* \"#utility.yul\":28468:28469   */\n      0x00\n        /* \"#utility.yul\":28461:28549   */\n      mstore\n        /* \"#utility.yul\":28568:28572   */\n      0x11\n        /* \"#utility.yul\":28565:28566   */\n      0x04\n        /* \"#utility.yul\":28558:28573   */\n      mstore\n        /* \"#utility.yul\":28592:28596   */\n      0x24\n        /* \"#utility.yul\":28589:28590   */\n      0x00\n        /* \"#utility.yul\":28582:28597   */\n      revert\n        /* \"#utility.yul\":28609:28800   */\n    tag_181:\n        /* \"#utility.yul\":28649:28652   */\n      0x00\n        /* \"#utility.yul\":28668:28688   */\n      tag_627\n        /* \"#utility.yul\":28686:28687   */\n      dup3\n        /* \"#utility.yul\":28668:28688   */\n      tag_309\n      jump\t// in\n    tag_627:\n        /* \"#utility.yul\":28663:28688   */\n      swap2\n      pop\n        /* \"#utility.yul\":28702:28722   */\n      tag_628\n        /* \"#utility.yul\":28720:28721   */\n      dup4\n        /* \"#utility.yul\":28702:28722   */\n      tag_309\n      jump\t// in\n    tag_628:\n        /* \"#utility.yul\":28697:28722   */\n      swap3\n      pop\n        /* \"#utility.yul\":28745:28746   */\n      dup3\n        /* \"#utility.yul\":28742:28743   */\n      dup3\n        /* \"#utility.yul\":28738:28747   */\n      add\n        /* \"#utility.yul\":28731:28747   */\n      swap1\n      pop\n        /* \"#utility.yul\":28766:28769   */\n      dup1\n        /* \"#utility.yul\":28763:28764   */\n      dup3\n        /* \"#utility.yul\":28760:28770   */\n      gt\n        /* \"#utility.yul\":28757:28793   */\n      iszero\n      tag_629\n      jumpi\n        /* \"#utility.yul\":28773:28791   */\n      tag_630\n      tag_374\n      jump\t// in\n    tag_630:\n        /* \"#utility.yul\":28757:28793   */\n    tag_629:\n        /* \"#utility.yul\":28609:28800   */\n      swap3\n      swap2\n      pop\n      pop\n      jump\t// out\n        /* \"#utility.yul\":28806:28979   */\n    tag_375:\n        /* \"#utility.yul\":28946:28971   */\n      0x496e636f7272656374206372656174696f6e206665652e000000000000000000\n        /* \"#utility.yul\":28942:28943   */\n      0x00\n        /* \"#utility.yul\":28934:28940   */\n      dup3\n        /* \"#utility.yul\":28930:28944   */\n      add\n        /* \"#utility.yul\":28923:28972   */\n      mstore\n        /* \"#utility.yul\":28806:28979   */\n      pop\n      jump\t// out\n        /* \"#utility.yul\":28985:29351   */\n    tag_376:\n        /* \"#utility.yul\":29127:29130   */\n      0x00\n        /* \"#utility.yul\":29148:29215   */\n      tag_633\n        /* \"#utility.yul\":29212:29214   */\n      0x17\n        /* \"#utility.yul\":29207:29210   */\n      dup4\n        /* \"#utility.yul\":29148:29215   */\n      tag_346\n      jump\t// in\n    tag_633:\n        /* \"#utility.yul\":29141:29215   */\n      swap2\n      pop\n        /* \"#utility.yul\":29224:29317   */\n      tag_634\n        /* \"#utility.yul\":29313:29316   */\n      dup3\n        /* \"#utility.yul\":29224:29317   */\n      tag_375\n      jump\t// in\n    tag_634:\n        /* \"#utility.yul\":29342:29344   */\n      0x20\n        /* \"#utility.yul\":29337:29340   */\n      dup3\n        /* \"#utility.yul\":29333:29345   */\n      add\n        /* \"#utility.yul\":29326:29345   */\n      swap1\n      pop\n        /* \"#utility.yul\":28985:29351   */\n      swap2\n      swap1\n      pop\n      jump\t// out\n        /* \"#utility.yul\":29357:29776   */\n    tag_185:\n        /* \"#utility.yul\":29523:29527   */\n      0x00\n        /* \"#utility.yul\":29561:29563   */\n      0x20\n        /* \"#utility.yul\":29550:29559   */\n      dup3\n        /* \"#utility.yul\":29546:29564   */\n      add\n        /* \"#utility.yul\":29538:29564   */\n      swap1\n      pop\n        /* \"#utility.yul\":29610:29619   */\n      dup2\n        /* \"#utility.yul\":29604:29608   */\n      dup2\n        /* \"#utility.yul\":29600:29620   */\n      sub\n        /* \"#utility.yul\":29596:29597   */\n      0x00\n        /* \"#utility.yul\":29585:29594   */\n      dup4\n        /* \"#utility.yul\":29581:29598   */\n      add\n        /* \"#utility.yul\":29574:29621   */\n      mstore\n        /* \"#utility.yul\":29638:29769   */\n      tag_636\n        /* \"#utility.yul\":29764:29768   */\n      dup2\n        /* \"#utility.yul\":29638:29769   */\n      tag_376\n      jump\t// in\n    tag_636:\n        /* \"#utility.yul\":29630:29769   */\n      swap1\n      pop\n        /* \"#utility.yul\":29357:29776   */\n      swap2\n      swap1\n      pop\n      jump\t// out\n        /* \"#utility.yul\":29782:31177   */\n    tag_190:\n        /* \"#utility.yul\":29899:29936   */\n      tag_638\n        /* \"#utility.yul\":29932:29935   */\n      dup3\n        /* \"#utility.yul\":29899:29936   */\n      tag_326\n      jump\t// in\n    tag_638:\n        /* \"#utility.yul\":30001:30019   */\n      0xffffffffffffffff\n        /* \"#utility.yul\":29993:29999   */\n      dup2\n        /* \"#utility.yul\":29990:30020   */\n      gt\n        /* \"#utility.yul\":29987:30043   */\n      iszero\n      tag_639\n      jumpi\n        /* \"#utility.yul\":30023:30041   */\n      tag_640\n      tag_227\n      jump\t// in\n    tag_640:\n        /* \"#utility.yul\":29987:30043   */\n    tag_639:\n        /* \"#utility.yul\":30067:30105   */\n      tag_641\n        /* \"#utility.yul\":30099:30103   */\n      dup3\n        /* \"#utility.yul\":30093:30104   */\n      sload\n        /* \"#utility.yul\":30067:30105   */\n      tag_106\n      jump\t// in\n    tag_641:\n        /* \"#utility.yul\":30152:30219   */\n      tag_642\n        /* \"#utility.yul\":30212:30218   */\n      dup3\n        /* \"#utility.yul\":30204:30210   */\n      dup3\n        /* \"#utility.yul\":30198:30202   */\n      dup6\n        /* \"#utility.yul\":30152:30219   */\n      tag_364\n      jump\t// in\n    tag_642:\n        /* \"#utility.yul\":30246:30247   */\n      0x00\n        /* \"#utility.yul\":30270:30274   */\n      0x20\n        /* \"#utility.yul\":30257:30274   */\n      swap1\n      pop\n        /* \"#utility.yul\":30302:30304   */\n      0x1f\n        /* \"#utility.yul\":30294:30300   */\n      dup4\n        /* \"#utility.yul\":30291:30305   */\n      gt\n        /* \"#utility.yul\":30319:30320   */\n      0x01\n        /* \"#utility.yul\":30314:30932   */\n      dup2\n      eq\n      tag_644\n      jumpi\n        /* \"#utility.yul\":30976:30977   */\n      0x00\n        /* \"#utility.yul\":30993:30999   */\n      dup5\n        /* \"#utility.yul\":30990:31067   */\n      iszero\n      tag_645\n      jumpi\n        /* \"#utility.yul\":31042:31051   */\n      dup3\n        /* \"#utility.yul\":31037:31040   */\n      dup8\n        /* \"#utility.yul\":31033:31052   */\n      add\n        /* \"#utility.yul\":31027:31053   */\n      mload\n        /* \"#utility.yul\":31018:31053   */\n      swap1\n      pop\n        /* \"#utility.yul\":30990:31067   */\n    tag_645:\n        /* \"#utility.yul\":31093:31160   */\n      tag_646\n        /* \"#utility.yul\":31153:31159   */\n      dup6\n        /* \"#utility.yul\":31146:31151   */\n      dup3\n        /* \"#utility.yul\":31093:31160   */\n      tag_367\n      jump\t// in\n    tag_646:\n        /* \"#utility.yul\":31087:31091   */\n      dup7\n        /* \"#utility.yul\":31080:31161   */\n      sstore\n        /* \"#utility.yul\":30949:31171   */\n      pop\n        /* \"#utility.yul\":30284:31171   */\n      jump(tag_643)\n        /* \"#utility.yul\":30314:30932   */\n    tag_644:\n        /* \"#utility.yul\":30366:30370   */\n      0x1f\n        /* \"#utility.yul\":30362:30371   */\n      not\n        /* \"#utility.yul\":30354:30360   */\n      dup5\n        /* \"#utility.yul\":30350:30372   */\n      and\n        /* \"#utility.yul\":30400:30437   */\n      tag_647\n        /* \"#utility.yul\":30432:30436   */\n      dup7\n        /* \"#utility.yul\":30400:30437   */\n      tag_353\n      jump\t// in\n    tag_647:\n        /* \"#utility.yul\":30459:30460   */\n      0x00\n        /* \"#utility.yul\":30473:30681   */\n    tag_648:\n        /* \"#utility.yul\":30487:30494   */\n      dup3\n        /* \"#utility.yul\":30484:30485   */\n      dup2\n        /* \"#utility.yul\":30481:30495   */\n      lt\n        /* \"#utility.yul\":30473:30681   */\n      iszero\n      tag_650\n      jumpi\n        /* \"#utility.yul\":30566:30575   */\n      dup5\n        /* \"#utility.yul\":30561:30564   */\n      dup10\n        /* \"#utility.yul\":30557:30576   */\n      add\n        /* \"#utility.yul\":30551:30577   */\n      mload\n        /* \"#utility.yul\":30543:30549   */\n      dup3\n        /* \"#utility.yul\":30536:30578   */\n      sstore\n        /* \"#utility.yul\":30617:30618   */\n      0x01\n        /* \"#utility.yul\":30609:30615   */\n      dup3\n        /* \"#utility.yul\":30605:30619   */\n      add\n        /* \"#utility.yul\":30595:30619   */\n      swap2\n      pop\n        /* \"#utility.yul\":30664:30666   */\n      0x20\n        /* \"#utility.yul\":30653:30662   */\n      dup6\n        /* \"#utility.yul\":30649:30667   */\n      add\n        /* \"#utility.yul\":30636:30667   */\n      swap5\n      pop\n        /* \"#utility.yul\":30510:30514   */\n      0x20\n        /* \"#utility.yul\":30507:30508   */\n      dup2\n        /* \"#utility.yul\":30503:30515   */\n      add\n        /* \"#utility.yul\":30498:30515   */\n      swap1\n      pop\n        /* \"#utility.yul\":30473:30681   */\n      jump(tag_648)\n    tag_650:\n        /* \"#utility.yul\":30709:30715   */\n      dup7\n        /* \"#utility.yul\":30700:30707   */\n      dup4\n        /* \"#utility.yul\":30697:30716   */\n      lt\n        /* \"#utility.yul\":30694:30873   */\n      iszero\n      tag_651\n      jumpi\n        /* \"#utility.yul\":30767:30776   */\n      dup5\n        /* \"#utility.yul\":30762:30765   */\n      dup10\n        /* \"#utility.yul\":30758:30777   */\n      add\n        /* \"#utility.yul\":30752:30778   */\n      mload\n        /* \"#utility.yul\":30810:30858   */\n      tag_652\n        /* \"#utility.yul\":30852:30856   */\n      0x1f\n        /* \"#utility.yul\":30844:30850   */\n      dup10\n        /* \"#utility.yul\":30840:30857   */\n      and\n        /* \"#utility.yul\":30829:30838   */\n      dup3\n        /* \"#utility.yul\":30810:30858   */\n      tag_366\n      jump\t// in\n    tag_652:\n        /* \"#utility.yul\":30802:30808   */\n      dup4\n        /* \"#utility.yul\":30795:30859   */\n      sstore\n        /* \"#utility.yul\":30717:30873   */\n      pop\n        /* \"#utility.yul\":30694:30873   */\n    tag_651:\n        /* \"#utility.yul\":30919:30920   */\n      0x01\n        /* \"#utility.yul\":30915:30916   */\n      0x02\n        /* \"#utility.yul\":30907:30913   */\n      dup9\n        /* \"#utility.yul\":30903:30917   */\n      mul\n        /* \"#utility.yul\":30899:30921   */\n      add\n        /* \"#utility.yul\":30893:30897   */\n      dup9\n        /* \"#utility.yul\":30886:30922   */\n      sstore\n        /* \"#utility.yul\":30321:30932   */\n      pop\n      pop\n      pop\n        /* \"#utility.yul\":30284:31171   */\n    tag_643:\n      pop\n        /* \"#utility.yul\":29874:31177   */\n      pop\n      pop\n      pop\n        /* \"#utility.yul\":29782:31177   */\n      pop\n      pop\n      jump\t// out\n        /* \"#utility.yul\":31183:31363   */\n    tag_255:\n        /* \"#utility.yul\":31231:31308   */\n      0x4e487b7100000000000000000000000000000000000000000000000000000000\n        /* \"#utility.yul\":31228:31229   */\n      0x00\n        /* \"#utility.yul\":31221:31309   */\n      mstore\n        /* \"#utility.yul\":31328:31332   */\n      0x32\n        /* \"#utility.yul\":31325:31326   */\n      0x04\n        /* \"#utility.yul\":31318:31333   */\n      mstore\n        /* \"#utility.yul\":31352:31356   */\n      0x24\n        /* \"#utility.yul\":31349:31350   */\n      0x00\n        /* \"#utility.yul\":31342:31357   */\n      revert\n        /* \"#utility.yul\":31369:31602   */\n    tag_257:\n        /* \"#utility.yul\":31408:31411   */\n      0x00\n        /* \"#utility.yul\":31431:31455   */\n      tag_655\n        /* \"#utility.yul\":31449:31454   */\n      dup3\n        /* \"#utility.yul\":31431:31455   */\n      tag_309\n      jump\t// in\n    tag_655:\n        /* \"#utility.yul\":31422:31455   */\n      swap2\n      pop\n        /* \"#utility.yul\":31477:31543   */\n      0xffffffffffffffffffffffffffffffffffffffffffffffffffffffffffffffff\n        /* \"#utility.yul\":31470:31475   */\n      dup3\n        /* \"#utility.yul\":31467:31544   */\n      sub\n        /* \"#utility.yul\":31464:31567   */\n      tag_656\n      jumpi\n        /* \"#utility.yul\":31547:31565   */\n      tag_657\n      tag_374\n      jump\t// in\n    tag_657:\n        /* \"#utility.yul\":31464:31567   */\n    tag_656:\n        /* \"#utility.yul\":31594:31595   */\n      0x01\n        /* \"#utility.yul\":31587:31592   */\n      dup3\n        /* \"#utility.yul\":31583:31596   */\n      add\n        /* \"#utility.yul\":31576:31596   */\n      swap1\n      pop\n        /* \"#utility.yul\":31369:31602   */\n      swap2\n      swap1\n      pop\n      jump\t// out\n        /* \"#utility.yul\":31608:31779   */\n    tag_295:\n        /* \"#utility.yul\":31647:31650   */\n      0x00\n        /* \"#utility.yul\":31670:31694   */\n      tag_659\n        /* \"#utility.yul\":31688:31693   */\n      dup3\n        /* \"#utility.yul\":31670:31694   */\n      tag_309\n      jump\t// in\n    tag_659:\n        /* \"#utility.yul\":31661:31694   */\n      swap2\n      pop\n        /* \"#utility.yul\":31716:31720   */\n      0x00\n        /* \"#utility.yul\":31709:31714   */\n      dup3\n        /* \"#utility.yul\":31706:31721   */\n      sub\n        /* \"#utility.yul\":31703:31744   */\n      tag_660\n      jumpi\n        /* \"#utility.yul\":31724:31742   */\n      tag_661\n      tag_374\n      jump\t// in\n    tag_661:\n        /* \"#utility.yul\":31703:31744   */\n    tag_660:\n        /* \"#utility.yul\":31771:31772   */\n      0x01\n        /* \"#utility.yul\":31764:31769   */\n      dup3\n        /* \"#utility.yul\":31760:31773   */\n      sub\n        /* \"#utility.yul\":31753:31773   */\n      swap1\n      pop\n        /* \"#utility.yul\":31608:31779   */\n      swap2\n      swap1\n      pop\n      jump\t// out\n\n    auxdata: 0xa2646970667358221220507bb9567f668394baeabf29321997842a63e0860e11ca8b6d916e8e12091b6264736f6c634300081a0033\n}\n",
				"bytecode": {
					"linkReferences": {},
					"object": "60806040525f805566038d7ea4c680006004556601c6bf526340006005553480156027575f80fd5b503360015f6101000a81548173ffffffffffffffffffffffffffffffffffffffff021916908373ffffffffffffffffffffffffffffffffffffffff160217905550612f50806100755f395ff3fe6080604052600436106100e7575f3560e01c80635f020a1e1161008957806399f4b2511161005857806399f4b251146102a3578063cdb3deb6146102cd578063d35a2a9f14610309578063dce0b4e414610333576100e7565b80635f020a1e146101fb5780636fa23795146102175780637e0c194f1461023f5780639507d39a14610267576100e7565b80634cc82215116100c55780634cc822151461016757806351cff8d91461018f57806356df3db1146101b75780635baa7509146101df576100e7565b806306661abd146100eb578063080b301e146101155780634cba0eae1461013f575b5f80fd5b3480156100f6575f80fd5b506100ff61035d565b60405161010c9190611f7a565b60405180910390f35b348015610120575f80fd5b50610129610365565b6040516101369190611f7a565b60405180910390f35b34801561014a575f80fd5b506101656004803603810190610160919061207b565b61036b565b005b348015610172575f80fd5b5061018d60048036038101906101889190612185565b6104cf565b005b34801561019a575f80fd5b506101b560048036038101906101b0919061220a565b6107f0565b005b3480156101c2575f80fd5b506101dd60048036038101906101d89190612235565b61090d565b005b6101f960048036038101906101f49190612185565b610c60565b005b61021560048036038101906102109190612273565b610fe9565b005b348015610222575f80fd5b5061023d60048036038101906102389190612185565b6112ed565b005b34801561024a575f80fd5b5061026560048036038101906102609190612185565b611386565b005b348015610272575f80fd5b5061028d60048036038101906102889190612185565b61141f565b60405161029a9190612576565b60405180910390f35b3480156102ae575f80fd5b506102b76116cd565b6040516102c49190612728565b60405180910390f35b3480156102d8575f80fd5b506102f360048036038101906102ee9190612748565b611a9e565b6040516103009190612728565b60405180910390f35b348015610314575f80fd5b5061031d611e18565b60405161032a9190611f7a565b60405180910390f35b34801561033e575f80fd5b50610347611e1e565b6040516103549190611f7a565b60405180910390f35b5f8054905090565b60055481565b5f548a10158061037c57505f548a11155b6103bb576040517f08c379a00000000000000000000000000000000000000000000000000000000081526004016103b290612806565b60405180910390fd5b5f60025f8c81526020019081526020015f2090503373ffffffffffffffffffffffffffffffffffffffff16816008015f9054906101000a900473ffffffffffffffffffffffffffffffffffffffff1673ffffffffffffffffffffffffffffffffffffffff1614610460576040517f08c379a00000000000000000000000000000000000000000000000000000000081526004016104579061286e565b60405180910390fd5b8989826001019182610473929190612abd565b508787826002019182610487929190612abd565b50858582600301918261049b929190612abd565b5042816005018190555083816006018190555082828260070191906104c1929190611e54565b505050505050505050505050565b5f60025f8381526020019081526020015f20604051806101200160405290815f8201548152602001600182018054610506906128f0565b80601f0160208091040260200160405190810160405280929190818152602001828054610532906128f0565b801561057d5780601f106105545761010080835404028352916020019161057d565b820191905f5260205f20905b81548152906001019060200180831161056057829003601f168201915b50505050508152602001600282018054610596906128f0565b80601f01602080910402602001604051908101604052809291908181526020018280546105c2906128f0565b801561060d5780601f106105e45761010080835404028352916020019161060d565b820191905f5260205f20905b8154815290600101906020018083116105f057829003601f168201915b50505050508152602001600382018054610626906128f0565b80601f0160208091040260200160405190810160405280929190818152602001828054610652906128f0565b801561069d5780601f106106745761010080835404028352916020019161069d565b820191905f5260205f20905b81548152906001019060200180831161068057829003601f168201915b505050505081526020016004820154815260200160058201548152602001600682015481526020016007820180548060200260200160405190810160405280929190818152602001828054801561071157602002820191905f5260205f20905b8154815260200190600101908083116106fd575b50505050508152602001600882015f9054906101000a900473ffffffffffffffffffffffffffffffffffffffff1673ffffffffffffffffffffffffffffffffffffffff1673ffffffffffffffffffffffffffffffffffffffff168152505090503373ffffffffffffffffffffffffffffffffffffffff1681610100015173ffffffffffffffffffffffffffffffffffffffff16146107e4576040517f08c379a00000000000000000000000000000000000000000000000000000000081526004016107db9061286e565b60405180910390fd5b6107ec611e24565b5050565b3373ffffffffffffffffffffffffffffffffffffffff1660015f9054906101000a900473ffffffffffffffffffffffffffffffffffffffff1673ffffffffffffffffffffffffffffffffffffffff161461087f576040517f08c379a000000000000000000000000000000000000000000000000000000000815260040161087690612bfa565b60405180910390fd5b5f4790505f81116108c5576040517f08c379a00000000000000000000000000000000000000000000000000000000081526004016108bc90612c62565b60405180910390fd5b8173ffffffffffffffffffffffffffffffffffffffff166108fc8290811502906040515f60405180830381858888f19350505050158015610908573d5f803e3d5ffd5b505050565b5f60025f8381526020019081526020015f20604051806101200160405290815f8201548152602001600182018054610944906128f0565b80601f0160208091040260200160405190810160405280929190818152602001828054610970906128f0565b80156109bb5780601f10610992576101008083540402835291602001916109bb565b820191905f5260205f20905b81548152906001019060200180831161099e57829003601f168201915b505050505081526020016002820180546109d4906128f0565b80601f0160208091040260200160405190810160405280929190818152602001828054610a00906128f0565b8015610a4b5780601f10610a2257610100808354040283529160200191610a4b565b820191905f5260205f20905b815481529060010190602001808311610a2e57829003601f168201915b50505050508152602001600382018054610a64906128f0565b80601f0160208091040260200160405190810160405280929190818152602001828054610a90906128f0565b8015610adb5780601f10610ab257610100808354040283529160200191610adb565b820191905f5260205f20905b815481529060010190602001808311610abe57829003601f168201915b5050505050815260200160048201548152602001600582015481526020016006820154815260200160078201805480602002602001604051908101604052809291908181526020018280548015610b4f57602002820191905f5260205f20905b815481526020019060010190808311610b3b575b50505050508152602001600882015f9054906101000a900473ffffffffffffffffffffffffffffffffffffffff1673ffffffffffffffffffffffffffffffffffffffff1673ffffffffffffffffffffffffffffffffffffffff168152505090503373ffffffffffffffffffffffffffffffffffffffff1681610100015173ffffffffffffffffffffffffffffffffffffffff1614610c22576040517f08c379a0000000000000000000000000000000000000000000000000000000008152600401610c199061286e565b60405180910390fd5b8281610100019073ffffffffffffffffffffffffffffffffffffffff16908173ffffffffffffffffffffffffffffffffffffffff1681525050505050565b6005543414610ca4576040517f08c379a0000000000000000000000000000000000000000000000000000000008152600401610c9b90612cca565b60405180910390fd5b5f60025f8381526020019081526020015f20604051806101200160405290815f8201548152602001600182018054610cdb906128f0565b80601f0160208091040260200160405190810160405280929190818152602001828054610d07906128f0565b8015610d525780601f10610d2957610100808354040283529160200191610d52565b820191905f5260205f20905b815481529060010190602001808311610d3557829003601f168201915b50505050508152602001600282018054610d6b906128f0565b80601f0160208091040260200160405190810160405280929190818152602001828054610d97906128f0565b8015610de25780601f10610db957610100808354040283529160200191610de2565b820191905f5260205f20905b815481529060010190602001808311610dc557829003601f168201915b50505050508152602001600382018054610dfb906128f0565b80601f0160208091040260200160405190810160405280929190818152602001828054610e27906128f0565b8015610e725780601f10610e4957610100808354040283529160200191610e72565b820191905f5260205f20905b815481529060010190602001808311610e5557829003601f168201915b5050505050815260200160048201548152602001600582015481526020016006820154815260200160078201805480602002602001604051908101604052809291908181526020018280548015610ee657602002820191905f5260205f20905b815481526020019060010190808311610ed2575b50505050508152602001600882015f9054906101000a900473ffffffffffffffffffffffffffffffffffffffff1673ffffffffffffffffffffffffffffffffffffffff1673ffffffffffffffffffffffffffffffffffffffff168152505090503373ffffffffffffffffffffffffffffffffffffffff1681610100015173ffffffffffffffffffffffffffffffffffffffff1614610fb9576040517f08c379a0000000000000000000000000000000000000000000000000000000008152600401610fb09061286e565b60405180910390fd5b3460065f828254610fca9190612d15565b9250508190555042816080018181525050428160a00181815250505050565b600454341461102d576040517f08c379a000000000000000000000000000000000000000000000000000000000815260040161102490612d92565b60405180910390fd5b3460065f82825461103e9190612d15565b9250508190555061104d611e3c565b6040518061012001604052805f5481526020018a8a8080601f0160208091040260200160405190810160405280939291908181526020018383808284375f81840152601f19601f82011690508083019250505050505050815260200188888080601f0160208091040260200160405190810160405280939291908181526020018383808284375f81840152601f19601f82011690508083019250505050505050815260200186868080601f0160208091040260200160405190810160405280939291908181526020018383808284375f81840152601f19601f8201169050808301925050505050505081526020014281526020014281526020018481526020018383808060200260200160405190810160405280939291908181526020018383602002808284375f81840152601f19601f8201169050808301925050505050505081526020013373ffffffffffffffffffffffffffffffffffffffff1681525060025f805481526020019081526020015f205f820151815f015560208201518160010190816111dc9190612db0565b5060408201518160020190816111f29190612db0565b5060608201518160030190816112089190612db0565b506080820151816004015560a0820151816005015560c0820151816006015560e0820151816007019080519060200190611243929190611e9f565b50610100820151816008015f6101000a81548173ffffffffffffffffffffffffffffffffffffffff021916908373ffffffffffffffffffffffffffffffffffffffff160217905550905050600160035f3373ffffffffffffffffffffffffffffffffffffffff1673ffffffffffffffffffffffffffffffffffffffff1681526020019081526020015f205f8282546112db9190612d15565b92505081905550505050505050505050565b3373ffffffffffffffffffffffffffffffffffffffff1660015f9054906101000a900473ffffffffffffffffffffffffffffffffffffffff1673ffffffffffffffffffffffffffffffffffffffff161461137c576040517f08c379a000000000000000000000000000000000000000000000000000000000815260040161137390612bfa565b60405180910390fd5b8060048190555050565b3373ffffffffffffffffffffffffffffffffffffffff1660015f9054906101000a900473ffffffffffffffffffffffffffffffffffffffff1673ffffffffffffffffffffffffffffffffffffffff1614611415576040517f08c379a000000000000000000000000000000000000000000000000000000000815260040161140c90612bfa565b60405180910390fd5b8060058190555050565b611427611eea565b60025f8381526020019081526020015f20604051806101200160405290815f820154815260200160018201805461145d906128f0565b80601f0160208091040260200160405190810160405280929190818152602001828054611489906128f0565b80156114d45780601f106114ab576101008083540402835291602001916114d4565b820191905f5260205f20905b8154815290600101906020018083116114b757829003601f168201915b505050505081526020016002820180546114ed906128f0565b80601f0160208091040260200160405190810160405280929190818152602001828054611519906128f0565b80156115645780601f1061153b57610100808354040283529160200191611564565b820191905f5260205f20905b81548152906001019060200180831161154757829003601f168201915b5050505050815260200160038201805461157d906128f0565b80601f01602080910402602001604051908101604052809291908181526020018280546115a9906128f0565b80156115f45780601f106115cb576101008083540402835291602001916115f4565b820191905f5260205f20905b8154815290600101906020018083116115d757829003601f168201915b505050505081526020016004820154815260200160058201548152602001600682015481526020016007820180548060200260200160405190810160405280929190818152602001828054801561166857602002820191905f5260205f20905b815481526020019060010190808311611654575b50505050508152602001600882015f9054906101000a900473ffffffffffffffffffffffffffffffffffffffff1673ffffffffffffffffffffffffffffffffffffffff1673ffffffffffffffffffffffffffffffffffffffff16815250509050919050565b60605f60035f3373ffffffffffffffffffffffffffffffffffffffff1673ffffffffffffffffffffffffffffffffffffffff1681526020019081526020015f205490505f8167ffffffffffffffff81111561172b5761172a612896565b5b60405190808252806020026020018201604052801561176457816020015b611751611eea565b8152602001906001900390816117495790505b5090505f805b83811015611a94575f60025f6001846117839190612d15565b81526020019081526020015f20604051806101200160405290815f82015481526020016001820180546117b5906128f0565b80601f01602080910402602001604051908101604052809291908181526020018280546117e1906128f0565b801561182c5780601f106118035761010080835404028352916020019161182c565b820191905f5260205f20905b81548152906001019060200180831161180f57829003601f168201915b50505050508152602001600282018054611845906128f0565b80601f0160208091040260200160405190810160405280929190818152602001828054611871906128f0565b80156118bc5780601f10611893576101008083540402835291602001916118bc565b820191905f5260205f20905b81548152906001019060200180831161189f57829003601f168201915b505050505081526020016003820180546118d5906128f0565b80601f0160208091040260200160405190810160405280929190818152602001828054611901906128f0565b801561194c5780601f106119235761010080835404028352916020019161194c565b820191905f5260205f20905b81548152906001019060200180831161192f57829003601f168201915b50505050508152602001600482015481526020016005820154815260200160068201548152602001600782018054806020026020016040519081016040528092919081815260200182805480156119c057602002820191905f5260205f20905b8154815260200190600101908083116119ac575b50505050508152602001600882015f9054906101000a900473ffffffffffffffffffffffffffffffffffffffff1673ffffffffffffffffffffffffffffffffffffffff1673ffffffffffffffffffffffffffffffffffffffff168152505090503373ffffffffffffffffffffffffffffffffffffffff1681610100015173ffffffffffffffffffffffffffffffffffffffff1603611a865780848481518110611a6c57611a6b612e7f565b5b60200260200101819052508280611a8290612eac565b9350505b50808060010191505061176a565b5081935050505090565b60605f54831015611aaf5782611ab2565b5f545b92505f821115611ad2575f548211611aca5781611acd565b5f545b611ad5565b60015b91505f8367ffffffffffffffff811115611af257611af1612896565b5b604051908082528060200260200182016040528015611b2b57816020015b611b18611eea565b815260200190600190039081611b105790505b5090505f5b84811015611e0d5760025f8583611b479190612d15565b81526020019081526020015f20604051806101200160405290815f8201548152602001600182018054611b79906128f0565b80601f0160208091040260200160405190810160405280929190818152602001828054611ba5906128f0565b8015611bf05780601f10611bc757610100808354040283529160200191611bf0565b820191905f5260205f20905b815481529060010190602001808311611bd357829003601f168201915b50505050508152602001600282018054611c09906128f0565b80601f0160208091040260200160405190810160405280929190818152602001828054611c35906128f0565b8015611c805780601f10611c5757610100808354040283529160200191611c80565b820191905f5260205f20905b815481529060010190602001808311611c6357829003601f168201915b50505050508152602001600382018054611c99906128f0565b80601f0160208091040260200160405190810160405280929190818152602001828054611cc5906128f0565b8015611d105780601f10611ce757610100808354040283529160200191611d10565b820191905f5260205f20905b815481529060010190602001808311611cf357829003601f168201915b5050505050815260200160048201548152602001600582015481526020016006820154815260200160078201805480602002602001604051908101604052809291908181526020018280548015611d8457602002820191905f5260205f20905b815481526020019060010190808311611d70575b50505050508152602001600882015f9054906101000a900473ffffffffffffffffffffffffffffffffffffffff1673ffffffffffffffffffffffffffffffffffffffff1673ffffffffffffffffffffffffffffffffffffffff1681525050828281518110611df557611df4612e7f565b5b60200260200101819052508080600101915050611b30565b508091505092915050565b60065481565b60045481565b5f80815480929190611e3590612ef3565b9190505550565b5f80815480929190611e4d90612eac565b9190505550565b828054828255905f5260205f20908101928215611e8e579160200282015b82811115611e8d578235825591602001919060010190611e72565b5b509050611e9b9190611f47565b5090565b828054828255905f5260205f20908101928215611ed9579160200282015b82811115611ed8578251825591602001919060010190611ebd565b5b509050611ee69190611f47565b5090565b6040518061012001604052805f81526020016060815260200160608152602001606081526020015f81526020015f81526020015f8152602001606081526020015f73ffffffffffffffffffffffffffffffffffffffff1681525090565b5b80821115611f5e575f815f905550600101611f48565b5090565b5f819050919050565b611f7481611f62565b82525050565b5f602082019050611f8d5f830184611f6b565b92915050565b5f80fd5b5f80fd5b611fa481611f62565b8114611fae575f80fd5b50565b5f81359050611fbf81611f9b565b92915050565b5f80fd5b5f80fd5b5f80fd5b5f8083601f840112611fe657611fe5611fc5565b5b8235905067ffffffffffffffff81111561200357612002611fc9565b5b60208301915083600182028301111561201f5761201e611fcd565b5b9250929050565b5f8083601f84011261203b5761203a611fc5565b5b8235905067ffffffffffffffff81111561205857612057611fc9565b5b60208301915083602082028301111561207457612073611fcd565b5b9250929050565b5f805f805f805f805f8060c08b8d03121561209957612098611f93565b5b5f6120a68d828e01611fb1565b9a505060208b013567ffffffffffffffff8111156120c7576120c6611f97565b5b6120d38d828e01611fd1565b995099505060408b013567ffffffffffffffff8111156120f6576120f5611f97565b5b6121028d828e01611fd1565b975097505060608b013567ffffffffffffffff81111561212557612124611f97565b5b6121318d828e01611fd1565b955095505060806121448d828e01611fb1565b93505060a08b013567ffffffffffffffff81111561216557612164611f97565b5b6121718d828e01612026565b92509250509295989b9194979a5092959850565b5f6020828403121561219a57612199611f93565b5b5f6121a784828501611fb1565b91505092915050565b5f73ffffffffffffffffffffffffffffffffffffffff82169050919050565b5f6121d9826121b0565b9050919050565b6121e9816121cf565b81146121f3575f80fd5b50565b5f81359050612204816121e0565b92915050565b5f6020828403121561221f5761221e611f93565b5b5f61222c848285016121f6565b91505092915050565b5f806040838503121561224b5761224a611f93565b5b5f612258858286016121f6565b925050602061226985828601611fb1565b9150509250929050565b5f805f805f805f805f60a08a8c0312156122905761228f611f93565b5b5f8a013567ffffffffffffffff8111156122ad576122ac611f97565b5b6122b98c828d01611fd1565b995099505060208a013567ffffffffffffffff8111156122dc576122db611f97565b5b6122e88c828d01611fd1565b975097505060408a013567ffffffffffffffff81111561230b5761230a611f97565b5b6123178c828d01611fd1565b9550955050606061232a8c828d01611fb1565b93505060808a013567ffffffffffffffff81111561234b5761234a611f97565b5b6123578c828d01612026565b92509250509295985092959850929598565b61237281611f62565b82525050565b5f81519050919050565b5f82825260208201905092915050565b8281835e5f83830152505050565b5f601f19601f8301169050919050565b5f6123ba82612378565b6123c48185612382565b93506123d4818560208601612392565b6123dd816123a0565b840191505092915050565b5f81519050919050565b5f82825260208201905092915050565b5f819050602082019050919050565b5f61241c8383612369565b60208301905092915050565b5f602082019050919050565b5f61243e826123e8565b61244881856123f2565b935061245383612402565b805f5b8381101561248357815161246a8882612411565b975061247583612428565b925050600181019050612456565b5085935050505092915050565b612499816121cf565b82525050565b5f61012083015f8301516124b55f860182612369565b50602083015184820360208601526124cd82826123b0565b915050604083015184820360408601526124e782826123b0565b9150506060830151848203606086015261250182826123b0565b91505060808301516125166080860182612369565b5060a083015161252960a0860182612369565b5060c083015161253c60c0860182612369565b5060e083015184820360e08601526125548282612434565b91505061010083015161256b610100860182612490565b508091505092915050565b5f6020820190508181035f83015261258e818461249f565b905092915050565b5f81519050919050565b5f82825260208201905092915050565b5f819050602082019050919050565b5f61012083015f8301516125d55f860182612369565b50602083015184820360208601526125ed82826123b0565b9150506040830151848203604086015261260782826123b0565b9150506060830151848203606086015261262182826123b0565b91505060808301516126366080860182612369565b5060a083015161264960a0860182612369565b5060c083015161265c60c0860182612369565b5060e083015184820360e08601526126748282612434565b91505061010083015161268b610100860182612490565b508091505092915050565b5f6126a183836125bf565b905092915050565b5f602082019050919050565b5f6126bf82612596565b6126c981856125a0565b9350836020820285016126db856125b0565b805f5b8581101561271657848403895281516126f78582612696565b9450612702836126a9565b925060208a019950506001810190506126de565b50829750879550505050505092915050565b5f6020820190508181035f83015261274081846126b5565b905092915050565b5f806040838503121561275e5761275d611f93565b5b5f61276b85828601611fb1565b925050602061277c85828601611fb1565b9150509250929050565b5f82825260208201905092915050565b7f4e6f206974656d20776974682074686520676976656e20696e64657820666f755f8201527f6e642e0000000000000000000000000000000000000000000000000000000000602082015250565b5f6127f0602383612786565b91506127fb82612796565b604082019050919050565b5f6020820190508181035f83015261281d816127e4565b9050919050565b7f416374696f6e206e6f7420617574686f72697a65642e000000000000000000005f82015250565b5f612858601683612786565b915061286382612824565b602082019050919050565b5f6020820190508181035f8301526128858161284c565b9050919050565b5f82905092915050565b7f4e487b71000000000000000000000000000000000000000000000000000000005f52604160045260245ffd5b7f4e487b71000000000000000000000000000000000000000000000000000000005f52602260045260245ffd5b5f600282049050600182168061290757607f821691505b60208210810361291a576129196128c3565b5b50919050565b5f819050815f5260205f209050919050565b5f6020601f8301049050919050565b5f82821b905092915050565b5f6008830261297c7fffffffffffffffffffffffffffffffffffffffffffffffffffffffffffffffff82612941565b6129868683612941565b95508019841693508086168417925050509392505050565b5f819050919050565b5f6129c16129bc6129b784611f62565b61299e565b611f62565b9050919050565b5f819050919050565b6129da836129a7565b6129ee6129e6826129c8565b84845461294d565b825550505050565b5f90565b612a026129f6565b612a0d8184846129d1565b505050565b5b81811015612a3057612a255f826129fa565b600181019050612a13565b5050565b601f821115612a7557612a4681612920565b612a4f84612932565b81016020851015612a5e578190505b612a72612a6a85612932565b830182612a12565b50505b505050565b5f82821c905092915050565b5f612a955f1984600802612a7a565b1980831691505092915050565b5f612aad8383612a86565b9150826002028217905092915050565b612ac7838361288c565b67ffffffffffffffff811115612ae057612adf612896565b5b612aea82546128f0565b612af5828285612a34565b5f601f831160018114612b22575f8415612b10578287013590505b612b1a8582612aa2565b865550612b81565b601f198416612b3086612920565b5f5b82811015612b5757848901358255600182019150602085019450602081019050612b32565b86831015612b745784890135612b70601f891682612a86565b8355505b6001600288020188555050505b50505050505050565b7f4f6e6c7920617574686f72697a656420706572736f6e656c2063616e206164645f8201527f206e657720656e74726965732e00000000000000000000000000000000000000602082015250565b5f612be4602d83612786565b9150612bef82612b8a565b604082019050919050565b5f6020820190508181035f830152612c1181612bd8565b9050919050565b7f4e6f2066756e647320617661696c61626c652e000000000000000000000000005f82015250565b5f612c4c601383612786565b9150612c5782612c18565b602082019050919050565b5f6020820190508181035f830152612c7981612c40565b9050919050565b7f496e636f72726563742072656e6577616c206665652e000000000000000000005f82015250565b5f612cb4601683612786565b9150612cbf82612c80565b602082019050919050565b5f6020820190508181035f830152612ce181612ca8565b9050919050565b7f4e487b71000000000000000000000000000000000000000000000000000000005f52601160045260245ffd5b5f612d1f82611f62565b9150612d2a83611f62565b9250828201905080821115612d4257612d41612ce8565b5b92915050565b7f496e636f7272656374206372656174696f6e206665652e0000000000000000005f82015250565b5f612d7c601783612786565b9150612d8782612d48565b602082019050919050565b5f6020820190508181035f830152612da981612d70565b9050919050565b612db982612378565b67ffffffffffffffff811115612dd257612dd1612896565b5b612ddc82546128f0565b612de7828285612a34565b5f60209050601f831160018114612e18575f8415612e06578287015190505b612e108582612aa2565b865550612e77565b601f198416612e2686612920565b5f5b82811015612e4d57848901518255600182019150602085019450602081019050612e28565b86831015612e6a5784890151612e66601f891682612a86565b8355505b6001600288020188555050505b505050505050565b7f4e487b71000000000000000000000000000000000000000000000000000000005f52603260045260245ffd5b5f612eb682611f62565b91507fffffffffffffffffffffffffffffffffffffffffffffffffffffffffffffffff8203612ee857612ee7612ce8565b5b600182019050919050565b5f612efd82611f62565b91505f8203612f0f57612f0e612ce8565b5b60018203905091905056fea2646970667358221220507bb9567f668394baeabf29321997842a63e0860e11ca8b6d916e8e12091b6264736f6c634300081a0033",
					"opcodes": "PUSH1 0x80 PUSH1 0x40 MSTORE PUSH0 DUP1 SSTORE PUSH7 0x38D7EA4C68000 PUSH1 0x4 SSTORE PUSH7 0x1C6BF52634000 PUSH1 0x5 SSTORE CALLVALUE DUP1 ISZERO PUSH1 0x27 JUMPI PUSH0 DUP1 REVERT JUMPDEST POP CALLER PUSH1 0x1 PUSH0 PUSH2 0x100 EXP DUP2 SLOAD DUP2 PUSH20 0xFFFFFFFFFFFFFFFFFFFFFFFFFFFFFFFFFFFFFFFF MUL NOT AND SWAP1 DUP4 PUSH20 0xFFFFFFFFFFFFFFFFFFFFFFFFFFFFFFFFFFFFFFFF AND MUL OR SWAP1 SSTORE POP PUSH2 0x2F50 DUP1 PUSH2 0x75 PUSH0 CODECOPY PUSH0 RETURN INVALID PUSH1 0x80 PUSH1 0x40 MSTORE PUSH1 0x4 CALLDATASIZE LT PUSH2 0xE7 JUMPI PUSH0 CALLDATALOAD PUSH1 0xE0 SHR DUP1 PUSH4 0x5F020A1E GT PUSH2 0x89 JUMPI DUP1 PUSH4 0x99F4B251 GT PUSH2 0x58 JUMPI DUP1 PUSH4 0x99F4B251 EQ PUSH2 0x2A3 JUMPI DUP1 PUSH4 0xCDB3DEB6 EQ PUSH2 0x2CD JUMPI DUP1 PUSH4 0xD35A2A9F EQ PUSH2 0x309 JUMPI DUP1 PUSH4 0xDCE0B4E4 EQ PUSH2 0x333 JUMPI PUSH2 0xE7 JUMP JUMPDEST DUP1 PUSH4 0x5F020A1E EQ PUSH2 0x1FB JUMPI DUP1 PUSH4 0x6FA23795 EQ PUSH2 0x217 JUMPI DUP1 PUSH4 0x7E0C194F EQ PUSH2 0x23F JUMPI DUP1 PUSH4 0x9507D39A EQ PUSH2 0x267 JUMPI PUSH2 0xE7 JUMP JUMPDEST DUP1 PUSH4 0x4CC82215 GT PUSH2 0xC5 JUMPI DUP1 PUSH4 0x4CC82215 EQ PUSH2 0x167 JUMPI DUP1 PUSH4 0x51CFF8D9 EQ PUSH2 0x18F JUMPI DUP1 PUSH4 0x56DF3DB1 EQ PUSH2 0x1B7 JUMPI DUP1 PUSH4 0x5BAA7509 EQ PUSH2 0x1DF JUMPI PUSH2 0xE7 JUMP JUMPDEST DUP1 PUSH4 0x6661ABD EQ PUSH2 0xEB JUMPI DUP1 PUSH4 0x80B301E EQ PUSH2 0x115 JUMPI DUP1 PUSH4 0x4CBA0EAE EQ PUSH2 0x13F JUMPI JUMPDEST PUSH0 DUP1 REVERT JUMPDEST CALLVALUE DUP1 ISZERO PUSH2 0xF6 JUMPI PUSH0 DUP1 REVERT JUMPDEST POP PUSH2 0xFF PUSH2 0x35D JUMP JUMPDEST PUSH1 0x40 MLOAD PUSH2 0x10C SWAP2 SWAP1 PUSH2 0x1F7A JUMP JUMPDEST PUSH1 0x40 MLOAD DUP1 SWAP2 SUB SWAP1 RETURN JUMPDEST CALLVALUE DUP1 ISZERO PUSH2 0x120 JUMPI PUSH0 DUP1 REVERT JUMPDEST POP PUSH2 0x129 PUSH2 0x365 JUMP JUMPDEST PUSH1 0x40 MLOAD PUSH2 0x136 SWAP2 SWAP1 PUSH2 0x1F7A JUMP JUMPDEST PUSH1 0x40 MLOAD DUP1 SWAP2 SUB SWAP1 RETURN JUMPDEST CALLVALUE DUP1 ISZERO PUSH2 0x14A JUMPI PUSH0 DUP1 REVERT JUMPDEST POP PUSH2 0x165 PUSH1 0x4 DUP1 CALLDATASIZE SUB DUP2 ADD SWAP1 PUSH2 0x160 SWAP2 SWAP1 PUSH2 0x207B JUMP JUMPDEST PUSH2 0x36B JUMP JUMPDEST STOP JUMPDEST CALLVALUE DUP1 ISZERO PUSH2 0x172 JUMPI PUSH0 DUP1 REVERT JUMPDEST POP PUSH2 0x18D PUSH1 0x4 DUP1 CALLDATASIZE SUB DUP2 ADD SWAP1 PUSH2 0x188 SWAP2 SWAP1 PUSH2 0x2185 JUMP JUMPDEST PUSH2 0x4CF JUMP JUMPDEST STOP JUMPDEST CALLVALUE DUP1 ISZERO PUSH2 0x19A JUMPI PUSH0 DUP1 REVERT JUMPDEST POP PUSH2 0x1B5 PUSH1 0x4 DUP1 CALLDATASIZE SUB DUP2 ADD SWAP1 PUSH2 0x1B0 SWAP2 SWAP1 PUSH2 0x220A JUMP JUMPDEST PUSH2 0x7F0 JUMP JUMPDEST STOP JUMPDEST CALLVALUE DUP1 ISZERO PUSH2 0x1C2 JUMPI PUSH0 DUP1 REVERT JUMPDEST POP PUSH2 0x1DD PUSH1 0x4 DUP1 CALLDATASIZE SUB DUP2 ADD SWAP1 PUSH2 0x1D8 SWAP2 SWAP1 PUSH2 0x2235 JUMP JUMPDEST PUSH2 0x90D JUMP JUMPDEST STOP JUMPDEST PUSH2 0x1F9 PUSH1 0x4 DUP1 CALLDATASIZE SUB DUP2 ADD SWAP1 PUSH2 0x1F4 SWAP2 SWAP1 PUSH2 0x2185 JUMP JUMPDEST PUSH2 0xC60 JUMP JUMPDEST STOP JUMPDEST PUSH2 0x215 PUSH1 0x4 DUP1 CALLDATASIZE SUB DUP2 ADD SWAP1 PUSH2 0x210 SWAP2 SWAP1 PUSH2 0x2273 JUMP JUMPDEST PUSH2 0xFE9 JUMP JUMPDEST STOP JUMPDEST CALLVALUE DUP1 ISZERO PUSH2 0x222 JUMPI PUSH0 DUP1 REVERT JUMPDEST POP PUSH2 0x23D PUSH1 0x4 DUP1 CALLDATASIZE SUB DUP2 ADD SWAP1 PUSH2 0x238 SWAP2 SWAP1 PUSH2 0x2185 JUMP JUMPDEST PUSH2 0x12ED JUMP JUMPDEST STOP JUMPDEST CALLVALUE DUP1 ISZERO PUSH2 0x24A JUMPI PUSH0 DUP1 REVERT JUMPDEST POP PUSH2 0x265 PUSH1 0x4 DUP1 CALLDATASIZE SUB DUP2 ADD SWAP1 PUSH2 0x260 SWAP2 SWAP1 PUSH2 0x2185 JUMP JUMPDEST PUSH2 0x1386 JUMP JUMPDEST STOP JUMPDEST CALLVALUE DUP1 ISZERO PUSH2 0x272 JUMPI PUSH0 DUP1 REVERT JUMPDEST POP PUSH2 0x28D PUSH1 0x4 DUP1 CALLDATASIZE SUB DUP2 ADD SWAP1 PUSH2 0x288 SWAP2 SWAP1 PUSH2 0x2185 JUMP JUMPDEST PUSH2 0x141F JUMP JUMPDEST PUSH1 0x40 MLOAD PUSH2 0x29A SWAP2 SWAP1 PUSH2 0x2576 JUMP JUMPDEST PUSH1 0x40 MLOAD DUP1 SWAP2 SUB SWAP1 RETURN JUMPDEST CALLVALUE DUP1 ISZERO PUSH2 0x2AE JUMPI PUSH0 DUP1 REVERT JUMPDEST POP PUSH2 0x2B7 PUSH2 0x16CD JUMP JUMPDEST PUSH1 0x40 MLOAD PUSH2 0x2C4 SWAP2 SWAP1 PUSH2 0x2728 JUMP JUMPDEST PUSH1 0x40 MLOAD DUP1 SWAP2 SUB SWAP1 RETURN JUMPDEST CALLVALUE DUP1 ISZERO PUSH2 0x2D8 JUMPI PUSH0 DUP1 REVERT JUMPDEST POP PUSH2 0x2F3 PUSH1 0x4 DUP1 CALLDATASIZE SUB DUP2 ADD SWAP1 PUSH2 0x2EE SWAP2 SWAP1 PUSH2 0x2748 JUMP JUMPDEST PUSH2 0x1A9E JUMP JUMPDEST PUSH1 0x40 MLOAD PUSH2 0x300 SWAP2 SWAP1 PUSH2 0x2728 JUMP JUMPDEST PUSH1 0x40 MLOAD DUP1 SWAP2 SUB SWAP1 RETURN JUMPDEST CALLVALUE DUP1 ISZERO PUSH2 0x314 JUMPI PUSH0 DUP1 REVERT JUMPDEST POP PUSH2 0x31D PUSH2 0x1E18 JUMP JUMPDEST PUSH1 0x40 MLOAD PUSH2 0x32A SWAP2 SWAP1 PUSH2 0x1F7A JUMP JUMPDEST PUSH1 0x40 MLOAD DUP1 SWAP2 SUB SWAP1 RETURN JUMPDEST CALLVALUE DUP1 ISZERO PUSH2 0x33E JUMPI PUSH0 DUP1 REVERT JUMPDEST POP PUSH2 0x347 PUSH2 0x1E1E JUMP JUMPDEST PUSH1 0x40 MLOAD PUSH2 0x354 SWAP2 SWAP1 PUSH2 0x1F7A JUMP JUMPDEST PUSH1 0x40 MLOAD DUP1 SWAP2 SUB SWAP1 RETURN JUMPDEST PUSH0 DUP1 SLOAD SWAP1 POP SWAP1 JUMP JUMPDEST PUSH1 0x5 SLOAD DUP2 JUMP JUMPDEST PUSH0 SLOAD DUP11 LT ISZERO DUP1 PUSH2 0x37C JUMPI POP PUSH0 SLOAD DUP11 GT ISZERO JUMPDEST PUSH2 0x3BB JUMPI PUSH1 0x40 MLOAD PUSH32 0x8C379A000000000000000000000000000000000000000000000000000000000 DUP2 MSTORE PUSH1 0x4 ADD PUSH2 0x3B2 SWAP1 PUSH2 0x2806 JUMP JUMPDEST PUSH1 0x40 MLOAD DUP1 SWAP2 SUB SWAP1 REVERT JUMPDEST PUSH0 PUSH1 0x2 PUSH0 DUP13 DUP2 MSTORE PUSH1 0x20 ADD SWAP1 DUP2 MSTORE PUSH1 0x20 ADD PUSH0 KECCAK256 SWAP1 POP CALLER PUSH20 0xFFFFFFFFFFFFFFFFFFFFFFFFFFFFFFFFFFFFFFFF AND DUP2 PUSH1 0x8 ADD PUSH0 SWAP1 SLOAD SWAP1 PUSH2 0x100 EXP SWAP1 DIV PUSH20 0xFFFFFFFFFFFFFFFFFFFFFFFFFFFFFFFFFFFFFFFF AND PUSH20 0xFFFFFFFFFFFFFFFFFFFFFFFFFFFFFFFFFFFFFFFF AND EQ PUSH2 0x460 JUMPI PUSH1 0x40 MLOAD PUSH32 0x8C379A000000000000000000000000000000000000000000000000000000000 DUP2 MSTORE PUSH1 0x4 ADD PUSH2 0x457 SWAP1 PUSH2 0x286E JUMP JUMPDEST PUSH1 0x40 MLOAD DUP1 SWAP2 SUB SWAP1 REVERT JUMPDEST DUP10 DUP10 DUP3 PUSH1 0x1 ADD SWAP2 DUP3 PUSH2 0x473 SWAP3 SWAP2 SWAP1 PUSH2 0x2ABD JUMP JUMPDEST POP DUP8 DUP8 DUP3 PUSH1 0x2 ADD SWAP2 DUP3 PUSH2 0x487 SWAP3 SWAP2 SWAP1 PUSH2 0x2ABD JUMP JUMPDEST POP DUP6 DUP6 DUP3 PUSH1 0x3 ADD SWAP2 DUP3 PUSH2 0x49B SWAP3 SWAP2 SWAP1 PUSH2 0x2ABD JUMP JUMPDEST POP TIMESTAMP DUP2 PUSH1 0x5 ADD DUP2 SWAP1 SSTORE POP DUP4 DUP2 PUSH1 0x6 ADD DUP2 SWAP1 SSTORE POP DUP3 DUP3 DUP3 PUSH1 0x7 ADD SWAP2 SWAP1 PUSH2 0x4C1 SWAP3 SWAP2 SWAP1 PUSH2 0x1E54 JUMP JUMPDEST POP POP POP POP POP POP POP POP POP POP POP POP JUMP JUMPDEST PUSH0 PUSH1 0x2 PUSH0 DUP4 DUP2 MSTORE PUSH1 0x20 ADD SWAP1 DUP2 MSTORE PUSH1 0x20 ADD PUSH0 KECCAK256 PUSH1 0x40 MLOAD DUP1 PUSH2 0x120 ADD PUSH1 0x40 MSTORE SWAP1 DUP2 PUSH0 DUP3 ADD SLOAD DUP2 MSTORE PUSH1 0x20 ADD PUSH1 0x1 DUP3 ADD DUP1 SLOAD PUSH2 0x506 SWAP1 PUSH2 0x28F0 JUMP JUMPDEST DUP1 PUSH1 0x1F ADD PUSH1 0x20 DUP1 SWAP2 DIV MUL PUSH1 0x20 ADD PUSH1 0x40 MLOAD SWAP1 DUP2 ADD PUSH1 0x40 MSTORE DUP1 SWAP3 SWAP2 SWAP1 DUP2 DUP2 MSTORE PUSH1 0x20 ADD DUP3 DUP1 SLOAD PUSH2 0x532 SWAP1 PUSH2 0x28F0 JUMP JUMPDEST DUP1 ISZERO PUSH2 0x57D JUMPI DUP1 PUSH1 0x1F LT PUSH2 0x554 JUMPI PUSH2 0x100 DUP1 DUP4 SLOAD DIV MUL DUP4 MSTORE SWAP2 PUSH1 0x20 ADD SWAP2 PUSH2 0x57D JUMP JUMPDEST DUP3 ADD SWAP2 SWAP1 PUSH0 MSTORE PUSH1 0x20 PUSH0 KECCAK256 SWAP1 JUMPDEST DUP2 SLOAD DUP2 MSTORE SWAP1 PUSH1 0x1 ADD SWAP1 PUSH1 0x20 ADD DUP1 DUP4 GT PUSH2 0x560 JUMPI DUP3 SWAP1 SUB PUSH1 0x1F AND DUP3 ADD SWAP2 JUMPDEST POP POP POP POP POP DUP2 MSTORE PUSH1 0x20 ADD PUSH1 0x2 DUP3 ADD DUP1 SLOAD PUSH2 0x596 SWAP1 PUSH2 0x28F0 JUMP JUMPDEST DUP1 PUSH1 0x1F ADD PUSH1 0x20 DUP1 SWAP2 DIV MUL PUSH1 0x20 ADD PUSH1 0x40 MLOAD SWAP1 DUP2 ADD PUSH1 0x40 MSTORE DUP1 SWAP3 SWAP2 SWAP1 DUP2 DUP2 MSTORE PUSH1 0x20 ADD DUP3 DUP1 SLOAD PUSH2 0x5C2 SWAP1 PUSH2 0x28F0 JUMP JUMPDEST DUP1 ISZERO PUSH2 0x60D JUMPI DUP1 PUSH1 0x1F LT PUSH2 0x5E4 JUMPI PUSH2 0x100 DUP1 DUP4 SLOAD DIV MUL DUP4 MSTORE SWAP2 PUSH1 0x20 ADD SWAP2 PUSH2 0x60D JUMP JUMPDEST DUP3 ADD SWAP2 SWAP1 PUSH0 MSTORE PUSH1 0x20 PUSH0 KECCAK256 SWAP1 JUMPDEST DUP2 SLOAD DUP2 MSTORE SWAP1 PUSH1 0x1 ADD SWAP1 PUSH1 0x20 ADD DUP1 DUP4 GT PUSH2 0x5F0 JUMPI DUP3 SWAP1 SUB PUSH1 0x1F AND DUP3 ADD SWAP2 JUMPDEST POP POP POP POP POP DUP2 MSTORE PUSH1 0x20 ADD PUSH1 0x3 DUP3 ADD DUP1 SLOAD PUSH2 0x626 SWAP1 PUSH2 0x28F0 JUMP JUMPDEST DUP1 PUSH1 0x1F ADD PUSH1 0x20 DUP1 SWAP2 DIV MUL PUSH1 0x20 ADD PUSH1 0x40 MLOAD SWAP1 DUP2 ADD PUSH1 0x40 MSTORE DUP1 SWAP3 SWAP2 SWAP1 DUP2 DUP2 MSTORE PUSH1 0x20 ADD DUP3 DUP1 SLOAD PUSH2 0x652 SWAP1 PUSH2 0x28F0 JUMP JUMPDEST DUP1 ISZERO PUSH2 0x69D JUMPI DUP1 PUSH1 0x1F LT PUSH2 0x674 JUMPI PUSH2 0x100 DUP1 DUP4 SLOAD DIV MUL DUP4 MSTORE SWAP2 PUSH1 0x20 ADD SWAP2 PUSH2 0x69D JUMP JUMPDEST DUP3 ADD SWAP2 SWAP1 PUSH0 MSTORE PUSH1 0x20 PUSH0 KECCAK256 SWAP1 JUMPDEST DUP2 SLOAD DUP2 MSTORE SWAP1 PUSH1 0x1 ADD SWAP1 PUSH1 0x20 ADD DUP1 DUP4 GT PUSH2 0x680 JUMPI DUP3 SWAP1 SUB PUSH1 0x1F AND DUP3 ADD SWAP2 JUMPDEST POP POP POP POP POP DUP2 MSTORE PUSH1 0x20 ADD PUSH1 0x4 DUP3 ADD SLOAD DUP2 MSTORE PUSH1 0x20 ADD PUSH1 0x5 DUP3 ADD SLOAD DUP2 MSTORE PUSH1 0x20 ADD PUSH1 0x6 DUP3 ADD SLOAD DUP2 MSTORE PUSH1 0x20 ADD PUSH1 0x7 DUP3 ADD DUP1 SLOAD DUP1 PUSH1 0x20 MUL PUSH1 0x20 ADD PUSH1 0x40 MLOAD SWAP1 DUP2 ADD PUSH1 0x40 MSTORE DUP1 SWAP3 SWAP2 SWAP1 DUP2 DUP2 MSTORE PUSH1 0x20 ADD DUP3 DUP1 SLOAD DUP1 ISZERO PUSH2 0x711 JUMPI PUSH1 0x20 MUL DUP3 ADD SWAP2 SWAP1 PUSH0 MSTORE PUSH1 0x20 PUSH0 KECCAK256 SWAP1 JUMPDEST DUP2 SLOAD DUP2 MSTORE PUSH1 0x20 ADD SWAP1 PUSH1 0x1 ADD SWAP1 DUP1 DUP4 GT PUSH2 0x6FD JUMPI JUMPDEST POP POP POP POP POP DUP2 MSTORE PUSH1 0x20 ADD PUSH1 0x8 DUP3 ADD PUSH0 SWAP1 SLOAD SWAP1 PUSH2 0x100 EXP SWAP1 DIV PUSH20 0xFFFFFFFFFFFFFFFFFFFFFFFFFFFFFFFFFFFFFFFF AND PUSH20 0xFFFFFFFFFFFFFFFFFFFFFFFFFFFFFFFFFFFFFFFF AND PUSH20 0xFFFFFFFFFFFFFFFFFFFFFFFFFFFFFFFFFFFFFFFF AND DUP2 MSTORE POP POP SWAP1 POP CALLER PUSH20 0xFFFFFFFFFFFFFFFFFFFFFFFFFFFFFFFFFFFFFFFF AND DUP2 PUSH2 0x100 ADD MLOAD PUSH20 0xFFFFFFFFFFFFFFFFFFFFFFFFFFFFFFFFFFFFFFFF AND EQ PUSH2 0x7E4 JUMPI PUSH1 0x40 MLOAD PUSH32 0x8C379A000000000000000000000000000000000000000000000000000000000 DUP2 MSTORE PUSH1 0x4 ADD PUSH2 0x7DB SWAP1 PUSH2 0x286E JUMP JUMPDEST PUSH1 0x40 MLOAD DUP1 SWAP2 SUB SWAP1 REVERT JUMPDEST PUSH2 0x7EC PUSH2 0x1E24 JUMP JUMPDEST POP POP JUMP JUMPDEST CALLER PUSH20 0xFFFFFFFFFFFFFFFFFFFFFFFFFFFFFFFFFFFFFFFF AND PUSH1 0x1 PUSH0 SWAP1 SLOAD SWAP1 PUSH2 0x100 EXP SWAP1 DIV PUSH20 0xFFFFFFFFFFFFFFFFFFFFFFFFFFFFFFFFFFFFFFFF AND PUSH20 0xFFFFFFFFFFFFFFFFFFFFFFFFFFFFFFFFFFFFFFFF AND EQ PUSH2 0x87F JUMPI PUSH1 0x40 MLOAD PUSH32 0x8C379A000000000000000000000000000000000000000000000000000000000 DUP2 MSTORE PUSH1 0x4 ADD PUSH2 0x876 SWAP1 PUSH2 0x2BFA JUMP JUMPDEST PUSH1 0x40 MLOAD DUP1 SWAP2 SUB SWAP1 REVERT JUMPDEST PUSH0 SELFBALANCE SWAP1 POP PUSH0 DUP2 GT PUSH2 0x8C5 JUMPI PUSH1 0x40 MLOAD PUSH32 0x8C379A000000000000000000000000000000000000000000000000000000000 DUP2 MSTORE PUSH1 0x4 ADD PUSH2 0x8BC SWAP1 PUSH2 0x2C62 JUMP JUMPDEST PUSH1 0x40 MLOAD DUP1 SWAP2 SUB SWAP1 REVERT JUMPDEST DUP2 PUSH20 0xFFFFFFFFFFFFFFFFFFFFFFFFFFFFFFFFFFFFFFFF AND PUSH2 0x8FC DUP3 SWAP1 DUP2 ISZERO MUL SWAP1 PUSH1 0x40 MLOAD PUSH0 PUSH1 0x40 MLOAD DUP1 DUP4 SUB DUP2 DUP6 DUP9 DUP9 CALL SWAP4 POP POP POP POP ISZERO DUP1 ISZERO PUSH2 0x908 JUMPI RETURNDATASIZE PUSH0 DUP1 RETURNDATACOPY RETURNDATASIZE PUSH0 REVERT JUMPDEST POP POP POP JUMP JUMPDEST PUSH0 PUSH1 0x2 PUSH0 DUP4 DUP2 MSTORE PUSH1 0x20 ADD SWAP1 DUP2 MSTORE PUSH1 0x20 ADD PUSH0 KECCAK256 PUSH1 0x40 MLOAD DUP1 PUSH2 0x120 ADD PUSH1 0x40 MSTORE SWAP1 DUP2 PUSH0 DUP3 ADD SLOAD DUP2 MSTORE PUSH1 0x20 ADD PUSH1 0x1 DUP3 ADD DUP1 SLOAD PUSH2 0x944 SWAP1 PUSH2 0x28F0 JUMP JUMPDEST DUP1 PUSH1 0x1F ADD PUSH1 0x20 DUP1 SWAP2 DIV MUL PUSH1 0x20 ADD PUSH1 0x40 MLOAD SWAP1 DUP2 ADD PUSH1 0x40 MSTORE DUP1 SWAP3 SWAP2 SWAP1 DUP2 DUP2 MSTORE PUSH1 0x20 ADD DUP3 DUP1 SLOAD PUSH2 0x970 SWAP1 PUSH2 0x28F0 JUMP JUMPDEST DUP1 ISZERO PUSH2 0x9BB JUMPI DUP1 PUSH1 0x1F LT PUSH2 0x992 JUMPI PUSH2 0x100 DUP1 DUP4 SLOAD DIV MUL DUP4 MSTORE SWAP2 PUSH1 0x20 ADD SWAP2 PUSH2 0x9BB JUMP JUMPDEST DUP3 ADD SWAP2 SWAP1 PUSH0 MSTORE PUSH1 0x20 PUSH0 KECCAK256 SWAP1 JUMPDEST DUP2 SLOAD DUP2 MSTORE SWAP1 PUSH1 0x1 ADD SWAP1 PUSH1 0x20 ADD DUP1 DUP4 GT PUSH2 0x99E JUMPI DUP3 SWAP1 SUB PUSH1 0x1F AND DUP3 ADD SWAP2 JUMPDEST POP POP POP POP POP DUP2 MSTORE PUSH1 0x20 ADD PUSH1 0x2 DUP3 ADD DUP1 SLOAD PUSH2 0x9D4 SWAP1 PUSH2 0x28F0 JUMP JUMPDEST DUP1 PUSH1 0x1F ADD PUSH1 0x20 DUP1 SWAP2 DIV MUL PUSH1 0x20 ADD PUSH1 0x40 MLOAD SWAP1 DUP2 ADD PUSH1 0x40 MSTORE DUP1 SWAP3 SWAP2 SWAP1 DUP2 DUP2 MSTORE PUSH1 0x20 ADD DUP3 DUP1 SLOAD PUSH2 0xA00 SWAP1 PUSH2 0x28F0 JUMP JUMPDEST DUP1 ISZERO PUSH2 0xA4B JUMPI DUP1 PUSH1 0x1F LT PUSH2 0xA22 JUMPI PUSH2 0x100 DUP1 DUP4 SLOAD DIV MUL DUP4 MSTORE SWAP2 PUSH1 0x20 ADD SWAP2 PUSH2 0xA4B JUMP JUMPDEST DUP3 ADD SWAP2 SWAP1 PUSH0 MSTORE PUSH1 0x20 PUSH0 KECCAK256 SWAP1 JUMPDEST DUP2 SLOAD DUP2 MSTORE SWAP1 PUSH1 0x1 ADD SWAP1 PUSH1 0x20 ADD DUP1 DUP4 GT PUSH2 0xA2E JUMPI DUP3 SWAP1 SUB PUSH1 0x1F AND DUP3 ADD SWAP2 JUMPDEST POP POP POP POP POP DUP2 MSTORE PUSH1 0x20 ADD PUSH1 0x3 DUP3 ADD DUP1 SLOAD PUSH2 0xA64 SWAP1 PUSH2 0x28F0 JUMP JUMPDEST DUP1 PUSH1 0x1F ADD PUSH1 0x20 DUP1 SWAP2 DIV MUL PUSH1 0x20 ADD PUSH1 0x40 MLOAD SWAP1 DUP2 ADD PUSH1 0x40 MSTORE DUP1 SWAP3 SWAP2 SWAP1 DUP2 DUP2 MSTORE PUSH1 0x20 ADD DUP3 DUP1 SLOAD PUSH2 0xA90 SWAP1 PUSH2 0x28F0 JUMP JUMPDEST DUP1 ISZERO PUSH2 0xADB JUMPI DUP1 PUSH1 0x1F LT PUSH2 0xAB2 JUMPI PUSH2 0x100 DUP1 DUP4 SLOAD DIV MUL DUP4 MSTORE SWAP2 PUSH1 0x20 ADD SWAP2 PUSH2 0xADB JUMP JUMPDEST DUP3 ADD SWAP2 SWAP1 PUSH0 MSTORE PUSH1 0x20 PUSH0 KECCAK256 SWAP1 JUMPDEST DUP2 SLOAD DUP2 MSTORE SWAP1 PUSH1 0x1 ADD SWAP1 PUSH1 0x20 ADD DUP1 DUP4 GT PUSH2 0xABE JUMPI DUP3 SWAP1 SUB PUSH1 0x1F AND DUP3 ADD SWAP2 JUMPDEST POP POP POP POP POP DUP2 MSTORE PUSH1 0x20 ADD PUSH1 0x4 DUP3 ADD SLOAD DUP2 MSTORE PUSH1 0x20 ADD PUSH1 0x5 DUP3 ADD SLOAD DUP2 MSTORE PUSH1 0x20 ADD PUSH1 0x6 DUP3 ADD SLOAD DUP2 MSTORE PUSH1 0x20 ADD PUSH1 0x7 DUP3 ADD DUP1 SLOAD DUP1 PUSH1 0x20 MUL PUSH1 0x20 ADD PUSH1 0x40 MLOAD SWAP1 DUP2 ADD PUSH1 0x40 MSTORE DUP1 SWAP3 SWAP2 SWAP1 DUP2 DUP2 MSTORE PUSH1 0x20 ADD DUP3 DUP1 SLOAD DUP1 ISZERO PUSH2 0xB4F JUMPI PUSH1 0x20 MUL DUP3 ADD SWAP2 SWAP1 PUSH0 MSTORE PUSH1 0x20 PUSH0 KECCAK256 SWAP1 JUMPDEST DUP2 SLOAD DUP2 MSTORE PUSH1 0x20 ADD SWAP1 PUSH1 0x1 ADD SWAP1 DUP1 DUP4 GT PUSH2 0xB3B JUMPI JUMPDEST POP POP POP POP POP DUP2 MSTORE PUSH1 0x20 ADD PUSH1 0x8 DUP3 ADD PUSH0 SWAP1 SLOAD SWAP1 PUSH2 0x100 EXP SWAP1 DIV PUSH20 0xFFFFFFFFFFFFFFFFFFFFFFFFFFFFFFFFFFFFFFFF AND PUSH20 0xFFFFFFFFFFFFFFFFFFFFFFFFFFFFFFFFFFFFFFFF AND PUSH20 0xFFFFFFFFFFFFFFFFFFFFFFFFFFFFFFFFFFFFFFFF AND DUP2 MSTORE POP POP SWAP1 POP CALLER PUSH20 0xFFFFFFFFFFFFFFFFFFFFFFFFFFFFFFFFFFFFFFFF AND DUP2 PUSH2 0x100 ADD MLOAD PUSH20 0xFFFFFFFFFFFFFFFFFFFFFFFFFFFFFFFFFFFFFFFF AND EQ PUSH2 0xC22 JUMPI PUSH1 0x40 MLOAD PUSH32 0x8C379A000000000000000000000000000000000000000000000000000000000 DUP2 MSTORE PUSH1 0x4 ADD PUSH2 0xC19 SWAP1 PUSH2 0x286E JUMP JUMPDEST PUSH1 0x40 MLOAD DUP1 SWAP2 SUB SWAP1 REVERT JUMPDEST DUP3 DUP2 PUSH2 0x100 ADD SWAP1 PUSH20 0xFFFFFFFFFFFFFFFFFFFFFFFFFFFFFFFFFFFFFFFF AND SWAP1 DUP2 PUSH20 0xFFFFFFFFFFFFFFFFFFFFFFFFFFFFFFFFFFFFFFFF AND DUP2 MSTORE POP POP POP POP POP JUMP JUMPDEST PUSH1 0x5 SLOAD CALLVALUE EQ PUSH2 0xCA4 JUMPI PUSH1 0x40 MLOAD PUSH32 0x8C379A000000000000000000000000000000000000000000000000000000000 DUP2 MSTORE PUSH1 0x4 ADD PUSH2 0xC9B SWAP1 PUSH2 0x2CCA JUMP JUMPDEST PUSH1 0x40 MLOAD DUP1 SWAP2 SUB SWAP1 REVERT JUMPDEST PUSH0 PUSH1 0x2 PUSH0 DUP4 DUP2 MSTORE PUSH1 0x20 ADD SWAP1 DUP2 MSTORE PUSH1 0x20 ADD PUSH0 KECCAK256 PUSH1 0x40 MLOAD DUP1 PUSH2 0x120 ADD PUSH1 0x40 MSTORE SWAP1 DUP2 PUSH0 DUP3 ADD SLOAD DUP2 MSTORE PUSH1 0x20 ADD PUSH1 0x1 DUP3 ADD DUP1 SLOAD PUSH2 0xCDB SWAP1 PUSH2 0x28F0 JUMP JUMPDEST DUP1 PUSH1 0x1F ADD PUSH1 0x20 DUP1 SWAP2 DIV MUL PUSH1 0x20 ADD PUSH1 0x40 MLOAD SWAP1 DUP2 ADD PUSH1 0x40 MSTORE DUP1 SWAP3 SWAP2 SWAP1 DUP2 DUP2 MSTORE PUSH1 0x20 ADD DUP3 DUP1 SLOAD PUSH2 0xD07 SWAP1 PUSH2 0x28F0 JUMP JUMPDEST DUP1 ISZERO PUSH2 0xD52 JUMPI DUP1 PUSH1 0x1F LT PUSH2 0xD29 JUMPI PUSH2 0x100 DUP1 DUP4 SLOAD DIV MUL DUP4 MSTORE SWAP2 PUSH1 0x20 ADD SWAP2 PUSH2 0xD52 JUMP JUMPDEST DUP3 ADD SWAP2 SWAP1 PUSH0 MSTORE PUSH1 0x20 PUSH0 KECCAK256 SWAP1 JUMPDEST DUP2 SLOAD DUP2 MSTORE SWAP1 PUSH1 0x1 ADD SWAP1 PUSH1 0x20 ADD DUP1 DUP4 GT PUSH2 0xD35 JUMPI DUP3 SWAP1 SUB PUSH1 0x1F AND DUP3 ADD SWAP2 JUMPDEST POP POP POP POP POP DUP2 MSTORE PUSH1 0x20 ADD PUSH1 0x2 DUP3 ADD DUP1 SLOAD PUSH2 0xD6B SWAP1 PUSH2 0x28F0 JUMP JUMPDEST DUP1 PUSH1 0x1F ADD PUSH1 0x20 DUP1 SWAP2 DIV MUL PUSH1 0x20 ADD PUSH1 0x40 MLOAD SWAP1 DUP2 ADD PUSH1 0x40 MSTORE DUP1 SWAP3 SWAP2 SWAP1 DUP2 DUP2 MSTORE PUSH1 0x20 ADD DUP3 DUP1 SLOAD PUSH2 0xD97 SWAP1 PUSH2 0x28F0 JUMP JUMPDEST DUP1 ISZERO PUSH2 0xDE2 JUMPI DUP1 PUSH1 0x1F LT PUSH2 0xDB9 JUMPI PUSH2 0x100 DUP1 DUP4 SLOAD DIV MUL DUP4 MSTORE SWAP2 PUSH1 0x20 ADD SWAP2 PUSH2 0xDE2 JUMP JUMPDEST DUP3 ADD SWAP2 SWAP1 PUSH0 MSTORE PUSH1 0x20 PUSH0 KECCAK256 SWAP1 JUMPDEST DUP2 SLOAD DUP2 MSTORE SWAP1 PUSH1 0x1 ADD SWAP1 PUSH1 0x20 ADD DUP1 DUP4 GT PUSH2 0xDC5 JUMPI DUP3 SWAP1 SUB PUSH1 0x1F AND DUP3 ADD SWAP2 JUMPDEST POP POP POP POP POP DUP2 MSTORE PUSH1 0x20 ADD PUSH1 0x3 DUP3 ADD DUP1 SLOAD PUSH2 0xDFB SWAP1 PUSH2 0x28F0 JUMP JUMPDEST DUP1 PUSH1 0x1F ADD PUSH1 0x20 DUP1 SWAP2 DIV MUL PUSH1 0x20 ADD PUSH1 0x40 MLOAD SWAP1 DUP2 ADD PUSH1 0x40 MSTORE DUP1 SWAP3 SWAP2 SWAP1 DUP2 DUP2 MSTORE PUSH1 0x20 ADD DUP3 DUP1 SLOAD PUSH2 0xE27 SWAP1 PUSH2 0x28F0 JUMP JUMPDEST DUP1 ISZERO PUSH2 0xE72 JUMPI DUP1 PUSH1 0x1F LT PUSH2 0xE49 JUMPI PUSH2 0x100 DUP1 DUP4 SLOAD DIV MUL DUP4 MSTORE SWAP2 PUSH1 0x20 ADD SWAP2 PUSH2 0xE72 JUMP JUMPDEST DUP3 ADD SWAP2 SWAP1 PUSH0 MSTORE PUSH1 0x20 PUSH0 KECCAK256 SWAP1 JUMPDEST DUP2 SLOAD DUP2 MSTORE SWAP1 PUSH1 0x1 ADD SWAP1 PUSH1 0x20 ADD DUP1 DUP4 GT PUSH2 0xE55 JUMPI DUP3 SWAP1 SUB PUSH1 0x1F AND DUP3 ADD SWAP2 JUMPDEST POP POP POP POP POP DUP2 MSTORE PUSH1 0x20 ADD PUSH1 0x4 DUP3 ADD SLOAD DUP2 MSTORE PUSH1 0x20 ADD PUSH1 0x5 DUP3 ADD SLOAD DUP2 MSTORE PUSH1 0x20 ADD PUSH1 0x6 DUP3 ADD SLOAD DUP2 MSTORE PUSH1 0x20 ADD PUSH1 0x7 DUP3 ADD DUP1 SLOAD DUP1 PUSH1 0x20 MUL PUSH1 0x20 ADD PUSH1 0x40 MLOAD SWAP1 DUP2 ADD PUSH1 0x40 MSTORE DUP1 SWAP3 SWAP2 SWAP1 DUP2 DUP2 MSTORE PUSH1 0x20 ADD DUP3 DUP1 SLOAD DUP1 ISZERO PUSH2 0xEE6 JUMPI PUSH1 0x20 MUL DUP3 ADD SWAP2 SWAP1 PUSH0 MSTORE PUSH1 0x20 PUSH0 KECCAK256 SWAP1 JUMPDEST DUP2 SLOAD DUP2 MSTORE PUSH1 0x20 ADD SWAP1 PUSH1 0x1 ADD SWAP1 DUP1 DUP4 GT PUSH2 0xED2 JUMPI JUMPDEST POP POP POP POP POP DUP2 MSTORE PUSH1 0x20 ADD PUSH1 0x8 DUP3 ADD PUSH0 SWAP1 SLOAD SWAP1 PUSH2 0x100 EXP SWAP1 DIV PUSH20 0xFFFFFFFFFFFFFFFFFFFFFFFFFFFFFFFFFFFFFFFF AND PUSH20 0xFFFFFFFFFFFFFFFFFFFFFFFFFFFFFFFFFFFFFFFF AND PUSH20 0xFFFFFFFFFFFFFFFFFFFFFFFFFFFFFFFFFFFFFFFF AND DUP2 MSTORE POP POP SWAP1 POP CALLER PUSH20 0xFFFFFFFFFFFFFFFFFFFFFFFFFFFFFFFFFFFFFFFF AND DUP2 PUSH2 0x100 ADD MLOAD PUSH20 0xFFFFFFFFFFFFFFFFFFFFFFFFFFFFFFFFFFFFFFFF AND EQ PUSH2 0xFB9 JUMPI PUSH1 0x40 MLOAD PUSH32 0x8C379A000000000000000000000000000000000000000000000000000000000 DUP2 MSTORE PUSH1 0x4 ADD PUSH2 0xFB0 SWAP1 PUSH2 0x286E JUMP JUMPDEST PUSH1 0x40 MLOAD DUP1 SWAP2 SUB SWAP1 REVERT JUMPDEST CALLVALUE PUSH1 0x6 PUSH0 DUP3 DUP3 SLOAD PUSH2 0xFCA SWAP2 SWAP1 PUSH2 0x2D15 JUMP JUMPDEST SWAP3 POP POP DUP2 SWAP1 SSTORE POP TIMESTAMP DUP2 PUSH1 0x80 ADD DUP2 DUP2 MSTORE POP POP TIMESTAMP DUP2 PUSH1 0xA0 ADD DUP2 DUP2 MSTORE POP POP POP POP JUMP JUMPDEST PUSH1 0x4 SLOAD CALLVALUE EQ PUSH2 0x102D JUMPI PUSH1 0x40 MLOAD PUSH32 0x8C379A000000000000000000000000000000000000000000000000000000000 DUP2 MSTORE PUSH1 0x4 ADD PUSH2 0x1024 SWAP1 PUSH2 0x2D92 JUMP JUMPDEST PUSH1 0x40 MLOAD DUP1 SWAP2 SUB SWAP1 REVERT JUMPDEST CALLVALUE PUSH1 0x6 PUSH0 DUP3 DUP3 SLOAD PUSH2 0x103E SWAP2 SWAP1 PUSH2 0x2D15 JUMP JUMPDEST SWAP3 POP POP DUP2 SWAP1 SSTORE POP PUSH2 0x104D PUSH2 0x1E3C JUMP JUMPDEST PUSH1 0x40 MLOAD DUP1 PUSH2 0x120 ADD PUSH1 0x40 MSTORE DUP1 PUSH0 SLOAD DUP2 MSTORE PUSH1 0x20 ADD DUP11 DUP11 DUP1 DUP1 PUSH1 0x1F ADD PUSH1 0x20 DUP1 SWAP2 DIV MUL PUSH1 0x20 ADD PUSH1 0x40 MLOAD SWAP1 DUP2 ADD PUSH1 0x40 MSTORE DUP1 SWAP4 SWAP3 SWAP2 SWAP1 DUP2 DUP2 MSTORE PUSH1 0x20 ADD DUP4 DUP4 DUP1 DUP3 DUP5 CALLDATACOPY PUSH0 DUP2 DUP5 ADD MSTORE PUSH1 0x1F NOT PUSH1 0x1F DUP3 ADD AND SWAP1 POP DUP1 DUP4 ADD SWAP3 POP POP POP POP POP POP POP DUP2 MSTORE PUSH1 0x20 ADD DUP9 DUP9 DUP1 DUP1 PUSH1 0x1F ADD PUSH1 0x20 DUP1 SWAP2 DIV MUL PUSH1 0x20 ADD PUSH1 0x40 MLOAD SWAP1 DUP2 ADD PUSH1 0x40 MSTORE DUP1 SWAP4 SWAP3 SWAP2 SWAP1 DUP2 DUP2 MSTORE PUSH1 0x20 ADD DUP4 DUP4 DUP1 DUP3 DUP5 CALLDATACOPY PUSH0 DUP2 DUP5 ADD MSTORE PUSH1 0x1F NOT PUSH1 0x1F DUP3 ADD AND SWAP1 POP DUP1 DUP4 ADD SWAP3 POP POP POP POP POP POP POP DUP2 MSTORE PUSH1 0x20 ADD DUP7 DUP7 DUP1 DUP1 PUSH1 0x1F ADD PUSH1 0x20 DUP1 SWAP2 DIV MUL PUSH1 0x20 ADD PUSH1 0x40 MLOAD SWAP1 DUP2 ADD PUSH1 0x40 MSTORE DUP1 SWAP4 SWAP3 SWAP2 SWAP1 DUP2 DUP2 MSTORE PUSH1 0x20 ADD DUP4 DUP4 DUP1 DUP3 DUP5 CALLDATACOPY PUSH0 DUP2 DUP5 ADD MSTORE PUSH1 0x1F NOT PUSH1 0x1F DUP3 ADD AND SWAP1 POP DUP1 DUP4 ADD SWAP3 POP POP POP POP POP POP POP DUP2 MSTORE PUSH1 0x20 ADD TIMESTAMP DUP2 MSTORE PUSH1 0x20 ADD TIMESTAMP DUP2 MSTORE PUSH1 0x20 ADD DUP5 DUP2 MSTORE PUSH1 0x20 ADD DUP4 DUP4 DUP1 DUP1 PUSH1 0x20 MUL PUSH1 0x20 ADD PUSH1 0x40 MLOAD SWAP1 DUP2 ADD PUSH1 0x40 MSTORE DUP1 SWAP4 SWAP3 SWAP2 SWAP1 DUP2 DUP2 MSTORE PUSH1 0x20 ADD DUP4 DUP4 PUSH1 0x20 MUL DUP1 DUP3 DUP5 CALLDATACOPY PUSH0 DUP2 DUP5 ADD MSTORE PUSH1 0x1F NOT PUSH1 0x1F DUP3 ADD AND SWAP1 POP DUP1 DUP4 ADD SWAP3 POP POP POP POP POP POP POP DUP2 MSTORE PUSH1 0x20 ADD CALLER PUSH20 0xFFFFFFFFFFFFFFFFFFFFFFFFFFFFFFFFFFFFFFFF AND DUP2 MSTORE POP PUSH1 0x2 PUSH0 DUP1 SLOAD DUP2 MSTORE PUSH1 0x20 ADD SWAP1 DUP2 MSTORE PUSH1 0x20 ADD PUSH0 KECCAK256 PUSH0 DUP3 ADD MLOAD DUP2 PUSH0 ADD SSTORE PUSH1 0x20 DUP3 ADD MLOAD DUP2 PUSH1 0x1 ADD SWAP1 DUP2 PUSH2 0x11DC SWAP2 SWAP1 PUSH2 0x2DB0 JUMP JUMPDEST POP PUSH1 0x40 DUP3 ADD MLOAD DUP2 PUSH1 0x2 ADD SWAP1 DUP2 PUSH2 0x11F2 SWAP2 SWAP1 PUSH2 0x2DB0 JUMP JUMPDEST POP PUSH1 0x60 DUP3 ADD MLOAD DUP2 PUSH1 0x3 ADD SWAP1 DUP2 PUSH2 0x1208 SWAP2 SWAP1 PUSH2 0x2DB0 JUMP JUMPDEST POP PUSH1 0x80 DUP3 ADD MLOAD DUP2 PUSH1 0x4 ADD SSTORE PUSH1 0xA0 DUP3 ADD MLOAD DUP2 PUSH1 0x5 ADD SSTORE PUSH1 0xC0 DUP3 ADD MLOAD DUP2 PUSH1 0x6 ADD SSTORE PUSH1 0xE0 DUP3 ADD MLOAD DUP2 PUSH1 0x7 ADD SWAP1 DUP1 MLOAD SWAP1 PUSH1 0x20 ADD SWAP1 PUSH2 0x1243 SWAP3 SWAP2 SWAP1 PUSH2 0x1E9F JUMP JUMPDEST POP PUSH2 0x100 DUP3 ADD MLOAD DUP2 PUSH1 0x8 ADD PUSH0 PUSH2 0x100 EXP DUP2 SLOAD DUP2 PUSH20 0xFFFFFFFFFFFFFFFFFFFFFFFFFFFFFFFFFFFFFFFF MUL NOT AND SWAP1 DUP4 PUSH20 0xFFFFFFFFFFFFFFFFFFFFFFFFFFFFFFFFFFFFFFFF AND MUL OR SWAP1 SSTORE POP SWAP1 POP POP PUSH1 0x1 PUSH1 0x3 PUSH0 CALLER PUSH20 0xFFFFFFFFFFFFFFFFFFFFFFFFFFFFFFFFFFFFFFFF AND PUSH20 0xFFFFFFFFFFFFFFFFFFFFFFFFFFFFFFFFFFFFFFFF AND DUP2 MSTORE PUSH1 0x20 ADD SWAP1 DUP2 MSTORE PUSH1 0x20 ADD PUSH0 KECCAK256 PUSH0 DUP3 DUP3 SLOAD PUSH2 0x12DB SWAP2 SWAP1 PUSH2 0x2D15 JUMP JUMPDEST SWAP3 POP POP DUP2 SWAP1 SSTORE POP POP POP POP POP POP POP POP POP POP JUMP JUMPDEST CALLER PUSH20 0xFFFFFFFFFFFFFFFFFFFFFFFFFFFFFFFFFFFFFFFF AND PUSH1 0x1 PUSH0 SWAP1 SLOAD SWAP1 PUSH2 0x100 EXP SWAP1 DIV PUSH20 0xFFFFFFFFFFFFFFFFFFFFFFFFFFFFFFFFFFFFFFFF AND PUSH20 0xFFFFFFFFFFFFFFFFFFFFFFFFFFFFFFFFFFFFFFFF AND EQ PUSH2 0x137C JUMPI PUSH1 0x40 MLOAD PUSH32 0x8C379A000000000000000000000000000000000000000000000000000000000 DUP2 MSTORE PUSH1 0x4 ADD PUSH2 0x1373 SWAP1 PUSH2 0x2BFA JUMP JUMPDEST PUSH1 0x40 MLOAD DUP1 SWAP2 SUB SWAP1 REVERT JUMPDEST DUP1 PUSH1 0x4 DUP2 SWAP1 SSTORE POP POP JUMP JUMPDEST CALLER PUSH20 0xFFFFFFFFFFFFFFFFFFFFFFFFFFFFFFFFFFFFFFFF AND PUSH1 0x1 PUSH0 SWAP1 SLOAD SWAP1 PUSH2 0x100 EXP SWAP1 DIV PUSH20 0xFFFFFFFFFFFFFFFFFFFFFFFFFFFFFFFFFFFFFFFF AND PUSH20 0xFFFFFFFFFFFFFFFFFFFFFFFFFFFFFFFFFFFFFFFF AND EQ PUSH2 0x1415 JUMPI PUSH1 0x40 MLOAD PUSH32 0x8C379A000000000000000000000000000000000000000000000000000000000 DUP2 MSTORE PUSH1 0x4 ADD PUSH2 0x140C SWAP1 PUSH2 0x2BFA JUMP JUMPDEST PUSH1 0x40 MLOAD DUP1 SWAP2 SUB SWAP1 REVERT JUMPDEST DUP1 PUSH1 0x5 DUP2 SWAP1 SSTORE POP POP JUMP JUMPDEST PUSH2 0x1427 PUSH2 0x1EEA JUMP JUMPDEST PUSH1 0x2 PUSH0 DUP4 DUP2 MSTORE PUSH1 0x20 ADD SWAP1 DUP2 MSTORE PUSH1 0x20 ADD PUSH0 KECCAK256 PUSH1 0x40 MLOAD DUP1 PUSH2 0x120 ADD PUSH1 0x40 MSTORE SWAP1 DUP2 PUSH0 DUP3 ADD SLOAD DUP2 MSTORE PUSH1 0x20 ADD PUSH1 0x1 DUP3 ADD DUP1 SLOAD PUSH2 0x145D SWAP1 PUSH2 0x28F0 JUMP JUMPDEST DUP1 PUSH1 0x1F ADD PUSH1 0x20 DUP1 SWAP2 DIV MUL PUSH1 0x20 ADD PUSH1 0x40 MLOAD SWAP1 DUP2 ADD PUSH1 0x40 MSTORE DUP1 SWAP3 SWAP2 SWAP1 DUP2 DUP2 MSTORE PUSH1 0x20 ADD DUP3 DUP1 SLOAD PUSH2 0x1489 SWAP1 PUSH2 0x28F0 JUMP JUMPDEST DUP1 ISZERO PUSH2 0x14D4 JUMPI DUP1 PUSH1 0x1F LT PUSH2 0x14AB JUMPI PUSH2 0x100 DUP1 DUP4 SLOAD DIV MUL DUP4 MSTORE SWAP2 PUSH1 0x20 ADD SWAP2 PUSH2 0x14D4 JUMP JUMPDEST DUP3 ADD SWAP2 SWAP1 PUSH0 MSTORE PUSH1 0x20 PUSH0 KECCAK256 SWAP1 JUMPDEST DUP2 SLOAD DUP2 MSTORE SWAP1 PUSH1 0x1 ADD SWAP1 PUSH1 0x20 ADD DUP1 DUP4 GT PUSH2 0x14B7 JUMPI DUP3 SWAP1 SUB PUSH1 0x1F AND DUP3 ADD SWAP2 JUMPDEST POP POP POP POP POP DUP2 MSTORE PUSH1 0x20 ADD PUSH1 0x2 DUP3 ADD DUP1 SLOAD PUSH2 0x14ED SWAP1 PUSH2 0x28F0 JUMP JUMPDEST DUP1 PUSH1 0x1F ADD PUSH1 0x20 DUP1 SWAP2 DIV MUL PUSH1 0x20 ADD PUSH1 0x40 MLOAD SWAP1 DUP2 ADD PUSH1 0x40 MSTORE DUP1 SWAP3 SWAP2 SWAP1 DUP2 DUP2 MSTORE PUSH1 0x20 ADD DUP3 DUP1 SLOAD PUSH2 0x1519 SWAP1 PUSH2 0x28F0 JUMP JUMPDEST DUP1 ISZERO PUSH2 0x1564 JUMPI DUP1 PUSH1 0x1F LT PUSH2 0x153B JUMPI PUSH2 0x100 DUP1 DUP4 SLOAD DIV MUL DUP4 MSTORE SWAP2 PUSH1 0x20 ADD SWAP2 PUSH2 0x1564 JUMP JUMPDEST DUP3 ADD SWAP2 SWAP1 PUSH0 MSTORE PUSH1 0x20 PUSH0 KECCAK256 SWAP1 JUMPDEST DUP2 SLOAD DUP2 MSTORE SWAP1 PUSH1 0x1 ADD SWAP1 PUSH1 0x20 ADD DUP1 DUP4 GT PUSH2 0x1547 JUMPI DUP3 SWAP1 SUB PUSH1 0x1F AND DUP3 ADD SWAP2 JUMPDEST POP POP POP POP POP DUP2 MSTORE PUSH1 0x20 ADD PUSH1 0x3 DUP3 ADD DUP1 SLOAD PUSH2 0x157D SWAP1 PUSH2 0x28F0 JUMP JUMPDEST DUP1 PUSH1 0x1F ADD PUSH1 0x20 DUP1 SWAP2 DIV MUL PUSH1 0x20 ADD PUSH1 0x40 MLOAD SWAP1 DUP2 ADD PUSH1 0x40 MSTORE DUP1 SWAP3 SWAP2 SWAP1 DUP2 DUP2 MSTORE PUSH1 0x20 ADD DUP3 DUP1 SLOAD PUSH2 0x15A9 SWAP1 PUSH2 0x28F0 JUMP JUMPDEST DUP1 ISZERO PUSH2 0x15F4 JUMPI DUP1 PUSH1 0x1F LT PUSH2 0x15CB JUMPI PUSH2 0x100 DUP1 DUP4 SLOAD DIV MUL DUP4 MSTORE SWAP2 PUSH1 0x20 ADD SWAP2 PUSH2 0x15F4 JUMP JUMPDEST DUP3 ADD SWAP2 SWAP1 PUSH0 MSTORE PUSH1 0x20 PUSH0 KECCAK256 SWAP1 JUMPDEST DUP2 SLOAD DUP2 MSTORE SWAP1 PUSH1 0x1 ADD SWAP1 PUSH1 0x20 ADD DUP1 DUP4 GT PUSH2 0x15D7 JUMPI DUP3 SWAP1 SUB PUSH1 0x1F AND DUP3 ADD SWAP2 JUMPDEST POP POP POP POP POP DUP2 MSTORE PUSH1 0x20 ADD PUSH1 0x4 DUP3 ADD SLOAD DUP2 MSTORE PUSH1 0x20 ADD PUSH1 0x5 DUP3 ADD SLOAD DUP2 MSTORE PUSH1 0x20 ADD PUSH1 0x6 DUP3 ADD SLOAD DUP2 MSTORE PUSH1 0x20 ADD PUSH1 0x7 DUP3 ADD DUP1 SLOAD DUP1 PUSH1 0x20 MUL PUSH1 0x20 ADD PUSH1 0x40 MLOAD SWAP1 DUP2 ADD PUSH1 0x40 MSTORE DUP1 SWAP3 SWAP2 SWAP1 DUP2 DUP2 MSTORE PUSH1 0x20 ADD DUP3 DUP1 SLOAD DUP1 ISZERO PUSH2 0x1668 JUMPI PUSH1 0x20 MUL DUP3 ADD SWAP2 SWAP1 PUSH0 MSTORE PUSH1 0x20 PUSH0 KECCAK256 SWAP1 JUMPDEST DUP2 SLOAD DUP2 MSTORE PUSH1 0x20 ADD SWAP1 PUSH1 0x1 ADD SWAP1 DUP1 DUP4 GT PUSH2 0x1654 JUMPI JUMPDEST POP POP POP POP POP DUP2 MSTORE PUSH1 0x20 ADD PUSH1 0x8 DUP3 ADD PUSH0 SWAP1 SLOAD SWAP1 PUSH2 0x100 EXP SWAP1 DIV PUSH20 0xFFFFFFFFFFFFFFFFFFFFFFFFFFFFFFFFFFFFFFFF AND PUSH20 0xFFFFFFFFFFFFFFFFFFFFFFFFFFFFFFFFFFFFFFFF AND PUSH20 0xFFFFFFFFFFFFFFFFFFFFFFFFFFFFFFFFFFFFFFFF AND DUP2 MSTORE POP POP SWAP1 POP SWAP2 SWAP1 POP JUMP JUMPDEST PUSH1 0x60 PUSH0 PUSH1 0x3 PUSH0 CALLER PUSH20 0xFFFFFFFFFFFFFFFFFFFFFFFFFFFFFFFFFFFFFFFF AND PUSH20 0xFFFFFFFFFFFFFFFFFFFFFFFFFFFFFFFFFFFFFFFF AND DUP2 MSTORE PUSH1 0x20 ADD SWAP1 DUP2 MSTORE PUSH1 0x20 ADD PUSH0 KECCAK256 SLOAD SWAP1 POP PUSH0 DUP2 PUSH8 0xFFFFFFFFFFFFFFFF DUP2 GT ISZERO PUSH2 0x172B JUMPI PUSH2 0x172A PUSH2 0x2896 JUMP JUMPDEST JUMPDEST PUSH1 0x40 MLOAD SWAP1 DUP1 DUP3 MSTORE DUP1 PUSH1 0x20 MUL PUSH1 0x20 ADD DUP3 ADD PUSH1 0x40 MSTORE DUP1 ISZERO PUSH2 0x1764 JUMPI DUP2 PUSH1 0x20 ADD JUMPDEST PUSH2 0x1751 PUSH2 0x1EEA JUMP JUMPDEST DUP2 MSTORE PUSH1 0x20 ADD SWAP1 PUSH1 0x1 SWAP1 SUB SWAP1 DUP2 PUSH2 0x1749 JUMPI SWAP1 POP JUMPDEST POP SWAP1 POP PUSH0 DUP1 JUMPDEST DUP4 DUP2 LT ISZERO PUSH2 0x1A94 JUMPI PUSH0 PUSH1 0x2 PUSH0 PUSH1 0x1 DUP5 PUSH2 0x1783 SWAP2 SWAP1 PUSH2 0x2D15 JUMP JUMPDEST DUP2 MSTORE PUSH1 0x20 ADD SWAP1 DUP2 MSTORE PUSH1 0x20 ADD PUSH0 KECCAK256 PUSH1 0x40 MLOAD DUP1 PUSH2 0x120 ADD PUSH1 0x40 MSTORE SWAP1 DUP2 PUSH0 DUP3 ADD SLOAD DUP2 MSTORE PUSH1 0x20 ADD PUSH1 0x1 DUP3 ADD DUP1 SLOAD PUSH2 0x17B5 SWAP1 PUSH2 0x28F0 JUMP JUMPDEST DUP1 PUSH1 0x1F ADD PUSH1 0x20 DUP1 SWAP2 DIV MUL PUSH1 0x20 ADD PUSH1 0x40 MLOAD SWAP1 DUP2 ADD PUSH1 0x40 MSTORE DUP1 SWAP3 SWAP2 SWAP1 DUP2 DUP2 MSTORE PUSH1 0x20 ADD DUP3 DUP1 SLOAD PUSH2 0x17E1 SWAP1 PUSH2 0x28F0 JUMP JUMPDEST DUP1 ISZERO PUSH2 0x182C JUMPI DUP1 PUSH1 0x1F LT PUSH2 0x1803 JUMPI PUSH2 0x100 DUP1 DUP4 SLOAD DIV MUL DUP4 MSTORE SWAP2 PUSH1 0x20 ADD SWAP2 PUSH2 0x182C JUMP JUMPDEST DUP3 ADD SWAP2 SWAP1 PUSH0 MSTORE PUSH1 0x20 PUSH0 KECCAK256 SWAP1 JUMPDEST DUP2 SLOAD DUP2 MSTORE SWAP1 PUSH1 0x1 ADD SWAP1 PUSH1 0x20 ADD DUP1 DUP4 GT PUSH2 0x180F JUMPI DUP3 SWAP1 SUB PUSH1 0x1F AND DUP3 ADD SWAP2 JUMPDEST POP POP POP POP POP DUP2 MSTORE PUSH1 0x20 ADD PUSH1 0x2 DUP3 ADD DUP1 SLOAD PUSH2 0x1845 SWAP1 PUSH2 0x28F0 JUMP JUMPDEST DUP1 PUSH1 0x1F ADD PUSH1 0x20 DUP1 SWAP2 DIV MUL PUSH1 0x20 ADD PUSH1 0x40 MLOAD SWAP1 DUP2 ADD PUSH1 0x40 MSTORE DUP1 SWAP3 SWAP2 SWAP1 DUP2 DUP2 MSTORE PUSH1 0x20 ADD DUP3 DUP1 SLOAD PUSH2 0x1871 SWAP1 PUSH2 0x28F0 JUMP JUMPDEST DUP1 ISZERO PUSH2 0x18BC JUMPI DUP1 PUSH1 0x1F LT PUSH2 0x1893 JUMPI PUSH2 0x100 DUP1 DUP4 SLOAD DIV MUL DUP4 MSTORE SWAP2 PUSH1 0x20 ADD SWAP2 PUSH2 0x18BC JUMP JUMPDEST DUP3 ADD SWAP2 SWAP1 PUSH0 MSTORE PUSH1 0x20 PUSH0 KECCAK256 SWAP1 JUMPDEST DUP2 SLOAD DUP2 MSTORE SWAP1 PUSH1 0x1 ADD SWAP1 PUSH1 0x20 ADD DUP1 DUP4 GT PUSH2 0x189F JUMPI DUP3 SWAP1 SUB PUSH1 0x1F AND DUP3 ADD SWAP2 JUMPDEST POP POP POP POP POP DUP2 MSTORE PUSH1 0x20 ADD PUSH1 0x3 DUP3 ADD DUP1 SLOAD PUSH2 0x18D5 SWAP1 PUSH2 0x28F0 JUMP JUMPDEST DUP1 PUSH1 0x1F ADD PUSH1 0x20 DUP1 SWAP2 DIV MUL PUSH1 0x20 ADD PUSH1 0x40 MLOAD SWAP1 DUP2 ADD PUSH1 0x40 MSTORE DUP1 SWAP3 SWAP2 SWAP1 DUP2 DUP2 MSTORE PUSH1 0x20 ADD DUP3 DUP1 SLOAD PUSH2 0x1901 SWAP1 PUSH2 0x28F0 JUMP JUMPDEST DUP1 ISZERO PUSH2 0x194C JUMPI DUP1 PUSH1 0x1F LT PUSH2 0x1923 JUMPI PUSH2 0x100 DUP1 DUP4 SLOAD DIV MUL DUP4 MSTORE SWAP2 PUSH1 0x20 ADD SWAP2 PUSH2 0x194C JUMP JUMPDEST DUP3 ADD SWAP2 SWAP1 PUSH0 MSTORE PUSH1 0x20 PUSH0 KECCAK256 SWAP1 JUMPDEST DUP2 SLOAD DUP2 MSTORE SWAP1 PUSH1 0x1 ADD SWAP1 PUSH1 0x20 ADD DUP1 DUP4 GT PUSH2 0x192F JUMPI DUP3 SWAP1 SUB PUSH1 0x1F AND DUP3 ADD SWAP2 JUMPDEST POP POP POP POP POP DUP2 MSTORE PUSH1 0x20 ADD PUSH1 0x4 DUP3 ADD SLOAD DUP2 MSTORE PUSH1 0x20 ADD PUSH1 0x5 DUP3 ADD SLOAD DUP2 MSTORE PUSH1 0x20 ADD PUSH1 0x6 DUP3 ADD SLOAD DUP2 MSTORE PUSH1 0x20 ADD PUSH1 0x7 DUP3 ADD DUP1 SLOAD DUP1 PUSH1 0x20 MUL PUSH1 0x20 ADD PUSH1 0x40 MLOAD SWAP1 DUP2 ADD PUSH1 0x40 MSTORE DUP1 SWAP3 SWAP2 SWAP1 DUP2 DUP2 MSTORE PUSH1 0x20 ADD DUP3 DUP1 SLOAD DUP1 ISZERO PUSH2 0x19C0 JUMPI PUSH1 0x20 MUL DUP3 ADD SWAP2 SWAP1 PUSH0 MSTORE PUSH1 0x20 PUSH0 KECCAK256 SWAP1 JUMPDEST DUP2 SLOAD DUP2 MSTORE PUSH1 0x20 ADD SWAP1 PUSH1 0x1 ADD SWAP1 DUP1 DUP4 GT PUSH2 0x19AC JUMPI JUMPDEST POP POP POP POP POP DUP2 MSTORE PUSH1 0x20 ADD PUSH1 0x8 DUP3 ADD PUSH0 SWAP1 SLOAD SWAP1 PUSH2 0x100 EXP SWAP1 DIV PUSH20 0xFFFFFFFFFFFFFFFFFFFFFFFFFFFFFFFFFFFFFFFF AND PUSH20 0xFFFFFFFFFFFFFFFFFFFFFFFFFFFFFFFFFFFFFFFF AND PUSH20 0xFFFFFFFFFFFFFFFFFFFFFFFFFFFFFFFFFFFFFFFF AND DUP2 MSTORE POP POP SWAP1 POP CALLER PUSH20 0xFFFFFFFFFFFFFFFFFFFFFFFFFFFFFFFFFFFFFFFF AND DUP2 PUSH2 0x100 ADD MLOAD PUSH20 0xFFFFFFFFFFFFFFFFFFFFFFFFFFFFFFFFFFFFFFFF AND SUB PUSH2 0x1A86 JUMPI DUP1 DUP5 DUP5 DUP2 MLOAD DUP2 LT PUSH2 0x1A6C JUMPI PUSH2 0x1A6B PUSH2 0x2E7F JUMP JUMPDEST JUMPDEST PUSH1 0x20 MUL PUSH1 0x20 ADD ADD DUP2 SWAP1 MSTORE POP DUP3 DUP1 PUSH2 0x1A82 SWAP1 PUSH2 0x2EAC JUMP JUMPDEST SWAP4 POP POP JUMPDEST POP DUP1 DUP1 PUSH1 0x1 ADD SWAP2 POP POP PUSH2 0x176A JUMP JUMPDEST POP DUP2 SWAP4 POP POP POP POP SWAP1 JUMP JUMPDEST PUSH1 0x60 PUSH0 SLOAD DUP4 LT ISZERO PUSH2 0x1AAF JUMPI DUP3 PUSH2 0x1AB2 JUMP JUMPDEST PUSH0 SLOAD JUMPDEST SWAP3 POP PUSH0 DUP3 GT ISZERO PUSH2 0x1AD2 JUMPI PUSH0 SLOAD DUP3 GT PUSH2 0x1ACA JUMPI DUP2 PUSH2 0x1ACD JUMP JUMPDEST PUSH0 SLOAD JUMPDEST PUSH2 0x1AD5 JUMP JUMPDEST PUSH1 0x1 JUMPDEST SWAP2 POP PUSH0 DUP4 PUSH8 0xFFFFFFFFFFFFFFFF DUP2 GT ISZERO PUSH2 0x1AF2 JUMPI PUSH2 0x1AF1 PUSH2 0x2896 JUMP JUMPDEST JUMPDEST PUSH1 0x40 MLOAD SWAP1 DUP1 DUP3 MSTORE DUP1 PUSH1 0x20 MUL PUSH1 0x20 ADD DUP3 ADD PUSH1 0x40 MSTORE DUP1 ISZERO PUSH2 0x1B2B JUMPI DUP2 PUSH1 0x20 ADD JUMPDEST PUSH2 0x1B18 PUSH2 0x1EEA JUMP JUMPDEST DUP2 MSTORE PUSH1 0x20 ADD SWAP1 PUSH1 0x1 SWAP1 SUB SWAP1 DUP2 PUSH2 0x1B10 JUMPI SWAP1 POP JUMPDEST POP SWAP1 POP PUSH0 JUMPDEST DUP5 DUP2 LT ISZERO PUSH2 0x1E0D JUMPI PUSH1 0x2 PUSH0 DUP6 DUP4 PUSH2 0x1B47 SWAP2 SWAP1 PUSH2 0x2D15 JUMP JUMPDEST DUP2 MSTORE PUSH1 0x20 ADD SWAP1 DUP2 MSTORE PUSH1 0x20 ADD PUSH0 KECCAK256 PUSH1 0x40 MLOAD DUP1 PUSH2 0x120 ADD PUSH1 0x40 MSTORE SWAP1 DUP2 PUSH0 DUP3 ADD SLOAD DUP2 MSTORE PUSH1 0x20 ADD PUSH1 0x1 DUP3 ADD DUP1 SLOAD PUSH2 0x1B79 SWAP1 PUSH2 0x28F0 JUMP JUMPDEST DUP1 PUSH1 0x1F ADD PUSH1 0x20 DUP1 SWAP2 DIV MUL PUSH1 0x20 ADD PUSH1 0x40 MLOAD SWAP1 DUP2 ADD PUSH1 0x40 MSTORE DUP1 SWAP3 SWAP2 SWAP1 DUP2 DUP2 MSTORE PUSH1 0x20 ADD DUP3 DUP1 SLOAD PUSH2 0x1BA5 SWAP1 PUSH2 0x28F0 JUMP JUMPDEST DUP1 ISZERO PUSH2 0x1BF0 JUMPI DUP1 PUSH1 0x1F LT PUSH2 0x1BC7 JUMPI PUSH2 0x100 DUP1 DUP4 SLOAD DIV MUL DUP4 MSTORE SWAP2 PUSH1 0x20 ADD SWAP2 PUSH2 0x1BF0 JUMP JUMPDEST DUP3 ADD SWAP2 SWAP1 PUSH0 MSTORE PUSH1 0x20 PUSH0 KECCAK256 SWAP1 JUMPDEST DUP2 SLOAD DUP2 MSTORE SWAP1 PUSH1 0x1 ADD SWAP1 PUSH1 0x20 ADD DUP1 DUP4 GT PUSH2 0x1BD3 JUMPI DUP3 SWAP1 SUB PUSH1 0x1F AND DUP3 ADD SWAP2 JUMPDEST POP POP POP POP POP DUP2 MSTORE PUSH1 0x20 ADD PUSH1 0x2 DUP3 ADD DUP1 SLOAD PUSH2 0x1C09 SWAP1 PUSH2 0x28F0 JUMP JUMPDEST DUP1 PUSH1 0x1F ADD PUSH1 0x20 DUP1 SWAP2 DIV MUL PUSH1 0x20 ADD PUSH1 0x40 MLOAD SWAP1 DUP2 ADD PUSH1 0x40 MSTORE DUP1 SWAP3 SWAP2 SWAP1 DUP2 DUP2 MSTORE PUSH1 0x20 ADD DUP3 DUP1 SLOAD PUSH2 0x1C35 SWAP1 PUSH2 0x28F0 JUMP JUMPDEST DUP1 ISZERO PUSH2 0x1C80 JUMPI DUP1 PUSH1 0x1F LT PUSH2 0x1C57 JUMPI PUSH2 0x100 DUP1 DUP4 SLOAD DIV MUL DUP4 MSTORE SWAP2 PUSH1 0x20 ADD SWAP2 PUSH2 0x1C80 JUMP JUMPDEST DUP3 ADD SWAP2 SWAP1 PUSH0 MSTORE PUSH1 0x20 PUSH0 KECCAK256 SWAP1 JUMPDEST DUP2 SLOAD DUP2 MSTORE SWAP1 PUSH1 0x1 ADD SWAP1 PUSH1 0x20 ADD DUP1 DUP4 GT PUSH2 0x1C63 JUMPI DUP3 SWAP1 SUB PUSH1 0x1F AND DUP3 ADD SWAP2 JUMPDEST POP POP POP POP POP DUP2 MSTORE PUSH1 0x20 ADD PUSH1 0x3 DUP3 ADD DUP1 SLOAD PUSH2 0x1C99 SWAP1 PUSH2 0x28F0 JUMP JUMPDEST DUP1 PUSH1 0x1F ADD PUSH1 0x20 DUP1 SWAP2 DIV MUL PUSH1 0x20 ADD PUSH1 0x40 MLOAD SWAP1 DUP2 ADD PUSH1 0x40 MSTORE DUP1 SWAP3 SWAP2 SWAP1 DUP2 DUP2 MSTORE PUSH1 0x20 ADD DUP3 DUP1 SLOAD PUSH2 0x1CC5 SWAP1 PUSH2 0x28F0 JUMP JUMPDEST DUP1 ISZERO PUSH2 0x1D10 JUMPI DUP1 PUSH1 0x1F LT PUSH2 0x1CE7 JUMPI PUSH2 0x100 DUP1 DUP4 SLOAD DIV MUL DUP4 MSTORE SWAP2 PUSH1 0x20 ADD SWAP2 PUSH2 0x1D10 JUMP JUMPDEST DUP3 ADD SWAP2 SWAP1 PUSH0 MSTORE PUSH1 0x20 PUSH0 KECCAK256 SWAP1 JUMPDEST DUP2 SLOAD DUP2 MSTORE SWAP1 PUSH1 0x1 ADD SWAP1 PUSH1 0x20 ADD DUP1 DUP4 GT PUSH2 0x1CF3 JUMPI DUP3 SWAP1 SUB PUSH1 0x1F AND DUP3 ADD SWAP2 JUMPDEST POP POP POP POP POP DUP2 MSTORE PUSH1 0x20 ADD PUSH1 0x4 DUP3 ADD SLOAD DUP2 MSTORE PUSH1 0x20 ADD PUSH1 0x5 DUP3 ADD SLOAD DUP2 MSTORE PUSH1 0x20 ADD PUSH1 0x6 DUP3 ADD SLOAD DUP2 MSTORE PUSH1 0x20 ADD PUSH1 0x7 DUP3 ADD DUP1 SLOAD DUP1 PUSH1 0x20 MUL PUSH1 0x20 ADD PUSH1 0x40 MLOAD SWAP1 DUP2 ADD PUSH1 0x40 MSTORE DUP1 SWAP3 SWAP2 SWAP1 DUP2 DUP2 MSTORE PUSH1 0x20 ADD DUP3 DUP1 SLOAD DUP1 ISZERO PUSH2 0x1D84 JUMPI PUSH1 0x20 MUL DUP3 ADD SWAP2 SWAP1 PUSH0 MSTORE PUSH1 0x20 PUSH0 KECCAK256 SWAP1 JUMPDEST DUP2 SLOAD DUP2 MSTORE PUSH1 0x20 ADD SWAP1 PUSH1 0x1 ADD SWAP1 DUP1 DUP4 GT PUSH2 0x1D70 JUMPI JUMPDEST POP POP POP POP POP DUP2 MSTORE PUSH1 0x20 ADD PUSH1 0x8 DUP3 ADD PUSH0 SWAP1 SLOAD SWAP1 PUSH2 0x100 EXP SWAP1 DIV PUSH20 0xFFFFFFFFFFFFFFFFFFFFFFFFFFFFFFFFFFFFFFFF AND PUSH20 0xFFFFFFFFFFFFFFFFFFFFFFFFFFFFFFFFFFFFFFFF AND PUSH20 0xFFFFFFFFFFFFFFFFFFFFFFFFFFFFFFFFFFFFFFFF AND DUP2 MSTORE POP POP DUP3 DUP3 DUP2 MLOAD DUP2 LT PUSH2 0x1DF5 JUMPI PUSH2 0x1DF4 PUSH2 0x2E7F JUMP JUMPDEST JUMPDEST PUSH1 0x20 MUL PUSH1 0x20 ADD ADD DUP2 SWAP1 MSTORE POP DUP1 DUP1 PUSH1 0x1 ADD SWAP2 POP POP PUSH2 0x1B30 JUMP JUMPDEST POP DUP1 SWAP2 POP POP SWAP3 SWAP2 POP POP JUMP JUMPDEST PUSH1 0x6 SLOAD DUP2 JUMP JUMPDEST PUSH1 0x4 SLOAD DUP2 JUMP JUMPDEST PUSH0 DUP1 DUP2 SLOAD DUP1 SWAP3 SWAP2 SWAP1 PUSH2 0x1E35 SWAP1 PUSH2 0x2EF3 JUMP JUMPDEST SWAP2 SWAP1 POP SSTORE POP JUMP JUMPDEST PUSH0 DUP1 DUP2 SLOAD DUP1 SWAP3 SWAP2 SWAP1 PUSH2 0x1E4D SWAP1 PUSH2 0x2EAC JUMP JUMPDEST SWAP2 SWAP1 POP SSTORE POP JUMP JUMPDEST DUP3 DUP1 SLOAD DUP3 DUP3 SSTORE SWAP1 PUSH0 MSTORE PUSH1 0x20 PUSH0 KECCAK256 SWAP1 DUP2 ADD SWAP3 DUP3 ISZERO PUSH2 0x1E8E JUMPI SWAP2 PUSH1 0x20 MUL DUP3 ADD JUMPDEST DUP3 DUP2 GT ISZERO PUSH2 0x1E8D JUMPI DUP3 CALLDATALOAD DUP3 SSTORE SWAP2 PUSH1 0x20 ADD SWAP2 SWAP1 PUSH1 0x1 ADD SWAP1 PUSH2 0x1E72 JUMP JUMPDEST JUMPDEST POP SWAP1 POP PUSH2 0x1E9B SWAP2 SWAP1 PUSH2 0x1F47 JUMP JUMPDEST POP SWAP1 JUMP JUMPDEST DUP3 DUP1 SLOAD DUP3 DUP3 SSTORE SWAP1 PUSH0 MSTORE PUSH1 0x20 PUSH0 KECCAK256 SWAP1 DUP2 ADD SWAP3 DUP3 ISZERO PUSH2 0x1ED9 JUMPI SWAP2 PUSH1 0x20 MUL DUP3 ADD JUMPDEST DUP3 DUP2 GT ISZERO PUSH2 0x1ED8 JUMPI DUP3 MLOAD DUP3 SSTORE SWAP2 PUSH1 0x20 ADD SWAP2 SWAP1 PUSH1 0x1 ADD SWAP1 PUSH2 0x1EBD JUMP JUMPDEST JUMPDEST POP SWAP1 POP PUSH2 0x1EE6 SWAP2 SWAP1 PUSH2 0x1F47 JUMP JUMPDEST POP SWAP1 JUMP JUMPDEST PUSH1 0x40 MLOAD DUP1 PUSH2 0x120 ADD PUSH1 0x40 MSTORE DUP1 PUSH0 DUP2 MSTORE PUSH1 0x20 ADD PUSH1 0x60 DUP2 MSTORE PUSH1 0x20 ADD PUSH1 0x60 DUP2 MSTORE PUSH1 0x20 ADD PUSH1 0x60 DUP2 MSTORE PUSH1 0x20 ADD PUSH0 DUP2 MSTORE PUSH1 0x20 ADD PUSH0 DUP2 MSTORE PUSH1 0x20 ADD PUSH0 DUP2 MSTORE PUSH1 0x20 ADD PUSH1 0x60 DUP2 MSTORE PUSH1 0x20 ADD PUSH0 PUSH20 0xFFFFFFFFFFFFFFFFFFFFFFFFFFFFFFFFFFFFFFFF AND DUP2 MSTORE POP SWAP1 JUMP JUMPDEST JUMPDEST DUP1 DUP3 GT ISZERO PUSH2 0x1F5E JUMPI PUSH0 DUP2 PUSH0 SWAP1 SSTORE POP PUSH1 0x1 ADD PUSH2 0x1F48 JUMP JUMPDEST POP SWAP1 JUMP JUMPDEST PUSH0 DUP2 SWAP1 POP SWAP2 SWAP1 POP JUMP JUMPDEST PUSH2 0x1F74 DUP2 PUSH2 0x1F62 JUMP JUMPDEST DUP3 MSTORE POP POP JUMP JUMPDEST PUSH0 PUSH1 0x20 DUP3 ADD SWAP1 POP PUSH2 0x1F8D PUSH0 DUP4 ADD DUP5 PUSH2 0x1F6B JUMP JUMPDEST SWAP3 SWAP2 POP POP JUMP JUMPDEST PUSH0 DUP1 REVERT JUMPDEST PUSH0 DUP1 REVERT JUMPDEST PUSH2 0x1FA4 DUP2 PUSH2 0x1F62 JUMP JUMPDEST DUP2 EQ PUSH2 0x1FAE JUMPI PUSH0 DUP1 REVERT JUMPDEST POP JUMP JUMPDEST PUSH0 DUP2 CALLDATALOAD SWAP1 POP PUSH2 0x1FBF DUP2 PUSH2 0x1F9B JUMP JUMPDEST SWAP3 SWAP2 POP POP JUMP JUMPDEST PUSH0 DUP1 REVERT JUMPDEST PUSH0 DUP1 REVERT JUMPDEST PUSH0 DUP1 REVERT JUMPDEST PUSH0 DUP1 DUP4 PUSH1 0x1F DUP5 ADD SLT PUSH2 0x1FE6 JUMPI PUSH2 0x1FE5 PUSH2 0x1FC5 JUMP JUMPDEST JUMPDEST DUP3 CALLDATALOAD SWAP1 POP PUSH8 0xFFFFFFFFFFFFFFFF DUP2 GT ISZERO PUSH2 0x2003 JUMPI PUSH2 0x2002 PUSH2 0x1FC9 JUMP JUMPDEST JUMPDEST PUSH1 0x20 DUP4 ADD SWAP2 POP DUP4 PUSH1 0x1 DUP3 MUL DUP4 ADD GT ISZERO PUSH2 0x201F JUMPI PUSH2 0x201E PUSH2 0x1FCD JUMP JUMPDEST JUMPDEST SWAP3 POP SWAP3 SWAP1 POP JUMP JUMPDEST PUSH0 DUP1 DUP4 PUSH1 0x1F DUP5 ADD SLT PUSH2 0x203B JUMPI PUSH2 0x203A PUSH2 0x1FC5 JUMP JUMPDEST JUMPDEST DUP3 CALLDATALOAD SWAP1 POP PUSH8 0xFFFFFFFFFFFFFFFF DUP2 GT ISZERO PUSH2 0x2058 JUMPI PUSH2 0x2057 PUSH2 0x1FC9 JUMP JUMPDEST JUMPDEST PUSH1 0x20 DUP4 ADD SWAP2 POP DUP4 PUSH1 0x20 DUP3 MUL DUP4 ADD GT ISZERO PUSH2 0x2074 JUMPI PUSH2 0x2073 PUSH2 0x1FCD JUMP JUMPDEST JUMPDEST SWAP3 POP SWAP3 SWAP1 POP JUMP JUMPDEST PUSH0 DUP1 PUSH0 DUP1 PUSH0 DUP1 PUSH0 DUP1 PUSH0 DUP1 PUSH1 0xC0 DUP12 DUP14 SUB SLT ISZERO PUSH2 0x2099 JUMPI PUSH2 0x2098 PUSH2 0x1F93 JUMP JUMPDEST JUMPDEST PUSH0 PUSH2 0x20A6 DUP14 DUP3 DUP15 ADD PUSH2 0x1FB1 JUMP JUMPDEST SWAP11 POP POP PUSH1 0x20 DUP12 ADD CALLDATALOAD PUSH8 0xFFFFFFFFFFFFFFFF DUP2 GT ISZERO PUSH2 0x20C7 JUMPI PUSH2 0x20C6 PUSH2 0x1F97 JUMP JUMPDEST JUMPDEST PUSH2 0x20D3 DUP14 DUP3 DUP15 ADD PUSH2 0x1FD1 JUMP JUMPDEST SWAP10 POP SWAP10 POP POP PUSH1 0x40 DUP12 ADD CALLDATALOAD PUSH8 0xFFFFFFFFFFFFFFFF DUP2 GT ISZERO PUSH2 0x20F6 JUMPI PUSH2 0x20F5 PUSH2 0x1F97 JUMP JUMPDEST JUMPDEST PUSH2 0x2102 DUP14 DUP3 DUP15 ADD PUSH2 0x1FD1 JUMP JUMPDEST SWAP8 POP SWAP8 POP POP PUSH1 0x60 DUP12 ADD CALLDATALOAD PUSH8 0xFFFFFFFFFFFFFFFF DUP2 GT ISZERO PUSH2 0x2125 JUMPI PUSH2 0x2124 PUSH2 0x1F97 JUMP JUMPDEST JUMPDEST PUSH2 0x2131 DUP14 DUP3 DUP15 ADD PUSH2 0x1FD1 JUMP JUMPDEST SWAP6 POP SWAP6 POP POP PUSH1 0x80 PUSH2 0x2144 DUP14 DUP3 DUP15 ADD PUSH2 0x1FB1 JUMP JUMPDEST SWAP4 POP POP PUSH1 0xA0 DUP12 ADD CALLDATALOAD PUSH8 0xFFFFFFFFFFFFFFFF DUP2 GT ISZERO PUSH2 0x2165 JUMPI PUSH2 0x2164 PUSH2 0x1F97 JUMP JUMPDEST JUMPDEST PUSH2 0x2171 DUP14 DUP3 DUP15 ADD PUSH2 0x2026 JUMP JUMPDEST SWAP3 POP SWAP3 POP POP SWAP3 SWAP6 SWAP9 SWAP12 SWAP2 SWAP5 SWAP8 SWAP11 POP SWAP3 SWAP6 SWAP9 POP JUMP JUMPDEST PUSH0 PUSH1 0x20 DUP3 DUP5 SUB SLT ISZERO PUSH2 0x219A JUMPI PUSH2 0x2199 PUSH2 0x1F93 JUMP JUMPDEST JUMPDEST PUSH0 PUSH2 0x21A7 DUP5 DUP3 DUP6 ADD PUSH2 0x1FB1 JUMP JUMPDEST SWAP2 POP POP SWAP3 SWAP2 POP POP JUMP JUMPDEST PUSH0 PUSH20 0xFFFFFFFFFFFFFFFFFFFFFFFFFFFFFFFFFFFFFFFF DUP3 AND SWAP1 POP SWAP2 SWAP1 POP JUMP JUMPDEST PUSH0 PUSH2 0x21D9 DUP3 PUSH2 0x21B0 JUMP JUMPDEST SWAP1 POP SWAP2 SWAP1 POP JUMP JUMPDEST PUSH2 0x21E9 DUP2 PUSH2 0x21CF JUMP JUMPDEST DUP2 EQ PUSH2 0x21F3 JUMPI PUSH0 DUP1 REVERT JUMPDEST POP JUMP JUMPDEST PUSH0 DUP2 CALLDATALOAD SWAP1 POP PUSH2 0x2204 DUP2 PUSH2 0x21E0 JUMP JUMPDEST SWAP3 SWAP2 POP POP JUMP JUMPDEST PUSH0 PUSH1 0x20 DUP3 DUP5 SUB SLT ISZERO PUSH2 0x221F JUMPI PUSH2 0x221E PUSH2 0x1F93 JUMP JUMPDEST JUMPDEST PUSH0 PUSH2 0x222C DUP5 DUP3 DUP6 ADD PUSH2 0x21F6 JUMP JUMPDEST SWAP2 POP POP SWAP3 SWAP2 POP POP JUMP JUMPDEST PUSH0 DUP1 PUSH1 0x40 DUP4 DUP6 SUB SLT ISZERO PUSH2 0x224B JUMPI PUSH2 0x224A PUSH2 0x1F93 JUMP JUMPDEST JUMPDEST PUSH0 PUSH2 0x2258 DUP6 DUP3 DUP7 ADD PUSH2 0x21F6 JUMP JUMPDEST SWAP3 POP POP PUSH1 0x20 PUSH2 0x2269 DUP6 DUP3 DUP7 ADD PUSH2 0x1FB1 JUMP JUMPDEST SWAP2 POP POP SWAP3 POP SWAP3 SWAP1 POP JUMP JUMPDEST PUSH0 DUP1 PUSH0 DUP1 PUSH0 DUP1 PUSH0 DUP1 PUSH0 PUSH1 0xA0 DUP11 DUP13 SUB SLT ISZERO PUSH2 0x2290 JUMPI PUSH2 0x228F PUSH2 0x1F93 JUMP JUMPDEST JUMPDEST PUSH0 DUP11 ADD CALLDATALOAD PUSH8 0xFFFFFFFFFFFFFFFF DUP2 GT ISZERO PUSH2 0x22AD JUMPI PUSH2 0x22AC PUSH2 0x1F97 JUMP JUMPDEST JUMPDEST PUSH2 0x22B9 DUP13 DUP3 DUP14 ADD PUSH2 0x1FD1 JUMP JUMPDEST SWAP10 POP SWAP10 POP POP PUSH1 0x20 DUP11 ADD CALLDATALOAD PUSH8 0xFFFFFFFFFFFFFFFF DUP2 GT ISZERO PUSH2 0x22DC JUMPI PUSH2 0x22DB PUSH2 0x1F97 JUMP JUMPDEST JUMPDEST PUSH2 0x22E8 DUP13 DUP3 DUP14 ADD PUSH2 0x1FD1 JUMP JUMPDEST SWAP8 POP SWAP8 POP POP PUSH1 0x40 DUP11 ADD CALLDATALOAD PUSH8 0xFFFFFFFFFFFFFFFF DUP2 GT ISZERO PUSH2 0x230B JUMPI PUSH2 0x230A PUSH2 0x1F97 JUMP JUMPDEST JUMPDEST PUSH2 0x2317 DUP13 DUP3 DUP14 ADD PUSH2 0x1FD1 JUMP JUMPDEST SWAP6 POP SWAP6 POP POP PUSH1 0x60 PUSH2 0x232A DUP13 DUP3 DUP14 ADD PUSH2 0x1FB1 JUMP JUMPDEST SWAP4 POP POP PUSH1 0x80 DUP11 ADD CALLDATALOAD PUSH8 0xFFFFFFFFFFFFFFFF DUP2 GT ISZERO PUSH2 0x234B JUMPI PUSH2 0x234A PUSH2 0x1F97 JUMP JUMPDEST JUMPDEST PUSH2 0x2357 DUP13 DUP3 DUP14 ADD PUSH2 0x2026 JUMP JUMPDEST SWAP3 POP SWAP3 POP POP SWAP3 SWAP6 SWAP9 POP SWAP3 SWAP6 SWAP9 POP SWAP3 SWAP6 SWAP9 JUMP JUMPDEST PUSH2 0x2372 DUP2 PUSH2 0x1F62 JUMP JUMPDEST DUP3 MSTORE POP POP JUMP JUMPDEST PUSH0 DUP2 MLOAD SWAP1 POP SWAP2 SWAP1 POP JUMP JUMPDEST PUSH0 DUP3 DUP3 MSTORE PUSH1 0x20 DUP3 ADD SWAP1 POP SWAP3 SWAP2 POP POP JUMP JUMPDEST DUP3 DUP2 DUP4 MCOPY PUSH0 DUP4 DUP4 ADD MSTORE POP POP POP JUMP JUMPDEST PUSH0 PUSH1 0x1F NOT PUSH1 0x1F DUP4 ADD AND SWAP1 POP SWAP2 SWAP1 POP JUMP JUMPDEST PUSH0 PUSH2 0x23BA DUP3 PUSH2 0x2378 JUMP JUMPDEST PUSH2 0x23C4 DUP2 DUP6 PUSH2 0x2382 JUMP JUMPDEST SWAP4 POP PUSH2 0x23D4 DUP2 DUP6 PUSH1 0x20 DUP7 ADD PUSH2 0x2392 JUMP JUMPDEST PUSH2 0x23DD DUP2 PUSH2 0x23A0 JUMP JUMPDEST DUP5 ADD SWAP2 POP POP SWAP3 SWAP2 POP POP JUMP JUMPDEST PUSH0 DUP2 MLOAD SWAP1 POP SWAP2 SWAP1 POP JUMP JUMPDEST PUSH0 DUP3 DUP3 MSTORE PUSH1 0x20 DUP3 ADD SWAP1 POP SWAP3 SWAP2 POP POP JUMP JUMPDEST PUSH0 DUP2 SWAP1 POP PUSH1 0x20 DUP3 ADD SWAP1 POP SWAP2 SWAP1 POP JUMP JUMPDEST PUSH0 PUSH2 0x241C DUP4 DUP4 PUSH2 0x2369 JUMP JUMPDEST PUSH1 0x20 DUP4 ADD SWAP1 POP SWAP3 SWAP2 POP POP JUMP JUMPDEST PUSH0 PUSH1 0x20 DUP3 ADD SWAP1 POP SWAP2 SWAP1 POP JUMP JUMPDEST PUSH0 PUSH2 0x243E DUP3 PUSH2 0x23E8 JUMP JUMPDEST PUSH2 0x2448 DUP2 DUP6 PUSH2 0x23F2 JUMP JUMPDEST SWAP4 POP PUSH2 0x2453 DUP4 PUSH2 0x2402 JUMP JUMPDEST DUP1 PUSH0 JUMPDEST DUP4 DUP2 LT ISZERO PUSH2 0x2483 JUMPI DUP2 MLOAD PUSH2 0x246A DUP9 DUP3 PUSH2 0x2411 JUMP JUMPDEST SWAP8 POP PUSH2 0x2475 DUP4 PUSH2 0x2428 JUMP JUMPDEST SWAP3 POP POP PUSH1 0x1 DUP2 ADD SWAP1 POP PUSH2 0x2456 JUMP JUMPDEST POP DUP6 SWAP4 POP POP POP POP SWAP3 SWAP2 POP POP JUMP JUMPDEST PUSH2 0x2499 DUP2 PUSH2 0x21CF JUMP JUMPDEST DUP3 MSTORE POP POP JUMP JUMPDEST PUSH0 PUSH2 0x120 DUP4 ADD PUSH0 DUP4 ADD MLOAD PUSH2 0x24B5 PUSH0 DUP7 ADD DUP3 PUSH2 0x2369 JUMP JUMPDEST POP PUSH1 0x20 DUP4 ADD MLOAD DUP5 DUP3 SUB PUSH1 0x20 DUP7 ADD MSTORE PUSH2 0x24CD DUP3 DUP3 PUSH2 0x23B0 JUMP JUMPDEST SWAP2 POP POP PUSH1 0x40 DUP4 ADD MLOAD DUP5 DUP3 SUB PUSH1 0x40 DUP7 ADD MSTORE PUSH2 0x24E7 DUP3 DUP3 PUSH2 0x23B0 JUMP JUMPDEST SWAP2 POP POP PUSH1 0x60 DUP4 ADD MLOAD DUP5 DUP3 SUB PUSH1 0x60 DUP7 ADD MSTORE PUSH2 0x2501 DUP3 DUP3 PUSH2 0x23B0 JUMP JUMPDEST SWAP2 POP POP PUSH1 0x80 DUP4 ADD MLOAD PUSH2 0x2516 PUSH1 0x80 DUP7 ADD DUP3 PUSH2 0x2369 JUMP JUMPDEST POP PUSH1 0xA0 DUP4 ADD MLOAD PUSH2 0x2529 PUSH1 0xA0 DUP7 ADD DUP3 PUSH2 0x2369 JUMP JUMPDEST POP PUSH1 0xC0 DUP4 ADD MLOAD PUSH2 0x253C PUSH1 0xC0 DUP7 ADD DUP3 PUSH2 0x2369 JUMP JUMPDEST POP PUSH1 0xE0 DUP4 ADD MLOAD DUP5 DUP3 SUB PUSH1 0xE0 DUP7 ADD MSTORE PUSH2 0x2554 DUP3 DUP3 PUSH2 0x2434 JUMP JUMPDEST SWAP2 POP POP PUSH2 0x100 DUP4 ADD MLOAD PUSH2 0x256B PUSH2 0x100 DUP7 ADD DUP3 PUSH2 0x2490 JUMP JUMPDEST POP DUP1 SWAP2 POP POP SWAP3 SWAP2 POP POP JUMP JUMPDEST PUSH0 PUSH1 0x20 DUP3 ADD SWAP1 POP DUP2 DUP2 SUB PUSH0 DUP4 ADD MSTORE PUSH2 0x258E DUP2 DUP5 PUSH2 0x249F JUMP JUMPDEST SWAP1 POP SWAP3 SWAP2 POP POP JUMP JUMPDEST PUSH0 DUP2 MLOAD SWAP1 POP SWAP2 SWAP1 POP JUMP JUMPDEST PUSH0 DUP3 DUP3 MSTORE PUSH1 0x20 DUP3 ADD SWAP1 POP SWAP3 SWAP2 POP POP JUMP JUMPDEST PUSH0 DUP2 SWAP1 POP PUSH1 0x20 DUP3 ADD SWAP1 POP SWAP2 SWAP1 POP JUMP JUMPDEST PUSH0 PUSH2 0x120 DUP4 ADD PUSH0 DUP4 ADD MLOAD PUSH2 0x25D5 PUSH0 DUP7 ADD DUP3 PUSH2 0x2369 JUMP JUMPDEST POP PUSH1 0x20 DUP4 ADD MLOAD DUP5 DUP3 SUB PUSH1 0x20 DUP7 ADD MSTORE PUSH2 0x25ED DUP3 DUP3 PUSH2 0x23B0 JUMP JUMPDEST SWAP2 POP POP PUSH1 0x40 DUP4 ADD MLOAD DUP5 DUP3 SUB PUSH1 0x40 DUP7 ADD MSTORE PUSH2 0x2607 DUP3 DUP3 PUSH2 0x23B0 JUMP JUMPDEST SWAP2 POP POP PUSH1 0x60 DUP4 ADD MLOAD DUP5 DUP3 SUB PUSH1 0x60 DUP7 ADD MSTORE PUSH2 0x2621 DUP3 DUP3 PUSH2 0x23B0 JUMP JUMPDEST SWAP2 POP POP PUSH1 0x80 DUP4 ADD MLOAD PUSH2 0x2636 PUSH1 0x80 DUP7 ADD DUP3 PUSH2 0x2369 JUMP JUMPDEST POP PUSH1 0xA0 DUP4 ADD MLOAD PUSH2 0x2649 PUSH1 0xA0 DUP7 ADD DUP3 PUSH2 0x2369 JUMP JUMPDEST POP PUSH1 0xC0 DUP4 ADD MLOAD PUSH2 0x265C PUSH1 0xC0 DUP7 ADD DUP3 PUSH2 0x2369 JUMP JUMPDEST POP PUSH1 0xE0 DUP4 ADD MLOAD DUP5 DUP3 SUB PUSH1 0xE0 DUP7 ADD MSTORE PUSH2 0x2674 DUP3 DUP3 PUSH2 0x2434 JUMP JUMPDEST SWAP2 POP POP PUSH2 0x100 DUP4 ADD MLOAD PUSH2 0x268B PUSH2 0x100 DUP7 ADD DUP3 PUSH2 0x2490 JUMP JUMPDEST POP DUP1 SWAP2 POP POP SWAP3 SWAP2 POP POP JUMP JUMPDEST PUSH0 PUSH2 0x26A1 DUP4 DUP4 PUSH2 0x25BF JUMP JUMPDEST SWAP1 POP SWAP3 SWAP2 POP POP JUMP JUMPDEST PUSH0 PUSH1 0x20 DUP3 ADD SWAP1 POP SWAP2 SWAP1 POP JUMP JUMPDEST PUSH0 PUSH2 0x26BF DUP3 PUSH2 0x2596 JUMP JUMPDEST PUSH2 0x26C9 DUP2 DUP6 PUSH2 0x25A0 JUMP JUMPDEST SWAP4 POP DUP4 PUSH1 0x20 DUP3 MUL DUP6 ADD PUSH2 0x26DB DUP6 PUSH2 0x25B0 JUMP JUMPDEST DUP1 PUSH0 JUMPDEST DUP6 DUP2 LT ISZERO PUSH2 0x2716 JUMPI DUP5 DUP5 SUB DUP10 MSTORE DUP2 MLOAD PUSH2 0x26F7 DUP6 DUP3 PUSH2 0x2696 JUMP JUMPDEST SWAP5 POP PUSH2 0x2702 DUP4 PUSH2 0x26A9 JUMP JUMPDEST SWAP3 POP PUSH1 0x20 DUP11 ADD SWAP10 POP POP PUSH1 0x1 DUP2 ADD SWAP1 POP PUSH2 0x26DE JUMP JUMPDEST POP DUP3 SWAP8 POP DUP8 SWAP6 POP POP POP POP POP POP SWAP3 SWAP2 POP POP JUMP JUMPDEST PUSH0 PUSH1 0x20 DUP3 ADD SWAP1 POP DUP2 DUP2 SUB PUSH0 DUP4 ADD MSTORE PUSH2 0x2740 DUP2 DUP5 PUSH2 0x26B5 JUMP JUMPDEST SWAP1 POP SWAP3 SWAP2 POP POP JUMP JUMPDEST PUSH0 DUP1 PUSH1 0x40 DUP4 DUP6 SUB SLT ISZERO PUSH2 0x275E JUMPI PUSH2 0x275D PUSH2 0x1F93 JUMP JUMPDEST JUMPDEST PUSH0 PUSH2 0x276B DUP6 DUP3 DUP7 ADD PUSH2 0x1FB1 JUMP JUMPDEST SWAP3 POP POP PUSH1 0x20 PUSH2 0x277C DUP6 DUP3 DUP7 ADD PUSH2 0x1FB1 JUMP JUMPDEST SWAP2 POP POP SWAP3 POP SWAP3 SWAP1 POP JUMP JUMPDEST PUSH0 DUP3 DUP3 MSTORE PUSH1 0x20 DUP3 ADD SWAP1 POP SWAP3 SWAP2 POP POP JUMP JUMPDEST PUSH32 0x4E6F206974656D20776974682074686520676976656E20696E64657820666F75 PUSH0 DUP3 ADD MSTORE PUSH32 0x6E642E0000000000000000000000000000000000000000000000000000000000 PUSH1 0x20 DUP3 ADD MSTORE POP JUMP JUMPDEST PUSH0 PUSH2 0x27F0 PUSH1 0x23 DUP4 PUSH2 0x2786 JUMP JUMPDEST SWAP2 POP PUSH2 0x27FB DUP3 PUSH2 0x2796 JUMP JUMPDEST PUSH1 0x40 DUP3 ADD SWAP1 POP SWAP2 SWAP1 POP JUMP JUMPDEST PUSH0 PUSH1 0x20 DUP3 ADD SWAP1 POP DUP2 DUP2 SUB PUSH0 DUP4 ADD MSTORE PUSH2 0x281D DUP2 PUSH2 0x27E4 JUMP JUMPDEST SWAP1 POP SWAP2 SWAP1 POP JUMP JUMPDEST PUSH32 0x416374696F6E206E6F7420617574686F72697A65642E00000000000000000000 PUSH0 DUP3 ADD MSTORE POP JUMP JUMPDEST PUSH0 PUSH2 0x2858 PUSH1 0x16 DUP4 PUSH2 0x2786 JUMP JUMPDEST SWAP2 POP PUSH2 0x2863 DUP3 PUSH2 0x2824 JUMP JUMPDEST PUSH1 0x20 DUP3 ADD SWAP1 POP SWAP2 SWAP1 POP JUMP JUMPDEST PUSH0 PUSH1 0x20 DUP3 ADD SWAP1 POP DUP2 DUP2 SUB PUSH0 DUP4 ADD MSTORE PUSH2 0x2885 DUP2 PUSH2 0x284C JUMP JUMPDEST SWAP1 POP SWAP2 SWAP1 POP JUMP JUMPDEST PUSH0 DUP3 SWAP1 POP SWAP3 SWAP2 POP POP JUMP JUMPDEST PUSH32 0x4E487B7100000000000000000000000000000000000000000000000000000000 PUSH0 MSTORE PUSH1 0x41 PUSH1 0x4 MSTORE PUSH1 0x24 PUSH0 REVERT JUMPDEST PUSH32 0x4E487B7100000000000000000000000000000000000000000000000000000000 PUSH0 MSTORE PUSH1 0x22 PUSH1 0x4 MSTORE PUSH1 0x24 PUSH0 REVERT JUMPDEST PUSH0 PUSH1 0x2 DUP3 DIV SWAP1 POP PUSH1 0x1 DUP3 AND DUP1 PUSH2 0x2907 JUMPI PUSH1 0x7F DUP3 AND SWAP2 POP JUMPDEST PUSH1 0x20 DUP3 LT DUP2 SUB PUSH2 0x291A JUMPI PUSH2 0x2919 PUSH2 0x28C3 JUMP JUMPDEST JUMPDEST POP SWAP2 SWAP1 POP JUMP JUMPDEST PUSH0 DUP2 SWAP1 POP DUP2 PUSH0 MSTORE PUSH1 0x20 PUSH0 KECCAK256 SWAP1 POP SWAP2 SWAP1 POP JUMP JUMPDEST PUSH0 PUSH1 0x20 PUSH1 0x1F DUP4 ADD DIV SWAP1 POP SWAP2 SWAP1 POP JUMP JUMPDEST PUSH0 DUP3 DUP3 SHL SWAP1 POP SWAP3 SWAP2 POP POP JUMP JUMPDEST PUSH0 PUSH1 0x8 DUP4 MUL PUSH2 0x297C PUSH32 0xFFFFFFFFFFFFFFFFFFFFFFFFFFFFFFFFFFFFFFFFFFFFFFFFFFFFFFFFFFFFFFFF DUP3 PUSH2 0x2941 JUMP JUMPDEST PUSH2 0x2986 DUP7 DUP4 PUSH2 0x2941 JUMP JUMPDEST SWAP6 POP DUP1 NOT DUP5 AND SWAP4 POP DUP1 DUP7 AND DUP5 OR SWAP3 POP POP POP SWAP4 SWAP3 POP POP POP JUMP JUMPDEST PUSH0 DUP2 SWAP1 POP SWAP2 SWAP1 POP JUMP JUMPDEST PUSH0 PUSH2 0x29C1 PUSH2 0x29BC PUSH2 0x29B7 DUP5 PUSH2 0x1F62 JUMP JUMPDEST PUSH2 0x299E JUMP JUMPDEST PUSH2 0x1F62 JUMP JUMPDEST SWAP1 POP SWAP2 SWAP1 POP JUMP JUMPDEST PUSH0 DUP2 SWAP1 POP SWAP2 SWAP1 POP JUMP JUMPDEST PUSH2 0x29DA DUP4 PUSH2 0x29A7 JUMP JUMPDEST PUSH2 0x29EE PUSH2 0x29E6 DUP3 PUSH2 0x29C8 JUMP JUMPDEST DUP5 DUP5 SLOAD PUSH2 0x294D JUMP JUMPDEST DUP3 SSTORE POP POP POP POP JUMP JUMPDEST PUSH0 SWAP1 JUMP JUMPDEST PUSH2 0x2A02 PUSH2 0x29F6 JUMP JUMPDEST PUSH2 0x2A0D DUP2 DUP5 DUP5 PUSH2 0x29D1 JUMP JUMPDEST POP POP POP JUMP JUMPDEST JUMPDEST DUP2 DUP2 LT ISZERO PUSH2 0x2A30 JUMPI PUSH2 0x2A25 PUSH0 DUP3 PUSH2 0x29FA JUMP JUMPDEST PUSH1 0x1 DUP2 ADD SWAP1 POP PUSH2 0x2A13 JUMP JUMPDEST POP POP JUMP JUMPDEST PUSH1 0x1F DUP3 GT ISZERO PUSH2 0x2A75 JUMPI PUSH2 0x2A46 DUP2 PUSH2 0x2920 JUMP JUMPDEST PUSH2 0x2A4F DUP5 PUSH2 0x2932 JUMP JUMPDEST DUP2 ADD PUSH1 0x20 DUP6 LT ISZERO PUSH2 0x2A5E JUMPI DUP2 SWAP1 POP JUMPDEST PUSH2 0x2A72 PUSH2 0x2A6A DUP6 PUSH2 0x2932 JUMP JUMPDEST DUP4 ADD DUP3 PUSH2 0x2A12 JUMP JUMPDEST POP POP JUMPDEST POP POP POP JUMP JUMPDEST PUSH0 DUP3 DUP3 SHR SWAP1 POP SWAP3 SWAP2 POP POP JUMP JUMPDEST PUSH0 PUSH2 0x2A95 PUSH0 NOT DUP5 PUSH1 0x8 MUL PUSH2 0x2A7A JUMP JUMPDEST NOT DUP1 DUP4 AND SWAP2 POP POP SWAP3 SWAP2 POP POP JUMP JUMPDEST PUSH0 PUSH2 0x2AAD DUP4 DUP4 PUSH2 0x2A86 JUMP JUMPDEST SWAP2 POP DUP3 PUSH1 0x2 MUL DUP3 OR SWAP1 POP SWAP3 SWAP2 POP POP JUMP JUMPDEST PUSH2 0x2AC7 DUP4 DUP4 PUSH2 0x288C JUMP JUMPDEST PUSH8 0xFFFFFFFFFFFFFFFF DUP2 GT ISZERO PUSH2 0x2AE0 JUMPI PUSH2 0x2ADF PUSH2 0x2896 JUMP JUMPDEST JUMPDEST PUSH2 0x2AEA DUP3 SLOAD PUSH2 0x28F0 JUMP JUMPDEST PUSH2 0x2AF5 DUP3 DUP3 DUP6 PUSH2 0x2A34 JUMP JUMPDEST PUSH0 PUSH1 0x1F DUP4 GT PUSH1 0x1 DUP2 EQ PUSH2 0x2B22 JUMPI PUSH0 DUP5 ISZERO PUSH2 0x2B10 JUMPI DUP3 DUP8 ADD CALLDATALOAD SWAP1 POP JUMPDEST PUSH2 0x2B1A DUP6 DUP3 PUSH2 0x2AA2 JUMP JUMPDEST DUP7 SSTORE POP PUSH2 0x2B81 JUMP JUMPDEST PUSH1 0x1F NOT DUP5 AND PUSH2 0x2B30 DUP7 PUSH2 0x2920 JUMP JUMPDEST PUSH0 JUMPDEST DUP3 DUP2 LT ISZERO PUSH2 0x2B57 JUMPI DUP5 DUP10 ADD CALLDATALOAD DUP3 SSTORE PUSH1 0x1 DUP3 ADD SWAP2 POP PUSH1 0x20 DUP6 ADD SWAP5 POP PUSH1 0x20 DUP2 ADD SWAP1 POP PUSH2 0x2B32 JUMP JUMPDEST DUP7 DUP4 LT ISZERO PUSH2 0x2B74 JUMPI DUP5 DUP10 ADD CALLDATALOAD PUSH2 0x2B70 PUSH1 0x1F DUP10 AND DUP3 PUSH2 0x2A86 JUMP JUMPDEST DUP4 SSTORE POP JUMPDEST PUSH1 0x1 PUSH1 0x2 DUP9 MUL ADD DUP9 SSTORE POP POP POP JUMPDEST POP POP POP POP POP POP POP JUMP JUMPDEST PUSH32 0x4F6E6C7920617574686F72697A656420706572736F6E656C2063616E20616464 PUSH0 DUP3 ADD MSTORE PUSH32 0x206E657720656E74726965732E00000000000000000000000000000000000000 PUSH1 0x20 DUP3 ADD MSTORE POP JUMP JUMPDEST PUSH0 PUSH2 0x2BE4 PUSH1 0x2D DUP4 PUSH2 0x2786 JUMP JUMPDEST SWAP2 POP PUSH2 0x2BEF DUP3 PUSH2 0x2B8A JUMP JUMPDEST PUSH1 0x40 DUP3 ADD SWAP1 POP SWAP2 SWAP1 POP JUMP JUMPDEST PUSH0 PUSH1 0x20 DUP3 ADD SWAP1 POP DUP2 DUP2 SUB PUSH0 DUP4 ADD MSTORE PUSH2 0x2C11 DUP2 PUSH2 0x2BD8 JUMP JUMPDEST SWAP1 POP SWAP2 SWAP1 POP JUMP JUMPDEST PUSH32 0x4E6F2066756E647320617661696C61626C652E00000000000000000000000000 PUSH0 DUP3 ADD MSTORE POP JUMP JUMPDEST PUSH0 PUSH2 0x2C4C PUSH1 0x13 DUP4 PUSH2 0x2786 JUMP JUMPDEST SWAP2 POP PUSH2 0x2C57 DUP3 PUSH2 0x2C18 JUMP JUMPDEST PUSH1 0x20 DUP3 ADD SWAP1 POP SWAP2 SWAP1 POP JUMP JUMPDEST PUSH0 PUSH1 0x20 DUP3 ADD SWAP1 POP DUP2 DUP2 SUB PUSH0 DUP4 ADD MSTORE PUSH2 0x2C79 DUP2 PUSH2 0x2C40 JUMP JUMPDEST SWAP1 POP SWAP2 SWAP1 POP JUMP JUMPDEST PUSH32 0x496E636F72726563742072656E6577616C206665652E00000000000000000000 PUSH0 DUP3 ADD MSTORE POP JUMP JUMPDEST PUSH0 PUSH2 0x2CB4 PUSH1 0x16 DUP4 PUSH2 0x2786 JUMP JUMPDEST SWAP2 POP PUSH2 0x2CBF DUP3 PUSH2 0x2C80 JUMP JUMPDEST PUSH1 0x20 DUP3 ADD SWAP1 POP SWAP2 SWAP1 POP JUMP JUMPDEST PUSH0 PUSH1 0x20 DUP3 ADD SWAP1 POP DUP2 DUP2 SUB PUSH0 DUP4 ADD MSTORE PUSH2 0x2CE1 DUP2 PUSH2 0x2CA8 JUMP JUMPDEST SWAP1 POP SWAP2 SWAP1 POP JUMP JUMPDEST PUSH32 0x4E487B7100000000000000000000000000000000000000000000000000000000 PUSH0 MSTORE PUSH1 0x11 PUSH1 0x4 MSTORE PUSH1 0x24 PUSH0 REVERT JUMPDEST PUSH0 PUSH2 0x2D1F DUP3 PUSH2 0x1F62 JUMP JUMPDEST SWAP2 POP PUSH2 0x2D2A DUP4 PUSH2 0x1F62 JUMP JUMPDEST SWAP3 POP DUP3 DUP3 ADD SWAP1 POP DUP1 DUP3 GT ISZERO PUSH2 0x2D42 JUMPI PUSH2 0x2D41 PUSH2 0x2CE8 JUMP JUMPDEST JUMPDEST SWAP3 SWAP2 POP POP JUMP JUMPDEST PUSH32 0x496E636F7272656374206372656174696F6E206665652E000000000000000000 PUSH0 DUP3 ADD MSTORE POP JUMP JUMPDEST PUSH0 PUSH2 0x2D7C PUSH1 0x17 DUP4 PUSH2 0x2786 JUMP JUMPDEST SWAP2 POP PUSH2 0x2D87 DUP3 PUSH2 0x2D48 JUMP JUMPDEST PUSH1 0x20 DUP3 ADD SWAP1 POP SWAP2 SWAP1 POP JUMP JUMPDEST PUSH0 PUSH1 0x20 DUP3 ADD SWAP1 POP DUP2 DUP2 SUB PUSH0 DUP4 ADD MSTORE PUSH2 0x2DA9 DUP2 PUSH2 0x2D70 JUMP JUMPDEST SWAP1 POP SWAP2 SWAP1 POP JUMP JUMPDEST PUSH2 0x2DB9 DUP3 PUSH2 0x2378 JUMP JUMPDEST PUSH8 0xFFFFFFFFFFFFFFFF DUP2 GT ISZERO PUSH2 0x2DD2 JUMPI PUSH2 0x2DD1 PUSH2 0x2896 JUMP JUMPDEST JUMPDEST PUSH2 0x2DDC DUP3 SLOAD PUSH2 0x28F0 JUMP JUMPDEST PUSH2 0x2DE7 DUP3 DUP3 DUP6 PUSH2 0x2A34 JUMP JUMPDEST PUSH0 PUSH1 0x20 SWAP1 POP PUSH1 0x1F DUP4 GT PUSH1 0x1 DUP2 EQ PUSH2 0x2E18 JUMPI PUSH0 DUP5 ISZERO PUSH2 0x2E06 JUMPI DUP3 DUP8 ADD MLOAD SWAP1 POP JUMPDEST PUSH2 0x2E10 DUP6 DUP3 PUSH2 0x2AA2 JUMP JUMPDEST DUP7 SSTORE POP PUSH2 0x2E77 JUMP JUMPDEST PUSH1 0x1F NOT DUP5 AND PUSH2 0x2E26 DUP7 PUSH2 0x2920 JUMP JUMPDEST PUSH0 JUMPDEST DUP3 DUP2 LT ISZERO PUSH2 0x2E4D JUMPI DUP5 DUP10 ADD MLOAD DUP3 SSTORE PUSH1 0x1 DUP3 ADD SWAP2 POP PUSH1 0x20 DUP6 ADD SWAP5 POP PUSH1 0x20 DUP2 ADD SWAP1 POP PUSH2 0x2E28 JUMP JUMPDEST DUP7 DUP4 LT ISZERO PUSH2 0x2E6A JUMPI DUP5 DUP10 ADD MLOAD PUSH2 0x2E66 PUSH1 0x1F DUP10 AND DUP3 PUSH2 0x2A86 JUMP JUMPDEST DUP4 SSTORE POP JUMPDEST PUSH1 0x1 PUSH1 0x2 DUP9 MUL ADD DUP9 SSTORE POP POP POP JUMPDEST POP POP POP POP POP POP JUMP JUMPDEST PUSH32 0x4E487B7100000000000000000000000000000000000000000000000000000000 PUSH0 MSTORE PUSH1 0x32 PUSH1 0x4 MSTORE PUSH1 0x24 PUSH0 REVERT JUMPDEST PUSH0 PUSH2 0x2EB6 DUP3 PUSH2 0x1F62 JUMP JUMPDEST SWAP2 POP PUSH32 0xFFFFFFFFFFFFFFFFFFFFFFFFFFFFFFFFFFFFFFFFFFFFFFFFFFFFFFFFFFFFFFFF DUP3 SUB PUSH2 0x2EE8 JUMPI PUSH2 0x2EE7 PUSH2 0x2CE8 JUMP JUMPDEST JUMPDEST PUSH1 0x1 DUP3 ADD SWAP1 POP SWAP2 SWAP1 POP JUMP JUMPDEST PUSH0 PUSH2 0x2EFD DUP3 PUSH2 0x1F62 JUMP JUMPDEST SWAP2 POP PUSH0 DUP3 SUB PUSH2 0x2F0F JUMPI PUSH2 0x2F0E PUSH2 0x2CE8 JUMP JUMPDEST JUMPDEST PUSH1 0x1 DUP3 SUB SWAP1 POP SWAP2 SWAP1 POP JUMP INVALID LOG2 PUSH5 0x6970667358 0x22 SLT KECCAK256 POP PUSH28 0xB9567F668394BAEABF29321997842A63E0860E11CA8B6D916E8E1209 SHL PUSH3 0x64736F PUSH13 0x634300081A0033000000000000 "
				},
				"gasEstimates": {
					"creation": {
						"codeDepositCost": "2422400",
						"executionCost": "76085",
						"totalCost": "2498485"
					},
					"external": {
						"add(string,string,string,uint256,uint256[])": "infinite",
						"changeOwner(address,uint256)": "infinite",
						"count()": "2456",
						"creationFee()": "2513",
						"get(uint256)": "infinite",
						"mine()": "infinite",
						"remove(uint256)": "infinite",
						"renew(uint256)": "infinite",
						"renewalFee()": "2471",
						"revenew()": "2491",
						"some(uint256,uint256)": "infinite",
						"update(uint256,string,string,string,uint256,uint256[])": "infinite",
						"updateCreationFee(uint256)": "24729",
						"updateRenewalFee(uint256)": "24751",
						"withdraw(address)": "infinite"
					}
				},
				"methodIdentifiers": {
					"add(string,string,string,uint256,uint256[])": "5f020a1e",
					"changeOwner(address,uint256)": "56df3db1",
					"count()": "06661abd",
					"creationFee()": "dce0b4e4",
					"get(uint256)": "9507d39a",
					"mine()": "99f4b251",
					"remove(uint256)": "4cc82215",
					"renew(uint256)": "5baa7509",
					"renewalFee()": "080b301e",
					"revenew()": "d35a2a9f",
					"some(uint256,uint256)": "cdb3deb6",
					"update(uint256,string,string,string,uint256,uint256[])": "4cba0eae",
					"updateCreationFee(uint256)": "6fa23795",
					"updateRenewalFee(uint256)": "7e0c194f",
					"withdraw(address)": "51cff8d9"
				}
			},
			"storageLayout": {
				"storage": [
					{
						"astId": 480,
						"contract": "contracts/Patents.sol:Patents",
						"label": "_count",
						"offset": 0,
						"slot": "0",
						"type": "t_uint256"
					},
					{
						"astId": 507,
						"contract": "contracts/Patents.sol:Patents",
						"label": "owner",
						"offset": 0,
						"slot": "1",
						"type": "t_address"
					},
					{
						"astId": 13,
						"contract": "contracts/Patents.sol:Patents",
						"label": "patents",
						"offset": 0,
						"slot": "2",
						"type": "t_mapping(t_uint256,t_struct(Patent)560_storage)"
					},
					{
						"astId": 17,
						"contract": "contracts/Patents.sol:Patents",
						"label": "userPatents",
						"offset": 0,
						"slot": "3",
						"type": "t_mapping(t_address,t_uint256)"
					},
					{
						"astId": 20,
						"contract": "contracts/Patents.sol:Patents",
						"label": "creationFee",
						"offset": 0,
						"slot": "4",
						"type": "t_uint256"
					},
					{
						"astId": 23,
						"contract": "contracts/Patents.sol:Patents",
						"label": "renewalFee",
						"offset": 0,
						"slot": "5",
						"type": "t_uint256"
					},
					{
						"astId": 25,
						"contract": "contracts/Patents.sol:Patents",
						"label": "revenew",
						"offset": 0,
						"slot": "6",
						"type": "t_uint256"
					}
				],
				"types": {
					"t_address": {
						"encoding": "inplace",
						"label": "address",
						"numberOfBytes": "20"
					},
					"t_array(t_uint256)dyn_storage": {
						"base": "t_uint256",
						"encoding": "dynamic_array",
						"label": "uint256[]",
						"numberOfBytes": "32"
					},
					"t_mapping(t_address,t_uint256)": {
						"encoding": "mapping",
						"key": "t_address",
						"label": "mapping(address => uint256)",
						"numberOfBytes": "32",
						"value": "t_uint256"
					},
					"t_mapping(t_uint256,t_struct(Patent)560_storage)": {
						"encoding": "mapping",
						"key": "t_uint256",
						"label": "mapping(uint256 => struct Patent)",
						"numberOfBytes": "32",
						"value": "t_struct(Patent)560_storage"
					},
					"t_string_storage": {
						"encoding": "bytes",
						"label": "string",
						"numberOfBytes": "32"
					},
					"t_struct(Patent)560_storage": {
						"encoding": "inplace",
						"label": "struct Patent",
						"members": [
							{
								"astId": 542,
								"contract": "contracts/Patents.sol:Patents",
								"label": "id",
								"offset": 0,
								"slot": "0",
								"type": "t_uint256"
							},
							{
								"astId": 544,
								"contract": "contracts/Patents.sol:Patents",
								"label": "title",
								"offset": 0,
								"slot": "1",
								"type": "t_string_storage"
							},
							{
								"astId": 546,
								"contract": "contracts/Patents.sol:Patents",
								"label": "summary",
								"offset": 0,
								"slot": "2",
								"type": "t_string_storage"
							},
							{
								"astId": 548,
								"contract": "contracts/Patents.sol:Patents",
								"label": "body",
								"offset": 0,
								"slot": "3",
								"type": "t_string_storage"
							},
							{
								"astId": 550,
								"contract": "contracts/Patents.sol:Patents",
								"label": "created_at",
								"offset": 0,
								"slot": "4",
								"type": "t_uint256"
							},
							{
								"astId": 552,
								"contract": "contracts/Patents.sol:Patents",
								"label": "updated_at",
								"offset": 0,
								"slot": "5",
								"type": "t_uint256"
							},
							{
								"astId": 554,
								"contract": "contracts/Patents.sol:Patents",
								"label": "category_id",
								"offset": 0,
								"slot": "6",
								"type": "t_uint256"
							},
							{
								"astId": 557,
								"contract": "contracts/Patents.sol:Patents",
								"label": "tags",
								"offset": 0,
								"slot": "7",
								"type": "t_array(t_uint256)dyn_storage"
							},
							{
								"astId": 559,
								"contract": "contracts/Patents.sol:Patents",
								"label": "author",
								"offset": 0,
								"slot": "8",
								"type": "t_address"
							}
						],
						"numberOfBytes": "288"
					},
					"t_uint256": {
						"encoding": "inplace",
						"label": "uint256",
						"numberOfBytes": "32"
					}
				}
			},
			"userdoc": {
				"kind": "user",
				"methods": {},
				"version": 1
			}
		}
	}
}