{
	"contracts/Profiles.sol": {
		"Profiles": {
			"abi": [
				{
					"inputs": [
						{
							"internalType": "string",
							"name": "_name",
							"type": "string"
						},
						{
							"internalType": "string",
							"name": "_email",
							"type": "string"
						},
						{
							"internalType": "string",
							"name": "_phone",
							"type": "string"
						}
					],
					"name": "add",
					"outputs": [],
					"stateMutability": "nonpayable",
					"type": "function"
				},
				{
					"inputs": [
						{
							"internalType": "address",
							"name": "_address",
							"type": "address"
						}
					],
					"name": "get",
					"outputs": [
						{
							"components": [
								{
									"internalType": "string",
									"name": "name",
									"type": "string"
								},
								{
									"internalType": "string",
									"name": "email",
									"type": "string"
								},
								{
									"internalType": "string",
									"name": "phone",
									"type": "string"
								}
							],
							"internalType": "struct Profile",
							"name": "",
							"type": "tuple"
						}
					],
					"stateMutability": "view",
					"type": "function"
				},
				{
					"inputs": [
						{
							"internalType": "address",
							"name": "_address",
							"type": "address"
						},
						{
							"internalType": "string",
							"name": "_name",
							"type": "string"
						},
						{
							"internalType": "string",
							"name": "_email",
							"type": "string"
						},
						{
							"internalType": "string",
							"name": "_phone",
							"type": "string"
						}
					],
					"name": "update",
					"outputs": [],
					"stateMutability": "nonpayable",
					"type": "function"
				}
			],
			"devdoc": {
				"kind": "dev",
				"methods": {},
				"version": 1
			},
			"evm": {
				"assembly": "    /* \"contracts/Profiles.sol\":103:820  contract Profiles {... */\n  mstore(0x40, 0x80)\n  callvalue\n  dup1\n  iszero\n  tag_1\n  jumpi\n  0x00\n  dup1\n  revert\ntag_1:\n  pop\n  dataSize(sub_0)\n  dup1\n  dataOffset(sub_0)\n  0x00\n  codecopy\n  0x00\n  return\nstop\n\nsub_0: assembly {\n        /* \"contracts/Profiles.sol\":103:820  contract Profiles {... */\n      mstore(0x40, 0x80)\n      callvalue\n      dup1\n      iszero\n      tag_1\n      jumpi\n      0x00\n      dup1\n      revert\n    tag_1:\n      pop\n      jumpi(tag_2, lt(calldatasize, 0x04))\n      shr(0xe0, calldataload(0x00))\n      dup1\n      0x31445f17\n      eq\n      tag_3\n      jumpi\n      dup1\n      0xc2bc2efc\n      eq\n      tag_4\n      jumpi\n      dup1\n      0xf034d6b1\n      eq\n      tag_5\n      jumpi\n    tag_2:\n      0x00\n      dup1\n      revert\n        /* \"contracts/Profiles.sol\":551:818  function update(address _address, string calldata _name, string calldata _email, string calldata _phone) public {... */\n    tag_3:\n      tag_6\n      0x04\n      dup1\n      calldatasize\n      sub\n      dup2\n      add\n      swap1\n      tag_7\n      swap2\n      swap1\n      tag_8\n      jump\t// in\n    tag_7:\n      tag_9\n      jump\t// in\n    tag_6:\n      stop\n        /* \"contracts/Profiles.sol\":435:545  function get(address _address) public view returns (Profile memory) {... */\n    tag_4:\n      tag_10\n      0x04\n      dup1\n      calldatasize\n      sub\n      dup2\n      add\n      swap1\n      tag_11\n      swap2\n      swap1\n      tag_12\n      jump\t// in\n    tag_11:\n      tag_13\n      jump\t// in\n    tag_10:\n      mload(0x40)\n      tag_14\n      swap2\n      swap1\n      tag_15\n      jump\t// in\n    tag_14:\n      mload(0x40)\n      dup1\n      swap2\n      sub\n      swap1\n      return\n        /* \"contracts/Profiles.sol\":170:429  function add(... */\n    tag_5:\n      tag_16\n      0x04\n      dup1\n      calldatasize\n      sub\n      dup2\n      add\n      swap1\n      tag_17\n      swap2\n      swap1\n      tag_18\n      jump\t// in\n    tag_17:\n      tag_19\n      jump\t// in\n    tag_16:\n      stop\n        /* \"contracts/Profiles.sol\":551:818  function update(address _address, string calldata _name, string calldata _email, string calldata _phone) public {... */\n    tag_9:\n        /* \"contracts/Profiles.sol\":673:696  Profile storage profile */\n      0x00\n        /* \"contracts/Profiles.sol\":699:707  profiles */\n      dup1\n        /* \"contracts/Profiles.sol\":699:717  profiles[_address] */\n      0x00\n        /* \"contracts/Profiles.sol\":708:716  _address */\n      dup10\n        /* \"contracts/Profiles.sol\":699:717  profiles[_address] */\n      0xffffffffffffffffffffffffffffffffffffffff\n      and\n      0xffffffffffffffffffffffffffffffffffffffff\n      and\n      dup2\n      mstore\n      0x20\n      add\n      swap1\n      dup2\n      mstore\n      0x20\n      add\n      0x00\n      keccak256\n        /* \"contracts/Profiles.sol\":673:717  Profile storage profile = profiles[_address] */\n      swap1\n      pop\n        /* \"contracts/Profiles.sol\":742:747  _name */\n      dup7\n      dup7\n        /* \"contracts/Profiles.sol\":727:734  profile */\n      dup3\n        /* \"contracts/Profiles.sol\":727:739  profile.name */\n      0x00\n      add\n        /* \"contracts/Profiles.sol\":727:747  profile.name = _name */\n      swap2\n      dup3\n      tag_21\n      swap3\n      swap2\n      swap1\n      tag_22\n      jump\t// in\n    tag_21:\n      pop\n        /* \"contracts/Profiles.sol\":773:779  _email */\n      dup5\n      dup5\n        /* \"contracts/Profiles.sol\":757:764  profile */\n      dup3\n        /* \"contracts/Profiles.sol\":757:770  profile.email */\n      0x01\n      add\n        /* \"contracts/Profiles.sol\":757:779  profile.email = _email */\n      swap2\n      dup3\n      tag_23\n      swap3\n      swap2\n      swap1\n      tag_22\n      jump\t// in\n    tag_23:\n      pop\n        /* \"contracts/Profiles.sol\":805:811  _phone */\n      dup3\n      dup3\n        /* \"contracts/Profiles.sol\":789:796  profile */\n      dup3\n        /* \"contracts/Profiles.sol\":789:802  profile.phone */\n      0x02\n      add\n        /* \"contracts/Profiles.sol\":789:811  profile.phone = _phone */\n      swap2\n      dup3\n      tag_24\n      swap3\n      swap2\n      swap1\n      tag_22\n      jump\t// in\n    tag_24:\n      pop\n        /* \"contracts/Profiles.sol\":663:818  {... */\n      pop\n        /* \"contracts/Profiles.sol\":551:818  function update(address _address, string calldata _name, string calldata _email, string calldata _phone) public {... */\n      pop\n      pop\n      pop\n      pop\n      pop\n      pop\n      pop\n      jump\t// out\n        /* \"contracts/Profiles.sol\":435:545  function get(address _address) public view returns (Profile memory) {... */\n    tag_13:\n        /* \"contracts/Profiles.sol\":487:501  Profile memory */\n      tag_25\n      tag_26\n      jump\t// in\n    tag_25:\n        /* \"contracts/Profiles.sol\":520:528  profiles */\n      0x00\n        /* \"contracts/Profiles.sol\":520:538  profiles[_address] */\n      dup1\n        /* \"contracts/Profiles.sol\":529:537  _address */\n      dup4\n        /* \"contracts/Profiles.sol\":520:538  profiles[_address] */\n      0xffffffffffffffffffffffffffffffffffffffff\n      and\n      0xffffffffffffffffffffffffffffffffffffffff\n      and\n      dup2\n      mstore\n      0x20\n      add\n      swap1\n      dup2\n      mstore\n      0x20\n      add\n      0x00\n      keccak256\n        /* \"contracts/Profiles.sol\":513:538  return profiles[_address] */\n      mload(0x40)\n      dup1\n      0x60\n      add\n      0x40\n      mstore\n      swap1\n      dup2\n      0x00\n      dup3\n      add\n      dup1\n      sload\n      tag_28\n      swap1\n      tag_29\n      jump\t// in\n    tag_28:\n      dup1\n      0x1f\n      add\n      0x20\n      dup1\n      swap2\n      div\n      mul\n      0x20\n      add\n      mload(0x40)\n      swap1\n      dup2\n      add\n      0x40\n      mstore\n      dup1\n      swap3\n      swap2\n      swap1\n      dup2\n      dup2\n      mstore\n      0x20\n      add\n      dup3\n      dup1\n      sload\n      tag_30\n      swap1\n      tag_29\n      jump\t// in\n    tag_30:\n      dup1\n      iszero\n      tag_31\n      jumpi\n      dup1\n      0x1f\n      lt\n      tag_32\n      jumpi\n      0x0100\n      dup1\n      dup4\n      sload\n      div\n      mul\n      dup4\n      mstore\n      swap2\n      0x20\n      add\n      swap2\n      jump(tag_31)\n    tag_32:\n      dup3\n      add\n      swap2\n      swap1\n      0x00\n      mstore\n      keccak256(0x00, 0x20)\n      swap1\n    tag_33:\n      dup2\n      sload\n      dup2\n      mstore\n      swap1\n      0x01\n      add\n      swap1\n      0x20\n      add\n      dup1\n      dup4\n      gt\n      tag_33\n      jumpi\n      dup3\n      swap1\n      sub\n      0x1f\n      and\n      dup3\n      add\n      swap2\n    tag_31:\n      pop\n      pop\n      pop\n      pop\n      pop\n      dup2\n      mstore\n      0x20\n      add\n      0x01\n      dup3\n      add\n      dup1\n      sload\n      tag_34\n      swap1\n      tag_29\n      jump\t// in\n    tag_34:\n      dup1\n      0x1f\n      add\n      0x20\n      dup1\n      swap2\n      div\n      mul\n      0x20\n      add\n      mload(0x40)\n      swap1\n      dup2\n      add\n      0x40\n      mstore\n      dup1\n      swap3\n      swap2\n      swap1\n      dup2\n      dup2\n      mstore\n      0x20\n      add\n      dup3\n      dup1\n      sload\n      tag_35\n      swap1\n      tag_29\n      jump\t// in\n    tag_35:\n      dup1\n      iszero\n      tag_36\n      jumpi\n      dup1\n      0x1f\n      lt\n      tag_37\n      jumpi\n      0x0100\n      dup1\n      dup4\n      sload\n      div\n      mul\n      dup4\n      mstore\n      swap2\n      0x20\n      add\n      swap2\n      jump(tag_36)\n    tag_37:\n      dup3\n      add\n      swap2\n      swap1\n      0x00\n      mstore\n      keccak256(0x00, 0x20)\n      swap1\n    tag_38:\n      dup2\n      sload\n      dup2\n      mstore\n      swap1\n      0x01\n      add\n      swap1\n      0x20\n      add\n      dup1\n      dup4\n      gt\n      tag_38\n      jumpi\n      dup3\n      swap1\n      sub\n      0x1f\n      and\n      dup3\n      add\n      swap2\n    tag_36:\n      pop\n      pop\n      pop\n      pop\n      pop\n      dup2\n      mstore\n      0x20\n      add\n      0x02\n      dup3\n      add\n      dup1\n      sload\n      tag_39\n      swap1\n      tag_29\n      jump\t// in\n    tag_39:\n      dup1\n      0x1f\n      add\n      0x20\n      dup1\n      swap2\n      div\n      mul\n      0x20\n      add\n      mload(0x40)\n      swap1\n      dup2\n      add\n      0x40\n      mstore\n      dup1\n      swap3\n      swap2\n      swap1\n      dup2\n      dup2\n      mstore\n      0x20\n      add\n      dup3\n      dup1\n      sload\n      tag_40\n      swap1\n      tag_29\n      jump\t// in\n    tag_40:\n      dup1\n      iszero\n      tag_41\n      jumpi\n      dup1\n      0x1f\n      lt\n      tag_42\n      jumpi\n      0x0100\n      dup1\n      dup4\n      sload\n      div\n      mul\n      dup4\n      mstore\n      swap2\n      0x20\n      add\n      swap2\n      jump(tag_41)\n    tag_42:\n      dup3\n      add\n      swap2\n      swap1\n      0x00\n      mstore\n      keccak256(0x00, 0x20)\n      swap1\n    tag_43:\n      dup2\n      sload\n      dup2\n      mstore\n      swap1\n      0x01\n      add\n      swap1\n      0x20\n      add\n      dup1\n      dup4\n      gt\n      tag_43\n      jumpi\n      dup3\n      swap1\n      sub\n      0x1f\n      and\n      dup3\n      add\n      swap2\n    tag_41:\n      pop\n      pop\n      pop\n      pop\n      pop\n      dup2\n      mstore\n      pop\n      pop\n      swap1\n      pop\n        /* \"contracts/Profiles.sol\":435:545  function get(address _address) public view returns (Profile memory) {... */\n      swap2\n      swap1\n      pop\n      jump\t// out\n        /* \"contracts/Profiles.sol\":170:429  function add(... */\n    tag_19:\n        /* \"contracts/Profiles.sol\":324:422  Profile({... */\n      mload(0x40)\n      dup1\n      0x60\n      add\n      0x40\n      mstore\n      dup1\n        /* \"contracts/Profiles.sol\":352:357  _name */\n      dup8\n      dup8\n        /* \"contracts/Profiles.sol\":324:422  Profile({... */\n      dup1\n      dup1\n      0x1f\n      add\n      0x20\n      dup1\n      swap2\n      div\n      mul\n      0x20\n      add\n      mload(0x40)\n      swap1\n      dup2\n      add\n      0x40\n      mstore\n      dup1\n      swap4\n      swap3\n      swap2\n      swap1\n      dup2\n      dup2\n      mstore\n      0x20\n      add\n      dup4\n      dup4\n      dup1\n      dup3\n      dup5\n      calldatacopy\n      0x00\n      dup2\n      dup5\n      add\n      mstore\n      not(0x1f)\n      0x1f\n      dup3\n      add\n      and\n      swap1\n      pop\n      dup1\n      dup4\n      add\n      swap3\n      pop\n      pop\n      pop\n      pop\n      pop\n      pop\n      pop\n      dup2\n      mstore\n      0x20\n      add\n        /* \"contracts/Profiles.sol\":378:384  _email */\n      dup6\n      dup6\n        /* \"contracts/Profiles.sol\":324:422  Profile({... */\n      dup1\n      dup1\n      0x1f\n      add\n      0x20\n      dup1\n      swap2\n      div\n      mul\n      0x20\n      add\n      mload(0x40)\n      swap1\n      dup2\n      add\n      0x40\n      mstore\n      dup1\n      swap4\n      swap3\n      swap2\n      swap1\n      dup2\n      dup2\n      mstore\n      0x20\n      add\n      dup4\n      dup4\n      dup1\n      dup3\n      dup5\n      calldatacopy\n      0x00\n      dup2\n      dup5\n      add\n      mstore\n      not(0x1f)\n      0x1f\n      dup3\n      add\n      and\n      swap1\n      pop\n      dup1\n      dup4\n      add\n      swap3\n      pop\n      pop\n      pop\n      pop\n      pop\n      pop\n      pop\n      dup2\n      mstore\n      0x20\n      add\n        /* \"contracts/Profiles.sol\":405:411  _phone */\n      dup4\n      dup4\n        /* \"contracts/Profiles.sol\":324:422  Profile({... */\n      dup1\n      dup1\n      0x1f\n      add\n      0x20\n      dup1\n      swap2\n      div\n      mul\n      0x20\n      add\n      mload(0x40)\n      swap1\n      dup2\n      add\n      0x40\n      mstore\n      dup1\n      swap4\n      swap3\n      swap2\n      swap1\n      dup2\n      dup2\n      mstore\n      0x20\n      add\n      dup4\n      dup4\n      dup1\n      dup3\n      dup5\n      calldatacopy\n      0x00\n      dup2\n      dup5\n      add\n      mstore\n      not(0x1f)\n      0x1f\n      dup3\n      add\n      and\n      swap1\n      pop\n      dup1\n      dup4\n      add\n      swap3\n      pop\n      pop\n      pop\n      pop\n      pop\n      pop\n      pop\n      dup2\n      mstore\n      pop\n        /* \"contracts/Profiles.sol\":301:309  profiles */\n      0x00\n        /* \"contracts/Profiles.sol\":301:321  profiles[msg.sender] */\n      dup1\n        /* \"contracts/Profiles.sol\":310:320  msg.sender */\n      caller\n        /* \"contracts/Profiles.sol\":301:321  profiles[msg.sender] */\n      0xffffffffffffffffffffffffffffffffffffffff\n      and\n      0xffffffffffffffffffffffffffffffffffffffff\n      and\n      dup2\n      mstore\n      0x20\n      add\n      swap1\n      dup2\n      mstore\n      0x20\n      add\n      0x00\n      keccak256\n        /* \"contracts/Profiles.sol\":301:422  profiles[msg.sender] = Profile({... */\n      0x00\n      dup3\n      add\n      mload\n      dup2\n      0x00\n      add\n      swap1\n      dup2\n      tag_45\n      swap2\n      swap1\n      tag_46\n      jump\t// in\n    tag_45:\n      pop\n      0x20\n      dup3\n      add\n      mload\n      dup2\n      0x01\n      add\n      swap1\n      dup2\n      tag_47\n      swap2\n      swap1\n      tag_46\n      jump\t// in\n    tag_47:\n      pop\n      0x40\n      dup3\n      add\n      mload\n      dup2\n      0x02\n      add\n      swap1\n      dup2\n      tag_48\n      swap2\n      swap1\n      tag_46\n      jump\t// in\n    tag_48:\n      pop\n      swap1\n      pop\n      pop\n        /* \"contracts/Profiles.sol\":170:429  function add(... */\n      pop\n      pop\n      pop\n      pop\n      pop\n      pop\n      jump\t// out\n    tag_26:\n      mload(0x40)\n      dup1\n      0x60\n      add\n      0x40\n      mstore\n      dup1\n      0x60\n      dup2\n      mstore\n      0x20\n      add\n      0x60\n      dup2\n      mstore\n      0x20\n      add\n      0x60\n      dup2\n      mstore\n      pop\n      swap1\n      jump\t// out\n        /* \"#utility.yul\":88:205   */\n    tag_50:\n        /* \"#utility.yul\":197:198   */\n      0x00\n        /* \"#utility.yul\":194:195   */\n      dup1\n        /* \"#utility.yul\":187:199   */\n      revert\n        /* \"#utility.yul\":211:328   */\n    tag_51:\n        /* \"#utility.yul\":320:321   */\n      0x00\n        /* \"#utility.yul\":317:318   */\n      dup1\n        /* \"#utility.yul\":310:322   */\n      revert\n        /* \"#utility.yul\":334:460   */\n    tag_52:\n        /* \"#utility.yul\":371:378   */\n      0x00\n        /* \"#utility.yul\":411:453   */\n      0xffffffffffffffffffffffffffffffffffffffff\n        /* \"#utility.yul\":404:409   */\n      dup3\n        /* \"#utility.yul\":400:454   */\n      and\n        /* \"#utility.yul\":389:454   */\n      swap1\n      pop\n        /* \"#utility.yul\":334:460   */\n      swap2\n      swap1\n      pop\n      jump\t// out\n        /* \"#utility.yul\":466:562   */\n    tag_53:\n        /* \"#utility.yul\":503:510   */\n      0x00\n        /* \"#utility.yul\":532:556   */\n      tag_91\n        /* \"#utility.yul\":550:555   */\n      dup3\n        /* \"#utility.yul\":532:556   */\n      tag_52\n      jump\t// in\n    tag_91:\n        /* \"#utility.yul\":521:556   */\n      swap1\n      pop\n        /* \"#utility.yul\":466:562   */\n      swap2\n      swap1\n      pop\n      jump\t// out\n        /* \"#utility.yul\":568:690   */\n    tag_54:\n        /* \"#utility.yul\":641:665   */\n      tag_93\n        /* \"#utility.yul\":659:664   */\n      dup2\n        /* \"#utility.yul\":641:665   */\n      tag_53\n      jump\t// in\n    tag_93:\n        /* \"#utility.yul\":634:639   */\n      dup2\n        /* \"#utility.yul\":631:666   */\n      eq\n        /* \"#utility.yul\":621:684   */\n      tag_94\n      jumpi\n        /* \"#utility.yul\":680:681   */\n      0x00\n        /* \"#utility.yul\":677:678   */\n      dup1\n        /* \"#utility.yul\":670:682   */\n      revert\n        /* \"#utility.yul\":621:684   */\n    tag_94:\n        /* \"#utility.yul\":568:690   */\n      pop\n      jump\t// out\n        /* \"#utility.yul\":696:835   */\n    tag_55:\n        /* \"#utility.yul\":742:747   */\n      0x00\n        /* \"#utility.yul\":780:786   */\n      dup2\n        /* \"#utility.yul\":767:787   */\n      calldataload\n        /* \"#utility.yul\":758:787   */\n      swap1\n      pop\n        /* \"#utility.yul\":796:829   */\n      tag_96\n        /* \"#utility.yul\":823:828   */\n      dup2\n        /* \"#utility.yul\":796:829   */\n      tag_54\n      jump\t// in\n    tag_96:\n        /* \"#utility.yul\":696:835   */\n      swap3\n      swap2\n      pop\n      pop\n      jump\t// out\n        /* \"#utility.yul\":841:958   */\n    tag_56:\n        /* \"#utility.yul\":950:951   */\n      0x00\n        /* \"#utility.yul\":947:948   */\n      dup1\n        /* \"#utility.yul\":940:952   */\n      revert\n        /* \"#utility.yul\":964:1081   */\n    tag_57:\n        /* \"#utility.yul\":1073:1074   */\n      0x00\n        /* \"#utility.yul\":1070:1071   */\n      dup1\n        /* \"#utility.yul\":1063:1075   */\n      revert\n        /* \"#utility.yul\":1087:1204   */\n    tag_58:\n        /* \"#utility.yul\":1196:1197   */\n      0x00\n        /* \"#utility.yul\":1193:1194   */\n      dup1\n        /* \"#utility.yul\":1186:1198   */\n      revert\n        /* \"#utility.yul\":1224:1777   */\n    tag_59:\n        /* \"#utility.yul\":1282:1290   */\n      0x00\n        /* \"#utility.yul\":1292:1298   */\n      dup1\n        /* \"#utility.yul\":1342:1345   */\n      dup4\n        /* \"#utility.yul\":1335:1339   */\n      0x1f\n        /* \"#utility.yul\":1327:1333   */\n      dup5\n        /* \"#utility.yul\":1323:1340   */\n      add\n        /* \"#utility.yul\":1319:1346   */\n      slt\n        /* \"#utility.yul\":1309:1431   */\n      tag_101\n      jumpi\n        /* \"#utility.yul\":1350:1429   */\n      tag_102\n      tag_56\n      jump\t// in\n    tag_102:\n        /* \"#utility.yul\":1309:1431   */\n    tag_101:\n        /* \"#utility.yul\":1463:1469   */\n      dup3\n        /* \"#utility.yul\":1450:1470   */\n      calldataload\n        /* \"#utility.yul\":1440:1470   */\n      swap1\n      pop\n        /* \"#utility.yul\":1493:1511   */\n      0xffffffffffffffff\n        /* \"#utility.yul\":1485:1491   */\n      dup2\n        /* \"#utility.yul\":1482:1512   */\n      gt\n        /* \"#utility.yul\":1479:1596   */\n      iszero\n      tag_103\n      jumpi\n        /* \"#utility.yul\":1515:1594   */\n      tag_104\n      tag_57\n      jump\t// in\n    tag_104:\n        /* \"#utility.yul\":1479:1596   */\n    tag_103:\n        /* \"#utility.yul\":1629:1633   */\n      0x20\n        /* \"#utility.yul\":1621:1627   */\n      dup4\n        /* \"#utility.yul\":1617:1634   */\n      add\n        /* \"#utility.yul\":1605:1634   */\n      swap2\n      pop\n        /* \"#utility.yul\":1683:1686   */\n      dup4\n        /* \"#utility.yul\":1675:1679   */\n      0x01\n        /* \"#utility.yul\":1667:1673   */\n      dup3\n        /* \"#utility.yul\":1663:1680   */\n      mul\n        /* \"#utility.yul\":1653:1661   */\n      dup4\n        /* \"#utility.yul\":1649:1681   */\n      add\n        /* \"#utility.yul\":1646:1687   */\n      gt\n        /* \"#utility.yul\":1643:1771   */\n      iszero\n      tag_105\n      jumpi\n        /* \"#utility.yul\":1690:1769   */\n      tag_106\n      tag_58\n      jump\t// in\n    tag_106:\n        /* \"#utility.yul\":1643:1771   */\n    tag_105:\n        /* \"#utility.yul\":1224:1777   */\n      swap3\n      pop\n      swap3\n      swap1\n      pop\n      jump\t// out\n        /* \"#utility.yul\":1783:3148   */\n    tag_8:\n        /* \"#utility.yul\":1905:1911   */\n      0x00\n        /* \"#utility.yul\":1913:1919   */\n      dup1\n        /* \"#utility.yul\":1921:1927   */\n      0x00\n        /* \"#utility.yul\":1929:1935   */\n      dup1\n        /* \"#utility.yul\":1937:1943   */\n      0x00\n        /* \"#utility.yul\":1945:1951   */\n      dup1\n        /* \"#utility.yul\":1953:1959   */\n      0x00\n        /* \"#utility.yul\":2002:2005   */\n      0x80\n        /* \"#utility.yul\":1990:1999   */\n      dup9\n        /* \"#utility.yul\":1981:1988   */\n      dup11\n        /* \"#utility.yul\":1977:2000   */\n      sub\n        /* \"#utility.yul\":1973:2006   */\n      slt\n        /* \"#utility.yul\":1970:2090   */\n      iszero\n      tag_108\n      jumpi\n        /* \"#utility.yul\":2009:2088   */\n      tag_109\n      tag_50\n      jump\t// in\n    tag_109:\n        /* \"#utility.yul\":1970:2090   */\n    tag_108:\n        /* \"#utility.yul\":2129:2130   */\n      0x00\n        /* \"#utility.yul\":2154:2207   */\n      tag_110\n        /* \"#utility.yul\":2199:2206   */\n      dup11\n        /* \"#utility.yul\":2190:2196   */\n      dup3\n        /* \"#utility.yul\":2179:2188   */\n      dup12\n        /* \"#utility.yul\":2175:2197   */\n      add\n        /* \"#utility.yul\":2154:2207   */\n      tag_55\n      jump\t// in\n    tag_110:\n        /* \"#utility.yul\":2144:2207   */\n      swap8\n      pop\n        /* \"#utility.yul\":2100:2217   */\n      pop\n        /* \"#utility.yul\":2284:2286   */\n      0x20\n        /* \"#utility.yul\":2273:2282   */\n      dup9\n        /* \"#utility.yul\":2269:2287   */\n      add\n        /* \"#utility.yul\":2256:2288   */\n      calldataload\n        /* \"#utility.yul\":2315:2333   */\n      0xffffffffffffffff\n        /* \"#utility.yul\":2307:2313   */\n      dup2\n        /* \"#utility.yul\":2304:2334   */\n      gt\n        /* \"#utility.yul\":2301:2418   */\n      iszero\n      tag_111\n      jumpi\n        /* \"#utility.yul\":2337:2416   */\n      tag_112\n      tag_51\n      jump\t// in\n    tag_112:\n        /* \"#utility.yul\":2301:2418   */\n    tag_111:\n        /* \"#utility.yul\":2450:2515   */\n      tag_113\n        /* \"#utility.yul\":2507:2514   */\n      dup11\n        /* \"#utility.yul\":2498:2504   */\n      dup3\n        /* \"#utility.yul\":2487:2496   */\n      dup12\n        /* \"#utility.yul\":2483:2505   */\n      add\n        /* \"#utility.yul\":2450:2515   */\n      tag_59\n      jump\t// in\n    tag_113:\n        /* \"#utility.yul\":2432:2515   */\n      swap7\n      pop\n      swap7\n      pop\n        /* \"#utility.yul\":2227:2525   */\n      pop\n        /* \"#utility.yul\":2592:2594   */\n      0x40\n        /* \"#utility.yul\":2581:2590   */\n      dup9\n        /* \"#utility.yul\":2577:2595   */\n      add\n        /* \"#utility.yul\":2564:2596   */\n      calldataload\n        /* \"#utility.yul\":2623:2641   */\n      0xffffffffffffffff\n        /* \"#utility.yul\":2615:2621   */\n      dup2\n        /* \"#utility.yul\":2612:2642   */\n      gt\n        /* \"#utility.yul\":2609:2726   */\n      iszero\n      tag_114\n      jumpi\n        /* \"#utility.yul\":2645:2724   */\n      tag_115\n      tag_51\n      jump\t// in\n    tag_115:\n        /* \"#utility.yul\":2609:2726   */\n    tag_114:\n        /* \"#utility.yul\":2758:2823   */\n      tag_116\n        /* \"#utility.yul\":2815:2822   */\n      dup11\n        /* \"#utility.yul\":2806:2812   */\n      dup3\n        /* \"#utility.yul\":2795:2804   */\n      dup12\n        /* \"#utility.yul\":2791:2813   */\n      add\n        /* \"#utility.yul\":2758:2823   */\n      tag_59\n      jump\t// in\n    tag_116:\n        /* \"#utility.yul\":2740:2823   */\n      swap5\n      pop\n      swap5\n      pop\n        /* \"#utility.yul\":2535:2833   */\n      pop\n        /* \"#utility.yul\":2900:2902   */\n      0x60\n        /* \"#utility.yul\":2889:2898   */\n      dup9\n        /* \"#utility.yul\":2885:2903   */\n      add\n        /* \"#utility.yul\":2872:2904   */\n      calldataload\n        /* \"#utility.yul\":2931:2949   */\n      0xffffffffffffffff\n        /* \"#utility.yul\":2923:2929   */\n      dup2\n        /* \"#utility.yul\":2920:2950   */\n      gt\n        /* \"#utility.yul\":2917:3034   */\n      iszero\n      tag_117\n      jumpi\n        /* \"#utility.yul\":2953:3032   */\n      tag_118\n      tag_51\n      jump\t// in\n    tag_118:\n        /* \"#utility.yul\":2917:3034   */\n    tag_117:\n        /* \"#utility.yul\":3066:3131   */\n      tag_119\n        /* \"#utility.yul\":3123:3130   */\n      dup11\n        /* \"#utility.yul\":3114:3120   */\n      dup3\n        /* \"#utility.yul\":3103:3112   */\n      dup12\n        /* \"#utility.yul\":3099:3121   */\n      add\n        /* \"#utility.yul\":3066:3131   */\n      tag_59\n      jump\t// in\n    tag_119:\n        /* \"#utility.yul\":3048:3131   */\n      swap3\n      pop\n      swap3\n      pop\n        /* \"#utility.yul\":2843:3141   */\n      pop\n        /* \"#utility.yul\":1783:3148   */\n      swap3\n      swap6\n      swap9\n      swap2\n      swap5\n      swap8\n      pop\n      swap3\n      swap6\n      pop\n      jump\t// out\n        /* \"#utility.yul\":3154:3483   */\n    tag_12:\n        /* \"#utility.yul\":3213:3219   */\n      0x00\n        /* \"#utility.yul\":3262:3264   */\n      0x20\n        /* \"#utility.yul\":3250:3259   */\n      dup3\n        /* \"#utility.yul\":3241:3248   */\n      dup5\n        /* \"#utility.yul\":3237:3260   */\n      sub\n        /* \"#utility.yul\":3233:3265   */\n      slt\n        /* \"#utility.yul\":3230:3349   */\n      iszero\n      tag_121\n      jumpi\n        /* \"#utility.yul\":3268:3347   */\n      tag_122\n      tag_50\n      jump\t// in\n    tag_122:\n        /* \"#utility.yul\":3230:3349   */\n    tag_121:\n        /* \"#utility.yul\":3388:3389   */\n      0x00\n        /* \"#utility.yul\":3413:3466   */\n      tag_123\n        /* \"#utility.yul\":3458:3465   */\n      dup5\n        /* \"#utility.yul\":3449:3455   */\n      dup3\n        /* \"#utility.yul\":3438:3447   */\n      dup6\n        /* \"#utility.yul\":3434:3456   */\n      add\n        /* \"#utility.yul\":3413:3466   */\n      tag_55\n      jump\t// in\n    tag_123:\n        /* \"#utility.yul\":3403:3466   */\n      swap2\n      pop\n        /* \"#utility.yul\":3359:3476   */\n      pop\n        /* \"#utility.yul\":3154:3483   */\n      swap3\n      swap2\n      pop\n      pop\n      jump\t// out\n        /* \"#utility.yul\":3489:3588   */\n    tag_60:\n        /* \"#utility.yul\":3541:3547   */\n      0x00\n        /* \"#utility.yul\":3575:3580   */\n      dup2\n        /* \"#utility.yul\":3569:3581   */\n      mload\n        /* \"#utility.yul\":3559:3581   */\n      swap1\n      pop\n        /* \"#utility.yul\":3489:3588   */\n      swap2\n      swap1\n      pop\n      jump\t// out\n        /* \"#utility.yul\":3594:3753   */\n    tag_61:\n        /* \"#utility.yul\":3668:3679   */\n      0x00\n        /* \"#utility.yul\":3702:3708   */\n      dup3\n        /* \"#utility.yul\":3697:3700   */\n      dup3\n        /* \"#utility.yul\":3690:3709   */\n      mstore\n        /* \"#utility.yul\":3742:3746   */\n      0x20\n        /* \"#utility.yul\":3737:3740   */\n      dup3\n        /* \"#utility.yul\":3733:3747   */\n      add\n        /* \"#utility.yul\":3718:3747   */\n      swap1\n      pop\n        /* \"#utility.yul\":3594:3753   */\n      swap3\n      swap2\n      pop\n      pop\n      jump\t// out\n        /* \"#utility.yul\":3759:3898   */\n    tag_62:\n        /* \"#utility.yul\":3848:3854   */\n      dup3\n        /* \"#utility.yul\":3843:3846   */\n      dup2\n        /* \"#utility.yul\":3838:3841   */\n      dup4\n        /* \"#utility.yul\":3832:3855   */\n      mcopy\n        /* \"#utility.yul\":3889:3890   */\n      0x00\n        /* \"#utility.yul\":3880:3886   */\n      dup4\n        /* \"#utility.yul\":3875:3878   */\n      dup4\n        /* \"#utility.yul\":3871:3887   */\n      add\n        /* \"#utility.yul\":3864:3891   */\n      mstore\n        /* \"#utility.yul\":3759:3898   */\n      pop\n      pop\n      pop\n      jump\t// out\n        /* \"#utility.yul\":3904:4006   */\n    tag_63:\n        /* \"#utility.yul\":3945:3951   */\n      0x00\n        /* \"#utility.yul\":3996:3998   */\n      0x1f\n        /* \"#utility.yul\":3992:3999   */\n      not\n        /* \"#utility.yul\":3987:3989   */\n      0x1f\n        /* \"#utility.yul\":3980:3985   */\n      dup4\n        /* \"#utility.yul\":3976:3990   */\n      add\n        /* \"#utility.yul\":3972:4000   */\n      and\n        /* \"#utility.yul\":3962:4000   */\n      swap1\n      pop\n        /* \"#utility.yul\":3904:4006   */\n      swap2\n      swap1\n      pop\n      jump\t// out\n        /* \"#utility.yul\":4012:4369   */\n    tag_64:\n        /* \"#utility.yul\":4090:4093   */\n      0x00\n        /* \"#utility.yul\":4118:4157   */\n      tag_129\n        /* \"#utility.yul\":4151:4156   */\n      dup3\n        /* \"#utility.yul\":4118:4157   */\n      tag_60\n      jump\t// in\n    tag_129:\n        /* \"#utility.yul\":4173:4234   */\n      tag_130\n        /* \"#utility.yul\":4227:4233   */\n      dup2\n        /* \"#utility.yul\":4222:4225   */\n      dup6\n        /* \"#utility.yul\":4173:4234   */\n      tag_61\n      jump\t// in\n    tag_130:\n        /* \"#utility.yul\":4166:4234   */\n      swap4\n      pop\n        /* \"#utility.yul\":4243:4308   */\n      tag_131\n        /* \"#utility.yul\":4301:4307   */\n      dup2\n        /* \"#utility.yul\":4296:4299   */\n      dup6\n        /* \"#utility.yul\":4289:4293   */\n      0x20\n        /* \"#utility.yul\":4282:4287   */\n      dup7\n        /* \"#utility.yul\":4278:4294   */\n      add\n        /* \"#utility.yul\":4243:4308   */\n      tag_62\n      jump\t// in\n    tag_131:\n        /* \"#utility.yul\":4333:4362   */\n      tag_132\n        /* \"#utility.yul\":4355:4361   */\n      dup2\n        /* \"#utility.yul\":4333:4362   */\n      tag_63\n      jump\t// in\n    tag_132:\n        /* \"#utility.yul\":4328:4331   */\n      dup5\n        /* \"#utility.yul\":4324:4363   */\n      add\n        /* \"#utility.yul\":4317:4363   */\n      swap2\n      pop\n        /* \"#utility.yul\":4094:4369   */\n      pop\n        /* \"#utility.yul\":4012:4369   */\n      swap3\n      swap2\n      pop\n      pop\n      jump\t// out\n        /* \"#utility.yul\":4415:5335   */\n    tag_65:\n        /* \"#utility.yul\":4530:4533   */\n      0x00\n        /* \"#utility.yul\":4566:4570   */\n      0x60\n        /* \"#utility.yul\":4561:4564   */\n      dup4\n        /* \"#utility.yul\":4557:4571   */\n      add\n        /* \"#utility.yul\":4653:4657   */\n      0x00\n        /* \"#utility.yul\":4646:4651   */\n      dup4\n        /* \"#utility.yul\":4642:4658   */\n      add\n        /* \"#utility.yul\":4636:4659   */\n      mload\n        /* \"#utility.yul\":4706:4709   */\n      dup5\n        /* \"#utility.yul\":4700:4704   */\n      dup3\n        /* \"#utility.yul\":4696:4710   */\n      sub\n        /* \"#utility.yul\":4689:4693   */\n      0x00\n        /* \"#utility.yul\":4684:4687   */\n      dup7\n        /* \"#utility.yul\":4680:4694   */\n      add\n        /* \"#utility.yul\":4673:4711   */\n      mstore\n        /* \"#utility.yul\":4732:4805   */\n      tag_134\n        /* \"#utility.yul\":4800:4804   */\n      dup3\n        /* \"#utility.yul\":4786:4798   */\n      dup3\n        /* \"#utility.yul\":4732:4805   */\n      tag_64\n      jump\t// in\n    tag_134:\n        /* \"#utility.yul\":4724:4805   */\n      swap2\n      pop\n        /* \"#utility.yul\":4581:4816   */\n      pop\n        /* \"#utility.yul\":4899:4903   */\n      0x20\n        /* \"#utility.yul\":4892:4897   */\n      dup4\n        /* \"#utility.yul\":4888:4904   */\n      add\n        /* \"#utility.yul\":4882:4905   */\n      mload\n        /* \"#utility.yul\":4952:4955   */\n      dup5\n        /* \"#utility.yul\":4946:4950   */\n      dup3\n        /* \"#utility.yul\":4942:4956   */\n      sub\n        /* \"#utility.yul\":4935:4939   */\n      0x20\n        /* \"#utility.yul\":4930:4933   */\n      dup7\n        /* \"#utility.yul\":4926:4940   */\n      add\n        /* \"#utility.yul\":4919:4957   */\n      mstore\n        /* \"#utility.yul\":4978:5051   */\n      tag_135\n        /* \"#utility.yul\":5046:5050   */\n      dup3\n        /* \"#utility.yul\":5032:5044   */\n      dup3\n        /* \"#utility.yul\":4978:5051   */\n      tag_64\n      jump\t// in\n    tag_135:\n        /* \"#utility.yul\":4970:5051   */\n      swap2\n      pop\n        /* \"#utility.yul\":4826:5062   */\n      pop\n        /* \"#utility.yul\":5145:5149   */\n      0x40\n        /* \"#utility.yul\":5138:5143   */\n      dup4\n        /* \"#utility.yul\":5134:5150   */\n      add\n        /* \"#utility.yul\":5128:5151   */\n      mload\n        /* \"#utility.yul\":5198:5201   */\n      dup5\n        /* \"#utility.yul\":5192:5196   */\n      dup3\n        /* \"#utility.yul\":5188:5202   */\n      sub\n        /* \"#utility.yul\":5181:5185   */\n      0x40\n        /* \"#utility.yul\":5176:5179   */\n      dup7\n        /* \"#utility.yul\":5172:5186   */\n      add\n        /* \"#utility.yul\":5165:5203   */\n      mstore\n        /* \"#utility.yul\":5224:5297   */\n      tag_136\n        /* \"#utility.yul\":5292:5296   */\n      dup3\n        /* \"#utility.yul\":5278:5290   */\n      dup3\n        /* \"#utility.yul\":5224:5297   */\n      tag_64\n      jump\t// in\n    tag_136:\n        /* \"#utility.yul\":5216:5297   */\n      swap2\n      pop\n        /* \"#utility.yul\":5072:5308   */\n      pop\n        /* \"#utility.yul\":5325:5329   */\n      dup1\n        /* \"#utility.yul\":5318:5329   */\n      swap2\n      pop\n        /* \"#utility.yul\":4535:5335   */\n      pop\n        /* \"#utility.yul\":4415:5335   */\n      swap3\n      swap2\n      pop\n      pop\n      jump\t// out\n        /* \"#utility.yul\":5341:5706   */\n    tag_15:\n        /* \"#utility.yul\":5480:5484   */\n      0x00\n        /* \"#utility.yul\":5518:5520   */\n      0x20\n        /* \"#utility.yul\":5507:5516   */\n      dup3\n        /* \"#utility.yul\":5503:5521   */\n      add\n        /* \"#utility.yul\":5495:5521   */\n      swap1\n      pop\n        /* \"#utility.yul\":5567:5576   */\n      dup2\n        /* \"#utility.yul\":5561:5565   */\n      dup2\n        /* \"#utility.yul\":5557:5577   */\n      sub\n        /* \"#utility.yul\":5553:5554   */\n      0x00\n        /* \"#utility.yul\":5542:5551   */\n      dup4\n        /* \"#utility.yul\":5538:5555   */\n      add\n        /* \"#utility.yul\":5531:5578   */\n      mstore\n        /* \"#utility.yul\":5595:5699   */\n      tag_138\n        /* \"#utility.yul\":5694:5698   */\n      dup2\n        /* \"#utility.yul\":5685:5691   */\n      dup5\n        /* \"#utility.yul\":5595:5699   */\n      tag_65\n      jump\t// in\n    tag_138:\n        /* \"#utility.yul\":5587:5699   */\n      swap1\n      pop\n        /* \"#utility.yul\":5341:5706   */\n      swap3\n      swap2\n      pop\n      pop\n      jump\t// out\n        /* \"#utility.yul\":5712:6931   */\n    tag_18:\n        /* \"#utility.yul\":5825:5831   */\n      0x00\n        /* \"#utility.yul\":5833:5839   */\n      dup1\n        /* \"#utility.yul\":5841:5847   */\n      0x00\n        /* \"#utility.yul\":5849:5855   */\n      dup1\n        /* \"#utility.yul\":5857:5863   */\n      0x00\n        /* \"#utility.yul\":5865:5871   */\n      dup1\n        /* \"#utility.yul\":5914:5916   */\n      0x60\n        /* \"#utility.yul\":5902:5911   */\n      dup8\n        /* \"#utility.yul\":5893:5900   */\n      dup10\n        /* \"#utility.yul\":5889:5912   */\n      sub\n        /* \"#utility.yul\":5885:5917   */\n      slt\n        /* \"#utility.yul\":5882:6001   */\n      iszero\n      tag_140\n      jumpi\n        /* \"#utility.yul\":5920:5999   */\n      tag_141\n      tag_50\n      jump\t// in\n    tag_141:\n        /* \"#utility.yul\":5882:6001   */\n    tag_140:\n        /* \"#utility.yul\":6068:6069   */\n      0x00\n        /* \"#utility.yul\":6057:6066   */\n      dup8\n        /* \"#utility.yul\":6053:6070   */\n      add\n        /* \"#utility.yul\":6040:6071   */\n      calldataload\n        /* \"#utility.yul\":6098:6116   */\n      0xffffffffffffffff\n        /* \"#utility.yul\":6090:6096   */\n      dup2\n        /* \"#utility.yul\":6087:6117   */\n      gt\n        /* \"#utility.yul\":6084:6201   */\n      iszero\n      tag_142\n      jumpi\n        /* \"#utility.yul\":6120:6199   */\n      tag_143\n      tag_51\n      jump\t// in\n    tag_143:\n        /* \"#utility.yul\":6084:6201   */\n    tag_142:\n        /* \"#utility.yul\":6233:6298   */\n      tag_144\n        /* \"#utility.yul\":6290:6297   */\n      dup10\n        /* \"#utility.yul\":6281:6287   */\n      dup3\n        /* \"#utility.yul\":6270:6279   */\n      dup11\n        /* \"#utility.yul\":6266:6288   */\n      add\n        /* \"#utility.yul\":6233:6298   */\n      tag_59\n      jump\t// in\n    tag_144:\n        /* \"#utility.yul\":6215:6298   */\n      swap7\n      pop\n      swap7\n      pop\n        /* \"#utility.yul\":6011:6308   */\n      pop\n        /* \"#utility.yul\":6375:6377   */\n      0x20\n        /* \"#utility.yul\":6364:6373   */\n      dup8\n        /* \"#utility.yul\":6360:6378   */\n      add\n        /* \"#utility.yul\":6347:6379   */\n      calldataload\n        /* \"#utility.yul\":6406:6424   */\n      0xffffffffffffffff\n        /* \"#utility.yul\":6398:6404   */\n      dup2\n        /* \"#utility.yul\":6395:6425   */\n      gt\n        /* \"#utility.yul\":6392:6509   */\n      iszero\n      tag_145\n      jumpi\n        /* \"#utility.yul\":6428:6507   */\n      tag_146\n      tag_51\n      jump\t// in\n    tag_146:\n        /* \"#utility.yul\":6392:6509   */\n    tag_145:\n        /* \"#utility.yul\":6541:6606   */\n      tag_147\n        /* \"#utility.yul\":6598:6605   */\n      dup10\n        /* \"#utility.yul\":6589:6595   */\n      dup3\n        /* \"#utility.yul\":6578:6587   */\n      dup11\n        /* \"#utility.yul\":6574:6596   */\n      add\n        /* \"#utility.yul\":6541:6606   */\n      tag_59\n      jump\t// in\n    tag_147:\n        /* \"#utility.yul\":6523:6606   */\n      swap5\n      pop\n      swap5\n      pop\n        /* \"#utility.yul\":6318:6616   */\n      pop\n        /* \"#utility.yul\":6683:6685   */\n      0x40\n        /* \"#utility.yul\":6672:6681   */\n      dup8\n        /* \"#utility.yul\":6668:6686   */\n      add\n        /* \"#utility.yul\":6655:6687   */\n      calldataload\n        /* \"#utility.yul\":6714:6732   */\n      0xffffffffffffffff\n        /* \"#utility.yul\":6706:6712   */\n      dup2\n        /* \"#utility.yul\":6703:6733   */\n      gt\n        /* \"#utility.yul\":6700:6817   */\n      iszero\n      tag_148\n      jumpi\n        /* \"#utility.yul\":6736:6815   */\n      tag_149\n      tag_51\n      jump\t// in\n    tag_149:\n        /* \"#utility.yul\":6700:6817   */\n    tag_148:\n        /* \"#utility.yul\":6849:6914   */\n      tag_150\n        /* \"#utility.yul\":6906:6913   */\n      dup10\n        /* \"#utility.yul\":6897:6903   */\n      dup3\n        /* \"#utility.yul\":6886:6895   */\n      dup11\n        /* \"#utility.yul\":6882:6904   */\n      add\n        /* \"#utility.yul\":6849:6914   */\n      tag_59\n      jump\t// in\n    tag_150:\n        /* \"#utility.yul\":6831:6914   */\n      swap3\n      pop\n      swap3\n      pop\n        /* \"#utility.yul\":6626:6924   */\n      pop\n        /* \"#utility.yul\":5712:6931   */\n      swap3\n      swap6\n      pop\n      swap3\n      swap6\n      pop\n      swap3\n      swap6\n      jump\t// out\n        /* \"#utility.yul\":6937:7034   */\n    tag_66:\n        /* \"#utility.yul\":6996:7002   */\n      0x00\n        /* \"#utility.yul\":7024:7027   */\n      dup3\n        /* \"#utility.yul\":7014:7027   */\n      swap1\n      pop\n        /* \"#utility.yul\":6937:7034   */\n      swap3\n      swap2\n      pop\n      pop\n      jump\t// out\n        /* \"#utility.yul\":7040:7220   */\n    tag_67:\n        /* \"#utility.yul\":7088:7165   */\n      0x4e487b7100000000000000000000000000000000000000000000000000000000\n        /* \"#utility.yul\":7085:7086   */\n      0x00\n        /* \"#utility.yul\":7078:7166   */\n      mstore\n        /* \"#utility.yul\":7185:7189   */\n      0x41\n        /* \"#utility.yul\":7182:7183   */\n      0x04\n        /* \"#utility.yul\":7175:7190   */\n      mstore\n        /* \"#utility.yul\":7209:7213   */\n      0x24\n        /* \"#utility.yul\":7206:7207   */\n      0x00\n        /* \"#utility.yul\":7199:7214   */\n      revert\n        /* \"#utility.yul\":7226:7406   */\n    tag_68:\n        /* \"#utility.yul\":7274:7351   */\n      0x4e487b7100000000000000000000000000000000000000000000000000000000\n        /* \"#utility.yul\":7271:7272   */\n      0x00\n        /* \"#utility.yul\":7264:7352   */\n      mstore\n        /* \"#utility.yul\":7371:7375   */\n      0x22\n        /* \"#utility.yul\":7368:7369   */\n      0x04\n        /* \"#utility.yul\":7361:7376   */\n      mstore\n        /* \"#utility.yul\":7395:7399   */\n      0x24\n        /* \"#utility.yul\":7392:7393   */\n      0x00\n        /* \"#utility.yul\":7385:7400   */\n      revert\n        /* \"#utility.yul\":7412:7732   */\n    tag_29:\n        /* \"#utility.yul\":7456:7462   */\n      0x00\n        /* \"#utility.yul\":7493:7494   */\n      0x02\n        /* \"#utility.yul\":7487:7491   */\n      dup3\n        /* \"#utility.yul\":7483:7495   */\n      div\n        /* \"#utility.yul\":7473:7495   */\n      swap1\n      pop\n        /* \"#utility.yul\":7540:7541   */\n      0x01\n        /* \"#utility.yul\":7534:7538   */\n      dup3\n        /* \"#utility.yul\":7530:7542   */\n      and\n        /* \"#utility.yul\":7561:7579   */\n      dup1\n        /* \"#utility.yul\":7551:7632   */\n      tag_155\n      jumpi\n        /* \"#utility.yul\":7617:7621   */\n      0x7f\n        /* \"#utility.yul\":7609:7615   */\n      dup3\n        /* \"#utility.yul\":7605:7622   */\n      and\n        /* \"#utility.yul\":7595:7622   */\n      swap2\n      pop\n        /* \"#utility.yul\":7551:7632   */\n    tag_155:\n        /* \"#utility.yul\":7679:7681   */\n      0x20\n        /* \"#utility.yul\":7671:7677   */\n      dup3\n        /* \"#utility.yul\":7668:7682   */\n      lt\n        /* \"#utility.yul\":7648:7666   */\n      dup2\n        /* \"#utility.yul\":7645:7683   */\n      sub\n        /* \"#utility.yul\":7642:7726   */\n      tag_156\n      jumpi\n        /* \"#utility.yul\":7698:7716   */\n      tag_157\n      tag_68\n      jump\t// in\n    tag_157:\n        /* \"#utility.yul\":7642:7726   */\n    tag_156:\n        /* \"#utility.yul\":7463:7732   */\n      pop\n        /* \"#utility.yul\":7412:7732   */\n      swap2\n      swap1\n      pop\n      jump\t// out\n        /* \"#utility.yul\":7738:7879   */\n    tag_69:\n        /* \"#utility.yul\":7787:7791   */\n      0x00\n        /* \"#utility.yul\":7810:7813   */\n      dup2\n        /* \"#utility.yul\":7802:7813   */\n      swap1\n      pop\n        /* \"#utility.yul\":7833:7836   */\n      dup2\n        /* \"#utility.yul\":7830:7831   */\n      0x00\n        /* \"#utility.yul\":7823:7837   */\n      mstore\n        /* \"#utility.yul\":7867:7871   */\n      0x20\n        /* \"#utility.yul\":7864:7865   */\n      0x00\n        /* \"#utility.yul\":7854:7872   */\n      keccak256\n        /* \"#utility.yul\":7846:7872   */\n      swap1\n      pop\n        /* \"#utility.yul\":7738:7879   */\n      swap2\n      swap1\n      pop\n      jump\t// out\n        /* \"#utility.yul\":7885:7978   */\n    tag_70:\n        /* \"#utility.yul\":7922:7928   */\n      0x00\n        /* \"#utility.yul\":7969:7971   */\n      0x20\n        /* \"#utility.yul\":7964:7966   */\n      0x1f\n        /* \"#utility.yul\":7957:7962   */\n      dup4\n        /* \"#utility.yul\":7953:7967   */\n      add\n        /* \"#utility.yul\":7949:7972   */\n      div\n        /* \"#utility.yul\":7939:7972   */\n      swap1\n      pop\n        /* \"#utility.yul\":7885:7978   */\n      swap2\n      swap1\n      pop\n      jump\t// out\n        /* \"#utility.yul\":7984:8091   */\n    tag_71:\n        /* \"#utility.yul\":8028:8036   */\n      0x00\n        /* \"#utility.yul\":8078:8083   */\n      dup3\n        /* \"#utility.yul\":8072:8076   */\n      dup3\n        /* \"#utility.yul\":8068:8084   */\n      shl\n        /* \"#utility.yul\":8047:8084   */\n      swap1\n      pop\n        /* \"#utility.yul\":7984:8091   */\n      swap3\n      swap2\n      pop\n      pop\n      jump\t// out\n        /* \"#utility.yul\":8097:8490   */\n    tag_72:\n        /* \"#utility.yul\":8166:8172   */\n      0x00\n        /* \"#utility.yul\":8216:8217   */\n      0x08\n        /* \"#utility.yul\":8204:8214   */\n      dup4\n        /* \"#utility.yul\":8200:8218   */\n      mul\n        /* \"#utility.yul\":8239:8336   */\n      tag_162\n        /* \"#utility.yul\":8269:8335   */\n      0xffffffffffffffffffffffffffffffffffffffffffffffffffffffffffffffff\n        /* \"#utility.yul\":8258:8267   */\n      dup3\n        /* \"#utility.yul\":8239:8336   */\n      tag_71\n      jump\t// in\n    tag_162:\n        /* \"#utility.yul\":8357:8396   */\n      tag_163\n        /* \"#utility.yul\":8387:8395   */\n      dup7\n        /* \"#utility.yul\":8376:8385   */\n      dup4\n        /* \"#utility.yul\":8357:8396   */\n      tag_71\n      jump\t// in\n    tag_163:\n        /* \"#utility.yul\":8345:8396   */\n      swap6\n      pop\n        /* \"#utility.yul\":8429:8433   */\n      dup1\n        /* \"#utility.yul\":8425:8434   */\n      not\n        /* \"#utility.yul\":8418:8423   */\n      dup5\n        /* \"#utility.yul\":8414:8435   */\n      and\n        /* \"#utility.yul\":8405:8435   */\n      swap4\n      pop\n        /* \"#utility.yul\":8478:8482   */\n      dup1\n        /* \"#utility.yul\":8468:8476   */\n      dup7\n        /* \"#utility.yul\":8464:8483   */\n      and\n        /* \"#utility.yul\":8457:8462   */\n      dup5\n        /* \"#utility.yul\":8454:8484   */\n      or\n        /* \"#utility.yul\":8444:8484   */\n      swap3\n      pop\n        /* \"#utility.yul\":8173:8490   */\n      pop\n      pop\n        /* \"#utility.yul\":8097:8490   */\n      swap4\n      swap3\n      pop\n      pop\n      pop\n      jump\t// out\n        /* \"#utility.yul\":8496:8573   */\n    tag_73:\n        /* \"#utility.yul\":8533:8540   */\n      0x00\n        /* \"#utility.yul\":8562:8567   */\n      dup2\n        /* \"#utility.yul\":8551:8567   */\n      swap1\n      pop\n        /* \"#utility.yul\":8496:8573   */\n      swap2\n      swap1\n      pop\n      jump\t// out\n        /* \"#utility.yul\":8579:8639   */\n    tag_74:\n        /* \"#utility.yul\":8607:8610   */\n      0x00\n        /* \"#utility.yul\":8628:8633   */\n      dup2\n        /* \"#utility.yul\":8621:8633   */\n      swap1\n      pop\n        /* \"#utility.yul\":8579:8639   */\n      swap2\n      swap1\n      pop\n      jump\t// out\n        /* \"#utility.yul\":8645:8787   */\n    tag_75:\n        /* \"#utility.yul\":8695:8704   */\n      0x00\n        /* \"#utility.yul\":8728:8781   */\n      tag_167\n        /* \"#utility.yul\":8746:8780   */\n      tag_168\n        /* \"#utility.yul\":8755:8779   */\n      tag_169\n        /* \"#utility.yul\":8773:8778   */\n      dup5\n        /* \"#utility.yul\":8755:8779   */\n      tag_73\n      jump\t// in\n    tag_169:\n        /* \"#utility.yul\":8746:8780   */\n      tag_74\n      jump\t// in\n    tag_168:\n        /* \"#utility.yul\":8728:8781   */\n      tag_73\n      jump\t// in\n    tag_167:\n        /* \"#utility.yul\":8715:8781   */\n      swap1\n      pop\n        /* \"#utility.yul\":8645:8787   */\n      swap2\n      swap1\n      pop\n      jump\t// out\n        /* \"#utility.yul\":8793:8868   */\n    tag_76:\n        /* \"#utility.yul\":8836:8839   */\n      0x00\n        /* \"#utility.yul\":8857:8862   */\n      dup2\n        /* \"#utility.yul\":8850:8862   */\n      swap1\n      pop\n        /* \"#utility.yul\":8793:8868   */\n      swap2\n      swap1\n      pop\n      jump\t// out\n        /* \"#utility.yul\":8874:9143   */\n    tag_77:\n        /* \"#utility.yul\":8984:9023   */\n      tag_172\n        /* \"#utility.yul\":9015:9022   */\n      dup4\n        /* \"#utility.yul\":8984:9023   */\n      tag_75\n      jump\t// in\n    tag_172:\n        /* \"#utility.yul\":9045:9136   */\n      tag_173\n        /* \"#utility.yul\":9094:9135   */\n      tag_174\n        /* \"#utility.yul\":9118:9134   */\n      dup3\n        /* \"#utility.yul\":9094:9135   */\n      tag_76\n      jump\t// in\n    tag_174:\n        /* \"#utility.yul\":9086:9092   */\n      dup5\n        /* \"#utility.yul\":9079:9083   */\n      dup5\n        /* \"#utility.yul\":9073:9084   */\n      sload\n        /* \"#utility.yul\":9045:9136   */\n      tag_72\n      jump\t// in\n    tag_173:\n        /* \"#utility.yul\":9039:9043   */\n      dup3\n        /* \"#utility.yul\":9032:9137   */\n      sstore\n        /* \"#utility.yul\":8950:9143   */\n      pop\n        /* \"#utility.yul\":8874:9143   */\n      pop\n      pop\n      pop\n      jump\t// out\n        /* \"#utility.yul\":9149:9222   */\n    tag_78:\n        /* \"#utility.yul\":9194:9197   */\n      0x00\n        /* \"#utility.yul\":9149:9222   */\n      swap1\n      jump\t// out\n        /* \"#utility.yul\":9228:9417   */\n    tag_79:\n        /* \"#utility.yul\":9305:9337   */\n      tag_177\n      tag_78\n      jump\t// in\n    tag_177:\n        /* \"#utility.yul\":9346:9411   */\n      tag_178\n        /* \"#utility.yul\":9404:9410   */\n      dup2\n        /* \"#utility.yul\":9396:9402   */\n      dup5\n        /* \"#utility.yul\":9390:9394   */\n      dup5\n        /* \"#utility.yul\":9346:9411   */\n      tag_77\n      jump\t// in\n    tag_178:\n        /* \"#utility.yul\":9281:9417   */\n      pop\n        /* \"#utility.yul\":9228:9417   */\n      pop\n      pop\n      jump\t// out\n        /* \"#utility.yul\":9423:9609   */\n    tag_80:\n        /* \"#utility.yul\":9483:9603   */\n    tag_180:\n        /* \"#utility.yul\":9500:9503   */\n      dup2\n        /* \"#utility.yul\":9493:9498   */\n      dup2\n        /* \"#utility.yul\":9490:9504   */\n      lt\n        /* \"#utility.yul\":9483:9603   */\n      iszero\n      tag_182\n      jumpi\n        /* \"#utility.yul\":9554:9593   */\n      tag_183\n        /* \"#utility.yul\":9591:9592   */\n      0x00\n        /* \"#utility.yul\":9584:9589   */\n      dup3\n        /* \"#utility.yul\":9554:9593   */\n      tag_79\n      jump\t// in\n    tag_183:\n        /* \"#utility.yul\":9527:9528   */\n      0x01\n        /* \"#utility.yul\":9520:9525   */\n      dup2\n        /* \"#utility.yul\":9516:9529   */\n      add\n        /* \"#utility.yul\":9507:9529   */\n      swap1\n      pop\n        /* \"#utility.yul\":9483:9603   */\n      jump(tag_180)\n    tag_182:\n        /* \"#utility.yul\":9423:9609   */\n      pop\n      pop\n      jump\t// out\n        /* \"#utility.yul\":9615:10158   */\n    tag_81:\n        /* \"#utility.yul\":9716:9718   */\n      0x1f\n        /* \"#utility.yul\":9711:9714   */\n      dup3\n        /* \"#utility.yul\":9708:9719   */\n      gt\n        /* \"#utility.yul\":9705:10151   */\n      iszero\n      tag_185\n      jumpi\n        /* \"#utility.yul\":9750:9788   */\n      tag_186\n        /* \"#utility.yul\":9782:9787   */\n      dup2\n        /* \"#utility.yul\":9750:9788   */\n      tag_69\n      jump\t// in\n    tag_186:\n        /* \"#utility.yul\":9834:9863   */\n      tag_187\n        /* \"#utility.yul\":9852:9862   */\n      dup5\n        /* \"#utility.yul\":9834:9863   */\n      tag_70\n      jump\t// in\n    tag_187:\n        /* \"#utility.yul\":9824:9832   */\n      dup2\n        /* \"#utility.yul\":9820:9864   */\n      add\n        /* \"#utility.yul\":10017:10019   */\n      0x20\n        /* \"#utility.yul\":10005:10015   */\n      dup6\n        /* \"#utility.yul\":10002:10020   */\n      lt\n        /* \"#utility.yul\":9999:10048   */\n      iszero\n      tag_188\n      jumpi\n        /* \"#utility.yul\":10038:10046   */\n      dup2\n        /* \"#utility.yul\":10023:10046   */\n      swap1\n      pop\n        /* \"#utility.yul\":9999:10048   */\n    tag_188:\n        /* \"#utility.yul\":10061:10141   */\n      tag_189\n        /* \"#utility.yul\":10117:10139   */\n      tag_190\n        /* \"#utility.yul\":10135:10138   */\n      dup6\n        /* \"#utility.yul\":10117:10139   */\n      tag_70\n      jump\t// in\n    tag_190:\n        /* \"#utility.yul\":10107:10115   */\n      dup4\n        /* \"#utility.yul\":10103:10140   */\n      add\n        /* \"#utility.yul\":10090:10101   */\n      dup3\n        /* \"#utility.yul\":10061:10141   */\n      tag_80\n      jump\t// in\n    tag_189:\n        /* \"#utility.yul\":9720:10151   */\n      pop\n      pop\n        /* \"#utility.yul\":9705:10151   */\n    tag_185:\n        /* \"#utility.yul\":9615:10158   */\n      pop\n      pop\n      pop\n      jump\t// out\n        /* \"#utility.yul\":10164:10281   */\n    tag_82:\n        /* \"#utility.yul\":10218:10226   */\n      0x00\n        /* \"#utility.yul\":10268:10273   */\n      dup3\n        /* \"#utility.yul\":10262:10266   */\n      dup3\n        /* \"#utility.yul\":10258:10274   */\n      shr\n        /* \"#utility.yul\":10237:10274   */\n      swap1\n      pop\n        /* \"#utility.yul\":10164:10281   */\n      swap3\n      swap2\n      pop\n      pop\n      jump\t// out\n        /* \"#utility.yul\":10287:10456   */\n    tag_83:\n        /* \"#utility.yul\":10331:10337   */\n      0x00\n        /* \"#utility.yul\":10364:10415   */\n      tag_193\n        /* \"#utility.yul\":10412:10413   */\n      0x00\n        /* \"#utility.yul\":10408:10414   */\n      not\n        /* \"#utility.yul\":10400:10405   */\n      dup5\n        /* \"#utility.yul\":10397:10398   */\n      0x08\n        /* \"#utility.yul\":10393:10406   */\n      mul\n        /* \"#utility.yul\":10364:10415   */\n      tag_82\n      jump\t// in\n    tag_193:\n        /* \"#utility.yul\":10360:10416   */\n      not\n        /* \"#utility.yul\":10445:10449   */\n      dup1\n        /* \"#utility.yul\":10439:10443   */\n      dup4\n        /* \"#utility.yul\":10435:10450   */\n      and\n        /* \"#utility.yul\":10425:10450   */\n      swap2\n      pop\n        /* \"#utility.yul\":10338:10456   */\n      pop\n        /* \"#utility.yul\":10287:10456   */\n      swap3\n      swap2\n      pop\n      pop\n      jump\t// out\n        /* \"#utility.yul\":10461:10756   */\n    tag_84:\n        /* \"#utility.yul\":10537:10541   */\n      0x00\n        /* \"#utility.yul\":10683:10712   */\n      tag_195\n        /* \"#utility.yul\":10708:10711   */\n      dup4\n        /* \"#utility.yul\":10702:10706   */\n      dup4\n        /* \"#utility.yul\":10683:10712   */\n      tag_83\n      jump\t// in\n    tag_195:\n        /* \"#utility.yul\":10675:10712   */\n      swap2\n      pop\n        /* \"#utility.yul\":10745:10748   */\n      dup3\n        /* \"#utility.yul\":10742:10743   */\n      0x02\n        /* \"#utility.yul\":10738:10749   */\n      mul\n        /* \"#utility.yul\":10732:10736   */\n      dup3\n        /* \"#utility.yul\":10729:10750   */\n      or\n        /* \"#utility.yul\":10721:10750   */\n      swap1\n      pop\n        /* \"#utility.yul\":10461:10756   */\n      swap3\n      swap2\n      pop\n      pop\n      jump\t// out\n        /* \"#utility.yul\":10761:12164   */\n    tag_22:\n        /* \"#utility.yul\":10885:10929   */\n      tag_197\n        /* \"#utility.yul\":10925:10928   */\n      dup4\n        /* \"#utility.yul\":10920:10923   */\n      dup4\n        /* \"#utility.yul\":10885:10929   */\n      tag_66\n      jump\t// in\n    tag_197:\n        /* \"#utility.yul\":10994:11012   */\n      0xffffffffffffffff\n        /* \"#utility.yul\":10986:10992   */\n      dup2\n        /* \"#utility.yul\":10983:11013   */\n      gt\n        /* \"#utility.yul\":10980:11036   */\n      iszero\n      tag_198\n      jumpi\n        /* \"#utility.yul\":11016:11034   */\n      tag_199\n      tag_67\n      jump\t// in\n    tag_199:\n        /* \"#utility.yul\":10980:11036   */\n    tag_198:\n        /* \"#utility.yul\":11060:11098   */\n      tag_200\n        /* \"#utility.yul\":11092:11096   */\n      dup3\n        /* \"#utility.yul\":11086:11097   */\n      sload\n        /* \"#utility.yul\":11060:11098   */\n      tag_29\n      jump\t// in\n    tag_200:\n        /* \"#utility.yul\":11145:11212   */\n      tag_201\n        /* \"#utility.yul\":11205:11211   */\n      dup3\n        /* \"#utility.yul\":11197:11203   */\n      dup3\n        /* \"#utility.yul\":11191:11195   */\n      dup6\n        /* \"#utility.yul\":11145:11212   */\n      tag_81\n      jump\t// in\n    tag_201:\n        /* \"#utility.yul\":11239:11240   */\n      0x00\n        /* \"#utility.yul\":11268:11270   */\n      0x1f\n        /* \"#utility.yul\":11260:11266   */\n      dup4\n        /* \"#utility.yul\":11257:11271   */\n      gt\n        /* \"#utility.yul\":11285:11286   */\n      0x01\n        /* \"#utility.yul\":11280:11912   */\n      dup2\n      eq\n      tag_203\n      jumpi\n        /* \"#utility.yul\":11956:11957   */\n      0x00\n        /* \"#utility.yul\":11973:11979   */\n      dup5\n        /* \"#utility.yul\":11970:12054   */\n      iszero\n      tag_204\n      jumpi\n        /* \"#utility.yul\":12029:12038   */\n      dup3\n        /* \"#utility.yul\":12024:12027   */\n      dup8\n        /* \"#utility.yul\":12020:12039   */\n      add\n        /* \"#utility.yul\":12007:12040   */\n      calldataload\n        /* \"#utility.yul\":11998:12040   */\n      swap1\n      pop\n        /* \"#utility.yul\":11970:12054   */\n    tag_204:\n        /* \"#utility.yul\":12080:12147   */\n      tag_205\n        /* \"#utility.yul\":12140:12146   */\n      dup6\n        /* \"#utility.yul\":12133:12138   */\n      dup3\n        /* \"#utility.yul\":12080:12147   */\n      tag_84\n      jump\t// in\n    tag_205:\n        /* \"#utility.yul\":12074:12078   */\n      dup7\n        /* \"#utility.yul\":12067:12148   */\n      sstore\n        /* \"#utility.yul\":11929:12158   */\n      pop\n        /* \"#utility.yul\":11250:12158   */\n      jump(tag_202)\n        /* \"#utility.yul\":11280:11912   */\n    tag_203:\n        /* \"#utility.yul\":11332:11336   */\n      0x1f\n        /* \"#utility.yul\":11328:11337   */\n      not\n        /* \"#utility.yul\":11320:11326   */\n      dup5\n        /* \"#utility.yul\":11316:11338   */\n      and\n        /* \"#utility.yul\":11366:11403   */\n      tag_206\n        /* \"#utility.yul\":11398:11402   */\n      dup7\n        /* \"#utility.yul\":11366:11403   */\n      tag_69\n      jump\t// in\n    tag_206:\n        /* \"#utility.yul\":11425:11426   */\n      0x00\n        /* \"#utility.yul\":11439:11654   */\n    tag_207:\n        /* \"#utility.yul\":11453:11460   */\n      dup3\n        /* \"#utility.yul\":11450:11451   */\n      dup2\n        /* \"#utility.yul\":11447:11461   */\n      lt\n        /* \"#utility.yul\":11439:11654   */\n      iszero\n      tag_209\n      jumpi\n        /* \"#utility.yul\":11539:11548   */\n      dup5\n        /* \"#utility.yul\":11534:11537   */\n      dup10\n        /* \"#utility.yul\":11530:11549   */\n      add\n        /* \"#utility.yul\":11517:11550   */\n      calldataload\n        /* \"#utility.yul\":11509:11515   */\n      dup3\n        /* \"#utility.yul\":11502:11551   */\n      sstore\n        /* \"#utility.yul\":11590:11591   */\n      0x01\n        /* \"#utility.yul\":11582:11588   */\n      dup3\n        /* \"#utility.yul\":11578:11592   */\n      add\n        /* \"#utility.yul\":11568:11592   */\n      swap2\n      pop\n        /* \"#utility.yul\":11637:11639   */\n      0x20\n        /* \"#utility.yul\":11626:11635   */\n      dup6\n        /* \"#utility.yul\":11622:11640   */\n      add\n        /* \"#utility.yul\":11609:11640   */\n      swap5\n      pop\n        /* \"#utility.yul\":11476:11480   */\n      0x20\n        /* \"#utility.yul\":11473:11474   */\n      dup2\n        /* \"#utility.yul\":11469:11481   */\n      add\n        /* \"#utility.yul\":11464:11481   */\n      swap1\n      pop\n        /* \"#utility.yul\":11439:11654   */\n      jump(tag_207)\n    tag_209:\n        /* \"#utility.yul\":11682:11688   */\n      dup7\n        /* \"#utility.yul\":11673:11680   */\n      dup4\n        /* \"#utility.yul\":11670:11689   */\n      lt\n        /* \"#utility.yul\":11667:11853   */\n      iszero\n      tag_210\n      jumpi\n        /* \"#utility.yul\":11747:11756   */\n      dup5\n        /* \"#utility.yul\":11742:11745   */\n      dup10\n        /* \"#utility.yul\":11738:11757   */\n      add\n        /* \"#utility.yul\":11725:11758   */\n      calldataload\n        /* \"#utility.yul\":11790:11838   */\n      tag_211\n        /* \"#utility.yul\":11832:11836   */\n      0x1f\n        /* \"#utility.yul\":11824:11830   */\n      dup10\n        /* \"#utility.yul\":11820:11837   */\n      and\n        /* \"#utility.yul\":11809:11818   */\n      dup3\n        /* \"#utility.yul\":11790:11838   */\n      tag_83\n      jump\t// in\n    tag_211:\n        /* \"#utility.yul\":11782:11788   */\n      dup4\n        /* \"#utility.yul\":11775:11839   */\n      sstore\n        /* \"#utility.yul\":11690:11853   */\n      pop\n        /* \"#utility.yul\":11667:11853   */\n    tag_210:\n        /* \"#utility.yul\":11899:11900   */\n      0x01\n        /* \"#utility.yul\":11895:11896   */\n      0x02\n        /* \"#utility.yul\":11887:11893   */\n      dup9\n        /* \"#utility.yul\":11883:11897   */\n      mul\n        /* \"#utility.yul\":11879:11901   */\n      add\n        /* \"#utility.yul\":11873:11877   */\n      dup9\n        /* \"#utility.yul\":11866:11902   */\n      sstore\n        /* \"#utility.yul\":11287:11912   */\n      pop\n      pop\n      pop\n        /* \"#utility.yul\":11250:12158   */\n    tag_202:\n      pop\n        /* \"#utility.yul\":10860:12164   */\n      pop\n      pop\n      pop\n        /* \"#utility.yul\":10761:12164   */\n      pop\n      pop\n      pop\n      jump\t// out\n        /* \"#utility.yul\":12170:13565   */\n    tag_46:\n        /* \"#utility.yul\":12287:12324   */\n      tag_213\n        /* \"#utility.yul\":12320:12323   */\n      dup3\n        /* \"#utility.yul\":12287:12324   */\n      tag_60\n      jump\t// in\n    tag_213:\n        /* \"#utility.yul\":12389:12407   */\n      0xffffffffffffffff\n        /* \"#utility.yul\":12381:12387   */\n      dup2\n        /* \"#utility.yul\":12378:12408   */\n      gt\n        /* \"#utility.yul\":12375:12431   */\n      iszero\n      tag_214\n      jumpi\n        /* \"#utility.yul\":12411:12429   */\n      tag_215\n      tag_67\n      jump\t// in\n    tag_215:\n        /* \"#utility.yul\":12375:12431   */\n    tag_214:\n        /* \"#utility.yul\":12455:12493   */\n      tag_216\n        /* \"#utility.yul\":12487:12491   */\n      dup3\n        /* \"#utility.yul\":12481:12492   */\n      sload\n        /* \"#utility.yul\":12455:12493   */\n      tag_29\n      jump\t// in\n    tag_216:\n        /* \"#utility.yul\":12540:12607   */\n      tag_217\n        /* \"#utility.yul\":12600:12606   */\n      dup3\n        /* \"#utility.yul\":12592:12598   */\n      dup3\n        /* \"#utility.yul\":12586:12590   */\n      dup6\n        /* \"#utility.yul\":12540:12607   */\n      tag_81\n      jump\t// in\n    tag_217:\n        /* \"#utility.yul\":12634:12635   */\n      0x00\n        /* \"#utility.yul\":12658:12662   */\n      0x20\n        /* \"#utility.yul\":12645:12662   */\n      swap1\n      pop\n        /* \"#utility.yul\":12690:12692   */\n      0x1f\n        /* \"#utility.yul\":12682:12688   */\n      dup4\n        /* \"#utility.yul\":12679:12693   */\n      gt\n        /* \"#utility.yul\":12707:12708   */\n      0x01\n        /* \"#utility.yul\":12702:13320   */\n      dup2\n      eq\n      tag_219\n      jumpi\n        /* \"#utility.yul\":13364:13365   */\n      0x00\n        /* \"#utility.yul\":13381:13387   */\n      dup5\n        /* \"#utility.yul\":13378:13455   */\n      iszero\n      tag_220\n      jumpi\n        /* \"#utility.yul\":13430:13439   */\n      dup3\n        /* \"#utility.yul\":13425:13428   */\n      dup8\n        /* \"#utility.yul\":13421:13440   */\n      add\n        /* \"#utility.yul\":13415:13441   */\n      mload\n        /* \"#utility.yul\":13406:13441   */\n      swap1\n      pop\n        /* \"#utility.yul\":13378:13455   */\n    tag_220:\n        /* \"#utility.yul\":13481:13548   */\n      tag_221\n        /* \"#utility.yul\":13541:13547   */\n      dup6\n        /* \"#utility.yul\":13534:13539   */\n      dup3\n        /* \"#utility.yul\":13481:13548   */\n      tag_84\n      jump\t// in\n    tag_221:\n        /* \"#utility.yul\":13475:13479   */\n      dup7\n        /* \"#utility.yul\":13468:13549   */\n      sstore\n        /* \"#utility.yul\":13337:13559   */\n      pop\n        /* \"#utility.yul\":12672:13559   */\n      jump(tag_218)\n        /* \"#utility.yul\":12702:13320   */\n    tag_219:\n        /* \"#utility.yul\":12754:12758   */\n      0x1f\n        /* \"#utility.yul\":12750:12759   */\n      not\n        /* \"#utility.yul\":12742:12748   */\n      dup5\n        /* \"#utility.yul\":12738:12760   */\n      and\n        /* \"#utility.yul\":12788:12825   */\n      tag_222\n        /* \"#utility.yul\":12820:12824   */\n      dup7\n        /* \"#utility.yul\":12788:12825   */\n      tag_69\n      jump\t// in\n    tag_222:\n        /* \"#utility.yul\":12847:12848   */\n      0x00\n        /* \"#utility.yul\":12861:13069   */\n    tag_223:\n        /* \"#utility.yul\":12875:12882   */\n      dup3\n        /* \"#utility.yul\":12872:12873   */\n      dup2\n        /* \"#utility.yul\":12869:12883   */\n      lt\n        /* \"#utility.yul\":12861:13069   */\n      iszero\n      tag_225\n      jumpi\n        /* \"#utility.yul\":12954:12963   */\n      dup5\n        /* \"#utility.yul\":12949:12952   */\n      dup10\n        /* \"#utility.yul\":12945:12964   */\n      add\n        /* \"#utility.yul\":12939:12965   */\n      mload\n        /* \"#utility.yul\":12931:12937   */\n      dup3\n        /* \"#utility.yul\":12924:12966   */\n      sstore\n        /* \"#utility.yul\":13005:13006   */\n      0x01\n        /* \"#utility.yul\":12997:13003   */\n      dup3\n        /* \"#utility.yul\":12993:13007   */\n      add\n        /* \"#utility.yul\":12983:13007   */\n      swap2\n      pop\n        /* \"#utility.yul\":13052:13054   */\n      0x20\n        /* \"#utility.yul\":13041:13050   */\n      dup6\n        /* \"#utility.yul\":13037:13055   */\n      add\n        /* \"#utility.yul\":13024:13055   */\n      swap5\n      pop\n        /* \"#utility.yul\":12898:12902   */\n      0x20\n        /* \"#utility.yul\":12895:12896   */\n      dup2\n        /* \"#utility.yul\":12891:12903   */\n      add\n        /* \"#utility.yul\":12886:12903   */\n      swap1\n      pop\n        /* \"#utility.yul\":12861:13069   */\n      jump(tag_223)\n    tag_225:\n        /* \"#utility.yul\":13097:13103   */\n      dup7\n        /* \"#utility.yul\":13088:13095   */\n      dup4\n        /* \"#utility.yul\":13085:13104   */\n      lt\n        /* \"#utility.yul\":13082:13261   */\n      iszero\n      tag_226\n      jumpi\n        /* \"#utility.yul\":13155:13164   */\n      dup5\n        /* \"#utility.yul\":13150:13153   */\n      dup10\n        /* \"#utility.yul\":13146:13165   */\n      add\n        /* \"#utility.yul\":13140:13166   */\n      mload\n        /* \"#utility.yul\":13198:13246   */\n      tag_227\n        /* \"#utility.yul\":13240:13244   */\n      0x1f\n        /* \"#utility.yul\":13232:13238   */\n      dup10\n        /* \"#utility.yul\":13228:13245   */\n      and\n        /* \"#utility.yul\":13217:13226   */\n      dup3\n        /* \"#utility.yul\":13198:13246   */\n      tag_83\n      jump\t// in\n    tag_227:\n        /* \"#utility.yul\":13190:13196   */\n      dup4\n        /* \"#utility.yul\":13183:13247   */\n      sstore\n        /* \"#utility.yul\":13105:13261   */\n      pop\n        /* \"#utility.yul\":13082:13261   */\n    tag_226:\n        /* \"#utility.yul\":13307:13308   */\n      0x01\n        /* \"#utility.yul\":13303:13304   */\n      0x02\n        /* \"#utility.yul\":13295:13301   */\n      dup9\n        /* \"#utility.yul\":13291:13305   */\n      mul\n        /* \"#utility.yul\":13287:13309   */\n      add\n        /* \"#utility.yul\":13281:13285   */\n      dup9\n        /* \"#utility.yul\":13274:13310   */\n      sstore\n        /* \"#utility.yul\":12709:13320   */\n      pop\n      pop\n      pop\n        /* \"#utility.yul\":12672:13559   */\n    tag_218:\n      pop\n        /* \"#utility.yul\":12262:13565   */\n      pop\n      pop\n      pop\n        /* \"#utility.yul\":12170:13565   */\n      pop\n      pop\n      jump\t// out\n\n    auxdata: 0xa2646970667358221220b509c28523e330f1caeb716268375f932e48fd1f02b36d14066574625b0a587864736f6c634300081a0033\n}\n",
				"bytecode": {
					"linkReferences": {},
					"object": "6080604052348015600e575f80fd5b50610c198061001c5f395ff3fe608060405234801561000f575f80fd5b506004361061003f575f3560e01c806331445f1714610043578063c2bc2efc1461005f578063f034d6b11461008f575b5f80fd5b61005d60048036038101906100589190610583565b6100ab565b005b61007960048036038101906100749190610647565b61012f565b604051610086919061073d565b60405180910390f35b6100a960048036038101906100a4919061075d565b610334565b005b5f805f8973ffffffffffffffffffffffffffffffffffffffff1673ffffffffffffffffffffffffffffffffffffffff1681526020019081526020015f2090508686825f0191826100fc929190610a47565b508484826001019182610110929190610a47565b508282826002019182610124929190610a47565b505050505050505050565b61013761049f565b5f808373ffffffffffffffffffffffffffffffffffffffff1673ffffffffffffffffffffffffffffffffffffffff1681526020019081526020015f206040518060600160405290815f8201805461018d90610871565b80601f01602080910402602001604051908101604052809291908181526020018280546101b990610871565b80156102045780601f106101db57610100808354040283529160200191610204565b820191905f5260205f20905b8154815290600101906020018083116101e757829003601f168201915b5050505050815260200160018201805461021d90610871565b80601f016020809104026020016040519081016040528092919081815260200182805461024990610871565b80156102945780601f1061026b57610100808354040283529160200191610294565b820191905f5260205f20905b81548152906001019060200180831161027757829003601f168201915b505050505081526020016002820180546102ad90610871565b80601f01602080910402602001604051908101604052809291908181526020018280546102d990610871565b80156103245780601f106102fb57610100808354040283529160200191610324565b820191905f5260205f20905b81548152906001019060200180831161030757829003601f168201915b5050505050815250509050919050565b604051806060016040528087878080601f0160208091040260200160405190810160405280939291908181526020018383808284375f81840152601f19601f82011690508083019250505050505050815260200185858080601f0160208091040260200160405190810160405280939291908181526020018383808284375f81840152601f19601f82011690508083019250505050505050815260200183838080601f0160208091040260200160405190810160405280939291908181526020018383808284375f81840152601f19601f820116905080830192505050505050508152505f803373ffffffffffffffffffffffffffffffffffffffff1673ffffffffffffffffffffffffffffffffffffffff1681526020019081526020015f205f820151815f0190816104679190610b14565b50602082015181600101908161047d9190610b14565b5060408201518160020190816104939190610b14565b50905050505050505050565b60405180606001604052806060815260200160608152602001606081525090565b5f80fd5b5f80fd5b5f73ffffffffffffffffffffffffffffffffffffffff82169050919050565b5f6104f1826104c8565b9050919050565b610501816104e7565b811461050b575f80fd5b50565b5f8135905061051c816104f8565b92915050565b5f80fd5b5f80fd5b5f80fd5b5f8083601f84011261054357610542610522565b5b8235905067ffffffffffffffff8111156105605761055f610526565b5b60208301915083600182028301111561057c5761057b61052a565b5b9250929050565b5f805f805f805f6080888a03121561059e5761059d6104c0565b5b5f6105ab8a828b0161050e565b975050602088013567ffffffffffffffff8111156105cc576105cb6104c4565b5b6105d88a828b0161052e565b9650965050604088013567ffffffffffffffff8111156105fb576105fa6104c4565b5b6106078a828b0161052e565b9450945050606088013567ffffffffffffffff81111561062a576106296104c4565b5b6106368a828b0161052e565b925092505092959891949750929550565b5f6020828403121561065c5761065b6104c0565b5b5f6106698482850161050e565b91505092915050565b5f81519050919050565b5f82825260208201905092915050565b8281835e5f83830152505050565b5f601f19601f8301169050919050565b5f6106b482610672565b6106be818561067c565b93506106ce81856020860161068c565b6106d78161069a565b840191505092915050565b5f606083015f8301518482035f8601526106fc82826106aa565b9150506020830151848203602086015261071682826106aa565b9150506040830151848203604086015261073082826106aa565b9150508091505092915050565b5f6020820190508181035f83015261075581846106e2565b905092915050565b5f805f805f8060608789031215610777576107766104c0565b5b5f87013567ffffffffffffffff811115610794576107936104c4565b5b6107a089828a0161052e565b9650965050602087013567ffffffffffffffff8111156107c3576107c26104c4565b5b6107cf89828a0161052e565b9450945050604087013567ffffffffffffffff8111156107f2576107f16104c4565b5b6107fe89828a0161052e565b92509250509295509295509295565b5f82905092915050565b7f4e487b71000000000000000000000000000000000000000000000000000000005f52604160045260245ffd5b7f4e487b71000000000000000000000000000000000000000000000000000000005f52602260045260245ffd5b5f600282049050600182168061088857607f821691505b60208210810361089b5761089a610844565b5b50919050565b5f819050815f5260205f209050919050565b5f6020601f8301049050919050565b5f82821b905092915050565b5f600883026108fd7fffffffffffffffffffffffffffffffffffffffffffffffffffffffffffffffff826108c2565b61090786836108c2565b95508019841693508086168417925050509392505050565b5f819050919050565b5f819050919050565b5f61094b6109466109418461091f565b610928565b61091f565b9050919050565b5f819050919050565b61096483610931565b61097861097082610952565b8484546108ce565b825550505050565b5f90565b61098c610980565b61099781848461095b565b505050565b5b818110156109ba576109af5f82610984565b60018101905061099d565b5050565b601f8211156109ff576109d0816108a1565b6109d9846108b3565b810160208510156109e8578190505b6109fc6109f4856108b3565b83018261099c565b50505b505050565b5f82821c905092915050565b5f610a1f5f1984600802610a04565b1980831691505092915050565b5f610a378383610a10565b9150826002028217905092915050565b610a51838361080d565b67ffffffffffffffff811115610a6a57610a69610817565b5b610a748254610871565b610a7f8282856109be565b5f601f831160018114610aac575f8415610a9a578287013590505b610aa48582610a2c565b865550610b0b565b601f198416610aba866108a1565b5f5b82811015610ae157848901358255600182019150602085019450602081019050610abc565b86831015610afe5784890135610afa601f891682610a10565b8355505b6001600288020188555050505b50505050505050565b610b1d82610672565b67ffffffffffffffff811115610b3657610b35610817565b5b610b408254610871565b610b4b8282856109be565b5f60209050601f831160018114610b7c575f8415610b6a578287015190505b610b748582610a2c565b865550610bdb565b601f198416610b8a866108a1565b5f5b82811015610bb157848901518255600182019150602085019450602081019050610b8c565b86831015610bce5784890151610bca601f891682610a10565b8355505b6001600288020188555050505b50505050505056fea2646970667358221220b509c28523e330f1caeb716268375f932e48fd1f02b36d14066574625b0a587864736f6c634300081a0033",
					"opcodes": "PUSH1 0x80 PUSH1 0x40 MSTORE CALLVALUE DUP1 ISZERO PUSH1 0xE JUMPI PUSH0 DUP1 REVERT JUMPDEST POP PUSH2 0xC19 DUP1 PUSH2 0x1C PUSH0 CODECOPY PUSH0 RETURN INVALID PUSH1 0x80 PUSH1 0x40 MSTORE CALLVALUE DUP1 ISZERO PUSH2 0xF JUMPI PUSH0 DUP1 REVERT JUMPDEST POP PUSH1 0x4 CALLDATASIZE LT PUSH2 0x3F JUMPI PUSH0 CALLDATALOAD PUSH1 0xE0 SHR DUP1 PUSH4 0x31445F17 EQ PUSH2 0x43 JUMPI DUP1 PUSH4 0xC2BC2EFC EQ PUSH2 0x5F JUMPI DUP1 PUSH4 0xF034D6B1 EQ PUSH2 0x8F JUMPI JUMPDEST PUSH0 DUP1 REVERT JUMPDEST PUSH2 0x5D PUSH1 0x4 DUP1 CALLDATASIZE SUB DUP2 ADD SWAP1 PUSH2 0x58 SWAP2 SWAP1 PUSH2 0x583 JUMP JUMPDEST PUSH2 0xAB JUMP JUMPDEST STOP JUMPDEST PUSH2 0x79 PUSH1 0x4 DUP1 CALLDATASIZE SUB DUP2 ADD SWAP1 PUSH2 0x74 SWAP2 SWAP1 PUSH2 0x647 JUMP JUMPDEST PUSH2 0x12F JUMP JUMPDEST PUSH1 0x40 MLOAD PUSH2 0x86 SWAP2 SWAP1 PUSH2 0x73D JUMP JUMPDEST PUSH1 0x40 MLOAD DUP1 SWAP2 SUB SWAP1 RETURN JUMPDEST PUSH2 0xA9 PUSH1 0x4 DUP1 CALLDATASIZE SUB DUP2 ADD SWAP1 PUSH2 0xA4 SWAP2 SWAP1 PUSH2 0x75D JUMP JUMPDEST PUSH2 0x334 JUMP JUMPDEST STOP JUMPDEST PUSH0 DUP1 PUSH0 DUP10 PUSH20 0xFFFFFFFFFFFFFFFFFFFFFFFFFFFFFFFFFFFFFFFF AND PUSH20 0xFFFFFFFFFFFFFFFFFFFFFFFFFFFFFFFFFFFFFFFF AND DUP2 MSTORE PUSH1 0x20 ADD SWAP1 DUP2 MSTORE PUSH1 0x20 ADD PUSH0 KECCAK256 SWAP1 POP DUP7 DUP7 DUP3 PUSH0 ADD SWAP2 DUP3 PUSH2 0xFC SWAP3 SWAP2 SWAP1 PUSH2 0xA47 JUMP JUMPDEST POP DUP5 DUP5 DUP3 PUSH1 0x1 ADD SWAP2 DUP3 PUSH2 0x110 SWAP3 SWAP2 SWAP1 PUSH2 0xA47 JUMP JUMPDEST POP DUP3 DUP3 DUP3 PUSH1 0x2 ADD SWAP2 DUP3 PUSH2 0x124 SWAP3 SWAP2 SWAP1 PUSH2 0xA47 JUMP JUMPDEST POP POP POP POP POP POP POP POP POP JUMP JUMPDEST PUSH2 0x137 PUSH2 0x49F JUMP JUMPDEST PUSH0 DUP1 DUP4 PUSH20 0xFFFFFFFFFFFFFFFFFFFFFFFFFFFFFFFFFFFFFFFF AND PUSH20 0xFFFFFFFFFFFFFFFFFFFFFFFFFFFFFFFFFFFFFFFF AND DUP2 MSTORE PUSH1 0x20 ADD SWAP1 DUP2 MSTORE PUSH1 0x20 ADD PUSH0 KECCAK256 PUSH1 0x40 MLOAD DUP1 PUSH1 0x60 ADD PUSH1 0x40 MSTORE SWAP1 DUP2 PUSH0 DUP3 ADD DUP1 SLOAD PUSH2 0x18D SWAP1 PUSH2 0x871 JUMP JUMPDEST DUP1 PUSH1 0x1F ADD PUSH1 0x20 DUP1 SWAP2 DIV MUL PUSH1 0x20 ADD PUSH1 0x40 MLOAD SWAP1 DUP2 ADD PUSH1 0x40 MSTORE DUP1 SWAP3 SWAP2 SWAP1 DUP2 DUP2 MSTORE PUSH1 0x20 ADD DUP3 DUP1 SLOAD PUSH2 0x1B9 SWAP1 PUSH2 0x871 JUMP JUMPDEST DUP1 ISZERO PUSH2 0x204 JUMPI DUP1 PUSH1 0x1F LT PUSH2 0x1DB JUMPI PUSH2 0x100 DUP1 DUP4 SLOAD DIV MUL DUP4 MSTORE SWAP2 PUSH1 0x20 ADD SWAP2 PUSH2 0x204 JUMP JUMPDEST DUP3 ADD SWAP2 SWAP1 PUSH0 MSTORE PUSH1 0x20 PUSH0 KECCAK256 SWAP1 JUMPDEST DUP2 SLOAD DUP2 MSTORE SWAP1 PUSH1 0x1 ADD SWAP1 PUSH1 0x20 ADD DUP1 DUP4 GT PUSH2 0x1E7 JUMPI DUP3 SWAP1 SUB PUSH1 0x1F AND DUP3 ADD SWAP2 JUMPDEST POP POP POP POP POP DUP2 MSTORE PUSH1 0x20 ADD PUSH1 0x1 DUP3 ADD DUP1 SLOAD PUSH2 0x21D SWAP1 PUSH2 0x871 JUMP JUMPDEST DUP1 PUSH1 0x1F ADD PUSH1 0x20 DUP1 SWAP2 DIV MUL PUSH1 0x20 ADD PUSH1 0x40 MLOAD SWAP1 DUP2 ADD PUSH1 0x40 MSTORE DUP1 SWAP3 SWAP2 SWAP1 DUP2 DUP2 MSTORE PUSH1 0x20 ADD DUP3 DUP1 SLOAD PUSH2 0x249 SWAP1 PUSH2 0x871 JUMP JUMPDEST DUP1 ISZERO PUSH2 0x294 JUMPI DUP1 PUSH1 0x1F LT PUSH2 0x26B JUMPI PUSH2 0x100 DUP1 DUP4 SLOAD DIV MUL DUP4 MSTORE SWAP2 PUSH1 0x20 ADD SWAP2 PUSH2 0x294 JUMP JUMPDEST DUP3 ADD SWAP2 SWAP1 PUSH0 MSTORE PUSH1 0x20 PUSH0 KECCAK256 SWAP1 JUMPDEST DUP2 SLOAD DUP2 MSTORE SWAP1 PUSH1 0x1 ADD SWAP1 PUSH1 0x20 ADD DUP1 DUP4 GT PUSH2 0x277 JUMPI DUP3 SWAP1 SUB PUSH1 0x1F AND DUP3 ADD SWAP2 JUMPDEST POP POP POP POP POP DUP2 MSTORE PUSH1 0x20 ADD PUSH1 0x2 DUP3 ADD DUP1 SLOAD PUSH2 0x2AD SWAP1 PUSH2 0x871 JUMP JUMPDEST DUP1 PUSH1 0x1F ADD PUSH1 0x20 DUP1 SWAP2 DIV MUL PUSH1 0x20 ADD PUSH1 0x40 MLOAD SWAP1 DUP2 ADD PUSH1 0x40 MSTORE DUP1 SWAP3 SWAP2 SWAP1 DUP2 DUP2 MSTORE PUSH1 0x20 ADD DUP3 DUP1 SLOAD PUSH2 0x2D9 SWAP1 PUSH2 0x871 JUMP JUMPDEST DUP1 ISZERO PUSH2 0x324 JUMPI DUP1 PUSH1 0x1F LT PUSH2 0x2FB JUMPI PUSH2 0x100 DUP1 DUP4 SLOAD DIV MUL DUP4 MSTORE SWAP2 PUSH1 0x20 ADD SWAP2 PUSH2 0x324 JUMP JUMPDEST DUP3 ADD SWAP2 SWAP1 PUSH0 MSTORE PUSH1 0x20 PUSH0 KECCAK256 SWAP1 JUMPDEST DUP2 SLOAD DUP2 MSTORE SWAP1 PUSH1 0x1 ADD SWAP1 PUSH1 0x20 ADD DUP1 DUP4 GT PUSH2 0x307 JUMPI DUP3 SWAP1 SUB PUSH1 0x1F AND DUP3 ADD SWAP2 JUMPDEST POP POP POP POP POP DUP2 MSTORE POP POP SWAP1 POP SWAP2 SWAP1 POP JUMP JUMPDEST PUSH1 0x40 MLOAD DUP1 PUSH1 0x60 ADD PUSH1 0x40 MSTORE DUP1 DUP8 DUP8 DUP1 DUP1 PUSH1 0x1F ADD PUSH1 0x20 DUP1 SWAP2 DIV MUL PUSH1 0x20 ADD PUSH1 0x40 MLOAD SWAP1 DUP2 ADD PUSH1 0x40 MSTORE DUP1 SWAP4 SWAP3 SWAP2 SWAP1 DUP2 DUP2 MSTORE PUSH1 0x20 ADD DUP4 DUP4 DUP1 DUP3 DUP5 CALLDATACOPY PUSH0 DUP2 DUP5 ADD MSTORE PUSH1 0x1F NOT PUSH1 0x1F DUP3 ADD AND SWAP1 POP DUP1 DUP4 ADD SWAP3 POP POP POP POP POP POP POP DUP2 MSTORE PUSH1 0x20 ADD DUP6 DUP6 DUP1 DUP1 PUSH1 0x1F ADD PUSH1 0x20 DUP1 SWAP2 DIV MUL PUSH1 0x20 ADD PUSH1 0x40 MLOAD SWAP1 DUP2 ADD PUSH1 0x40 MSTORE DUP1 SWAP4 SWAP3 SWAP2 SWAP1 DUP2 DUP2 MSTORE PUSH1 0x20 ADD DUP4 DUP4 DUP1 DUP3 DUP5 CALLDATACOPY PUSH0 DUP2 DUP5 ADD MSTORE PUSH1 0x1F NOT PUSH1 0x1F DUP3 ADD AND SWAP1 POP DUP1 DUP4 ADD SWAP3 POP POP POP POP POP POP POP DUP2 MSTORE PUSH1 0x20 ADD DUP4 DUP4 DUP1 DUP1 PUSH1 0x1F ADD PUSH1 0x20 DUP1 SWAP2 DIV MUL PUSH1 0x20 ADD PUSH1 0x40 MLOAD SWAP1 DUP2 ADD PUSH1 0x40 MSTORE DUP1 SWAP4 SWAP3 SWAP2 SWAP1 DUP2 DUP2 MSTORE PUSH1 0x20 ADD DUP4 DUP4 DUP1 DUP3 DUP5 CALLDATACOPY PUSH0 DUP2 DUP5 ADD MSTORE PUSH1 0x1F NOT PUSH1 0x1F DUP3 ADD AND SWAP1 POP DUP1 DUP4 ADD SWAP3 POP POP POP POP POP POP POP DUP2 MSTORE POP PUSH0 DUP1 CALLER PUSH20 0xFFFFFFFFFFFFFFFFFFFFFFFFFFFFFFFFFFFFFFFF AND PUSH20 0xFFFFFFFFFFFFFFFFFFFFFFFFFFFFFFFFFFFFFFFF AND DUP2 MSTORE PUSH1 0x20 ADD SWAP1 DUP2 MSTORE PUSH1 0x20 ADD PUSH0 KECCAK256 PUSH0 DUP3 ADD MLOAD DUP2 PUSH0 ADD SWAP1 DUP2 PUSH2 0x467 SWAP2 SWAP1 PUSH2 0xB14 JUMP JUMPDEST POP PUSH1 0x20 DUP3 ADD MLOAD DUP2 PUSH1 0x1 ADD SWAP1 DUP2 PUSH2 0x47D SWAP2 SWAP1 PUSH2 0xB14 JUMP JUMPDEST POP PUSH1 0x40 DUP3 ADD MLOAD DUP2 PUSH1 0x2 ADD SWAP1 DUP2 PUSH2 0x493 SWAP2 SWAP1 PUSH2 0xB14 JUMP JUMPDEST POP SWAP1 POP POP POP POP POP POP POP POP JUMP JUMPDEST PUSH1 0x40 MLOAD DUP1 PUSH1 0x60 ADD PUSH1 0x40 MSTORE DUP1 PUSH1 0x60 DUP2 MSTORE PUSH1 0x20 ADD PUSH1 0x60 DUP2 MSTORE PUSH1 0x20 ADD PUSH1 0x60 DUP2 MSTORE POP SWAP1 JUMP JUMPDEST PUSH0 DUP1 REVERT JUMPDEST PUSH0 DUP1 REVERT JUMPDEST PUSH0 PUSH20 0xFFFFFFFFFFFFFFFFFFFFFFFFFFFFFFFFFFFFFFFF DUP3 AND SWAP1 POP SWAP2 SWAP1 POP JUMP JUMPDEST PUSH0 PUSH2 0x4F1 DUP3 PUSH2 0x4C8 JUMP JUMPDEST SWAP1 POP SWAP2 SWAP1 POP JUMP JUMPDEST PUSH2 0x501 DUP2 PUSH2 0x4E7 JUMP JUMPDEST DUP2 EQ PUSH2 0x50B JUMPI PUSH0 DUP1 REVERT JUMPDEST POP JUMP JUMPDEST PUSH0 DUP2 CALLDATALOAD SWAP1 POP PUSH2 0x51C DUP2 PUSH2 0x4F8 JUMP JUMPDEST SWAP3 SWAP2 POP POP JUMP JUMPDEST PUSH0 DUP1 REVERT JUMPDEST PUSH0 DUP1 REVERT JUMPDEST PUSH0 DUP1 REVERT JUMPDEST PUSH0 DUP1 DUP4 PUSH1 0x1F DUP5 ADD SLT PUSH2 0x543 JUMPI PUSH2 0x542 PUSH2 0x522 JUMP JUMPDEST JUMPDEST DUP3 CALLDATALOAD SWAP1 POP PUSH8 0xFFFFFFFFFFFFFFFF DUP2 GT ISZERO PUSH2 0x560 JUMPI PUSH2 0x55F PUSH2 0x526 JUMP JUMPDEST JUMPDEST PUSH1 0x20 DUP4 ADD SWAP2 POP DUP4 PUSH1 0x1 DUP3 MUL DUP4 ADD GT ISZERO PUSH2 0x57C JUMPI PUSH2 0x57B PUSH2 0x52A JUMP JUMPDEST JUMPDEST SWAP3 POP SWAP3 SWAP1 POP JUMP JUMPDEST PUSH0 DUP1 PUSH0 DUP1 PUSH0 DUP1 PUSH0 PUSH1 0x80 DUP9 DUP11 SUB SLT ISZERO PUSH2 0x59E JUMPI PUSH2 0x59D PUSH2 0x4C0 JUMP JUMPDEST JUMPDEST PUSH0 PUSH2 0x5AB DUP11 DUP3 DUP12 ADD PUSH2 0x50E JUMP JUMPDEST SWAP8 POP POP PUSH1 0x20 DUP9 ADD CALLDATALOAD PUSH8 0xFFFFFFFFFFFFFFFF DUP2 GT ISZERO PUSH2 0x5CC JUMPI PUSH2 0x5CB PUSH2 0x4C4 JUMP JUMPDEST JUMPDEST PUSH2 0x5D8 DUP11 DUP3 DUP12 ADD PUSH2 0x52E JUMP JUMPDEST SWAP7 POP SWAP7 POP POP PUSH1 0x40 DUP9 ADD CALLDATALOAD PUSH8 0xFFFFFFFFFFFFFFFF DUP2 GT ISZERO PUSH2 0x5FB JUMPI PUSH2 0x5FA PUSH2 0x4C4 JUMP JUMPDEST JUMPDEST PUSH2 0x607 DUP11 DUP3 DUP12 ADD PUSH2 0x52E JUMP JUMPDEST SWAP5 POP SWAP5 POP POP PUSH1 0x60 DUP9 ADD CALLDATALOAD PUSH8 0xFFFFFFFFFFFFFFFF DUP2 GT ISZERO PUSH2 0x62A JUMPI PUSH2 0x629 PUSH2 0x4C4 JUMP JUMPDEST JUMPDEST PUSH2 0x636 DUP11 DUP3 DUP12 ADD PUSH2 0x52E JUMP JUMPDEST SWAP3 POP SWAP3 POP POP SWAP3 SWAP6 SWAP9 SWAP2 SWAP5 SWAP8 POP SWAP3 SWAP6 POP JUMP JUMPDEST PUSH0 PUSH1 0x20 DUP3 DUP5 SUB SLT ISZERO PUSH2 0x65C JUMPI PUSH2 0x65B PUSH2 0x4C0 JUMP JUMPDEST JUMPDEST PUSH0 PUSH2 0x669 DUP5 DUP3 DUP6 ADD PUSH2 0x50E JUMP JUMPDEST SWAP2 POP POP SWAP3 SWAP2 POP POP JUMP JUMPDEST PUSH0 DUP2 MLOAD SWAP1 POP SWAP2 SWAP1 POP JUMP JUMPDEST PUSH0 DUP3 DUP3 MSTORE PUSH1 0x20 DUP3 ADD SWAP1 POP SWAP3 SWAP2 POP POP JUMP JUMPDEST DUP3 DUP2 DUP4 MCOPY PUSH0 DUP4 DUP4 ADD MSTORE POP POP POP JUMP JUMPDEST PUSH0 PUSH1 0x1F NOT PUSH1 0x1F DUP4 ADD AND SWAP1 POP SWAP2 SWAP1 POP JUMP JUMPDEST PUSH0 PUSH2 0x6B4 DUP3 PUSH2 0x672 JUMP JUMPDEST PUSH2 0x6BE DUP2 DUP6 PUSH2 0x67C JUMP JUMPDEST SWAP4 POP PUSH2 0x6CE DUP2 DUP6 PUSH1 0x20 DUP7 ADD PUSH2 0x68C JUMP JUMPDEST PUSH2 0x6D7 DUP2 PUSH2 0x69A JUMP JUMPDEST DUP5 ADD SWAP2 POP POP SWAP3 SWAP2 POP POP JUMP JUMPDEST PUSH0 PUSH1 0x60 DUP4 ADD PUSH0 DUP4 ADD MLOAD DUP5 DUP3 SUB PUSH0 DUP7 ADD MSTORE PUSH2 0x6FC DUP3 DUP3 PUSH2 0x6AA JUMP JUMPDEST SWAP2 POP POP PUSH1 0x20 DUP4 ADD MLOAD DUP5 DUP3 SUB PUSH1 0x20 DUP7 ADD MSTORE PUSH2 0x716 DUP3 DUP3 PUSH2 0x6AA JUMP JUMPDEST SWAP2 POP POP PUSH1 0x40 DUP4 ADD MLOAD DUP5 DUP3 SUB PUSH1 0x40 DUP7 ADD MSTORE PUSH2 0x730 DUP3 DUP3 PUSH2 0x6AA JUMP JUMPDEST SWAP2 POP POP DUP1 SWAP2 POP POP SWAP3 SWAP2 POP POP JUMP JUMPDEST PUSH0 PUSH1 0x20 DUP3 ADD SWAP1 POP DUP2 DUP2 SUB PUSH0 DUP4 ADD MSTORE PUSH2 0x755 DUP2 DUP5 PUSH2 0x6E2 JUMP JUMPDEST SWAP1 POP SWAP3 SWAP2 POP POP JUMP JUMPDEST PUSH0 DUP1 PUSH0 DUP1 PUSH0 DUP1 PUSH1 0x60 DUP8 DUP10 SUB SLT ISZERO PUSH2 0x777 JUMPI PUSH2 0x776 PUSH2 0x4C0 JUMP JUMPDEST JUMPDEST PUSH0 DUP8 ADD CALLDATALOAD PUSH8 0xFFFFFFFFFFFFFFFF DUP2 GT ISZERO PUSH2 0x794 JUMPI PUSH2 0x793 PUSH2 0x4C4 JUMP JUMPDEST JUMPDEST PUSH2 0x7A0 DUP10 DUP3 DUP11 ADD PUSH2 0x52E JUMP JUMPDEST SWAP7 POP SWAP7 POP POP PUSH1 0x20 DUP8 ADD CALLDATALOAD PUSH8 0xFFFFFFFFFFFFFFFF DUP2 GT ISZERO PUSH2 0x7C3 JUMPI PUSH2 0x7C2 PUSH2 0x4C4 JUMP JUMPDEST JUMPDEST PUSH2 0x7CF DUP10 DUP3 DUP11 ADD PUSH2 0x52E JUMP JUMPDEST SWAP5 POP SWAP5 POP POP PUSH1 0x40 DUP8 ADD CALLDATALOAD PUSH8 0xFFFFFFFFFFFFFFFF DUP2 GT ISZERO PUSH2 0x7F2 JUMPI PUSH2 0x7F1 PUSH2 0x4C4 JUMP JUMPDEST JUMPDEST PUSH2 0x7FE DUP10 DUP3 DUP11 ADD PUSH2 0x52E JUMP JUMPDEST SWAP3 POP SWAP3 POP POP SWAP3 SWAP6 POP SWAP3 SWAP6 POP SWAP3 SWAP6 JUMP JUMPDEST PUSH0 DUP3 SWAP1 POP SWAP3 SWAP2 POP POP JUMP JUMPDEST PUSH32 0x4E487B7100000000000000000000000000000000000000000000000000000000 PUSH0 MSTORE PUSH1 0x41 PUSH1 0x4 MSTORE PUSH1 0x24 PUSH0 REVERT JUMPDEST PUSH32 0x4E487B7100000000000000000000000000000000000000000000000000000000 PUSH0 MSTORE PUSH1 0x22 PUSH1 0x4 MSTORE PUSH1 0x24 PUSH0 REVERT JUMPDEST PUSH0 PUSH1 0x2 DUP3 DIV SWAP1 POP PUSH1 0x1 DUP3 AND DUP1 PUSH2 0x888 JUMPI PUSH1 0x7F DUP3 AND SWAP2 POP JUMPDEST PUSH1 0x20 DUP3 LT DUP2 SUB PUSH2 0x89B JUMPI PUSH2 0x89A PUSH2 0x844 JUMP JUMPDEST JUMPDEST POP SWAP2 SWAP1 POP JUMP JUMPDEST PUSH0 DUP2 SWAP1 POP DUP2 PUSH0 MSTORE PUSH1 0x20 PUSH0 KECCAK256 SWAP1 POP SWAP2 SWAP1 POP JUMP JUMPDEST PUSH0 PUSH1 0x20 PUSH1 0x1F DUP4 ADD DIV SWAP1 POP SWAP2 SWAP1 POP JUMP JUMPDEST PUSH0 DUP3 DUP3 SHL SWAP1 POP SWAP3 SWAP2 POP POP JUMP JUMPDEST PUSH0 PUSH1 0x8 DUP4 MUL PUSH2 0x8FD PUSH32 0xFFFFFFFFFFFFFFFFFFFFFFFFFFFFFFFFFFFFFFFFFFFFFFFFFFFFFFFFFFFFFFFF DUP3 PUSH2 0x8C2 JUMP JUMPDEST PUSH2 0x907 DUP7 DUP4 PUSH2 0x8C2 JUMP JUMPDEST SWAP6 POP DUP1 NOT DUP5 AND SWAP4 POP DUP1 DUP7 AND DUP5 OR SWAP3 POP POP POP SWAP4 SWAP3 POP POP POP JUMP JUMPDEST PUSH0 DUP2 SWAP1 POP SWAP2 SWAP1 POP JUMP JUMPDEST PUSH0 DUP2 SWAP1 POP SWAP2 SWAP1 POP JUMP JUMPDEST PUSH0 PUSH2 0x94B PUSH2 0x946 PUSH2 0x941 DUP5 PUSH2 0x91F JUMP JUMPDEST PUSH2 0x928 JUMP JUMPDEST PUSH2 0x91F JUMP JUMPDEST SWAP1 POP SWAP2 SWAP1 POP JUMP JUMPDEST PUSH0 DUP2 SWAP1 POP SWAP2 SWAP1 POP JUMP JUMPDEST PUSH2 0x964 DUP4 PUSH2 0x931 JUMP JUMPDEST PUSH2 0x978 PUSH2 0x970 DUP3 PUSH2 0x952 JUMP JUMPDEST DUP5 DUP5 SLOAD PUSH2 0x8CE JUMP JUMPDEST DUP3 SSTORE POP POP POP POP JUMP JUMPDEST PUSH0 SWAP1 JUMP JUMPDEST PUSH2 0x98C PUSH2 0x980 JUMP JUMPDEST PUSH2 0x997 DUP2 DUP5 DUP5 PUSH2 0x95B JUMP JUMPDEST POP POP POP JUMP JUMPDEST JUMPDEST DUP2 DUP2 LT ISZERO PUSH2 0x9BA JUMPI PUSH2 0x9AF PUSH0 DUP3 PUSH2 0x984 JUMP JUMPDEST PUSH1 0x1 DUP2 ADD SWAP1 POP PUSH2 0x99D JUMP JUMPDEST POP POP JUMP JUMPDEST PUSH1 0x1F DUP3 GT ISZERO PUSH2 0x9FF JUMPI PUSH2 0x9D0 DUP2 PUSH2 0x8A1 JUMP JUMPDEST PUSH2 0x9D9 DUP5 PUSH2 0x8B3 JUMP JUMPDEST DUP2 ADD PUSH1 0x20 DUP6 LT ISZERO PUSH2 0x9E8 JUMPI DUP2 SWAP1 POP JUMPDEST PUSH2 0x9FC PUSH2 0x9F4 DUP6 PUSH2 0x8B3 JUMP JUMPDEST DUP4 ADD DUP3 PUSH2 0x99C JUMP JUMPDEST POP POP JUMPDEST POP POP POP JUMP JUMPDEST PUSH0 DUP3 DUP3 SHR SWAP1 POP SWAP3 SWAP2 POP POP JUMP JUMPDEST PUSH0 PUSH2 0xA1F PUSH0 NOT DUP5 PUSH1 0x8 MUL PUSH2 0xA04 JUMP JUMPDEST NOT DUP1 DUP4 AND SWAP2 POP POP SWAP3 SWAP2 POP POP JUMP JUMPDEST PUSH0 PUSH2 0xA37 DUP4 DUP4 PUSH2 0xA10 JUMP JUMPDEST SWAP2 POP DUP3 PUSH1 0x2 MUL DUP3 OR SWAP1 POP SWAP3 SWAP2 POP POP JUMP JUMPDEST PUSH2 0xA51 DUP4 DUP4 PUSH2 0x80D JUMP JUMPDEST PUSH8 0xFFFFFFFFFFFFFFFF DUP2 GT ISZERO PUSH2 0xA6A JUMPI PUSH2 0xA69 PUSH2 0x817 JUMP JUMPDEST JUMPDEST PUSH2 0xA74 DUP3 SLOAD PUSH2 0x871 JUMP JUMPDEST PUSH2 0xA7F DUP3 DUP3 DUP6 PUSH2 0x9BE JUMP JUMPDEST PUSH0 PUSH1 0x1F DUP4 GT PUSH1 0x1 DUP2 EQ PUSH2 0xAAC JUMPI PUSH0 DUP5 ISZERO PUSH2 0xA9A JUMPI DUP3 DUP8 ADD CALLDATALOAD SWAP1 POP JUMPDEST PUSH2 0xAA4 DUP6 DUP3 PUSH2 0xA2C JUMP JUMPDEST DUP7 SSTORE POP PUSH2 0xB0B JUMP JUMPDEST PUSH1 0x1F NOT DUP5 AND PUSH2 0xABA DUP7 PUSH2 0x8A1 JUMP JUMPDEST PUSH0 JUMPDEST DUP3 DUP2 LT ISZERO PUSH2 0xAE1 JUMPI DUP5 DUP10 ADD CALLDATALOAD DUP3 SSTORE PUSH1 0x1 DUP3 ADD SWAP2 POP PUSH1 0x20 DUP6 ADD SWAP5 POP PUSH1 0x20 DUP2 ADD SWAP1 POP PUSH2 0xABC JUMP JUMPDEST DUP7 DUP4 LT ISZERO PUSH2 0xAFE JUMPI DUP5 DUP10 ADD CALLDATALOAD PUSH2 0xAFA PUSH1 0x1F DUP10 AND DUP3 PUSH2 0xA10 JUMP JUMPDEST DUP4 SSTORE POP JUMPDEST PUSH1 0x1 PUSH1 0x2 DUP9 MUL ADD DUP9 SSTORE POP POP POP JUMPDEST POP POP POP POP POP POP POP JUMP JUMPDEST PUSH2 0xB1D DUP3 PUSH2 0x672 JUMP JUMPDEST PUSH8 0xFFFFFFFFFFFFFFFF DUP2 GT ISZERO PUSH2 0xB36 JUMPI PUSH2 0xB35 PUSH2 0x817 JUMP JUMPDEST JUMPDEST PUSH2 0xB40 DUP3 SLOAD PUSH2 0x871 JUMP JUMPDEST PUSH2 0xB4B DUP3 DUP3 DUP6 PUSH2 0x9BE JUMP JUMPDEST PUSH0 PUSH1 0x20 SWAP1 POP PUSH1 0x1F DUP4 GT PUSH1 0x1 DUP2 EQ PUSH2 0xB7C JUMPI PUSH0 DUP5 ISZERO PUSH2 0xB6A JUMPI DUP3 DUP8 ADD MLOAD SWAP1 POP JUMPDEST PUSH2 0xB74 DUP6 DUP3 PUSH2 0xA2C JUMP JUMPDEST DUP7 SSTORE POP PUSH2 0xBDB JUMP JUMPDEST PUSH1 0x1F NOT DUP5 AND PUSH2 0xB8A DUP7 PUSH2 0x8A1 JUMP JUMPDEST PUSH0 JUMPDEST DUP3 DUP2 LT ISZERO PUSH2 0xBB1 JUMPI DUP5 DUP10 ADD MLOAD DUP3 SSTORE PUSH1 0x1 DUP3 ADD SWAP2 POP PUSH1 0x20 DUP6 ADD SWAP5 POP PUSH1 0x20 DUP2 ADD SWAP1 POP PUSH2 0xB8C JUMP JUMPDEST DUP7 DUP4 LT ISZERO PUSH2 0xBCE JUMPI DUP5 DUP10 ADD MLOAD PUSH2 0xBCA PUSH1 0x1F DUP10 AND DUP3 PUSH2 0xA10 JUMP JUMPDEST DUP4 SSTORE POP JUMPDEST PUSH1 0x1 PUSH1 0x2 DUP9 MUL ADD DUP9 SSTORE POP POP POP JUMPDEST POP POP POP POP POP POP JUMP INVALID LOG2 PUSH5 0x6970667358 0x22 SLT KECCAK256 0xB5 MULMOD 0xC2 DUP6 0x23 0xE3 ADDRESS CALL 0xCA 0xEB PUSH18 0x6268375F932E48FD1F02B36D14066574625B EXP PC PUSH25 0x64736F6C634300081A00330000000000000000000000000000 "
				},
				"gasEstimates": {
					"creation": {
						"codeDepositCost": "619400",
						"executionCost": "649",
						"totalCost": "620049"
					},
					"external": {
						"add(string,string,string)": "infinite",
						"get(address)": "infinite",
						"update(address,string,string,string)": "infinite"
					}
				},
				"methodIdentifiers": {
					"add(string,string,string)": "f034d6b1",
					"get(address)": "c2bc2efc",
					"update(address,string,string,string)": "31445f17"
				}
			},
			"storageLayout": {
				"storage": [
					{
						"astId": 7,
						"contract": "contracts/Profiles.sol:Profiles",
						"label": "profiles",
						"offset": 0,
						"slot": "0",
						"type": "t_mapping(t_address,t_struct(Profile)88_storage)"
					}
				],
				"types": {
					"t_address": {
						"encoding": "inplace",
						"label": "address",
						"numberOfBytes": "20"
					},
					"t_mapping(t_address,t_struct(Profile)88_storage)": {
						"encoding": "mapping",
						"key": "t_address",
						"label": "mapping(address => struct Profile)",
						"numberOfBytes": "32",
						"value": "t_struct(Profile)88_storage"
					},
					"t_string_storage": {
						"encoding": "bytes",
						"label": "string",
						"numberOfBytes": "32"
					},
					"t_struct(Profile)88_storage": {
						"encoding": "inplace",
						"label": "struct Profile",
						"members": [
							{
								"astId": 83,
								"contract": "contracts/Profiles.sol:Profiles",
								"label": "name",
								"offset": 0,
								"slot": "0",
								"type": "t_string_storage"
							},
							{
								"astId": 85,
								"contract": "contracts/Profiles.sol:Profiles",
								"label": "email",
								"offset": 0,
								"slot": "1",
								"type": "t_string_storage"
							},
							{
								"astId": 87,
								"contract": "contracts/Profiles.sol:Profiles",
								"label": "phone",
								"offset": 0,
								"slot": "2",
								"type": "t_string_storage"
							}
						],
						"numberOfBytes": "96"
					}
				}
			},
			"userdoc": {
				"kind": "user",
				"methods": {},
				"version": 1
			}
		}
	}
}